{
  "_format": "hh-sol-artifact-1",
  "contractName": "Admin",
  "sourceName": "contracts/mock/Admin.sol",
  "abi": [
    {
      "inputs": [
        {
          "internalType": "address",
          "name": "_hopeToken",
          "type": "address"
        }
      ],
      "stateMutability": "nonpayable",
      "type": "constructor"
    },
    {
      "inputs": [
        {
          "internalType": "uint256",
          "name": "amount",
          "type": "uint256"
        }
      ],
      "name": "burn",
      "outputs": [],
      "stateMutability": "nonpayable",
      "type": "function"
    },
    {
      "inputs": [
        {
          "internalType": "address",
          "name": "to",
          "type": "address"
        },
        {
          "internalType": "uint256",
          "name": "amount",
          "type": "uint256"
        }
      ],
      "name": "mint",
      "outputs": [],
      "stateMutability": "nonpayable",
      "type": "function"
    }
  ],
  "bytecode": "0x60803461007457601f61022938819003918201601f19168301916001600160401b038311848410176100795780849260209460405283398101031261007457516001600160a01b0381169081900361007457600080546001600160a01b03191691909117905560405161019990816100908239f35b600080fd5b634e487b7160e01b600052604160045260246000fdfe608080604052600436101561001357600080fd5b600090813560e01c90816340c10f19146100b657506342966c681461003757600080fd5b346100a55760203660031901126100a5578073ffffffffffffffffffffffffffffffffffffffff815416803b156100b357818091602460405180948193630852cd8d60e31b835260043560048401525af180156100a8576100955750f35b61009e90610139565b6100a55780f35b80fd5b6040513d84823e3d90fd5b50fd5b905034610135576040366003190112610135578160043573ffffffffffffffffffffffffffffffffffffffff8082168092036101315782541690813b1561013157838381936044936340c10f1960e01b8452600484015260243560248401525af180156100a857610125575080f35b61012e90610139565b80f35b8280fd5b5080fd5b67ffffffffffffffff811161014d57604052565b634e487b7160e01b600052604160045260246000fdfea26469706673582212201415ef852b15cb0a64abc15a5710d8c06f06be2573aebc5caf904ff9668a5ae164736f6c63430008110033",
  "linkReferences": {},
  "deployedLinkReferences": {}
}