{
  "_format": "hh-sol-artifact-1",
  "contractName": "MyToken",
  "sourceName": "contracts/mock/MyToken.sol",
  "abi": [
    {
      "anonymous": false,
      "inputs": [
        {
          "indexed": true,
          "internalType": "address",
          "name": "owner",
          "type": "address"
        },
        {
          "indexed": true,
          "internalType": "address",
          "name": "spender",
          "type": "address"
        },
        {
          "indexed": false,
          "internalType": "uint256",
          "name": "value",
          "type": "uint256"
        }
      ],
      "name": "Approval",
      "type": "event"
    },
    {
      "anonymous": false,
      "inputs": [
        {
          "indexed": false,
          "internalType": "uint8",
          "name": "version",
          "type": "uint8"
        }
      ],
      "name": "Initialized",
      "type": "event"
    },
    {
      "anonymous": false,
      "inputs": [
        {
          "indexed": true,
          "internalType": "address",
          "name": "previousOwner",
          "type": "address"
        },
        {
          "indexed": true,
          "internalType": "address",
          "name": "newOwner",
          "type": "address"
        }
      ],
      "name": "OwnershipTransferStarted",
      "type": "event"
    },
    {
      "anonymous": false,
      "inputs": [
        {
          "indexed": true,
          "internalType": "address",
          "name": "previousOwner",
          "type": "address"
        },
        {
          "indexed": true,
          "internalType": "address",
          "name": "newOwner",
          "type": "address"
        }
      ],
      "name": "OwnershipTransferred",
      "type": "event"
    },
    {
      "anonymous": false,
      "inputs": [
        {
          "indexed": true,
          "internalType": "address",
          "name": "from",
          "type": "address"
        },
        {
          "indexed": true,
          "internalType": "address",
          "name": "to",
          "type": "address"
        },
        {
          "indexed": false,
          "internalType": "uint256",
          "name": "value",
          "type": "uint256"
        }
      ],
      "name": "Transfer",
      "type": "event"
    },
    {
      "inputs": [],
      "name": "acceptOwnership",
      "outputs": [],
      "stateMutability": "nonpayable",
      "type": "function"
    },
    {
      "inputs": [
        {
          "internalType": "address",
          "name": "owner",
          "type": "address"
        },
        {
          "internalType": "address",
          "name": "spender",
          "type": "address"
        }
      ],
      "name": "allowance",
      "outputs": [
        {
          "internalType": "uint256",
          "name": "",
          "type": "uint256"
        }
      ],
      "stateMutability": "view",
      "type": "function"
    },
    {
      "inputs": [
        {
          "internalType": "address",
          "name": "spender",
          "type": "address"
        },
        {
          "internalType": "uint256",
          "name": "amount",
          "type": "uint256"
        }
      ],
      "name": "approve",
      "outputs": [
        {
          "internalType": "bool",
          "name": "",
          "type": "bool"
        }
      ],
      "stateMutability": "nonpayable",
      "type": "function"
    },
    {
      "inputs": [
        {
          "internalType": "address",
          "name": "account",
          "type": "address"
        }
      ],
      "name": "balanceOf",
      "outputs": [
        {
          "internalType": "uint256",
          "name": "",
          "type": "uint256"
        }
      ],
      "stateMutability": "view",
      "type": "function"
    },
    {
      "inputs": [],
      "name": "decimals",
      "outputs": [
        {
          "internalType": "uint8",
          "name": "",
          "type": "uint8"
        }
      ],
      "stateMutability": "view",
      "type": "function"
    },
    {
      "inputs": [
        {
          "internalType": "address",
          "name": "spender",
          "type": "address"
        },
        {
          "internalType": "uint256",
          "name": "subtractedValue",
          "type": "uint256"
        }
      ],
      "name": "decreaseAllowance",
      "outputs": [
        {
          "internalType": "bool",
          "name": "",
          "type": "bool"
        }
      ],
      "stateMutability": "nonpayable",
      "type": "function"
    },
    {
      "inputs": [
        {
          "internalType": "address",
          "name": "spender",
          "type": "address"
        },
        {
          "internalType": "uint256",
          "name": "addedValue",
          "type": "uint256"
        }
      ],
      "name": "increaseAllowance",
      "outputs": [
        {
          "internalType": "bool",
          "name": "",
          "type": "bool"
        }
      ],
      "stateMutability": "nonpayable",
      "type": "function"
    },
    {
      "inputs": [
        {
          "internalType": "string",
          "name": "_name",
          "type": "string"
        },
        {
          "internalType": "string",
          "name": "_symbol",
          "type": "string"
        },
        {
          "internalType": "uint256",
          "name": "initialSupply",
          "type": "uint256"
        },
        {
          "internalType": "uint8",
          "name": "_decimals",
          "type": "uint8"
        }
      ],
      "name": "initialize",
      "outputs": [],
      "stateMutability": "nonpayable",
      "type": "function"
    },
    {
      "inputs": [],
      "name": "name",
      "outputs": [
        {
          "internalType": "string",
          "name": "",
          "type": "string"
        }
      ],
      "stateMutability": "view",
      "type": "function"
    },
    {
      "inputs": [],
      "name": "owner",
      "outputs": [
        {
          "internalType": "address",
          "name": "",
          "type": "address"
        }
      ],
      "stateMutability": "view",
      "type": "function"
    },
    {
      "inputs": [],
      "name": "pendingOwner",
      "outputs": [
        {
          "internalType": "address",
          "name": "",
          "type": "address"
        }
      ],
      "stateMutability": "view",
      "type": "function"
    },
    {
      "inputs": [],
      "name": "renounceOwnership",
      "outputs": [],
      "stateMutability": "nonpayable",
      "type": "function"
    },
    {
      "inputs": [],
      "name": "symbol",
      "outputs": [
        {
          "internalType": "string",
          "name": "",
          "type": "string"
        }
      ],
      "stateMutability": "view",
      "type": "function"
    },
    {
      "inputs": [],
      "name": "totalSupply",
      "outputs": [
        {
          "internalType": "uint256",
          "name": "",
          "type": "uint256"
        }
      ],
      "stateMutability": "view",
      "type": "function"
    },
    {
      "inputs": [
        {
          "internalType": "address",
          "name": "to",
          "type": "address"
        },
        {
          "internalType": "uint256",
          "name": "amount",
          "type": "uint256"
        }
      ],
      "name": "transfer",
      "outputs": [
        {
          "internalType": "bool",
          "name": "",
          "type": "bool"
        }
      ],
      "stateMutability": "nonpayable",
      "type": "function"
    },
    {
      "inputs": [
        {
          "internalType": "address",
          "name": "from",
          "type": "address"
        },
        {
          "internalType": "address",
          "name": "to",
          "type": "address"
        },
        {
          "internalType": "uint256",
          "name": "amount",
          "type": "uint256"
        }
      ],
      "name": "transferFrom",
      "outputs": [
        {
          "internalType": "bool",
          "name": "",
          "type": "bool"
        }
      ],
      "stateMutability": "nonpayable",
      "type": "function"
    },
    {
      "inputs": [
        {
          "internalType": "address",
          "name": "newOwner",
          "type": "address"
        }
      ],
      "name": "transferOwnership",
      "outputs": [],
      "stateMutability": "nonpayable",
      "type": "function"
    }
  ],
  "bytecode": "0x60808060405234610016576110fc908161001c8239f35b600080fdfe60806040908082526004918236101561001757600080fd5b600092833560e01c92836306fdde0314610b3e57508263095ea7b314610b1457826318160ddd14610af557826323b872dd14610a2b578263313ce56714610a0957826339509351146109ba57826341658f3c146104c057826370a0823114610489578263715018a61461042c57826379ba5097146103a25782638da5cb5b1461037a57826395d89b4114610299578263a457c2d7146101f557508163a9059cbb146101c4578163dd62ed3e1461017b578163e30c39781461014f575063f2fde38b146100e257600080fd5b3461014c57602036600319011261014c576100fb610c2f565b610103610d3f565b6001600160a01b0380911690816001600160a01b03196097541617609755606554167f38d16b8cac22d99fc7c124b9cd0de2d3fa1faef420bfe791d8c362d765e227008380a380f35b80fd5b9050346101775781600319360112610177576020906001600160a01b03609754169051908152f35b5080fd5b90503461017757806003193601126101775780602092610199610c2f565b6101a1610c4a565b6001600160a01b0391821683526034865283832091168252845220549051908152f35b9050346101775780600319360112610177576020906101ee6101e4610c2f565b6024359033610df4565b5160018152f35b833461014c578260031936011261014c5761020e610c2f565b91836024359233815260346020528181206001600160a01b0386168252602052205490828210610248576020856101ee8585038733610f64565b608490602086519162461bcd60e51b8352820152602560248201527f45524332303a2064656372656173656420616c6c6f77616e63652062656c6f77604482015264207a65726f60d81b6064820152fd5b838234610177578160031936011261017757805190826037546102bb81610d97565b8085529160019180831690811561035257506001146102f5575b5050506102e7826102f1940383610c60565b5191829182610be6565b0390f35b9450603785527f42a7b7dd785cd69714a189dffb3fd7d7174edc9ece837694ce50f7078f7c31ae5b82861061033a575050506102e78260206102f195820101946102d5565b8054602087870181019190915290950194810161031d565b6102f19750869350602092506102e794915060ff191682840152151560051b820101946102d5565b8382346101775781600319360112610177576020906001600160a01b03606554169051908152f35b915034610428578260031936011261042857336001600160a01b0360975416036103d357826103d033610cef565b80f35b906020608492519162461bcd60e51b8352820152602960248201527f4f776e61626c6532537465703a2063616c6c6572206973206e6f7420746865206044820152683732bb9037bbb732b960b91b6064820152fd5b8280fd5b833461014c578060031936011261014c57610445610d3f565b806001600160a01b0380198060975416609755606554908116606555167f8be0079c531659141344cd1fd0a4f28419497f9722a3daafe3b4186f6b6457e08280a380f35b83823461017757602036600319011261017757806020926001600160a01b036104b0610c2f565b1681526033845220549051908152f35b9150346104285760803660031901126104285767ffffffffffffffff82358181116109b6576104f29036908501610c98565b926024358281116109b25761050a9036908301610c98565b916064359160ff958684168094036109ae57875492878460081c1615958680976109a2575b801561098c575b156109235761058460019960ff1996898d8d8a8416179055610912575b5061056c818d5460081c1661056781611066565b611066565b61057533610cef565b8b5460081c1661056781611066565b82518281116108ff5780610599603654610d97565b94601f9586811161088e575b506020908d87841160011461080f5792610804575b5050600019600383901b1c1916908a1b176036555b80519182116107f15781906105e5603754610d97565b848111610783575b50602090848311600114610704578b926106f9575b5050600019600383901b1c191690881b176037555b33156106b757505060443561062e81603554610dd1565b60355533875260336020528487208181540190558451908152867fddf252ad1be2c89b69c2b068fc378daa952ba7f163c4a11628f55a4df523b3ef60203393a360c954161760c95561067e578280f35b825461ff0019168355519081527f7f26b83ff96e1f2b6a682f133852f6798a09c465da95921460cefb384740249890602090a138808280f35b60649250602086519262461bcd60e51b845283015260248201527f45524332303a206d696e7420746f20746865207a65726f2061646472657373006044820152fd5b015190503880610602565b60378c528a93507f42a7b7dd785cd69714a189dffb3fd7d7174edc9ece837694ce50f7078f7c31ae9190601f1984168d5b81811061076b57508411610752575b505050811b01603755610617565b015160001960f88460031b161c19169055388080610744565b8284015185558d969094019360209384019301610735565b90915060378b527f42a7b7dd785cd69714a189dffb3fd7d7174edc9ece837694ce50f7078f7c31ae8480850160051c820192602086106107e8575b918c91869594930160051c01915b8281106107da5750506105ed565b8d81558594508c91016107cc565b925081926107be565b634e487b7160e01b8a526041845260248afd5b0151905038806105ba565b91908d9450601f198416603684527f4a11f94e20a93c79f6ec743a1954ec4fc2c08429ae2122118bf234b2185c81b8935b8181106108765750841161085d575b505050811b016036556105cf565b015160001960f88460031b161c1916905538808061084f565b8284015185558f969094019360209384019301610840565b90915060368d527f4a11f94e20a93c79f6ec743a1954ec4fc2c08429ae2122118bf234b2185c81b88680850160051c820192602086106108f6575b859493910160051c909101908d908f5b8382106108e8575050506105a5565b81558594508e91018f6108d9565b925081926108c9565b634e487b7160e01b8b526041855260248bfd5b61ffff1916610101178c5538610553565b875162461bcd60e51b8152602081860152602e60248201527f496e697469616c697a61626c653a20636f6e747261637420697320616c72656160448201527f647920696e697469616c697a65640000000000000000000000000000000000006064820152608490fd5b50303b1580156105365750600189861614610536565b5060018986161061052f565b8780fd5b8580fd5b8480fd5b8382346101775780600319360112610177576101ee602092610a026109dd610c2f565b91338152603486528481206001600160a01b0384168252865284602435912054610dd1565b9033610f64565b83823461017757816003193601126101775760209060ff60c954169051908152f35b83903461017757606036600319011261017757610a46610c2f565b610a4e610c4a565b9184604435946001600160a01b038416815260346020528181203382526020522054906000198203610a89575b6020866101ee878787610df4565b848210610ab25750918391610aa7602096956101ee95033383610f64565b919394819350610a7b565b606490602087519162461bcd60e51b8352820152601d60248201527f45524332303a20696e73756666696369656e7420616c6c6f77616e63650000006044820152fd5b8382346101775781600319360112610177576020906035549051908152f35b8382346101775780600319360112610177576020906101ee610b34610c2f565b6024359033610f64565b9250503461042857826003193601126104285782603654610b5e81610d97565b808552916001918083169081156103525750600114610b89575050506102e7826102f1940383610c60565b9450603685527f4a11f94e20a93c79f6ec743a1954ec4fc2c08429ae2122118bf234b2185c81b85b828610610bce575050506102e78260206102f195820101946102d5565b80546020878701810191909152909501948101610bb1565b6020808252825181830181905290939260005b828110610c1b57505060409293506000838284010152601f8019910116010190565b818101860151848201604001528501610bf9565b600435906001600160a01b0382168203610c4557565b600080fd5b602435906001600160a01b0382168203610c4557565b90601f8019910116810190811067ffffffffffffffff821117610c8257604052565b634e487b7160e01b600052604160045260246000fd5b81601f82011215610c455780359067ffffffffffffffff8211610c825760405192610ccd601f8401601f191660200185610c60565b82845260208383010111610c4557816000926020809301838601378301015290565b6001600160a01b03199081609754166097556065546001600160a01b038092168093821617606555167f8be0079c531659141344cd1fd0a4f28419497f9722a3daafe3b4186f6b6457e0600080a3565b6001600160a01b03606554163303610d5357565b606460405162461bcd60e51b815260206004820152602060248201527f4f776e61626c653a2063616c6c6572206973206e6f7420746865206f776e65726044820152fd5b90600182811c92168015610dc7575b6020831014610db157565b634e487b7160e01b600052602260045260246000fd5b91607f1691610da6565b91908201809211610dde57565b634e487b7160e01b600052601160045260246000fd5b6001600160a01b03809116918215610f115716918215610ec05760008281526033602052604081205491808310610e6c57604082827fddf252ad1be2c89b69c2b068fc378daa952ba7f163c4a11628f55a4df523b3ef95876020965260338652038282205586815220818154019055604051908152a3565b60405162461bcd60e51b815260206004820152602660248201527f45524332303a207472616e7366657220616d6f756e7420657863656564732062604482015265616c616e636560d01b6064820152608490fd5b60405162461bcd60e51b815260206004820152602360248201527f45524332303a207472616e7366657220746f20746865207a65726f206164647260448201526265737360e81b6064820152608490fd5b60405162461bcd60e51b815260206004820152602560248201527f45524332303a207472616e736665722066726f6d20746865207a65726f206164604482015264647265737360d81b6064820152608490fd5b6001600160a01b038091169182156110155716918215610fc55760207f8c5be1e5ebec7d5bd14f71427d1e84f3dd0314c0f7b2291e5b200ac8c7c3b925918360005260348252604060002085600052825280604060002055604051908152a3565b60405162461bcd60e51b815260206004820152602260248201527f45524332303a20617070726f766520746f20746865207a65726f206164647265604482015261737360f01b6064820152608490fd5b60405162461bcd60e51b8152602060048201526024808201527f45524332303a20617070726f76652066726f6d20746865207a65726f206164646044820152637265737360e01b6064820152608490fd5b1561106d57565b60405162461bcd60e51b815260206004820152602b60248201527f496e697469616c697a61626c653a20636f6e7472616374206973206e6f74206960448201526a6e697469616c697a696e6760a81b6064820152608490fdfea2646970667358221220e4b6077f22e84ac29578abacdfe90e390cbab0c5f48886a2df0c5fcf5e7d05ab64736f6c63430008110033",
  "linkReferences": {},
  "deployedLinkReferences": {}
}