{
  "_format": "hh-sol-artifact-1",
  "contractName": "FeeDistributor",
  "sourceName": "contracts/feeDistributor/FeeDistributor.sol",
  "abi": [
    {
      "inputs": [],
      "stateMutability": "nonpayable",
      "type": "constructor"
    },
    {
      "anonymous": false,
      "inputs": [
        {
          "indexed": false,
          "internalType": "uint256",
          "name": "time",
          "type": "uint256"
        },
        {
          "indexed": false,
          "internalType": "uint256",
          "name": "tokens",
          "type": "uint256"
        }
      ],
      "name": "CheckpointToken",
      "type": "event"
    },
    {
      "anonymous": false,
      "inputs": [
        {
          "indexed": true,
          "internalType": "address",
          "name": "recipient",
          "type": "address"
        },
        {
          "indexed": false,
          "internalType": "uint256",
          "name": "amount",
          "type": "uint256"
        },
        {
          "indexed": false,
          "internalType": "uint256",
          "name": "claimEpoch",
          "type": "uint256"
        },
        {
          "indexed": false,
          "internalType": "uint256",
          "name": "maxEpoch",
          "type": "uint256"
        }
      ],
      "name": "Claimed",
      "type": "event"
    },
    {
      "anonymous": false,
      "inputs": [
        {
          "indexed": false,
          "internalType": "uint8",
          "name": "version",
          "type": "uint8"
        }
      ],
      "name": "Initialized",
      "type": "event"
    },
    {
      "anonymous": false,
      "inputs": [
        {
          "indexed": true,
          "internalType": "address",
          "name": "previousOwner",
          "type": "address"
        },
        {
          "indexed": true,
          "internalType": "address",
          "name": "newOwner",
          "type": "address"
        }
      ],
      "name": "OwnershipTransferStarted",
      "type": "event"
    },
    {
      "anonymous": false,
      "inputs": [
        {
          "indexed": true,
          "internalType": "address",
          "name": "previousOwner",
          "type": "address"
        },
        {
          "indexed": true,
          "internalType": "address",
          "name": "newOwner",
          "type": "address"
        }
      ],
      "name": "OwnershipTransferred",
      "type": "event"
    },
    {
      "anonymous": false,
      "inputs": [
        {
          "indexed": false,
          "internalType": "address",
          "name": "account",
          "type": "address"
        }
      ],
      "name": "Paused",
      "type": "event"
    },
    {
      "anonymous": false,
      "inputs": [
        {
          "indexed": true,
          "internalType": "address",
          "name": "token",
          "type": "address"
        },
        {
          "indexed": true,
          "internalType": "address",
          "name": "emergencyReturn",
          "type": "address"
        },
        {
          "indexed": false,
          "internalType": "uint256",
          "name": "amount",
          "type": "uint256"
        }
      ],
      "name": "RecoverBalance",
      "type": "event"
    },
    {
      "anonymous": false,
      "inputs": [
        {
          "indexed": false,
          "internalType": "bool",
          "name": "toggleFlag",
          "type": "bool"
        }
      ],
      "name": "ToggleAllowCheckpointToken",
      "type": "event"
    },
    {
      "anonymous": false,
      "inputs": [
        {
          "indexed": false,
          "internalType": "address",
          "name": "account",
          "type": "address"
        }
      ],
      "name": "Unpaused",
      "type": "event"
    },
    {
      "inputs": [],
      "name": "acceptOwnership",
      "outputs": [],
      "stateMutability": "nonpayable",
      "type": "function"
    },
    {
      "inputs": [
        {
          "internalType": "uint256",
          "name": "amount",
          "type": "uint256"
        }
      ],
      "name": "burn",
      "outputs": [
        {
          "internalType": "bool",
          "name": "",
          "type": "bool"
        }
      ],
      "stateMutability": "nonpayable",
      "type": "function"
    },
    {
      "inputs": [],
      "name": "canCheckpointToken",
      "outputs": [
        {
          "internalType": "bool",
          "name": "",
          "type": "bool"
        }
      ],
      "stateMutability": "view",
      "type": "function"
    },
    {
      "inputs": [],
      "name": "checkpointToken",
      "outputs": [],
      "stateMutability": "nonpayable",
      "type": "function"
    },
    {
      "inputs": [],
      "name": "checkpointTotalSupply",
      "outputs": [],
      "stateMutability": "nonpayable",
      "type": "function"
    },
    {
      "inputs": [
        {
          "internalType": "address",
          "name": "_addr",
          "type": "address"
        }
      ],
      "name": "claim",
      "outputs": [
        {
          "internalType": "uint256",
          "name": "",
          "type": "uint256"
        }
      ],
      "stateMutability": "nonpayable",
      "type": "function"
    },
    {
      "inputs": [
        {
          "internalType": "address[]",
          "name": "_receivers",
          "type": "address[]"
        }
      ],
      "name": "claimMany",
      "outputs": [
        {
          "internalType": "uint256",
          "name": "",
          "type": "uint256"
        }
      ],
      "stateMutability": "nonpayable",
      "type": "function"
    },
    {
      "inputs": [
        {
          "internalType": "address",
          "name": "_addr",
          "type": "address"
        }
      ],
      "name": "claimableToken",
      "outputs": [
        {
          "internalType": "uint256",
          "name": "",
          "type": "uint256"
        }
      ],
      "stateMutability": "nonpayable",
      "type": "function"
    },
    {
      "inputs": [],
      "name": "emergencyReturn",
      "outputs": [
        {
          "internalType": "address",
          "name": "",
          "type": "address"
        }
      ],
      "stateMutability": "view",
      "type": "function"
    },
    {
      "inputs": [
        {
          "internalType": "address",
          "name": "_votingEscrow",
          "type": "address"
        },
        {
          "internalType": "uint256",
          "name": "_startTime",
          "type": "uint256"
        },
        {
          "internalType": "address",
          "name": "_token",
          "type": "address"
        },
        {
          "internalType": "address",
          "name": "_stHOPE",
          "type": "address"
        },
        {
          "internalType": "address",
          "name": "_emergencyReturn",
          "type": "address"
        }
      ],
      "name": "initialize",
      "outputs": [],
      "stateMutability": "nonpayable",
      "type": "function"
    },
    {
      "inputs": [],
      "name": "lastTokenTime",
      "outputs": [
        {
          "internalType": "uint256",
          "name": "",
          "type": "uint256"
        }
      ],
      "stateMutability": "view",
      "type": "function"
    },
    {
      "inputs": [],
      "name": "owner",
      "outputs": [
        {
          "internalType": "address",
          "name": "",
          "type": "address"
        }
      ],
      "stateMutability": "view",
      "type": "function"
    },
    {
      "inputs": [],
      "name": "pause",
      "outputs": [],
      "stateMutability": "nonpayable",
      "type": "function"
    },
    {
      "inputs": [],
      "name": "paused",
      "outputs": [
        {
          "internalType": "bool",
          "name": "",
          "type": "bool"
        }
      ],
      "stateMutability": "view",
      "type": "function"
    },
    {
      "inputs": [],
      "name": "pendingOwner",
      "outputs": [
        {
          "internalType": "address",
          "name": "",
          "type": "address"
        }
      ],
      "stateMutability": "view",
      "type": "function"
    },
    {
      "inputs": [],
      "name": "recoverBalance",
      "outputs": [
        {
          "internalType": "bool",
          "name": "",
          "type": "bool"
        }
      ],
      "stateMutability": "nonpayable",
      "type": "function"
    },
    {
      "inputs": [],
      "name": "renounceOwnership",
      "outputs": [],
      "stateMutability": "nonpayable",
      "type": "function"
    },
    {
      "inputs": [
        {
          "internalType": "address",
          "name": "_addr",
          "type": "address"
        }
      ],
      "name": "setEmergencyReturn",
      "outputs": [],
      "stateMutability": "nonpayable",
      "type": "function"
    },
    {
      "inputs": [],
      "name": "stHOPE",
      "outputs": [
        {
          "internalType": "address",
          "name": "",
          "type": "address"
        }
      ],
      "stateMutability": "view",
      "type": "function"
    },
    {
      "inputs": [],
      "name": "startTime",
      "outputs": [
        {
          "internalType": "uint256",
          "name": "",
          "type": "uint256"
        }
      ],
      "stateMutability": "view",
      "type": "function"
    },
    {
      "inputs": [],
      "name": "timeCursor",
      "outputs": [
        {
          "internalType": "uint256",
          "name": "",
          "type": "uint256"
        }
      ],
      "stateMutability": "view",
      "type": "function"
    },
    {
      "inputs": [
        {
          "internalType": "address",
          "name": "",
          "type": "address"
        }
      ],
      "name": "timeCursorOf",
      "outputs": [
        {
          "internalType": "uint256",
          "name": "",
          "type": "uint256"
        }
      ],
      "stateMutability": "view",
      "type": "function"
    },
    {
      "inputs": [],
      "name": "toggleAllowCheckpointToken",
      "outputs": [],
      "stateMutability": "nonpayable",
      "type": "function"
    },
    {
      "inputs": [],
      "name": "token",
      "outputs": [
        {
          "internalType": "address",
          "name": "",
          "type": "address"
        }
      ],
      "stateMutability": "view",
      "type": "function"
    },
    {
      "inputs": [],
      "name": "tokenLastBalance",
      "outputs": [
        {
          "internalType": "uint256",
          "name": "",
          "type": "uint256"
        }
      ],
      "stateMutability": "view",
      "type": "function"
    },
    {
      "inputs": [
        {
          "internalType": "uint256",
          "name": "",
          "type": "uint256"
        }
      ],
      "name": "tokensPerWeek",
      "outputs": [
        {
          "internalType": "uint256",
          "name": "",
          "type": "uint256"
        }
      ],
      "stateMutability": "view",
      "type": "function"
    },
    {
      "inputs": [
        {
          "internalType": "address",
          "name": "newOwner",
          "type": "address"
        }
      ],
      "name": "transferOwnership",
      "outputs": [],
      "stateMutability": "nonpayable",
      "type": "function"
    },
    {
      "inputs": [],
      "name": "unpause",
      "outputs": [],
      "stateMutability": "nonpayable",
      "type": "function"
    },
    {
      "inputs": [
        {
          "internalType": "address",
          "name": "",
          "type": "address"
        }
      ],
      "name": "userEpochOf",
      "outputs": [
        {
          "internalType": "uint256",
          "name": "",
          "type": "uint256"
        }
      ],
      "stateMutability": "view",
      "type": "function"
    },
    {
      "inputs": [
        {
          "internalType": "address",
          "name": "_user",
          "type": "address"
        },
        {
          "internalType": "uint256",
          "name": "_timestamp",
          "type": "uint256"
        }
      ],
      "name": "veForAt",
      "outputs": [
        {
          "internalType": "uint256",
          "name": "",
          "type": "uint256"
        }
      ],
      "stateMutability": "view",
      "type": "function"
    },
    {
      "inputs": [
        {
          "internalType": "address",
          "name": "_user",
          "type": "address"
        },
        {
          "internalType": "uint256",
          "name": "_timestamp",
          "type": "uint256"
        }
      ],
      "name": "vePrecentageForAt",
      "outputs": [
        {
          "internalType": "uint256",
          "name": "",
          "type": "uint256"
        }
      ],
      "stateMutability": "view",
      "type": "function"
    },
    {
      "inputs": [
        {
          "internalType": "uint256",
          "name": "",
          "type": "uint256"
        }
      ],
      "name": "veSupply",
      "outputs": [
        {
          "internalType": "uint256",
          "name": "",
          "type": "uint256"
        }
      ],
      "stateMutability": "view",
      "type": "function"
    },
    {
      "inputs": [],
      "name": "votingEscrow",
      "outputs": [
        {
          "internalType": "address",
          "name": "",
          "type": "address"
        }
      ],
      "stateMutability": "view",
      "type": "function"
    }
  ],
  "bytecode": "0x608060405234801561001057600080fd5b5061001961001e565b6100de565b600054610100900460ff161561008a5760405162461bcd60e51b815260206004820152602760248201527f496e697469616c697a61626c653a20636f6e747261637420697320696e697469604482015266616c697a696e6760c81b606482015260840160405180910390fd5b60005460ff90811610156100dc576000805460ff191660ff9081179091556040519081527f7f26b83ff96e1f2b6a682f133852f6798a09c465da95921460cefb38474024989060200160405180910390a15b565b612043806100ed6000396000f3fe608060405234801561001057600080fd5b50600436106101fb5760003560e01c80638736659b1161011a578063b26bb8c4116100ad578063e30c39781161007c578063e30c3978146103fa578063f2fde38b1461040b578063f36482411461041e578063f6e252aa14610431578063fc0c546a1461044457600080fd5b8063b26bb8c4146103ac578063bee5dc32146103bf578063c7f1ec50146103c7578063e12e05a7146103e757600080fd5b8063939ea66b116100e9578063939ea66b14610375578063a01ef25f1461037e578063a143e2da14610391578063b1850e94146103a457600080fd5b80638736659b14610332578063899519be1461033b5780638da5cb5b1461035b5780638ec8468a1461036c57600080fd5b80635c975abb1161019257806379ba50971161016157806379ba5097146103075780637e686e011461030f5780638456cb59146103225780638721b7851461032a57600080fd5b80635c975abb146102cb578063715018a6146102d6578063786479cd146102de57806378e97925146102fe57600080fd5b80633f4ba83a116101ce5780633f4ba83a1461026d57806342966c68146102755780634f2bfe5b146102885780635a4b8c1d146102b357600080fd5b80630cc672e4146102005780630f6592ef146102225780631e83409a14610250578063326a940714610263575b600080fd5b60d45461020d9060ff1681565b60405190151581526020015b60405180910390f35b610242610230366004611c9e565b60d36020526000908152604090205481565b604051908152602001610219565b61024261025e366004611cce565b610457565b61026b61050e565b005b61026b610518565b61020d610283366004611c9e565b610528565b60d15461029b906001600160a01b031681565b6040516001600160a01b039091168152602001610219565b60d45461029b9061010090046001600160a01b031681565b60975460ff1661020d565b61026b610631565b6102426102ec366004611cce565b60cc6020526000908152604090205481565b61024260c95481565b61026b610643565b61024261031d366004611d30565b6106bd565b61026b6107c6565b61026b6107d6565b61024260ca5481565b610242610349366004611c9e565b60ce6020526000908152604090205481565b6033546001600160a01b031661029b565b61024260d25481565b61024260cd5481565b61026b61038c366004611ddd565b610828565b60d05461029b906001600160a01b031681565b61020d6109b3565b61026b6103ba366004611cce565b610aa6565b61026b610ad6565b6102426103d5366004611cce565b60cb6020526000908152604090205481565b6102426103f5366004611cce565b610b47565b6065546001600160a01b031661029b565b61026b610419366004611cce565b610bba565b61024261042c366004611e3b565b610c2b565b61024261043f366004611e3b565b610d62565b60cf5461029b906001600160a01b031681565b6000610461610e2c565b60ca54421061047257610472610e72565b6001600160a01b038216610484573391505b60cd5460d45460ff1680156104a457506104a16201518082611e7b565b42115b156104b4576104b161100c565b50425b6104bd8161121f565b60d1549091506000906104db9085906001600160a01b031684611251565b90508015610505576104ed8482611655565b8060d260008282546104ff9190611e8e565b90915550505b9150505b919050565b610516610e72565b565b610520611708565b610516611762565b6000610532610e2c565b81156106295760cf546040516323b872dd60e01b8152336004820152306024820152604481018490526001600160a01b03909116906323b872dd906064016020604051808303816000875af115801561058f573d6000803e3d6000fd5b505050506040513d601f19601f820116820180604052508101906105b39190611ea1565b6105fb5760405162461bcd60e51b81526020600482015260146024820152731514905394d1915497d19493d357d1905253115160621b60448201526064015b60405180910390fd5b60d45460ff16801561061c57506201518060cd546106199190611e7b565b42115b156106295761062961100c565b506001919050565b610639611708565b61051660006117b4565b60655433906001600160a01b031681146106b15760405162461bcd60e51b815260206004820152602960248201527f4f776e61626c6532537465703a2063616c6c6572206973206e6f7420746865206044820152683732bb9037bbb732b960b91b60648201526084016105f2565b6106ba816117b4565b50565b60006106c7610e2c565b60ca5442106106d8576106d8610e72565b60cd5460d45460ff1680156106f857506106f56201518082611e7b565b42115b156107085761070561100c565b50425b6107118161121f565b90506000805b84518110156107ad57600085828151811061073457610734611ec3565b6020026020010151905060006001600160a01b0316816001600160a01b03160361075e57506107ad565b60d1546000906107799083906001600160a01b031687611251565b905080156107985761078b8282611655565b6107958185611e7b565b93505b505080806107a590611ed9565b915050610717565b508015610505578060d260008282546104ff9190611e8e565b6107ce611708565b6105166117cd565b6107de611708565b60d4805460ff81161560ff1990911681179091556040518181527fdbe6ac1081ebd8e648718341126659456f4009fcadfe1c23f66f5e61522610b29060200160405180910390a150565b600054610100900460ff16158080156108485750600054600160ff909116105b806108625750303b158015610862575060005460ff166001145b6108c55760405162461bcd60e51b815260206004820152602e60248201527f496e697469616c697a61626c653a20636f6e747261637420697320616c72656160448201526d191e481a5b9a5d1a585b1a5e995960921b60648201526084016105f2565b6000805460ff1916600117905580156108e8576000805461ff0019166101001790555b6108f061180a565b60006108fb8661121f565b60c981905560cd81905560ca555060d48054610100600160a81b0319166101006001600160a01b03858116919091029190911790915560cf80546001600160a01b03199081168784161790915560d08054821686841617905560d1805490911691881691909117905580156109ab576000805461ff0019169055604051600181527f7f26b83ff96e1f2b6a682f133852f6798a09c465da95921460cefb3847402498906020015b60405180910390a15b505050505050565b60006109bd611708565b60cf546040516370a0823160e01b81523060048201526000916001600160a01b0316906370a0823190602401602060405180830381865afa158015610a06573d6000803e3d6000fd5b505050506040513d601f19601f82011682018060405250810190610a2a9190611ef2565b60cf5460d454919250610a50916001600160a01b03918216916101009091041683611839565b60d45460cf546040518381526101009092046001600160a01b03908116929116907fd0a849a4b4c83176fa52813aff6ed8aa60f8756be6d3cc5cdf086614e3db6af49060200160405180910390a3600191505090565b610aae611708565b60d480546001600160a01b0390921661010002610100600160a81b0319909216919091179055565b6033546001600160a01b0316331480610b0b575060d45460ff168015610b0b57506201518060cd54610b089190611e7b565b42115b610b3f5760405162461bcd60e51b8152602060048201526005602482015264464430303160d81b60448201526064016105f2565b61051661100c565b604051630f41a04d60e11b81526001600160a01b03821660048201526000903090631e83409a906024016020604051808303816000875af1158015610b90573d6000803e3d6000fd5b505050506040513d601f19601f82011682018060405250810190610bb49190611ef2565b92915050565b610bc2611708565b606580546001600160a01b0383166001600160a01b03199091168117909155610bf36033546001600160a01b031690565b6001600160a01b03167f38d16b8cac22d99fc7c124b9cd0de2d3fa1faef420bfe791d8c362d765e2270060405160405180910390a350565b60d1546040516381fc83bb60e01b81526001600160a01b03848116600483015260009283929116906381fc83bb90602401602060405180830381865afa158015610c79573d6000803e3d6000fd5b505050506040513d601f19601f82011682018060405250810190610c9d9190611ef2565b60d154909150600090610cbb906001600160a01b031686868561184b565b60d154604051630d36406960e21b81526001600160a01b03888116600483015260248201849052929350600092909116906334d901a490604401608060405180830381865afa158015610d12573d6000803e3d6000fd5b505050506040513d601f19601f82011682018060405250810190610d369190611f0b565b805160208201516040830151929350610d5892610d539089611e8e565b611940565b9695505050505050565b6000610d6d8261121f565b60405163f364824160e01b81526001600160a01b038516600482015260248101829052909250600090309063f364824190604401602060405180830381865afa158015610dbe573d6000803e3d6000fd5b505050506040513d601f19601f82011682018060405250810190610de29190611ef2565b600084815260d36020526040812054919250819003610e0657600092505050610bb4565b80610e1983670de0b6b3a7640000611f71565b610e239190611f88565b95945050505050565b60975460ff16156105165760405162461bcd60e51b815260206004820152601060248201526f14185d5cd8589b194e881c185d5cd95960821b60448201526064016105f2565b60ca546000610e804261121f565b905060d160009054906101000a90046001600160a01b03166001600160a01b0316637b7933b46040518163ffffffff1660e01b8152600401600060405180830381600087803b158015610ed257600080fd5b505af1158015610ee6573d6000803e3d6000fd5b5050505060005b6014811215611005578183116110055760d154600090610f16906001600160a01b03168561196d565b60d1546040516318d45de760e11b8152600481018390529192506000916001600160a01b03909116906331a8bbce90602401608060405180830381865afa158015610f65573d6000803e3d6000fd5b505050506040513d601f19601f82011682018060405250810190610f899190611f0b565b905060008160400151861115610fab576040820151610fa89087611e8e565b90505b610fbe8260000151836020015183611940565b50610fd28260000151836020015183611940565b600087815260d36020526040902055505050610ff162093a8084611e7b565b925080610ffd81611faa565b915050610eed565b505060ca55565b60cf546040516370a0823160e01b81523060048201526000916001600160a01b0316906370a0823190602401602060405180830381865afa158015611055573d6000803e3d6000fd5b505050506040513d601f19601f820116820180604052508101906110799190611ef2565b9050600060d2548261108b9190611e8e565b60d283905560cd5490915060006110a28242611e8e565b4260cd55905060006110b38361121f565b90506000805b60148110156111e8576110cf62093a8084611e7b565b91508142101561115157831580156110e657508442145b1561111457600083815260ce602052604081208054889290611109908490611e7b565b909155506111e89050565b8361111f8642611e8e565b6111299088611f71565b6111339190611f88565b600084815260ce602052604081208054909190611109908490611e7b565b8315801561115e57508482145b1561118c57600083815260ce602052604081208054889290611181908490611e7b565b909155506111cf9050565b836111978684611e8e565b6111a19088611f71565b6111ab9190611f88565b600084815260ce6020526040812080549091906111c9908490611e7b565b90915550505b81945081925080806111e090611ed9565b9150506110b9565b5060408051428152602081018790527fce749457b74e10f393f2c6b1ce4261b78791376db5a3f501477a809f03f500d691016109a2565b600061122f620151806007611f71565b61123d620151806007611f71565b6112479084611f88565b610bb49190611f71565b6040516381fc83bb60e01b81526001600160a01b0384811660048301526000918291829182918716906381fc83bb90602401602060405180830381865afa1580156112a0573d6000803e3d6000fd5b505050506040513d601f19601f820116820180604052508101906112c49190611ef2565b60c95490915060008290036112e057600094505050505061164e565b6001600160a01b038816600090815260cb6020526040812054908190036113145761130d888a848661184b565b9450611330565b6001600160a01b038916600090815260cc602052604090205494505b8460000361133d57600194505b604051630d36406960e21b81526001600160a01b038a8116600483015260248201879052600091908a16906334d901a490604401608060405180830381865afa15801561138e573d6000803e3d6000fd5b505050506040513d601f19601f820116820180604052508101906113b29190611f0b565b9050816000036113e6576113e3600162093a8083604001516113d49190611e7b565b6113de9190611e8e565b61121f565b91505b8782106113fc576000965050505050505061164e565b82821015611408578291505b600060405180608001604052806000815260200160008152602001600081526020016000815250905060005b60328112156115c457898410156115c457826040015184101580156114595750858811155b1561151a57611469600189611e7b565b9750829150858811156114a2576040518060800160405280600081526020016000815260200160008152602001600081525092506115b2565b604051630d36406960e21b81526001600160a01b038d81166004830152602482018a90528c16906334d901a490604401608060405180830381865afa1580156114ef573d6000803e3d6000fd5b505050506040513d601f19601f820116820180604052508101906115139190611f0b565b92506115b2565b600082604001518561152c9190611e8e565b905060006115438460000151856020015184611940565b9050801580156115525750878a115b1561155e5750506115c4565b80156115a057600086815260d3602090815260408083205460ce909252909120546115899083611f71565b6115939190611f88565b61159d908a611e7b565b98505b6115ad62093a8087611e7b565b955050505b806115bc81611faa565b915050611434565b506115d9856115d460018a611e8e565b611ac2565b6001600160a01b038c16600081815260cc6020908152604080832085905560cb82529182902087905581518a8152908101849052908101889052919850907f9cdcf2f7714cca3508c7f0110b04a90a80a3a8dd0e35de99689db74d28c5383e9060600160405180910390a25093955050505050505b9392505050565b60cf5460d054611672916001600160a01b03908116911683611ad8565b60d0546040516373dd055560e01b815260048101839052600060248201819052604482018190526080606483015260848201526001600160a01b03909116906373dd05559060a401600060405180830381600087803b1580156116d457600080fd5b505af11580156116e8573d6000803e3d6000fd5b505060d05461170492506001600160a01b031690508383611839565b5050565b6033546001600160a01b031633146105165760405162461bcd60e51b815260206004820181905260248201527f4f776e61626c653a2063616c6c6572206973206e6f7420746865206f776e657260448201526064016105f2565b61176a611ae4565b6097805460ff191690557f5db9ee0a495bf2e6ff9c91a7834c1ba4fdd244a5e8aa4e537bd38aeae4b073aa335b6040516001600160a01b03909116815260200160405180910390a1565b606580546001600160a01b03191690556106ba81611b2d565b6117d5610e2c565b6097805460ff191660011790557f62e78cea01bee320cd4e420270b5ea74000d11b0c9f74754ebdbfc544b05a2586117973390565b600054610100900460ff166118315760405162461bcd60e51b81526004016105f290611fc2565b610516611b7f565b82611845818484611baf565b50505050565b60008082815b6080811215611934578183101561193457600060026118708486611e7b565b61187b906002611e7b565b6118859190611f88565b604051630d36406960e21b81526001600160a01b038a81166004830152602482018390529192506000918b16906334d901a490604401608060405180830381865afa1580156118d8573d6000803e3d6000fd5b505050506040513d601f19601f820116820180604052508101906118fc9190611f0b565b9050878160400151116119115781945061191f565b61191c600183611e8e565b93505b5050808061192c90611faa565b915050611851565b50909695505050505050565b60008061194d8385611f71565b905084808211156119635760009250505061164e565b610d588282611e8e565b600080600090506000846001600160a01b031663900cf0cf6040518163ffffffff1660e01b8152600401602060405180830381865afa1580156119b4573d6000803e3d6000fd5b505050506040513d601f19601f820116820180604052508101906119d89190611ef2565b905060005b6080811215611ab85781831015611ab857600060026119fc8486611e7b565b611a07906002611e7b565b611a119190611f88565b6040516318d45de760e11b8152600481018290529091506000906001600160a01b038916906331a8bbce90602401608060405180830381865afa158015611a5c573d6000803e3d6000fd5b505050506040513d601f19601f82011682018060405250810190611a809190611f0b565b905086816040015111611a9557819450611aa3565b611aa0600183611e8e565b93505b50508080611ab090611faa565b9150506119dd565b5090949350505050565b6000818310611ad1578161164e565b5090919050565b82611845818484611c27565b60975460ff166105165760405162461bcd60e51b815260206004820152601460248201527314185d5cd8589b194e881b9bdd081c185d5cd95960621b60448201526064016105f2565b603380546001600160a01b038381166001600160a01b0319831681179093556040519116919082907f8be0079c531659141344cd1fd0a4f28419497f9722a3daafe3b4186f6b6457e090600090a35050565b600054610100900460ff16611ba65760405162461bcd60e51b81526004016105f290611fc2565b610516336117b4565b600060405163a9059cbb60e01b8152836004820152826024820152602060006044836000895af13d15601f3d11600160005114161716915050806118455760405162461bcd60e51b815260206004820152600f60248201526e1514905394d1915497d19052531151608a1b60448201526064016105f2565b600060405163095ea7b360e01b8152836004820152826024820152602060006044836000895af13d15601f3d11600160005114161716915050806118455760405162461bcd60e51b815260206004820152600e60248201526d1054141493d59157d1905253115160921b60448201526064016105f2565b600060208284031215611cb057600080fd5b5035919050565b80356001600160a01b038116811461050957600080fd5b600060208284031215611ce057600080fd5b61164e82611cb7565b634e487b7160e01b600052604160045260246000fd5b604051601f8201601f1916810167ffffffffffffffff81118282101715611d2857611d28611ce9565b604052919050565b60006020808385031215611d4357600080fd5b823567ffffffffffffffff80821115611d5b57600080fd5b818501915085601f830112611d6f57600080fd5b813581811115611d8157611d81611ce9565b8060051b9150611d92848301611cff565b8181529183018401918481019088841115611dac57600080fd5b938501935b83851015611dd157611dc285611cb7565b82529385019390850190611db1565b98975050505050505050565b600080600080600060a08688031215611df557600080fd5b611dfe86611cb7565b945060208601359350611e1360408701611cb7565b9250611e2160608701611cb7565b9150611e2f60808701611cb7565b90509295509295909350565b60008060408385031215611e4e57600080fd5b611e5783611cb7565b946020939093013593505050565b634e487b7160e01b600052601160045260246000fd5b80820180821115610bb457610bb4611e65565b81810381811115610bb457610bb4611e65565b600060208284031215611eb357600080fd5b8151801515811461164e57600080fd5b634e487b7160e01b600052603260045260246000fd5b600060018201611eeb57611eeb611e65565b5060010190565b600060208284031215611f0457600080fd5b5051919050565b600060808284031215611f1d57600080fd5b6040516080810181811067ffffffffffffffff82111715611f4057611f40611ce9565b8060405250825181526020830151602082015260408301516040820152606083015160608201528091505092915050565b8082028115828204841417610bb457610bb4611e65565b600082611fa557634e487b7160e01b600052601260045260246000fd5b500490565b60006001600160ff1b018201611eeb57611eeb611e65565b6020808252602b908201527f496e697469616c697a61626c653a20636f6e7472616374206973206e6f74206960408201526a6e697469616c697a696e6760a81b60608201526080019056fea2646970667358221220e22b15e3202e290f07e1a6b0f416e2976625501b4c4795fe900d633ae7fb806d64736f6c63430008110033",
  "linkReferences": {},
  "deployedLinkReferences": {}
}