{
  "_format": "hh-sol-artifact-1",
  "contractName": "GaugeFeeDistributor",
  "sourceName": "contracts/feeDistributor/GaugeFeeDistributor.sol",
  "abi": [
    {
      "inputs": [],
      "stateMutability": "nonpayable",
      "type": "constructor"
    },
    {
      "anonymous": false,
      "inputs": [
        {
          "indexed": false,
          "internalType": "uint256",
          "name": "time",
          "type": "uint256"
        },
        {
          "indexed": false,
          "internalType": "uint256",
          "name": "tokens",
          "type": "uint256"
        }
      ],
      "name": "CheckpointToken",
      "type": "event"
    },
    {
      "anonymous": false,
      "inputs": [
        {
          "indexed": true,
          "internalType": "address",
          "name": "gauge",
          "type": "address"
        },
        {
          "indexed": true,
          "internalType": "address",
          "name": "recipient",
          "type": "address"
        },
        {
          "indexed": false,
          "internalType": "uint256",
          "name": "amount",
          "type": "uint256"
        },
        {
          "indexed": false,
          "internalType": "uint256",
          "name": "claimEpoch",
          "type": "uint256"
        },
        {
          "indexed": false,
          "internalType": "uint256",
          "name": "maxEpoch",
          "type": "uint256"
        }
      ],
      "name": "Claimed",
      "type": "event"
    },
    {
      "anonymous": false,
      "inputs": [
        {
          "indexed": false,
          "internalType": "uint8",
          "name": "version",
          "type": "uint8"
        }
      ],
      "name": "Initialized",
      "type": "event"
    },
    {
      "anonymous": false,
      "inputs": [
        {
          "indexed": true,
          "internalType": "address",
          "name": "previousOwner",
          "type": "address"
        },
        {
          "indexed": true,
          "internalType": "address",
          "name": "newOwner",
          "type": "address"
        }
      ],
      "name": "OwnershipTransferStarted",
      "type": "event"
    },
    {
      "anonymous": false,
      "inputs": [
        {
          "indexed": true,
          "internalType": "address",
          "name": "previousOwner",
          "type": "address"
        },
        {
          "indexed": true,
          "internalType": "address",
          "name": "newOwner",
          "type": "address"
        }
      ],
      "name": "OwnershipTransferred",
      "type": "event"
    },
    {
      "anonymous": false,
      "inputs": [
        {
          "indexed": false,
          "internalType": "address",
          "name": "account",
          "type": "address"
        }
      ],
      "name": "Paused",
      "type": "event"
    },
    {
      "anonymous": false,
      "inputs": [
        {
          "indexed": true,
          "internalType": "address",
          "name": "token",
          "type": "address"
        },
        {
          "indexed": true,
          "internalType": "address",
          "name": "emergencyReturn",
          "type": "address"
        },
        {
          "indexed": false,
          "internalType": "uint256",
          "name": "amount",
          "type": "uint256"
        }
      ],
      "name": "RecoverBalance",
      "type": "event"
    },
    {
      "anonymous": false,
      "inputs": [
        {
          "indexed": true,
          "internalType": "address",
          "name": "emergencyReturn",
          "type": "address"
        }
      ],
      "name": "SetEmergencyReturn",
      "type": "event"
    },
    {
      "anonymous": false,
      "inputs": [
        {
          "indexed": false,
          "internalType": "bool",
          "name": "toggleFlag",
          "type": "bool"
        }
      ],
      "name": "ToggleAllowCheckpointToken",
      "type": "event"
    },
    {
      "anonymous": false,
      "inputs": [
        {
          "indexed": false,
          "internalType": "address",
          "name": "account",
          "type": "address"
        }
      ],
      "name": "Unpaused",
      "type": "event"
    },
    {
      "inputs": [],
      "name": "acceptOwnership",
      "outputs": [],
      "stateMutability": "nonpayable",
      "type": "function"
    },
    {
      "inputs": [
        {
          "internalType": "uint256",
          "name": "amount",
          "type": "uint256"
        }
      ],
      "name": "burn",
      "outputs": [
        {
          "internalType": "bool",
          "name": "",
          "type": "bool"
        }
      ],
      "stateMutability": "nonpayable",
      "type": "function"
    },
    {
      "inputs": [],
      "name": "canCheckpointToken",
      "outputs": [
        {
          "internalType": "bool",
          "name": "",
          "type": "bool"
        }
      ],
      "stateMutability": "view",
      "type": "function"
    },
    {
      "inputs": [],
      "name": "checkpointToken",
      "outputs": [],
      "stateMutability": "nonpayable",
      "type": "function"
    },
    {
      "inputs": [
        {
          "internalType": "address",
          "name": "gauge",
          "type": "address"
        },
        {
          "internalType": "address",
          "name": "_addr",
          "type": "address"
        }
      ],
      "name": "claim",
      "outputs": [
        {
          "internalType": "uint256",
          "name": "",
          "type": "uint256"
        }
      ],
      "stateMutability": "nonpayable",
      "type": "function"
    },
    {
      "inputs": [
        {
          "internalType": "address",
          "name": "gauge",
          "type": "address"
        },
        {
          "internalType": "address[]",
          "name": "_receivers",
          "type": "address[]"
        }
      ],
      "name": "claimMany",
      "outputs": [
        {
          "internalType": "uint256",
          "name": "",
          "type": "uint256"
        }
      ],
      "stateMutability": "nonpayable",
      "type": "function"
    },
    {
      "inputs": [
        {
          "internalType": "address[]",
          "name": "gaugeList",
          "type": "address[]"
        },
        {
          "internalType": "address",
          "name": "receiver",
          "type": "address"
        }
      ],
      "name": "claimManyGauge",
      "outputs": [
        {
          "internalType": "uint256",
          "name": "",
          "type": "uint256"
        }
      ],
      "stateMutability": "nonpayable",
      "type": "function"
    },
    {
      "inputs": [
        {
          "internalType": "address[]",
          "name": "gaugeList",
          "type": "address[]"
        },
        {
          "internalType": "address",
          "name": "receiver",
          "type": "address"
        }
      ],
      "name": "claimableTokenManyGauge",
      "outputs": [
        {
          "internalType": "uint256",
          "name": "",
          "type": "uint256"
        }
      ],
      "stateMutability": "nonpayable",
      "type": "function"
    },
    {
      "inputs": [
        {
          "internalType": "address",
          "name": "gauge",
          "type": "address"
        },
        {
          "internalType": "address",
          "name": "_addr",
          "type": "address"
        }
      ],
      "name": "claimableTokens",
      "outputs": [
        {
          "internalType": "uint256",
          "name": "",
          "type": "uint256"
        }
      ],
      "stateMutability": "view",
      "type": "function"
    },
    {
      "inputs": [],
      "name": "emergencyReturn",
      "outputs": [
        {
          "internalType": "address",
          "name": "",
          "type": "address"
        }
      ],
      "stateMutability": "view",
      "type": "function"
    },
    {
      "inputs": [
        {
          "internalType": "address",
          "name": "_gauge",
          "type": "address"
        },
        {
          "internalType": "uint256",
          "name": "_weekCursor",
          "type": "uint256"
        }
      ],
      "name": "gaugeBalancePreWeek",
      "outputs": [
        {
          "internalType": "uint256",
          "name": "",
          "type": "uint256"
        }
      ],
      "stateMutability": "view",
      "type": "function"
    },
    {
      "inputs": [],
      "name": "gaugeController",
      "outputs": [
        {
          "internalType": "address",
          "name": "",
          "type": "address"
        }
      ],
      "stateMutability": "view",
      "type": "function"
    },
    {
      "inputs": [
        {
          "internalType": "address",
          "name": "_gaugeController",
          "type": "address"
        },
        {
          "internalType": "uint256",
          "name": "_startTime",
          "type": "uint256"
        },
        {
          "internalType": "address",
          "name": "_token",
          "type": "address"
        },
        {
          "internalType": "address",
          "name": "_stHOPE",
          "type": "address"
        },
        {
          "internalType": "address",
          "name": "_emergencyReturn",
          "type": "address"
        }
      ],
      "name": "initialize",
      "outputs": [],
      "stateMutability": "nonpayable",
      "type": "function"
    },
    {
      "inputs": [],
      "name": "lastTokenTime",
      "outputs": [
        {
          "internalType": "uint256",
          "name": "",
          "type": "uint256"
        }
      ],
      "stateMutability": "view",
      "type": "function"
    },
    {
      "inputs": [],
      "name": "owner",
      "outputs": [
        {
          "internalType": "address",
          "name": "",
          "type": "address"
        }
      ],
      "stateMutability": "view",
      "type": "function"
    },
    {
      "inputs": [],
      "name": "pause",
      "outputs": [],
      "stateMutability": "nonpayable",
      "type": "function"
    },
    {
      "inputs": [],
      "name": "paused",
      "outputs": [
        {
          "internalType": "bool",
          "name": "",
          "type": "bool"
        }
      ],
      "stateMutability": "view",
      "type": "function"
    },
    {
      "inputs": [],
      "name": "pendingOwner",
      "outputs": [
        {
          "internalType": "address",
          "name": "",
          "type": "address"
        }
      ],
      "stateMutability": "view",
      "type": "function"
    },
    {
      "inputs": [],
      "name": "recoverBalance",
      "outputs": [
        {
          "internalType": "bool",
          "name": "",
          "type": "bool"
        }
      ],
      "stateMutability": "nonpayable",
      "type": "function"
    },
    {
      "inputs": [],
      "name": "renounceOwnership",
      "outputs": [],
      "stateMutability": "nonpayable",
      "type": "function"
    },
    {
      "inputs": [
        {
          "internalType": "address",
          "name": "_addr",
          "type": "address"
        }
      ],
      "name": "setEmergencyReturn",
      "outputs": [],
      "stateMutability": "nonpayable",
      "type": "function"
    },
    {
      "inputs": [],
      "name": "stHOPE",
      "outputs": [
        {
          "internalType": "address",
          "name": "",
          "type": "address"
        }
      ],
      "stateMutability": "view",
      "type": "function"
    },
    {
      "inputs": [],
      "name": "startTime",
      "outputs": [
        {
          "internalType": "uint256",
          "name": "",
          "type": "uint256"
        }
      ],
      "stateMutability": "view",
      "type": "function"
    },
    {
      "inputs": [],
      "name": "timeCursor",
      "outputs": [
        {
          "internalType": "uint256",
          "name": "",
          "type": "uint256"
        }
      ],
      "stateMutability": "view",
      "type": "function"
    },
    {
      "inputs": [
        {
          "internalType": "address",
          "name": "",
          "type": "address"
        },
        {
          "internalType": "address",
          "name": "",
          "type": "address"
        }
      ],
      "name": "timeCursorOf",
      "outputs": [
        {
          "internalType": "uint256",
          "name": "",
          "type": "uint256"
        }
      ],
      "stateMutability": "view",
      "type": "function"
    },
    {
      "inputs": [],
      "name": "toggleAllowCheckpointToken",
      "outputs": [],
      "stateMutability": "nonpayable",
      "type": "function"
    },
    {
      "inputs": [],
      "name": "token",
      "outputs": [
        {
          "internalType": "address",
          "name": "",
          "type": "address"
        }
      ],
      "stateMutability": "view",
      "type": "function"
    },
    {
      "inputs": [],
      "name": "tokenLastBalance",
      "outputs": [
        {
          "internalType": "uint256",
          "name": "",
          "type": "uint256"
        }
      ],
      "stateMutability": "view",
      "type": "function"
    },
    {
      "inputs": [
        {
          "internalType": "uint256",
          "name": "",
          "type": "uint256"
        }
      ],
      "name": "tokensPerWeek",
      "outputs": [
        {
          "internalType": "uint256",
          "name": "",
          "type": "uint256"
        }
      ],
      "stateMutability": "view",
      "type": "function"
    },
    {
      "inputs": [
        {
          "internalType": "address",
          "name": "newOwner",
          "type": "address"
        }
      ],
      "name": "transferOwnership",
      "outputs": [],
      "stateMutability": "nonpayable",
      "type": "function"
    },
    {
      "inputs": [],
      "name": "unpause",
      "outputs": [],
      "stateMutability": "nonpayable",
      "type": "function"
    },
    {
      "inputs": [
        {
          "internalType": "address",
          "name": "",
          "type": "address"
        },
        {
          "internalType": "address",
          "name": "",
          "type": "address"
        }
      ],
      "name": "userEpochOf",
      "outputs": [
        {
          "internalType": "uint256",
          "name": "",
          "type": "uint256"
        }
      ],
      "stateMutability": "view",
      "type": "function"
    },
    {
      "inputs": [
        {
          "internalType": "address",
          "name": "_gauge",
          "type": "address"
        },
        {
          "internalType": "address",
          "name": "_user",
          "type": "address"
        },
        {
          "internalType": "uint256",
          "name": "_timestamp",
          "type": "uint256"
        }
      ],
      "name": "veForAt",
      "outputs": [
        {
          "internalType": "uint256",
          "name": "",
          "type": "uint256"
        }
      ],
      "stateMutability": "view",
      "type": "function"
    },
    {
      "inputs": [
        {
          "internalType": "address",
          "name": "_gauge",
          "type": "address"
        },
        {
          "internalType": "address",
          "name": "_user",
          "type": "address"
        },
        {
          "internalType": "uint256",
          "name": "_timestamp",
          "type": "uint256"
        }
      ],
      "name": "vePrecentageForAt",
      "outputs": [
        {
          "internalType": "uint256",
          "name": "",
          "type": "uint256"
        }
      ],
      "stateMutability": "nonpayable",
      "type": "function"
    }
  ],
  "bytecode": "0x608080604052346100c1576000549060ff8260081c1661006f575060ff80821610610034575b6040516126ed90816100c78239f35b60ff90811916176000557f7f26b83ff96e1f2b6a682f133852f6798a09c465da95921460cefb3847402498602060405160ff8152a138610025565b62461bcd60e51b815260206004820152602760248201527f496e697469616c697a61626c653a20636f6e747261637420697320696e697469604482015266616c697a696e6760c81b6064820152608490fd5b600080fdfe608060408181526004918236101561001657600080fd5b600092833560e01c918263071cb5ad146114ae575081630cc672e414611487578163171acc831461133257816321c0b3421461120857816326f283d71461113057816338b74b47146110e75781633f4ba83a1461105157816342966c6814610f145781634d1dd03314610e135781635a4b8c1d14610dea5781635c571d8a14610c4a5781635c975abb14610c26578163715018a614610bbf57816378e9792514610ba057816379ba509714610b1a57816380302060146109575781638456cb59146108fc5781638721b785146108925781638736659b14610873578163899519be1461084b5781638da5cb5b146108225781638ec8468a146108035781638f4ddcfd146107e7578163939ea66b146107c857816399eecb3b1461079f5781639aabdf8914610680578163a01ef25f14610474578163a143e2da1461044b578163b1850e941461036a578163b26bb8c414610302578163bee5dc321461025f57508063e30c397814610237578063f2fde38b146101c65763fc0c546a1461019b57600080fd5b346101c257816003193601126101c25760cf5490516001600160a01b039091168152602090f35b5080fd5b8234610234576020366003190112610234576101e06114f4565b6101e86116d1565b606580546001600160a01b0319166001600160a01b039283169081179091556033549091167f38d16b8cac22d99fc7c124b9cd0de2d3fa1faef420bfe791d8c362d765e227008380a380f35b80fd5b50346101c257816003193601126101c25760655490516001600160a01b039091168152602090f35b919050346102fe57826003193601126102fe576033546001600160a01b0316331480156102c3575b156102985782610295611839565b80f35b906020606492519162461bcd60e51b83528201526005602482015264464430303160d81b6044820152fd5b5060ff60d25460a01c168015610287575060cd546201518081018091116102eb574211610287565b634e487b7160e01b845260118352602484fd5b8280fd5b83346102345760203660031901126102345761031c6114f4565b6103246116d1565b60d380546001600160a01b0319166001600160a01b039290921691821790557fddf14d4001805d5c8783316f14c83a234cdb129ef6d8f0fc823cc2ee0828590a8280a280f35b8284346102345780600319360112610234576103846116d1565b60cf5482516370a0823160e01b815230948101949094526020936001600160a01b03918216908581602481855afa93841561044057809461040c575b5050826103d2918360d354169061263e565b7fd0a849a4b4c83176fa52813aff6ed8aa60f8756be6d3cc5cdf086614e3db6af4848260cf54169260d35416938551908152a35160018152f35b909193508582813d8311610439575b61042581836115a0565b81010312610234575051916103d2866103c0565b503d61041b565b8551903d90823e3d90fd5b5050346101c257816003193601126101c25760d05490516001600160a01b039091168152602090f35b9050346102fe5760a03660031901126102fe5761048f6114f4565b906001600160a01b0390604435828116919082900361067c576064359083821680920361067857608435938085168095036106745787549560ff8760081c161596878098610667575b8015610650575b156105f65760ff1981166001178a55876105e5575b501691610502831515611729565b61050d841515611729565b610518811515611729565b61053160ff895460081c1661052c81611767565b611767565b61053a3361167b565b62093a809182602435048381029381850414901517156105d257508160c9558160cd556bffffffffffffffffffffffff60a01b938460cf54161760cf558360d054161760d05560ca558160d254161760d25560d354161760d35561059c575080f35b60207f7f26b83ff96e1f2b6a682f133852f6798a09c465da95921460cefb38474024989161ff001984541684555160018152a180f35b634e487b7160e01b895260119052602488fd5b61ffff1916610101178955386104f4565b885162461bcd60e51b8152602081860152602e60248201527f496e697469616c697a61626c653a20636f6e747261637420697320616c72656160448201526d191e481a5b9a5d1a585b1a5e995960921b6064820152608490fd5b50303b1580156104df5750600160ff8216146104df565b50600160ff8216106104d8565b8780fd5b8680fd5b8580fd5b82843461023457816003193601126102345761069a6114f4565b6106a261150f565b6106aa611dee565b916001600160a01b039081841615610797575b60cd549560ff60d25460a01c168061076f575b61075e575b62093a8080970487810297818904149015171561074b578260d2541692833b156102fe5790602483928389519687948593638aca6a2360e01b85528a16908401525af190811561044057509161073593916020969361073c575b50611e57565b9051908152f35b6107459061155a565b8661072f565b634e487b7160e01b825260119052602490fd5b9550610768611839565b42956106d5565b506201518087018088116107845742116106d0565b634e487b7160e01b835260118252602483fd5b3393506106bd565b5050346101c257816003193601126101c25760d25490516001600160a01b039091168152602090f35b5050346101c257816003193601126101c25760209060cd549051908152f35b5050346101c2576020906107356107fd36611525565b91611afe565b5050346101c257816003193601126101c25760209060d1549051908152f35b5050346101c257816003193601126101c25760335490516001600160a01b039091168152602090f35b9050346102fe5760203660031901126102fe57602092829135815260ce845220549051908152f35b5050346101c257816003193601126101c25760209060ca549051908152f35b5050346101c257816003193601126101c25760207fdbe6ac1081ebd8e648718341126659456f4009fcadfe1c23f66f5e61522610b2916108d06116d1565b60d2805460ff60a01b19811660a091821c60ff16159182901b60ff60a01b16179091559051908152a180f35b5050346101c257816003193601126101c25760207f62e78cea01bee320cd4e420270b5ea74000d11b0c9f74754ebdbfc544b05a2589161093a6116d1565b610942611dee565b600160ff19609754161760975551338152a180f35b8383346101c257806003193601126101c2576109716114f4565b9160243567ffffffffffffffff81116101c25761099190369086016115c2565b9261099a611dee565b60cd549460ff60d25460a01c1680610af2575b610ae1575b62093a80809604868102968188041490151715610ace5760d2546001600160a01b03918491831690813b156102fe5782916024839289519485938492638aca6a2360e01b8452898b16908401525af18015610ac457610ab5575b505b8551811080610aab575b15610a9d5781610a288288612468565b51168015610a7257610a3b888286611e57565b9081610a52575b5050610a4d906117f7565b610a0e565b90610a4d9295610a6582610a6a946124aa565b6117c7565b939088610a42565b505050509150602092505b81610a89575b51908152f35b610a958260d1546117ea565b60d155610a83565b505050915060209250610a7d565b5060328110610a18565b610abe9061155a565b87610a0c565b86513d84823e3d90fd5b634e487b7160e01b835260119052602482fd5b9450610aeb611839565b42946109b2565b50620151808601808711610b075742116109ad565b634e487b7160e01b845260118252602484fd5b919050346102fe57826003193601126102fe57606554336001600160a01b0390911603610b4b57826102953361167b565b906020608492519162461bcd60e51b8352820152602960248201527f4f776e61626c6532537465703a2063616c6c6572206973206e6f7420746865206044820152683732bb9037bbb732b960b91b6064820152fd5b5050346101c257816003193601126101c25760209060c9549051908152f35b8334610234578060031936011261023457610bd86116d1565b606580546001600160a01b031990811690915560338054918216905581906001600160a01b03167f8be0079c531659141344cd1fd0a4f28419497f9722a3daafe3b4186f6b6457e08280a380f35b5050346101c257816003193601126101c25760209060ff6097541690519015158152f35b82843461023457610c5a36611639565b9092610c64611dee565b60cd549460d29160ff835460a01c1680610dc2575b610db1575b62093a80809704878102978189041490151715610d9e5784805b8751811080610d94575b15610d84576001600160a01b0380610cba838b612468565b5116908115610d4857865416803b15610d44578380916024875180948193638aca6a2360e01b8352878c8401525af18015610d3a57610d01928c928a92610d2b5750611e57565b80610d16575b50610d11906117f7565b610c98565b610d2490610d1192986117c7565b9690610d07565b610d349061155a565b8d61072f565b85513d86823e3d90fd5b8380fd5b505050509394505050602093505b8280610d65575b505051908152f35b610d7d91610d758260d1546117ea565b60d1556124aa565b8382610d5d565b5050939450505060209350610d56565b5060328110610ca2565b634e487b7160e01b855260118252602485fd5b9550610dbb611839565b4295610c7e565b50620151808701808811610dd7574211610c79565b634e487b7160e01b865260118352602486fd5b5050346101c257816003193601126101c25760d35490516001600160a01b039091168152602090f35b828434610234578160031936011261023457610e2d6114f4565b9262093a80918260243504838102938185041490151715610f025760d2548451630cb8c08d60e31b81526001600160a01b0396871693810193845260208481018690529690938792859216908290819060400103915afa918215610ef6579084918193610ebb575b509081670de0b6b3a764000094610eb394935260ce87522054611806565b049051908152f35b86809294508193503d8311610eef575b610ed581836115a0565b810103126101c25751908390670de0b6b3a7640000610e95565b503d610ecb565b508351903d90823e3d90fd5b6011602492634e487b7160e01b835252fd5b82843461023457602092836003193601126101c2578035610f33611dee565b8481610f42575b845160018152f35b60cf5485516323b872dd60e01b81523385820190815230602082015260408101949094529283916001600160a01b03169082908790829060600103925af190811561104757839161101a575b5015610fe05760ff60d25460a01c169182610fc1575b5050610fb4575b82808084610f3a565b610fbc611839565b610fab565b90915060cd549162015180830180931161074b57505042118380610fa4565b825162461bcd60e51b815290810184905260146024820152731514905394d1915497d19493d357d1905253115160621b6044820152606490fd5b61103a9150853d8711611040575b61103281836115a0565b810190612492565b85610f8e565b503d611028565b84513d85823e3d90fd5b9050346102fe57826003193601126102fe5761106b6116d1565b6097549060ff8216156110ad575060ff1916609755513381527f5db9ee0a495bf2e6ff9c91a7834c1ba4fdd244a5e8aa4e537bd38aeae4b073aa90602090a180f35b606490602084519162461bcd60e51b8352820152601460248201527314185d5cd8589b194e881b9bdd081c185d5cd95960621b6044820152fd5b5050346101c257806003193601126101c257806020926111056114f4565b61110d61150f565b6001600160a01b03918216835260cb865283832091168252845220549051908152f35b8383346101c25761114036611639565b90611149611dee565b82518092632e2b8ec560e11b8252846044830197830152825180975260648201906020978880950190885b8181106111e6575050506001600160a01b031660248301528190038186305af19283156111db5780936111a957505051908152f35b909192508382813d83116111d4575b6111c281836115a0565b81010312610234575051908380610d5d565b503d6111b8565b8251903d90823e3d90fd5b82516001600160a01b031685528a968896509485019490920191600101611174565b8383346101c257806003193601126101c2576112226114f4565b61122a61150f565b611232611dee565b926001600160a01b03908185161561132a575b60cd549560ff60d25460a01c1680611315575b611304575b62093a8080970487810297818904149015171561074b578260d2541692833b156102fe5790602483928388519687948593638aca6a2360e01b85528a16908401525af19081156112f957506112bc926020969286926112ea5750611e57565b9182806112cb57505051908152f35b6112d4916124aa565b6112e08260d1546117ea565b60d1558382610d5d565b6112f39061155a565b8761072f565b8451903d90823e3d90fd5b955061130e611839565b429561125d565b50620151808701808811610784574211611258565b339450611245565b919050346102fe5761134336611525565b60d254845163362985ab60e01b81526001600160a01b03808516828901908152818716602082810191909152989496949592949390911691908890859081906040010381855afa93841561147d578994611448575b506113a7608094878386611cdb565b875163c06cd02b60e01b81526001600160a01b03928316968101968752939091166020860152604085015290928391908290819060600103915afa90811561143e5761073593949591611410575b5061140a8151928587840151930151906117ea565b9161261d565b611431915060803d8111611437575b61142981836115a0565b810190611a87565b386113f5565b503d61141f565b83513d87823e3d90fd5b93508784813d8311611476575b61145f81836115a0565b81010312611472579251926113a7611398565b8880fd5b503d611455565b87513d8b823e3d90fd5b5050346101c257816003193601126101c25760209060ff60d25460a01c1690519015158152f35b849084346102fe57806003193601126102fe576020926114cc6114f4565b6114d461150f565b6001600160a01b03918216835260cc865283832091168252845220548152f35b600435906001600160a01b038216820361150a57565b600080fd5b602435906001600160a01b038216820361150a57565b606090600319011261150a576001600160a01b0390600435828116810361150a5791602435908116810361150a579060443590565b67ffffffffffffffff811161156e57604052565b634e487b7160e01b600052604160045260246000fd5b6080810190811067ffffffffffffffff82111761156e57604052565b90601f8019910116810190811067ffffffffffffffff82111761156e57604052565b9080601f8301121561150a5781359067ffffffffffffffff821161156e578160051b604051936020936115f7858401876115a0565b8552838086019282010192831161150a578301905b82821061161a575050505090565b81356001600160a01b038116810361150a57815290830190830161160c565b604060031982011261150a576004359067ffffffffffffffff821161150a57611664916004016115c2565b906024356001600160a01b038116810361150a5790565b6bffffffffffffffffffffffff60a01b90816065541660655560335460018060a01b038092168093821617603355167f8be0079c531659141344cd1fd0a4f28419497f9722a3daafe3b4186f6b6457e0600080a3565b6033546001600160a01b031633036116e557565b606460405162461bcd60e51b815260206004820152602060248201527f4f776e61626c653a2063616c6c6572206973206e6f7420746865206f776e65726044820152fd5b1561173057565b60405162461bcd60e51b815260206004820152600f60248201526e496e76616c6964204164647265737360881b6044820152606490fd5b1561176e57565b60405162461bcd60e51b815260206004820152602b60248201527f496e697469616c697a61626c653a20636f6e7472616374206973206e6f74206960448201526a6e697469616c697a696e6760a81b6064820152608490fd5b919082018092116117d457565b634e487b7160e01b600052601160045260246000fd5b919082039182116117d457565b60001981146117d45760010190565b818102929181159184041417156117d457565b8115611823570490565b634e487b7160e01b600052601260045260246000fd5b60018060a01b0360cf541690604080516370a0823160e01b815280806004953087830152602093849160249384915afa918215611a7c57600092611a4d575b5061188560d154836117ea565b9160d15560cd5461189681426117ea565b4260cd5562093a8097888304898102908082048b1490151715611a3957936000915b601483106118f7575b5050505050507fce749457b74e10f393f2c6b1ce4261b78791376db5a3f501477a809f03f500d6939450825191428352820152a1565b8a860191828711611a26578242106000146119aa57505050507fce749457b74e10f393f2c6b1ce4261b78791376db5a3f501477a809f03f500d69697508015806119a1575b1561196857505060005260ce8252826000206119598282546117c7565b90555b849338808080806118c1565b61197e61197861198393426117ea565b85611806565b611819565b9060005260ce835261199a846000209182546117c7565b905561195c565b5081421461193c565b91948480979294971580611a1d575b156119e957505060005260ce8752876000206119d68782546117c7565b90555b6119e384956117f7565b916118b8565b61197e6119f96119ff93896117ea565b8a611806565b9060005260ce8852611a16896000209182546117c7565b90556119d9565b508187146119b9565b634e487b7160e01b600090815260118352fd5b84601183634e487b7160e01b600052526000fd5b90918382813d8311611a75575b611a6481836115a0565b810103126102345750519038611878565b503d611a5a565b84513d6000823e3d90fd5b9081608091031261150a57606060405191611aa183611584565b8051835260208101516020840152604081015160408401520151606082015290565b9081604091031261150a5760405190604082019082821067ffffffffffffffff83111761156e57602091604052805183520151602082015290565b60d254600094936001600160a01b03918216929091833b156106785786806040956024875180948193638aca6a2360e01b835287891660048401525af18015611cbd57611caa575b5062093a808093048381029381850414901517156117d457835163171acc8360e01b81526001600160a01b03838116600483015295909516602486015260448501839052602085606481305afa948515611ca0578795611c67575b5060d254845163c3a6ca1360e01b81526001600160a01b0393909316600484015260248301939093529091839183916044918391165afa918215611c5e578592611c31575b5050805115611c2d57670de0b6b3a764000091828102928184041490151715611c1957611c169293505190611819565b90565b634e487b7160e01b84526011600452602484fd5b5050565b611c509250803d10611c57575b611c4881836115a0565b810190611ac3565b3880611be6565b503d611c3e565b513d86823e3d90fd5b91929094506020823d8211611c98575b81611c84602093836115a0565b8101031261150a5790519390919083611ba1565b3d9150611c77565b84513d89823e3d90fd5b611cb69097919761155a565b9538611b46565b85513d8a823e3d90fd5b6001600160ff1b0381146117d45760010190565b60d25491946000946001600160a01b039093169392855b60809081881215611de25782811015611de257611d0f83826117c7565b600281018091116117d4576040805163c06cd02b60e01b81526001600160a01b038c8116600480840191909152908916602483015260019390931c60448201819052949081816064818e5afa918215611dd757908a939291600092611dba575b5050015111611d8a575050611d849096611cc7565b95611cf2565b909792506000198201918211611da55750611d849091611cc7565b601190634e487b7160e01b6000525260246000fd5b611dd09250803d106114375761142981836115a0565b3880611d6f565b83513d6000823e3d90fd5b96505050945050505090565b60ff60975416611dfa57565b60405162461bcd60e51b815260206004820152601060248201526f14185d5cd8589b194e881c185d5cd95960821b6044820152606490fd5b60405190611e3f82611584565b60006060838281528260208201528260408201520152565b604051919260c0830167ffffffffffffffff81118482101761156e5760405260008352600060208401526000604084015260006060840152611e97611e32565b6080840152611ea4611e32565b60a0840152600080845260208085019190915260d25460405163362985ab60e01b81526001600160a01b0387811660048301528581166024830152909116929181604481865afa9081156121b357600091612436575b5080604086015260c954901561242b576001600160a01b03848116600090815260cb60209081526040808320938a1683529290522054606086018190526123fe57611f4b6040860151828887611cdb565b85525b8451156123f5575b845160405163c06cd02b60e01b81526001600160a01b038881166004830152861660248201526044810191909152608081606481875afa9081156121b3576000916123d6575b50806080870152606086015115612398575b5060608501518281101561238c578111612381575b50604051611fd081611584565b6000815260006020820152600060408201526000606082015260a085015260005b603281126120b8575b50505060408201518251600019810194919085116117d457602094808210156120b157505b8084526001600160a01b03928316600081815260cc87526040808220949095168082529387528481209290925560608086015182845260cb885285842085855288529285902092909255858501518551858701518651928352828901919091529481019490945291927fd795915374024be1f03204e052bd584b33bb85c9128ede9c54adbe0bbdc220959190a3015190565b905061201f565b60608501518281101561237b576040608087015101518110158061236c575b156121bf57508451906001820182116117d45760018201808752608087015160a08801526040870151101561213f5761213a915060405161211781611584565b600081526000602082015260006040820152600060608201526080870152611cc7565b611ff1565b60405163c06cd02b60e01b81526001600160a01b038881166004830152861660248201526001929092016044830152608082606481875afa80156121b35761213a92600091612194575b506080870152611cc7565b6121ad915060803d6080116114375761142981836115a0565b38612189565b6040513d6000823e3d90fd5b6121d56121e791604060a08901510151906117ea565b60a0870151602081519101519061261d565b8015808061235e575b612357571561221c575b5060608501519062093a8082018092116117d45761213a916060870152611cc7565b60608601516040805163c3a6ca1360e01b81526001600160a01b0388166004820152602481019290925290919082604481885afa9182156121b357600092612332575b506060870151604051630cb8c08d60e31b81526001600160a01b038816600482015260248101919091529060208280604481015b0381895afa9182156121b3576000926122fc575b506122f1926122de670de0b6b3a7640000936122d96122e69460608d015160005260ce60205260406000205490611806565b611806565b905190611819565b0460208701516117c7565b6020860152386121fa565b91506020823d60201161232a575b81612317602093836115a0565b8101031261150a579051906122f16122a7565b3d915061230a565b6122939192506123509060403d604011611c5757611c4881836115a0565b919061225f565b5050611ffa565b5086516040880151106121f0565b508551604087015110156120d7565b50611ffa565b606085015238611fc3565b50505050505050600090565b6040015162093a8090818101908181116117d45762093a7f019081116117d4578190048181029181830414901517156117d457606086015238611fae565b6123ef915060803d6080116114375761142981836115a0565b38611f9c565b60018552611f56565b6001600160a01b03848116600090815260cc60209081526040808320938a16835292905220548552611f4e565b505050505050600090565b90506020813d602011612460575b81612451602093836115a0565b8101031261150a575138611efa565b3d9150612444565b805182101561247c5760209160051b010190565b634e487b7160e01b600052603260045260246000fd5b9081602091031261150a5751801515810361150a5790565b60cf5460d0546040805163095ea7b360e01b81526001600160a01b039283166004820152602481018690529095949392602091600091839082906044908290869089165af19081156126135782916125f6575b50156125c15780828460d0541660a48a51809481936373dd055560e01b83528b6004840152816024840152816044840152608060648401528160848401525af19182156125b65791612599575b5015612562575061256093945060d0541661263e565b565b60649086519062461bcd60e51b8252600482015260116024820152701cdd185ada5b99c81a1bdc194819985a5b607a1b6044820152fd5b6125b09150823d84116110405761103281836115a0565b3861254a565b8851903d90823e3d90fd5b865162461bcd60e51b815260048101839052600e60248201526d1054141493d59157d1905253115160921b6044820152606490fd5b61260d9150833d85116110405761103281836115a0565b386124fd565b88513d84823e3d90fd5b9161262791611806565b81811161263757611c16916117ea565b5050600090565b600091826044926020956040519363a9059cbb60e01b85526004850152602484015260018060a01b03165af13d15601f3d116001600051141617161561268057565b60405162461bcd60e51b815260206004820152600f60248201526e1514905394d1915497d19052531151608a1b6044820152606490fdfea264697066735822122013c2c9c256e3e603951e9eb761a6280e061829439cda880367086ae03719266664736f6c63430008110033",
  "linkReferences": {},
  "deployedLinkReferences": {}
}