{
  "_format": "hh-sol-artifact-1",
  "contractName": "GaugeFactory",
  "sourceName": "contracts/gauges/GaugeFactory.sol",
  "abi": [
    {
      "inputs": [
        {
          "internalType": "address",
          "name": "_poolGaugeImplementation",
          "type": "address"
        },
        {
          "internalType": "address",
          "name": "_minter",
          "type": "address"
        },
        {
          "internalType": "address",
          "name": "_permit2Address",
          "type": "address"
        }
      ],
      "stateMutability": "nonpayable",
      "type": "constructor"
    },
    {
      "anonymous": false,
      "inputs": [
        {
          "indexed": true,
          "internalType": "address",
          "name": "previousOwner",
          "type": "address"
        },
        {
          "indexed": true,
          "internalType": "address",
          "name": "newOwner",
          "type": "address"
        }
      ],
      "name": "OwnershipTransferStarted",
      "type": "event"
    },
    {
      "anonymous": false,
      "inputs": [
        {
          "indexed": true,
          "internalType": "address",
          "name": "previousOwner",
          "type": "address"
        },
        {
          "indexed": true,
          "internalType": "address",
          "name": "newOwner",
          "type": "address"
        }
      ],
      "name": "OwnershipTransferred",
      "type": "event"
    },
    {
      "anonymous": false,
      "inputs": [
        {
          "indexed": true,
          "internalType": "address",
          "name": "lpAddr",
          "type": "address"
        },
        {
          "indexed": true,
          "internalType": "address",
          "name": "poolGauge",
          "type": "address"
        },
        {
          "indexed": false,
          "internalType": "uint256",
          "name": "",
          "type": "uint256"
        }
      ],
      "name": "PoolGaugeCreated",
      "type": "event"
    },
    {
      "anonymous": false,
      "inputs": [
        {
          "indexed": false,
          "internalType": "address",
          "name": "oldAddress",
          "type": "address"
        },
        {
          "indexed": false,
          "internalType": "address",
          "name": "newAddress",
          "type": "address"
        }
      ],
      "name": "SetPermit2Address",
      "type": "event"
    },
    {
      "inputs": [],
      "name": "acceptOwnership",
      "outputs": [],
      "stateMutability": "nonpayable",
      "type": "function"
    },
    {
      "inputs": [
        {
          "internalType": "uint256",
          "name": "",
          "type": "uint256"
        }
      ],
      "name": "allPools",
      "outputs": [
        {
          "internalType": "address",
          "name": "",
          "type": "address"
        }
      ],
      "stateMutability": "view",
      "type": "function"
    },
    {
      "inputs": [],
      "name": "allPoolsLength",
      "outputs": [
        {
          "internalType": "uint256",
          "name": "",
          "type": "uint256"
        }
      ],
      "stateMutability": "view",
      "type": "function"
    },
    {
      "inputs": [
        {
          "internalType": "address",
          "name": "_lpAddr",
          "type": "address"
        }
      ],
      "name": "createPool",
      "outputs": [
        {
          "internalType": "address",
          "name": "pool",
          "type": "address"
        }
      ],
      "stateMutability": "nonpayable",
      "type": "function"
    },
    {
      "inputs": [
        {
          "internalType": "address",
          "name": "",
          "type": "address"
        }
      ],
      "name": "getPool",
      "outputs": [
        {
          "internalType": "address",
          "name": "",
          "type": "address"
        }
      ],
      "stateMutability": "view",
      "type": "function"
    },
    {
      "inputs": [],
      "name": "miner",
      "outputs": [
        {
          "internalType": "address",
          "name": "",
          "type": "address"
        }
      ],
      "stateMutability": "view",
      "type": "function"
    },
    {
      "inputs": [],
      "name": "onwer",
      "outputs": [
        {
          "internalType": "address",
          "name": "",
          "type": "address"
        }
      ],
      "stateMutability": "view",
      "type": "function"
    },
    {
      "inputs": [],
      "name": "owner",
      "outputs": [
        {
          "internalType": "address",
          "name": "",
          "type": "address"
        }
      ],
      "stateMutability": "view",
      "type": "function"
    },
    {
      "inputs": [],
      "name": "pendingOwner",
      "outputs": [
        {
          "internalType": "address",
          "name": "",
          "type": "address"
        }
      ],
      "stateMutability": "view",
      "type": "function"
    },
    {
      "inputs": [],
      "name": "permit2",
      "outputs": [
        {
          "internalType": "address",
          "name": "",
          "type": "address"
        }
      ],
      "stateMutability": "view",
      "type": "function"
    },
    {
      "inputs": [],
      "name": "poolGaugeImplementation",
      "outputs": [
        {
          "internalType": "address",
          "name": "",
          "type": "address"
        }
      ],
      "stateMutability": "view",
      "type": "function"
    },
    {
      "inputs": [],
      "name": "renounceOwnership",
      "outputs": [],
      "stateMutability": "nonpayable",
      "type": "function"
    },
    {
      "inputs": [
        {
          "internalType": "address",
          "name": "newAddress",
          "type": "address"
        }
      ],
      "name": "setPermit2Address",
      "outputs": [],
      "stateMutability": "nonpayable",
      "type": "function"
    },
    {
      "inputs": [
        {
          "internalType": "address",
          "name": "newOwner",
          "type": "address"
        }
      ],
      "name": "transferOwnership",
      "outputs": [],
      "stateMutability": "nonpayable",
      "type": "function"
    }
  ],
  "bytecode": "0x60e03461021057601f610a8c38819003918201601f191683019291906001600160401b038411838510176102155781606092849260409687528339810103126102105761004b8161022b565b906100638361005c6020840161022b565b920161022b565b9060018060a01b0319918260015416600155600054903384831617600055855160018060a01b0392833391167f8be0079c531659141344cd1fd0a4f28419497f9722a3daafe3b4186f6b6457e0600080a3828616156101be57508183161561016e571692831561011c573360c05260805260a05260025416176002555161084c9081610240823960805181818161018e0152610336015260a0518181816103b101526106d9015260c0518181816103de015261071d0152f35b845162461bcd60e51b815260206004820152602560248201527f4761756765466163746f72793a20696e76616c6964207065726d697432206164604482015264647265737360d81b6064820152608490fd5b855162461bcd60e51b8152602060048201526024808201527f4761756765466163746f72793a20696e76616c6964206d696e746572206164646044820152637265737360e01b6064820152608490fd5b62461bcd60e51b815260206004820152602760248201527f4761756765466163746f72793a20696e76616c696420706f6f6c4761756765206044820152666164647265737360c81b6064820152608490fd5b600080fd5b634e487b7160e01b600052604160045260246000fd5b51906001600160a01b03821682036102105756fe60806040908082526004908136101561001757600080fd5b600092833560e01c91826312261ee71461074c575081633433edd914610708578163349dc329146106c457816341d1de9714610683578163715018a61461061e57816379ba50971461055e5781638da5cb5b146105365781639049f9d2146102b0578163a154f1bb146101ff578163bbe4f6db146101bd578163d70e087014610179578163e30c397814610150578163efde4e6414610131575063f2fde38b146100c057600080fd5b3461012d57602036600319011261012d57356001600160a01b0381811691829003610129576100ed6107be565b600180546001600160a01b031916831790558254167f38d16b8cac22d99fc7c124b9cd0de2d3fa1faef420bfe791d8c362d765e227008380a380f35b8280fd5b5080fd5b9190503461012957826003193601126101295760209250549051908152f35b83903461012d578160031936011261012d5760015490516001600160a01b039091168152602090f35b83903461012d578160031936011261012d57517f00000000000000000000000000000000000000000000000000000000000000006001600160a01b03168152602090f35b91905034610129576020366003190112610129576001600160a01b039035818116908190036101fb5783839160209552600385522054169051908152f35b8380fd5b8391503461012d57602036600319011261012d576001600160a01b03833581811694908590036101fb576102316107be565b841561028557507f35f7c25f313d8b378045946ab43056cd8fbf3cb403496ebaa0beef117936ec32929360025491816bffffffffffffffffffffffff60a01b8416176002558351921682526020820152a180f35b606490602084519162461bcd60e51b83528201526005602482015264043453030360dc1b6044820152fd5b9050346101295760209283600319360112610533578235926001600160a01b0380851692838603610533576102e36107be565b845195878701906bffffffffffffffffffffffff199060601b1681526014875285870167ffffffffffffffff9188821083831117610520578490828952895190206e5af43d82803e903d91602b57fd5bf37f0000000000000000000000000000000000000000000000000000000000000000763d602d80600a3d3981f3363d3d373d3d3d363d7300000062ffffff8260881c1617875260781b178b526037600986f5169788156104e0575050826002541690873b1561012957865191637c643b2f60e11b83528686840152847f00000000000000000000000000000000000000000000000000000000000000001660248401526044830152837f00000000000000000000000000000000000000000000000000000000000000001660648301528282608481838c5af180156104d6576104b4575b50508381526003875284812080546001600160a01b03191687179055825490680100000000000000008210156104a157508593927fb8aeacd2d230ee31d1290fe46acab83e0b109495960977972c1d9d0e51a45c5c928561047e8460018c96018555610771565b909283549160031b90811b9283911b16911916179055548551908152a351908152f35b634e487b7160e01b815260418452602490fd5b81116104c35785523880610417565b634e487b7160e01b825260418452602482fd5b87513d85823e3d90fd5b907f455243313136373a2063726561746532206661696c656400000000000000000060846064938c62461bcd60e51b855260448201526017858201520152fd5b634e487b7160e01b845260418652602484fd5b80fd5b83903461012d578160031936011261012d57905490516001600160a01b039091168152602090f35b905034610129578260031936011261012957600154916001600160a01b039133838516036105c95750506001600160a01b031991821660015582543392811683178455167f8be0079c531659141344cd1fd0a4f28419497f9722a3daafe3b4186f6b6457e08380a380f35b906020608492519162461bcd60e51b8352820152602960248201527f4f776e61626c6532537465703a2063616c6c6572206973206e6f7420746865206044820152683732bb9037bbb732b960b91b6064820152fd5b83346105335780600319360112610533576106376107be565b600180546001600160a01b03199081169091558154908116825581906001600160a01b03167f8be0079c531659141344cd1fd0a4f28419497f9722a3daafe3b4186f6b6457e08280a380f35b90508234610533576020366003190112610533578235925483101561053357506106ae602092610771565b905491519160018060a01b039160031b1c168152f35b83903461012d578160031936011261012d57517f00000000000000000000000000000000000000000000000000000000000000006001600160a01b03168152602090f35b83903461012d578160031936011261012d57517f00000000000000000000000000000000000000000000000000000000000000006001600160a01b03168152602090f35b84903461012d578160031936011261012d576002546001600160a01b03168152602090f35b6004548110156107a85760046000527f8a35acfbc15ff81a39ae7d344fd709f28e8600b4aa8c65c6b64bfe7fe36bd19b0190600090565b634e487b7160e01b600052603260045260246000fd5b6000546001600160a01b031633036107d257565b606460405162461bcd60e51b815260206004820152602060248201527f4f776e61626c653a2063616c6c6572206973206e6f7420746865206f776e65726044820152fdfea264697066735822122043ae2b4cd0b16318a6f75ab28543bbbb2e3ca7300d4fc54e5dedc5df010544db64736f6c63430008110033",
  "linkReferences": {},
  "deployedLinkReferences": {}
}