{
  "_format": "hh-sol-artifact-1",
  "contractName": "GombocFeeDistributor",
  "sourceName": "contracts/feeDistributor/GombocFeeDistributor.sol",
  "abi": [
    {
      "inputs": [],
      "stateMutability": "nonpayable",
      "type": "constructor"
    },
    {
      "anonymous": false,
      "inputs": [
        {
          "indexed": false,
          "internalType": "uint256",
          "name": "time",
          "type": "uint256"
        },
        {
          "indexed": false,
          "internalType": "uint256",
          "name": "tokens",
          "type": "uint256"
        }
      ],
      "name": "CheckpointToken",
      "type": "event"
    },
    {
      "anonymous": false,
      "inputs": [
        {
          "indexed": true,
          "internalType": "address",
          "name": "gomboc",
          "type": "address"
        },
        {
          "indexed": true,
          "internalType": "address",
          "name": "recipient",
          "type": "address"
        },
        {
          "indexed": false,
          "internalType": "uint256",
          "name": "amount",
          "type": "uint256"
        },
        {
          "indexed": false,
          "internalType": "uint256",
          "name": "claimEpoch",
          "type": "uint256"
        },
        {
          "indexed": false,
          "internalType": "uint256",
          "name": "maxEpoch",
          "type": "uint256"
        }
      ],
      "name": "Claimed",
      "type": "event"
    },
    {
      "anonymous": false,
      "inputs": [
        {
          "indexed": false,
          "internalType": "uint8",
          "name": "version",
          "type": "uint8"
        }
      ],
      "name": "Initialized",
      "type": "event"
    },
    {
      "anonymous": false,
      "inputs": [
        {
          "indexed": true,
          "internalType": "address",
          "name": "previousOwner",
          "type": "address"
        },
        {
          "indexed": true,
          "internalType": "address",
          "name": "newOwner",
          "type": "address"
        }
      ],
      "name": "OwnershipTransferStarted",
      "type": "event"
    },
    {
      "anonymous": false,
      "inputs": [
        {
          "indexed": true,
          "internalType": "address",
          "name": "previousOwner",
          "type": "address"
        },
        {
          "indexed": true,
          "internalType": "address",
          "name": "newOwner",
          "type": "address"
        }
      ],
      "name": "OwnershipTransferred",
      "type": "event"
    },
    {
      "anonymous": false,
      "inputs": [
        {
          "indexed": false,
          "internalType": "address",
          "name": "account",
          "type": "address"
        }
      ],
      "name": "Paused",
      "type": "event"
    },
    {
      "anonymous": false,
      "inputs": [
        {
          "indexed": true,
          "internalType": "address",
          "name": "token",
          "type": "address"
        },
        {
          "indexed": true,
          "internalType": "address",
          "name": "emergencyReturn",
          "type": "address"
        },
        {
          "indexed": false,
          "internalType": "uint256",
          "name": "amount",
          "type": "uint256"
        }
      ],
      "name": "RecoverBalance",
      "type": "event"
    },
    {
      "anonymous": false,
      "inputs": [
        {
          "indexed": false,
          "internalType": "bool",
          "name": "toggleFlag",
          "type": "bool"
        }
      ],
      "name": "ToggleAllowCheckpointToken",
      "type": "event"
    },
    {
      "anonymous": false,
      "inputs": [
        {
          "indexed": false,
          "internalType": "address",
          "name": "account",
          "type": "address"
        }
      ],
      "name": "Unpaused",
      "type": "event"
    },
    {
      "inputs": [],
      "name": "acceptOwnership",
      "outputs": [],
      "stateMutability": "nonpayable",
      "type": "function"
    },
    {
      "inputs": [
        {
          "internalType": "uint256",
          "name": "amount",
          "type": "uint256"
        }
      ],
      "name": "burn",
      "outputs": [
        {
          "internalType": "bool",
          "name": "",
          "type": "bool"
        }
      ],
      "stateMutability": "nonpayable",
      "type": "function"
    },
    {
      "inputs": [],
      "name": "canCheckpointToken",
      "outputs": [
        {
          "internalType": "bool",
          "name": "",
          "type": "bool"
        }
      ],
      "stateMutability": "view",
      "type": "function"
    },
    {
      "inputs": [],
      "name": "checkpointToken",
      "outputs": [],
      "stateMutability": "nonpayable",
      "type": "function"
    },
    {
      "inputs": [
        {
          "internalType": "address",
          "name": "gomboc",
          "type": "address"
        },
        {
          "internalType": "address",
          "name": "_addr",
          "type": "address"
        }
      ],
      "name": "claim",
      "outputs": [
        {
          "internalType": "uint256",
          "name": "",
          "type": "uint256"
        }
      ],
      "stateMutability": "nonpayable",
      "type": "function"
    },
    {
      "inputs": [
        {
          "internalType": "address",
          "name": "gomboc",
          "type": "address"
        },
        {
          "internalType": "address[]",
          "name": "_receivers",
          "type": "address[]"
        }
      ],
      "name": "claimMany",
      "outputs": [
        {
          "internalType": "uint256",
          "name": "",
          "type": "uint256"
        }
      ],
      "stateMutability": "nonpayable",
      "type": "function"
    },
    {
      "inputs": [
        {
          "internalType": "address[]",
          "name": "gombocList",
          "type": "address[]"
        },
        {
          "internalType": "address",
          "name": "receiver",
          "type": "address"
        }
      ],
      "name": "claimManyGomboc",
      "outputs": [
        {
          "internalType": "uint256",
          "name": "",
          "type": "uint256"
        }
      ],
      "stateMutability": "nonpayable",
      "type": "function"
    },
    {
      "inputs": [
        {
          "internalType": "address[]",
          "name": "gombocList",
          "type": "address[]"
        },
        {
          "internalType": "address",
          "name": "receiver",
          "type": "address"
        }
      ],
      "name": "claimableTokenManyGomboc",
      "outputs": [
        {
          "internalType": "uint256",
          "name": "",
          "type": "uint256"
        }
      ],
      "stateMutability": "nonpayable",
      "type": "function"
    },
    {
      "inputs": [
        {
          "internalType": "address",
          "name": "gomboc",
          "type": "address"
        },
        {
          "internalType": "address",
          "name": "_addr",
          "type": "address"
        }
      ],
      "name": "claimableTokens",
      "outputs": [
        {
          "internalType": "uint256",
          "name": "",
          "type": "uint256"
        }
      ],
      "stateMutability": "nonpayable",
      "type": "function"
    },
    {
      "inputs": [],
      "name": "emergencyReturn",
      "outputs": [
        {
          "internalType": "address",
          "name": "",
          "type": "address"
        }
      ],
      "stateMutability": "view",
      "type": "function"
    },
    {
      "inputs": [
        {
          "internalType": "address",
          "name": "_gomboc",
          "type": "address"
        },
        {
          "internalType": "uint256",
          "name": "_weekCursor",
          "type": "uint256"
        }
      ],
      "name": "gombocBalancePreWeek",
      "outputs": [
        {
          "internalType": "uint256",
          "name": "",
          "type": "uint256"
        }
      ],
      "stateMutability": "view",
      "type": "function"
    },
    {
      "inputs": [],
      "name": "gombocController",
      "outputs": [
        {
          "internalType": "address",
          "name": "",
          "type": "address"
        }
      ],
      "stateMutability": "view",
      "type": "function"
    },
    {
      "inputs": [
        {
          "internalType": "address",
          "name": "_gombocController",
          "type": "address"
        },
        {
          "internalType": "uint256",
          "name": "_startTime",
          "type": "uint256"
        },
        {
          "internalType": "address",
          "name": "_token",
          "type": "address"
        },
        {
          "internalType": "address",
          "name": "_stHOPE",
          "type": "address"
        },
        {
          "internalType": "address",
          "name": "_emergencyReturn",
          "type": "address"
        }
      ],
      "name": "initialize",
      "outputs": [],
      "stateMutability": "nonpayable",
      "type": "function"
    },
    {
      "inputs": [],
      "name": "lastTokenTime",
      "outputs": [
        {
          "internalType": "uint256",
          "name": "",
          "type": "uint256"
        }
      ],
      "stateMutability": "view",
      "type": "function"
    },
    {
      "inputs": [],
      "name": "owner",
      "outputs": [
        {
          "internalType": "address",
          "name": "",
          "type": "address"
        }
      ],
      "stateMutability": "view",
      "type": "function"
    },
    {
      "inputs": [],
      "name": "pause",
      "outputs": [],
      "stateMutability": "nonpayable",
      "type": "function"
    },
    {
      "inputs": [],
      "name": "paused",
      "outputs": [
        {
          "internalType": "bool",
          "name": "",
          "type": "bool"
        }
      ],
      "stateMutability": "view",
      "type": "function"
    },
    {
      "inputs": [],
      "name": "pendingOwner",
      "outputs": [
        {
          "internalType": "address",
          "name": "",
          "type": "address"
        }
      ],
      "stateMutability": "view",
      "type": "function"
    },
    {
      "inputs": [],
      "name": "recoverBalance",
      "outputs": [
        {
          "internalType": "bool",
          "name": "",
          "type": "bool"
        }
      ],
      "stateMutability": "nonpayable",
      "type": "function"
    },
    {
      "inputs": [],
      "name": "renounceOwnership",
      "outputs": [],
      "stateMutability": "nonpayable",
      "type": "function"
    },
    {
      "inputs": [
        {
          "internalType": "address",
          "name": "_addr",
          "type": "address"
        }
      ],
      "name": "setEmergencyReturn",
      "outputs": [],
      "stateMutability": "nonpayable",
      "type": "function"
    },
    {
      "inputs": [],
      "name": "stHOPE",
      "outputs": [
        {
          "internalType": "address",
          "name": "",
          "type": "address"
        }
      ],
      "stateMutability": "view",
      "type": "function"
    },
    {
      "inputs": [],
      "name": "startTime",
      "outputs": [
        {
          "internalType": "uint256",
          "name": "",
          "type": "uint256"
        }
      ],
      "stateMutability": "view",
      "type": "function"
    },
    {
      "inputs": [],
      "name": "timeCursor",
      "outputs": [
        {
          "internalType": "uint256",
          "name": "",
          "type": "uint256"
        }
      ],
      "stateMutability": "view",
      "type": "function"
    },
    {
      "inputs": [
        {
          "internalType": "address",
          "name": "",
          "type": "address"
        },
        {
          "internalType": "address",
          "name": "",
          "type": "address"
        }
      ],
      "name": "timeCursorOf",
      "outputs": [
        {
          "internalType": "uint256",
          "name": "",
          "type": "uint256"
        }
      ],
      "stateMutability": "view",
      "type": "function"
    },
    {
      "inputs": [],
      "name": "toggleAllowCheckpointToken",
      "outputs": [],
      "stateMutability": "nonpayable",
      "type": "function"
    },
    {
      "inputs": [],
      "name": "token",
      "outputs": [
        {
          "internalType": "address",
          "name": "",
          "type": "address"
        }
      ],
      "stateMutability": "view",
      "type": "function"
    },
    {
      "inputs": [],
      "name": "tokenLastBalance",
      "outputs": [
        {
          "internalType": "uint256",
          "name": "",
          "type": "uint256"
        }
      ],
      "stateMutability": "view",
      "type": "function"
    },
    {
      "inputs": [
        {
          "internalType": "uint256",
          "name": "",
          "type": "uint256"
        }
      ],
      "name": "tokensPerWeek",
      "outputs": [
        {
          "internalType": "uint256",
          "name": "",
          "type": "uint256"
        }
      ],
      "stateMutability": "view",
      "type": "function"
    },
    {
      "inputs": [
        {
          "internalType": "address",
          "name": "newOwner",
          "type": "address"
        }
      ],
      "name": "transferOwnership",
      "outputs": [],
      "stateMutability": "nonpayable",
      "type": "function"
    },
    {
      "inputs": [],
      "name": "unpause",
      "outputs": [],
      "stateMutability": "nonpayable",
      "type": "function"
    },
    {
      "inputs": [
        {
          "internalType": "address",
          "name": "",
          "type": "address"
        },
        {
          "internalType": "address",
          "name": "",
          "type": "address"
        }
      ],
      "name": "userEpochOf",
      "outputs": [
        {
          "internalType": "uint256",
          "name": "",
          "type": "uint256"
        }
      ],
      "stateMutability": "view",
      "type": "function"
    },
    {
      "inputs": [
        {
          "internalType": "address",
          "name": "_gomboc",
          "type": "address"
        },
        {
          "internalType": "address",
          "name": "_user",
          "type": "address"
        },
        {
          "internalType": "uint256",
          "name": "_timestamp",
          "type": "uint256"
        }
      ],
      "name": "veForAt",
      "outputs": [
        {
          "internalType": "uint256",
          "name": "",
          "type": "uint256"
        }
      ],
      "stateMutability": "view",
      "type": "function"
    },
    {
      "inputs": [
        {
          "internalType": "address",
          "name": "_gomboc",
          "type": "address"
        },
        {
          "internalType": "address",
          "name": "_user",
          "type": "address"
        },
        {
          "internalType": "uint256",
          "name": "_timestamp",
          "type": "uint256"
        }
      ],
      "name": "vePrecentageForAt",
      "outputs": [
        {
          "internalType": "uint256",
          "name": "",
          "type": "uint256"
        }
      ],
      "stateMutability": "view",
      "type": "function"
    }
  ],
  "bytecode": "0x608060405234801561001057600080fd5b5061001961001e565b6100de565b600054610100900460ff161561008a5760405162461bcd60e51b815260206004820152602760248201527f496e697469616c697a61626c653a20636f6e747261637420697320696e697469604482015266616c697a696e6760c81b606482015260840160405180910390fd5b60005460ff90811610156100dc576000805460ff191660ff9081179091556040519081527f7f26b83ff96e1f2b6a682f133852f6798a09c465da95921460cefb38474024989060200160405180910390a15b565b6123cd80620000ee6000396000f3fe608060405234801561001057600080fd5b50600436106102065760003560e01c80638736659b1161011a578063a143e2da116100ad578063bee5dc321161007c578063bee5dc3214610439578063dca2517014610441578063e30c397814610454578063f2fde38b14610465578063fc0c546a1461047857600080fd5b8063a143e2da146103f8578063b1850e941461040b578063b26bb8c414610413578063ba74da0b1461042657600080fd5b80638f4ddcfd116100e95780638f4ddcfd146103b6578063939ea66b146103c95780639aabdf89146103d2578063a01ef25f146103e557600080fd5b80638736659b14610373578063899519be1461037c5780638da5cb5b1461039c5780638ec8468a146103ad57600080fd5b80635c975abb1161019d57806378e979251161016c57806378e979251461033f57806379ba50971461034857806380302060146103505780638456cb59146103635780638721b7851461036b57600080fd5b80635c975abb1461030657806367b660b614610311578063715018a614610324578063745b97bd1461032c57600080fd5b806338b74b47116101d957806338b74b47146102935780633f4ba83a146102be57806342966c68146102c85780635a4b8c1d146102db57600080fd5b8063071cb5ad1461020b5780630cc672e414610249578063171acc831461026d57806321c0b34214610280575b600080fd5b610236610219366004611ea9565b60cc60209081526000928352604080842090915290825290205481565b6040519081526020015b60405180910390f35b60d25461025d90600160a01b900460ff1681565b6040519015158152602001610240565b61023661027b366004611edc565b61048b565b61023661028e366004611ea9565b6105bf565b6102366102a1366004611ea9565b60cb60209081526000928352604080842090915290825290205481565b6102c661065e565b005b61025d6102d6366004611f18565b610670565b60d3546102ee906001600160a01b031681565b6040516001600160a01b039091168152602001610240565b60975460ff1661025d565b61023661031f366004611fe9565b61077d565b6102c66107ef565b60d2546102ee906001600160a01b031681565b61023660c95481565b6102c6610801565b61023661035e36600461202e565b61087b565b6102c661096c565b6102c661097c565b61023660ca5481565b61023661038a366004611f18565b60ce6020526000908152604090205481565b6033546001600160a01b03166102ee565b61023660d15481565b6102366103c4366004611edc565b6109da565b61023660cd5481565b6102366103e0366004611ea9565b610b0c565b6102c66103f336600461207c565b610b4a565b60d0546102ee906001600160a01b031681565b61025d610cc4565b6102c66104213660046120da565b610dac565b610236610434366004611fe9565b610dd6565b6102c6610ecd565b61023661044f3660046120f5565b610f45565b6065546001600160a01b03166102ee565b6102c66104733660046120da565b610ffc565b60cf546102ee906001600160a01b031681565b60d25460405163362985ab60e01b81526001600160a01b0384811660048301528581166024830152600092839291169063362985ab90604401602060405180830381865afa1580156104e1573d6000803e3d6000fd5b505050506040513d601f19601f82011682018060405250810190610505919061211f565b905060006105158686868561106d565b60d25460405163c06cd02b60e01b81529192506000916001600160a01b039091169063c06cd02b9061054f9089908b908790600401612138565b608060405180830381865afa15801561056c573d6000803e3d6000fd5b505050506040513d601f19601f82011682018060405250810190610590919061215c565b8051602082015160408301519293506105b2926105ad90896121d8565b611166565b93505050505b9392505050565b60006105c9611193565b6001600160a01b0382166105db573391505b60cd5460d254600160a01b900460ff16801561060257506105ff62015180826121eb565b42115b156106125761060f6111d9565b50425b61061b816113ec565b9050600061062a85858461141e565b905080156106545761063c8482611a23565b8060d1600082825461064e91906121d8565b90915550505b9150505b92915050565b610666611b6f565b61066e611bc9565b565b600061067a611193565b81156107745760cf546040516323b872dd60e01b81526001600160a01b03909116906323b872dd906106b490339030908790600401612138565b6020604051808303816000875af11580156106d3573d6000803e3d6000fd5b505050506040513d601f19601f820116820180604052508101906106f791906121fe565b61073f5760405162461bcd60e51b81526020600482015260146024820152731514905394d1915497d19493d357d1905253115160621b60448201526064015b60405180910390fd5b60d254600160a01b900460ff16801561076757506201518060cd5461076491906121eb565b42115b15610774576107746111d9565b5060015b919050565b6000610787611193565b60405163ba74da0b60e01b8152309063ba74da0b906107ac9086908690600401612220565b6020604051808303816000875af11580156107cb573d6000803e3d6000fd5b505050506040513d601f19601f820116820180604052508101906105b8919061211f565b6107f7611b6f565b61066e6000611c1b565b60655433906001600160a01b0316811461086f5760405162461bcd60e51b815260206004820152602960248201527f4f776e61626c6532537465703a2063616c6c6572206973206e6f7420746865206044820152683732bb9037bbb732b960b91b6064820152608401610736565b61087881611c1b565b50565b6000610885611193565b60cd5460d254600160a01b900460ff1680156108ac57506108a962015180826121eb565b42115b156108bc576108b96111d9565b50425b6108c5816113ec565b90506000805b84518110156109535760008582815181106108e8576108e861227d565b6020026020010151905060006001600160a01b0316816001600160a01b0316036109125750610953565b600061091f88838761141e565b9050801561093e576109318282611a23565b61093b81856121eb565b93505b5050808061094b90612293565b9150506108cb565b508015610654578060d1600082825461064e91906121d8565b610974611b6f565b61066e611c34565b610984611b6f565b60d2805460ff60a01b198116600160a01b9182900460ff1615918202179091556040518181527fdbe6ac1081ebd8e648718341126659456f4009fcadfe1c23f66f5e61522610b29060200160405180910390a150565b60006109e5826113ec565b60405163171acc8360e01b8152909250600090309063171acc8390610a1290889088908890600401612138565b602060405180830381865afa158015610a2f573d6000803e3d6000fd5b505050506040513d601f19601f82011682018060405250810190610a53919061211f565b60d25460405163c3a6ca1360e01b81526001600160a01b038881166004830152602482018790529293506000929091169063c3a6ca13906044016040805180830381865afa158015610aa9573d6000803e3d6000fd5b505050506040513d601f19601f82011682018060405250810190610acd91906122ac565b8051909150600003610ae4576000925050506105b8565b8051610af883670de0b6b3a76400006122fb565b610b029190612312565b9695505050505050565b6000610b16611193565b6040516310e059a160e11b81526001600160a01b0380851660048301528316602482015230906321c0b342906044016107ac565b600054610100900460ff1615808015610b6a5750600054600160ff909116105b80610b845750303b158015610b84575060005460ff166001145b610be75760405162461bcd60e51b815260206004820152602e60248201527f496e697469616c697a61626c653a20636f6e747261637420697320616c72656160448201526d191e481a5b9a5d1a585b1a5e995960921b6064820152608401610736565b6000805460ff191660011790558015610c0a576000805461ff0019166101001790555b610c12611c71565b6000610c1d866113ec565b60c981905560cd81905560cf80546001600160a01b038089166001600160a01b03199283161790925560d0805488841690831617905560ca9290925560d280548a831690841617905560d3805491861691909216179055508015610cbc576000805461ff0019169055604051600181527f7f26b83ff96e1f2b6a682f133852f6798a09c465da95921460cefb3847402498906020015b60405180910390a15b505050505050565b6000610cce611b6f565b60cf546040516370a0823160e01b81523060048201526000916001600160a01b0316906370a0823190602401602060405180830381865afa158015610d17573d6000803e3d6000fd5b505050506040513d601f19601f82011682018060405250810190610d3b919061211f565b60cf5460d354919250610d5b916001600160a01b03918216911683611ca0565b60d35460cf546040518381526001600160a01b0392831692909116907fd0a849a4b4c83176fa52813aff6ed8aa60f8756be6d3cc5cdf086614e3db6af49060200160405180910390a3600191505090565b610db4611b6f565b60d380546001600160a01b0319166001600160a01b0392909216919091179055565b6000610de0611193565b60cd5460d254600160a01b900460ff168015610e075750610e0462015180826121eb565b42115b15610e1757610e146111d9565b50425b610e20816113ec565b90506000805b8551811015610ea4576000868281518110610e4357610e4361227d565b6020026020010151905060006001600160a01b0316816001600160a01b031603610e6d5750610ea4565b6000610e7a82888761141e565b90508015610e8f57610e8c81856121eb565b93505b50508080610e9c90612293565b915050610e26565b508015610654578060d16000828254610ebd91906121d8565b9091555061065490508482611a23565b6033546001600160a01b0316331480610f09575060d254600160a01b900460ff168015610f0957506201518060cd54610f0691906121eb565b42115b610f3d5760405162461bcd60e51b8152602060048201526005602482015264464430303160d81b6044820152606401610736565b61066e6111d9565b6000610f50826113ec565b60d2546040516319ab092360e11b81526001600160a01b0386811660048301526024820184905292945060009290911690633356124690604401602060405180830381865afa158015610fa7573d6000803e3d6000fd5b505050506040513d601f19601f82011682018060405250810190610fcb919061211f565b600084815260ce6020526040902054909150670de0b6b3a764000090610ff29083906122fb565b6106549190612312565b611004611b6f565b606580546001600160a01b0383166001600160a01b031990911681179091556110356033546001600160a01b031690565b6001600160a01b03167f38d16b8cac22d99fc7c124b9cd0de2d3fa1faef420bfe791d8c362d765e2270060405160405180910390a350565b60008082815b608081121561115a578183101561115a576000600261109284866121eb565b61109d9060026121eb565b6110a79190612312565b60d25460405163c06cd02b60e01b81529192506000916001600160a01b039091169063c06cd02b906110e1908c908e908790600401612138565b608060405180830381865afa1580156110fe573d6000803e3d6000fd5b505050506040513d601f19601f82011682018060405250810190611122919061215c565b90508781604001511161113757819450611145565b6111426001836121d8565b93505b5050808061115290612334565b915050611073565b50909695505050505050565b60008061117383856122fb565b90508480821115611189576000925050506105b8565b610b0282826121d8565b60975460ff161561066e5760405162461bcd60e51b815260206004820152601060248201526f14185d5cd8589b194e881c185d5cd95960821b6044820152606401610736565b60cf546040516370a0823160e01b81523060048201526000916001600160a01b0316906370a0823190602401602060405180830381865afa158015611222573d6000803e3d6000fd5b505050506040513d601f19601f82011682018060405250810190611246919061211f565b9050600060d1548261125891906121d8565b60d183905560cd54909150600061126f82426121d8565b4260cd5590506000611280836113ec565b90506000805b60148110156113b55761129c62093a80846121eb565b91508142101561131e57831580156112b357508442145b156112e157600083815260ce6020526040812080548892906112d69084906121eb565b909155506113b59050565b836112ec86426121d8565b6112f690886122fb565b6113009190612312565b600084815260ce6020526040812080549091906112d69084906121eb565b8315801561132b57508482145b1561135957600083815260ce60205260408120805488929061134e9084906121eb565b9091555061139c9050565b8361136486846121d8565b61136e90886122fb565b6113789190612312565b600084815260ce6020526040812080549091906113969084906121eb565b90915550505b81945081925080806113ad90612293565b915050611286565b5060408051428152602081018790527fce749457b74e10f393f2c6b1ce4261b78791376db5a3f501477a809f03f500d69101610cb3565b60006113fc6201518060076122fb565b61140a6201518060076122fb565b6114149084612312565b61065891906122fb565b6000611428611e0b565b6000808252602082015260d25460405163362985ab60e01b81526001600160a01b03868116600483015287811660248301529091169063362985ab90604401602060405180830381865afa158015611484573d6000803e3d6000fd5b505050506040513d601f19601f820116820180604052508101906114a8919061211f565b6040820181905260c954906000036114c5576000925050506105b8565b6001600160a01b03808716600090815260cb602090815260408083209389168352929052908120546060840181905290036115115761150a868683856040015161106d565b825261153a565b6001600160a01b03808716600090815260cc602090815260408083209389168352929052205482525b815160000361154857600182525b60d254825160405163c06cd02b60e01b81526001600160a01b039092169163c06cd02b9161157c9189918b91600401612138565b608060405180830381865afa158015611599573d6000803e3d6000fd5b505050506040513d601f19601f820116820180604052508101906115bd919061215c565b608083015260608201516000036115ff576115f9600162093a808460800151604001516115ea91906121eb565b6115f491906121d8565b6113ec565b60608301525b83826060015110611615576000925050506105b8565b808260600151101561162957606082018190525b604080516080810182526000808252602082018190529181018290526060810182905260a08401525b60328112156119655784836060015110156119655782608001516040015183606001511015801561168857506040830151835111155b1561176b576001836000018181516116a091906121eb565b905250608083015160a08401526040830151835111156116ec57604051806080016040528060008152602001600081526020016000815260200160008152508360800181905250611953565b60d254835160405163c06cd02b60e01b81526001600160a01b039092169163c06cd02b91611720918a918c91600401612138565b608060405180830381865afa15801561173d573d6000803e3d6000fd5b505050506040513d601f19601f82011682018060405250810190611761919061215c565b6080840152611953565b60008360a0015160400151846060015161178591906121d8565b905060006117a48560a00151600001518660a001516020015184611166565b9050801580156117b8575060408501518551115b156117c4575050611965565b80156119385760d254606086015160405163c3a6ca1360e01b81526000926001600160a01b03169163c3a6ca1391611814918e916004016001600160a01b03929092168252602082015260400190565b6040805180830381865afa158015611830573d6000803e3d6000fd5b505050506040513d601f19601f8201168201806040525081019061185491906122ac565b60d25460608801516040516319ab092360e11b81526001600160a01b038e811660048301526024820192909252929350600092911690633356124690604401602060405180830381865afa1580156118b0573d6000803e3d6000fd5b505050506040513d601f19601f820116820180604052508101906118d4919061211f565b82516060890151600090815260ce6020526040902054919250670de0b6b3a764000091839061190390876122fb565b61190d91906122fb565b6119179190612312565b6119219190612312565b8760200181815161193291906121eb565b90525050505b62093a808560600181815161194d91906121eb565b90525050505b8061195d81612334565b915050611652565b5061198482604001516001846000015161197f91906121d8565b611cb2565b8083526001600160a01b03878116600081815260cc60209081526040808320948b168084529482528083209590955560608088015184845260cb8352868420868552835292869020929092558087015187518689015187519283529282015294850152919290917fd795915374024be1f03204e052bd584b33bb85c9128ede9c54adbe0bbdc22095910160405180910390a35060200151949350505050565b60cf5460d05460405163095ea7b360e01b81526001600160a01b0391821660048201526024810184905291169063095ea7b3906044016020604051808303816000875af1158015611a78573d6000803e3d6000fd5b505050506040513d601f19601f82011682018060405250810190611a9c91906121fe565b611ad95760405162461bcd60e51b815260206004820152600e60248201526d1054141493d59157d1905253115160921b6044820152606401610736565b60d0546040516373dd055560e01b815260048101839052600060248201819052604482018190526080606483015260848201526001600160a01b03909116906373dd05559060a401600060405180830381600087803b158015611b3b57600080fd5b505af1158015611b4f573d6000803e3d6000fd5b505060d054611b6b92506001600160a01b031690508383611ca0565b5050565b6033546001600160a01b0316331461066e5760405162461bcd60e51b815260206004820181905260248201527f4f776e61626c653a2063616c6c6572206973206e6f7420746865206f776e65726044820152606401610736565b611bd1611cc8565b6097805460ff191690557f5db9ee0a495bf2e6ff9c91a7834c1ba4fdd244a5e8aa4e537bd38aeae4b073aa335b6040516001600160a01b03909116815260200160405180910390a1565b606580546001600160a01b031916905561087881611d11565b611c3c611193565b6097805460ff191660011790557f62e78cea01bee320cd4e420270b5ea74000d11b0c9f74754ebdbfc544b05a258611bfe3390565b600054610100900460ff16611c985760405162461bcd60e51b81526004016107369061234c565b61066e611d63565b82611cac818484611d93565b50505050565b6000818310611cc157816105b8565b5090919050565b60975460ff1661066e5760405162461bcd60e51b815260206004820152601460248201527314185d5cd8589b194e881b9bdd081c185d5cd95960621b6044820152606401610736565b603380546001600160a01b038381166001600160a01b0319831681179093556040519116919082907f8be0079c531659141344cd1fd0a4f28419497f9722a3daafe3b4186f6b6457e090600090a35050565b600054610100900460ff16611d8a5760405162461bcd60e51b81526004016107369061234c565b61066e33611c1b565b600060405163a9059cbb60e01b8152836004820152826024820152602060006044836000895af13d15601f3d1160016000511416171691505080611cac5760405162461bcd60e51b815260206004820152600f60248201526e1514905394d1915497d19052531151608a1b6044820152606401610736565b6040518060c0016040528060008152602001600081526020016000815260200160008152602001611e5d6040518060800160405280600081526020016000815260200160008152602001600081525090565b8152602001611e8d6040518060800160405280600081526020016000815260200160008152602001600081525090565b905290565b80356001600160a01b038116811461077857600080fd5b60008060408385031215611ebc57600080fd5b611ec583611e92565b9150611ed360208401611e92565b90509250929050565b600080600060608486031215611ef157600080fd5b611efa84611e92565b9250611f0860208501611e92565b9150604084013590509250925092565b600060208284031215611f2a57600080fd5b5035919050565b634e487b7160e01b600052604160045260246000fd5b600082601f830112611f5857600080fd5b8135602067ffffffffffffffff80831115611f7557611f75611f31565b8260051b604051601f19603f83011681018181108482111715611f9a57611f9a611f31565b604052938452858101830193838101925087851115611fb857600080fd5b83870191505b84821015611fde57611fcf82611e92565b83529183019190830190611fbe565b979650505050505050565b60008060408385031215611ffc57600080fd5b823567ffffffffffffffff81111561201357600080fd5b61201f85828601611f47565b925050611ed360208401611e92565b6000806040838503121561204157600080fd5b61204a83611e92565b9150602083013567ffffffffffffffff81111561206657600080fd5b61207285828601611f47565b9150509250929050565b600080600080600060a0868803121561209457600080fd5b61209d86611e92565b9450602086013593506120b260408701611e92565b92506120c060608701611e92565b91506120ce60808701611e92565b90509295509295909350565b6000602082840312156120ec57600080fd5b6105b882611e92565b6000806040838503121561210857600080fd5b61211183611e92565b946020939093013593505050565b60006020828403121561213157600080fd5b5051919050565b6001600160a01b039384168152919092166020820152604081019190915260600190565b60006080828403121561216e57600080fd5b6040516080810181811067ffffffffffffffff8211171561219157612191611f31565b8060405250825181526020830151602082015260408301516040820152606083015160608201528091505092915050565b634e487b7160e01b600052601160045260246000fd5b81810381811115610658576106586121c2565b80820180821115610658576106586121c2565b60006020828403121561221057600080fd5b815180151581146105b857600080fd5b604080825283519082018190526000906020906060840190828701845b828110156122625781516001600160a01b03168452928401929084019060010161223d565b5050506001600160a01b039490941692019190915250919050565b634e487b7160e01b600052603260045260246000fd5b6000600182016122a5576122a56121c2565b5060010190565b6000604082840312156122be57600080fd5b6040516040810181811067ffffffffffffffff821117156122e1576122e1611f31565b604052825181526020928301519281019290925250919050565b8082028115828204841417610658576106586121c2565b60008261232f57634e487b7160e01b600052601260045260246000fd5b500490565b60006001600160ff1b0182016122a5576122a56121c2565b6020808252602b908201527f496e697469616c697a61626c653a20636f6e7472616374206973206e6f74206960408201526a6e697469616c697a696e6760a81b60608201526080019056fea2646970667358221220f580b45d082d9f22bd7208383217a914a283cff0dd6d9be8e3b890cce8ed6d9b64736f6c63430008110033",
  "linkReferences": {},
  "deployedLinkReferences": {}
}