{
  "_format": "hh-sol-artifact-1",
  "contractName": "GombocController",
  "sourceName": "contracts/GombocController.sol",
  "abi": [
    {
      "inputs": [
        {
          "internalType": "address",
          "name": "tokenAddress",
          "type": "address"
        },
        {
          "internalType": "address",
          "name": "votingEscrowAddress",
          "type": "address"
        }
      ],
      "stateMutability": "nonpayable",
      "type": "constructor"
    },
    {
      "anonymous": false,
      "inputs": [
        {
          "indexed": false,
          "internalType": "string",
          "name": "name",
          "type": "string"
        },
        {
          "indexed": false,
          "internalType": "int128",
          "name": "type_id",
          "type": "int128"
        }
      ],
      "name": "AddType",
      "type": "event"
    },
    {
      "anonymous": false,
      "inputs": [
        {
          "indexed": true,
          "internalType": "address",
          "name": "gomboc_address",
          "type": "address"
        },
        {
          "indexed": false,
          "internalType": "int128",
          "name": "gomboc_type",
          "type": "int128"
        },
        {
          "indexed": false,
          "internalType": "uint256",
          "name": "weight",
          "type": "uint256"
        }
      ],
      "name": "NewGomboc",
      "type": "event"
    },
    {
      "anonymous": false,
      "inputs": [
        {
          "indexed": true,
          "internalType": "address",
          "name": "gomboc_address",
          "type": "address"
        },
        {
          "indexed": false,
          "internalType": "uint256",
          "name": "time",
          "type": "uint256"
        },
        {
          "indexed": false,
          "internalType": "uint256",
          "name": "weight",
          "type": "uint256"
        },
        {
          "indexed": false,
          "internalType": "uint256",
          "name": "total_weight",
          "type": "uint256"
        }
      ],
      "name": "NewGombocWeight",
      "type": "event"
    },
    {
      "anonymous": false,
      "inputs": [
        {
          "indexed": true,
          "internalType": "int128",
          "name": "type_id",
          "type": "int128"
        },
        {
          "indexed": false,
          "internalType": "uint256",
          "name": "time",
          "type": "uint256"
        },
        {
          "indexed": false,
          "internalType": "uint256",
          "name": "weight",
          "type": "uint256"
        },
        {
          "indexed": false,
          "internalType": "uint256",
          "name": "total_weight",
          "type": "uint256"
        }
      ],
      "name": "NewTypeWeight",
      "type": "event"
    },
    {
      "anonymous": false,
      "inputs": [
        {
          "indexed": true,
          "internalType": "address",
          "name": "previousOwner",
          "type": "address"
        },
        {
          "indexed": true,
          "internalType": "address",
          "name": "newOwner",
          "type": "address"
        }
      ],
      "name": "OwnershipTransferStarted",
      "type": "event"
    },
    {
      "anonymous": false,
      "inputs": [
        {
          "indexed": true,
          "internalType": "address",
          "name": "previousOwner",
          "type": "address"
        },
        {
          "indexed": true,
          "internalType": "address",
          "name": "newOwner",
          "type": "address"
        }
      ],
      "name": "OwnershipTransferred",
      "type": "event"
    },
    {
      "anonymous": false,
      "inputs": [
        {
          "indexed": true,
          "internalType": "address",
          "name": "user",
          "type": "address"
        },
        {
          "indexed": true,
          "internalType": "address",
          "name": "gomboc_address",
          "type": "address"
        },
        {
          "indexed": false,
          "internalType": "uint256",
          "name": "time",
          "type": "uint256"
        },
        {
          "indexed": false,
          "internalType": "uint256",
          "name": "weight",
          "type": "uint256"
        }
      ],
      "name": "VoteForGomboc",
      "type": "event"
    },
    {
      "inputs": [],
      "name": "acceptOwnership",
      "outputs": [],
      "stateMutability": "nonpayable",
      "type": "function"
    },
    {
      "inputs": [
        {
          "internalType": "address",
          "name": "addr",
          "type": "address"
        },
        {
          "internalType": "int128",
          "name": "gombocType",
          "type": "int128"
        },
        {
          "internalType": "uint256",
          "name": "weight",
          "type": "uint256"
        }
      ],
      "name": "addGomboc",
      "outputs": [],
      "stateMutability": "nonpayable",
      "type": "function"
    },
    {
      "inputs": [
        {
          "internalType": "string",
          "name": "_name",
          "type": "string"
        },
        {
          "internalType": "uint256",
          "name": "weight",
          "type": "uint256"
        }
      ],
      "name": "addType",
      "outputs": [],
      "stateMutability": "nonpayable",
      "type": "function"
    },
    {
      "inputs": [
        {
          "internalType": "address",
          "name": "gombocAddress",
          "type": "address"
        },
        {
          "internalType": "uint256",
          "name": "weight",
          "type": "uint256"
        }
      ],
      "name": "changeGombocWeight",
      "outputs": [],
      "stateMutability": "nonpayable",
      "type": "function"
    },
    {
      "inputs": [
        {
          "internalType": "int128",
          "name": "typeId",
          "type": "int128"
        },
        {
          "internalType": "uint256",
          "name": "weight",
          "type": "uint256"
        }
      ],
      "name": "changeTypeWeight",
      "outputs": [],
      "stateMutability": "nonpayable",
      "type": "function"
    },
    {
      "inputs": [
        {
          "internalType": "int128",
          "name": "",
          "type": "int128"
        },
        {
          "internalType": "uint256",
          "name": "",
          "type": "uint256"
        }
      ],
      "name": "changesSum",
      "outputs": [
        {
          "internalType": "uint256",
          "name": "",
          "type": "uint256"
        }
      ],
      "stateMutability": "view",
      "type": "function"
    },
    {
      "inputs": [],
      "name": "checkpoint",
      "outputs": [],
      "stateMutability": "nonpayable",
      "type": "function"
    },
    {
      "inputs": [
        {
          "internalType": "address",
          "name": "addr",
          "type": "address"
        }
      ],
      "name": "checkpointGomboc",
      "outputs": [],
      "stateMutability": "nonpayable",
      "type": "function"
    },
    {
      "inputs": [
        {
          "internalType": "address",
          "name": "addr",
          "type": "address"
        }
      ],
      "name": "getGombocWeight",
      "outputs": [
        {
          "internalType": "uint256",
          "name": "",
          "type": "uint256"
        }
      ],
      "stateMutability": "view",
      "type": "function"
    },
    {
      "inputs": [],
      "name": "getTotalWeight",
      "outputs": [
        {
          "internalType": "uint256",
          "name": "",
          "type": "uint256"
        }
      ],
      "stateMutability": "view",
      "type": "function"
    },
    {
      "inputs": [
        {
          "internalType": "int128",
          "name": "typeId",
          "type": "int128"
        }
      ],
      "name": "getTypeWeight",
      "outputs": [
        {
          "internalType": "uint256",
          "name": "",
          "type": "uint256"
        }
      ],
      "stateMutability": "view",
      "type": "function"
    },
    {
      "inputs": [
        {
          "internalType": "int128",
          "name": "typeId",
          "type": "int128"
        }
      ],
      "name": "getWeightsSumPreType",
      "outputs": [
        {
          "internalType": "uint256",
          "name": "",
          "type": "uint256"
        }
      ],
      "stateMutability": "view",
      "type": "function"
    },
    {
      "inputs": [
        {
          "internalType": "address",
          "name": "gombocAddress",
          "type": "address"
        },
        {
          "internalType": "uint256",
          "name": "time",
          "type": "uint256"
        }
      ],
      "name": "gombocRelativeWeight",
      "outputs": [
        {
          "internalType": "uint256",
          "name": "",
          "type": "uint256"
        }
      ],
      "stateMutability": "view",
      "type": "function"
    },
    {
      "inputs": [
        {
          "internalType": "address",
          "name": "gombocAddress",
          "type": "address"
        },
        {
          "internalType": "uint256",
          "name": "time",
          "type": "uint256"
        }
      ],
      "name": "gombocRelativeWeightWrite",
      "outputs": [
        {
          "internalType": "uint256",
          "name": "",
          "type": "uint256"
        }
      ],
      "stateMutability": "nonpayable",
      "type": "function"
    },
    {
      "inputs": [
        {
          "internalType": "int128",
          "name": "",
          "type": "int128"
        }
      ],
      "name": "gombocTypeNames",
      "outputs": [
        {
          "internalType": "string",
          "name": "",
          "type": "string"
        }
      ],
      "stateMutability": "view",
      "type": "function"
    },
    {
      "inputs": [
        {
          "internalType": "address",
          "name": "_addr",
          "type": "address"
        }
      ],
      "name": "gombocTypes",
      "outputs": [
        {
          "internalType": "int128",
          "name": "",
          "type": "int128"
        }
      ],
      "stateMutability": "view",
      "type": "function"
    },
    {
      "inputs": [
        {
          "internalType": "uint256",
          "name": "",
          "type": "uint256"
        }
      ],
      "name": "gombocs",
      "outputs": [
        {
          "internalType": "address",
          "name": "",
          "type": "address"
        }
      ],
      "stateMutability": "view",
      "type": "function"
    },
    {
      "inputs": [
        {
          "internalType": "address",
          "name": "",
          "type": "address"
        },
        {
          "internalType": "address",
          "name": "",
          "type": "address"
        }
      ],
      "name": "lastUserVote",
      "outputs": [
        {
          "internalType": "uint256",
          "name": "",
          "type": "uint256"
        }
      ],
      "stateMutability": "view",
      "type": "function"
    },
    {
      "inputs": [
        {
          "internalType": "address",
          "name": "",
          "type": "address"
        },
        {
          "internalType": "address",
          "name": "",
          "type": "address"
        }
      ],
      "name": "lastVoteVeLtPointEpoch",
      "outputs": [
        {
          "internalType": "uint256",
          "name": "",
          "type": "uint256"
        }
      ],
      "stateMutability": "view",
      "type": "function"
    },
    {
      "inputs": [],
      "name": "nGomboc",
      "outputs": [
        {
          "internalType": "int128",
          "name": "",
          "type": "int128"
        }
      ],
      "stateMutability": "view",
      "type": "function"
    },
    {
      "inputs": [],
      "name": "nGombocTypes",
      "outputs": [
        {
          "internalType": "int128",
          "name": "",
          "type": "int128"
        }
      ],
      "stateMutability": "view",
      "type": "function"
    },
    {
      "inputs": [],
      "name": "owner",
      "outputs": [
        {
          "internalType": "address",
          "name": "",
          "type": "address"
        }
      ],
      "stateMutability": "view",
      "type": "function"
    },
    {
      "inputs": [],
      "name": "pendingOwner",
      "outputs": [
        {
          "internalType": "address",
          "name": "",
          "type": "address"
        }
      ],
      "stateMutability": "view",
      "type": "function"
    },
    {
      "inputs": [
        {
          "internalType": "int128",
          "name": "",
          "type": "int128"
        },
        {
          "internalType": "uint256",
          "name": "",
          "type": "uint256"
        }
      ],
      "name": "pointsSum",
      "outputs": [
        {
          "internalType": "uint256",
          "name": "bias",
          "type": "uint256"
        },
        {
          "internalType": "uint256",
          "name": "slope",
          "type": "uint256"
        }
      ],
      "stateMutability": "view",
      "type": "function"
    },
    {
      "inputs": [
        {
          "internalType": "uint256",
          "name": "",
          "type": "uint256"
        }
      ],
      "name": "pointsTotal",
      "outputs": [
        {
          "internalType": "uint256",
          "name": "",
          "type": "uint256"
        }
      ],
      "stateMutability": "view",
      "type": "function"
    },
    {
      "inputs": [
        {
          "internalType": "int128",
          "name": "",
          "type": "int128"
        },
        {
          "internalType": "uint256",
          "name": "",
          "type": "uint256"
        }
      ],
      "name": "pointsTypeWeight",
      "outputs": [
        {
          "internalType": "uint256",
          "name": "",
          "type": "uint256"
        }
      ],
      "stateMutability": "view",
      "type": "function"
    },
    {
      "inputs": [
        {
          "internalType": "address",
          "name": "",
          "type": "address"
        },
        {
          "internalType": "uint256",
          "name": "",
          "type": "uint256"
        }
      ],
      "name": "pointsWeight",
      "outputs": [
        {
          "internalType": "uint256",
          "name": "bias",
          "type": "uint256"
        },
        {
          "internalType": "uint256",
          "name": "slope",
          "type": "uint256"
        }
      ],
      "stateMutability": "view",
      "type": "function"
    },
    {
      "inputs": [],
      "name": "renounceOwnership",
      "outputs": [],
      "stateMutability": "nonpayable",
      "type": "function"
    },
    {
      "inputs": [
        {
          "internalType": "uint256",
          "name": "",
          "type": "uint256"
        }
      ],
      "name": "timeSum",
      "outputs": [
        {
          "internalType": "uint256",
          "name": "",
          "type": "uint256"
        }
      ],
      "stateMutability": "view",
      "type": "function"
    },
    {
      "inputs": [],
      "name": "timeTotal",
      "outputs": [
        {
          "internalType": "uint256",
          "name": "",
          "type": "uint256"
        }
      ],
      "stateMutability": "view",
      "type": "function"
    },
    {
      "inputs": [
        {
          "internalType": "uint256",
          "name": "",
          "type": "uint256"
        }
      ],
      "name": "timeTypeWeight",
      "outputs": [
        {
          "internalType": "uint256",
          "name": "",
          "type": "uint256"
        }
      ],
      "stateMutability": "view",
      "type": "function"
    },
    {
      "inputs": [
        {
          "internalType": "address",
          "name": "",
          "type": "address"
        }
      ],
      "name": "timeWeight",
      "outputs": [
        {
          "internalType": "uint256",
          "name": "",
          "type": "uint256"
        }
      ],
      "stateMutability": "view",
      "type": "function"
    },
    {
      "inputs": [],
      "name": "token",
      "outputs": [
        {
          "internalType": "address",
          "name": "",
          "type": "address"
        }
      ],
      "stateMutability": "view",
      "type": "function"
    },
    {
      "inputs": [
        {
          "internalType": "address",
          "name": "newOwner",
          "type": "address"
        }
      ],
      "name": "transferOwnership",
      "outputs": [],
      "stateMutability": "nonpayable",
      "type": "function"
    },
    {
      "inputs": [
        {
          "internalType": "address",
          "name": "gombocAddress",
          "type": "address"
        },
        {
          "internalType": "uint256",
          "name": "userWeight",
          "type": "uint256"
        }
      ],
      "name": "voteForGombocWeights",
      "outputs": [],
      "stateMutability": "nonpayable",
      "type": "function"
    },
    {
      "inputs": [
        {
          "internalType": "address",
          "name": "",
          "type": "address"
        }
      ],
      "name": "voteUserPower",
      "outputs": [
        {
          "internalType": "uint256",
          "name": "",
          "type": "uint256"
        }
      ],
      "stateMutability": "view",
      "type": "function"
    },
    {
      "inputs": [
        {
          "internalType": "address",
          "name": "",
          "type": "address"
        },
        {
          "internalType": "address",
          "name": "",
          "type": "address"
        }
      ],
      "name": "voteUserSlopes",
      "outputs": [
        {
          "internalType": "uint256",
          "name": "slope",
          "type": "uint256"
        },
        {
          "internalType": "uint256",
          "name": "power",
          "type": "uint256"
        },
        {
          "internalType": "uint256",
          "name": "end",
          "type": "uint256"
        }
      ],
      "stateMutability": "view",
      "type": "function"
    },
    {
      "inputs": [
        {
          "internalType": "address",
          "name": "",
          "type": "address"
        },
        {
          "internalType": "address",
          "name": "",
          "type": "address"
        },
        {
          "internalType": "uint256",
          "name": "",
          "type": "uint256"
        }
      ],
      "name": "voteVeLtPointHistory",
      "outputs": [
        {
          "internalType": "uint256",
          "name": "bias",
          "type": "uint256"
        },
        {
          "internalType": "uint256",
          "name": "slope",
          "type": "uint256"
        },
        {
          "internalType": "uint256",
          "name": "ts",
          "type": "uint256"
        },
        {
          "internalType": "uint256",
          "name": "blk",
          "type": "uint256"
        }
      ],
      "stateMutability": "view",
      "type": "function"
    },
    {
      "inputs": [],
      "name": "votingEscrow",
      "outputs": [
        {
          "internalType": "address",
          "name": "",
          "type": "address"
        }
      ],
      "stateMutability": "view",
      "type": "function"
    }
  ],
  "bytecode": "0x60c06040523480156200001157600080fd5b506040516200298b3803806200298b8339810160408190526200003491620001d0565b6200003f33620000f9565b6001600160a01b038216620000835760405162461bcd60e51b8152602060048201526005602482015264043453030360dc1b60448201526064015b60405180910390fd5b6001600160a01b038116620000c35760405162461bcd60e51b8152602060048201526005602482015264043453030360dc1b60448201526064016200007a565b6001600160a01b03828116608052811660a052620000ed4262000123602090811b6200178617901c565b60125550620002519050565b600180546001600160a01b0319169055620001208162000163602090811b620017b817901c565b50565b60006200013562015180600762000208565b6200014562015180600762000208565b6200015190846200022e565b6200015d919062000208565b92915050565b600080546001600160a01b038381166001600160a01b0319831681178455604051919092169283917f8be0079c531659141344cd1fd0a4f28419497f9722a3daafe3b4186f6b6457e09190a35050565b80516001600160a01b0381168114620001cb57600080fd5b919050565b60008060408385031215620001e457600080fd5b620001ef83620001b3565b9150620001ff60208401620001b3565b90509250929050565b80820281158282048414176200015d57634e487b7160e01b600052601160045260246000fd5b6000826200024c57634e487b7160e01b600052601260045260246000fd5b500490565b60805160a05161270662000285600039600081816103b001528181610e700152610f060152600061073601526127066000f3fe608060405234801561001057600080fd5b506004361061023d5760003560e01c8063870e37331161013b578063e0ab067e116100b8578063f2fde38b1161007c578063f2fde38b146106d9578063f763d1ff146106ec578063f9b446781461071e578063fc0c546a14610731578063fe5e38631461075857600080fd5b8063e0ab067e14610615578063e30c397814610628578063e75ec69914610639578063eab9041e1461068e578063ec73d906146106b957600080fd5b8063b93cd39d116100ff578063b93cd39d14610524578063c06cd02b14610537578063c2c4c5c11461059d578063c3a6ca13146105a5578063daff6f08146105ec57600080fd5b8063870e3733146104965780638da5cb5b146104a95780638ebea492146104ba57806393580fe0146104cd578063b827ab79146104e157600080fd5b8063362985ab116101c95780636fc25b061161018d5780636fc25b0614610433578063715018a61461045357806377bc2ae01461045b57806379ba50971461047b5780637d1530d51461048357600080fd5b8063362985ab146103805780634f2bfe5b146103ab57806362897a32146103ea578063688f3f1f1461040a5780636eb2d62c1461041357600080fd5b806326f4ed511161021057806326f4ed51146102fa578063289f338f146103255780632cb3075e146103455780632e22618a14610358578063335612461461036d57600080fd5b8063057c9cb41461024257806306aba0e11461027557806310d1ba581461028c578063117610fc146102cf575b600080fd5b6102626102503660046121bb565b60116020526000908152604090205481565b6040519081526020015b60405180910390f35b601254600090815260116020526040902054610262565b61026261029a3660046121eb565b600f81900b60009081526013602090815260408083206001600160801b03909416835260148252808320548352929052205490565b6102626102dd366004612206565b600f60209081526000928352604080842090915290825290205481565b610262610308366004612247565b600860209081526000928352604080842090915290825290205481565b61026261033336600461227a565b600d6020526000908152604090205481565b610262610353366004612295565b610793565b61036b6103663660046122b1565b6107bb565b005b61026261037b366004612295565b610a9b565b61026261038e366004612247565b600a60209081526000928352604080842090915290825290205481565b6103d27f000000000000000000000000000000000000000000000000000000000000000081565b6040516001600160a01b03909116815260200161026c565b6103fd6103f83660046121eb565b610aa7565b60405161026c9190612333565b61026260125481565b6102626104213660046121bb565b60146020526000908152604090205481565b60025461044090600f0b81565b604051600f9190910b815260200161026c565b61036b610b41565b6102626104693660046121bb565b60106020526000908152604090205481565b61036b610b55565b61044061049136600461227a565b610bcf565b61036b6104a436600461235c565b610c34565b6000546001600160a01b03166103d2565b61036b6104c8366004612295565b610cd4565b60025461044090600160801b9004600f0b81565b6102626104ef3660046121eb565b600f81900b6000908152600e602090815260408083206001600160801b03909416835260108252808320548352929052205490565b61036b61053236600461227a565b610d51565b61057d610545366004612411565b600960209081526000938452604080852082529284528284209052825290208054600182015460028301546003909301549192909184565b60408051948552602085019390935291830152606082015260800161026c565b61036b610d67565b6105d76105b3366004612295565b600b6020908152600092835260408084209091529082529020805460019091015482565b6040805192835260208301919091520161026c565b6103d26105fa3660046121bb565b6004602052600090815260409020546001600160a01b031681565b61036b610623366004612206565b610d6f565b6001546001600160a01b03166103d2565b610673610647366004612247565b600660209081526000928352604080842090915290825290208054600182015460029092015490919083565b6040805193845260208401929092529082015260600161026c565b61026261069c366004612206565b601360209081526000928352604080842090915290825290205481565b6102626106c736600461227a565b60076020526000908152604090205481565b61036b6106e736600461227a565b610d81565b6105d76106fa366004612206565b600e6020908152600092835260408084209091529082529020805460019091015482565b61036b61072c366004612295565b610df2565b6103d27f000000000000000000000000000000000000000000000000000000000000000081565b61026261076636600461227a565b6001600160a01b03166000908152600b60209081526040808320600d835281842054845290915290205490565b600061079e83611808565b506107a7611995565b506107b28383611afd565b90505b92915050565b6107c3611bc7565b600082600f0b121580156107e05750600254600f90810b9083900b125b6108195760405162461bcd60e51b8152602060048201526005602482015264474330303160d81b60448201526064015b60405180910390fd5b6001600160a01b038316600090815260056020526040902054600f0b1561086a5760405162461bcd60e51b815260206004820152600560248201526423a198181960d91b6044820152606401610810565b600254600160801b9004600f0b610882816001612453565b600280546001600160801b03928316600160801b02921691909117905583600460006108b4846001600160801b031690565b8152602081019190915260400160002080546001600160a01b0319166001600160a01b03929092169190911790556108ed836001612453565b6001600160a01b038516600090815260056020526040812080546001600160801b0319166001600160801b039390931692909217909155610944610935620151806007612480565b61093f9042612497565b611786565b90508215610a0057600061095785611c21565b9050600061096486611ceb565b90506000610970611995565b905061097c8287612497565b600f88900b6000908152600e602090815260408083208884528252808320939093556001600160801b038a16825260109052208490556109bc8684612480565b6109c69082612497565b60008581526011602090815260408083209390935560128790556001600160a01b038b168252600b81528282208783529052208690555050505b6001600160801b0384166000908152601060205260408120549003610a3b576001600160801b03841660009081526010602052604090208190555b6001600160a01b0385166000818152600d60209081526040918290208490558151600f88900b81529081018690527f19673bf07d33c3c59c62af022ddbde96f27516096651b9f4649b2d076e612a4b910160405180910390a25050505050565b60006107b28383611afd565b60036020526000908152604090208054610ac0906124aa565b80601f0160208091040260200160405190810160405280929190818152602001828054610aec906124aa565b8015610b395780601f10610b0e57610100808354040283529160200191610b39565b820191906000526020600020905b815481529060010190602001808311610b1c57829003601f168201915b505050505081565b610b49611bc7565b610b536000611e61565b565b60015433906001600160a01b03168114610bc35760405162461bcd60e51b815260206004820152602960248201527f4f776e61626c6532537465703a2063616c6c6572206973206e6f7420746865206044820152683732bb9037bbb732b960b91b6064820152608401610810565b610bcc81611e61565b50565b6001600160a01b038116600090815260056020526040812054600f0b808203610c225760405162461bcd60e51b8152602060048201526005602482015264043453030360dc1b6044820152606401610810565b610c2d6001826124e4565b9392505050565b610c3c611bc7565b600254600f0b6000818152600360205260409020610c5a848261255f565b50610c66816001612453565b600280546001600160801b0319166001600160801b03929092169190911790558115610c9657610c968183611e7a565b7f6fbe76157c712f16b5a3c44ed48baa04e3450bc3fab0c020e848aca72bbccc848382604051610cc792919061261f565b60405180910390a1505050565b610cdc611bc7565b6001600160a01b038216600090815260056020526040812054610d0490600190600f0b6124e4565b9050600081600f0b1215610d425760405162461bcd60e51b8152602060048201526005602482015264047433030360dc1b6044820152606401610810565b610d4c8383611f6f565b505050565b610d5a81611808565b50610d63611995565b5050565b610bcc611995565b610d77611bc7565b610d638282611e7a565b610d89611bc7565b600180546001600160a01b0383166001600160a01b03199091168117909155610dba6000546001600160a01b031690565b6001600160a01b03167f38d16b8cac22d99fc7c124b9cd0de2d3fa1faef420bfe791d8c362d765e2270060405160405180910390a350565b6001600160a01b038216600090815260056020526040812054610e1a90600190600f0b6124e4565b9050600081600f0b1215610e585760405162461bcd60e51b8152602060048201526005602482015264047433030360dc1b6044820152606401610810565b604051631e74dac160e31b81523360048201526000907f00000000000000000000000000000000000000000000000000000000000000006001600160a01b03169063f3a6d60890602401602060405180830381865afa158015610ebf573d6000803e3d6000fd5b505050506040513d601f19601f82011682018060405250810190610ee39190612644565b6040516326f57e5760e11b81523360048201529091506000906001600160a01b037f00000000000000000000000000000000000000000000000000000000000000001690634deafcae90602401602060405180830381865afa158015610f4d573d6000803e3d6000fd5b505050506040513d601f19601f82011682018060405250810190610f719190612644565b90506000610f86610935620151806007612480565b9050808211610fbf5760405162461bcd60e51b8152602060048201526005602482015264474330303360d81b6044820152606401610810565b612710851115610ff95760405162461bcd60e51b815260206004820152600560248201526411d0cc0c0d60da1b6044820152606401610810565b61100762015180600a612480565b3360009081526008602090815260408083206001600160a01b038b1684529091529020546110359190612497565b42101561106c5760405162461bcd60e51b8152602060048201526005602482015264474330303560d81b6044820152606401610810565b611074612112565b3360009081526006602090815260408083206001600160a01b038b168452825280832081516060810183528154815260018201549381019390935260020154828201908152918452830191909152518210156110e1578051604001516110db90839061265d565b60408201525b60408101518151516110f39190612480565b606080830191909152604080519182019052806127106111138988612480565b61111d9190612670565b81526020808201899052604090910185905282015261113c828461265d565b608082018190526020820151516111539190612480565b60a08201908152604080516080810182529151825260208084018051518285015283830186905243606085015260c085019390935233600090815260078252919091205483518201519251909101519091906111af9083612497565b6111b9919061265d565b33600090815260076020526040902081905590506127108111156112075760405162461bcd60e51b815260206004820152600560248201526423a198181b60d91b6044820152606401610810565b600061121289611808565b6001600160a01b038a166000908152600b6020908152604080832088845290915281206001015491925061124589611ceb565b600f8a900b6000908152600e602090815260408083208a8452909152902060010154606087015160a0880151929350909161128e906112849087612497565b88606001516120fc565b611298919061265d565b6001600160a01b038d166000908152600b602090815260408083208b8452909152902055606086015160a08701516112d4906112849085612497565b6112de919061265d565b600f8b900b6000908152600e602090815260408083208b84529091529081902091909155865101518710156113a75785515160208701515161132c906113249086612497565b8851516120fc565b611336919061265d565b6001600160a01b038d166000908152600b602090815260408083208b84528252909120600101919091558651519087015151611376906113249084612497565b611380919061265d565b600f8b900b6000908152600e602090815260408083208b8452909152902060010155611425565b602080870151516001600160a01b038e166000908152600b835260408082208b83529093529182206001018054919290916113e3908490612497565b909155505060208087015151600f8c900b6000908152600e835260408082208b835290935291822060010180549192909161141f908490612497565b90915550505b8551604001514210156114ab578551516001600160a01b038d166000908152600c602090815260408083208a5182015184529091528120805490919061146c90849061265d565b9091555050855151600f8b810b6000908152602091825260408082208a51820151835290925290812080549091906114a590849061265d565b90915550505b60208087018051516001600160a01b038f166000908152600c8452604080822093518101518252929093529082208054919290916114ea908490612497565b90915550506020808701805151600f8d810b600090815290845260408082209351810151825292909352908220805491929091611528908490612497565b909155506115369050611995565b50856020015160066000336001600160a01b03166001600160a01b0316815260200190815260200160002060008e6001600160a01b03166001600160a01b031681526020019081526020016000206000820151816000015560208201518160010155604082015181600201559050504260086000336001600160a01b03166001600160a01b0316815260200190815260200160002060008e6001600160a01b03166001600160a01b03168152602001908152602001600020819055506000600a6000336001600160a01b03166001600160a01b0316815260200190815260200160002060008e6001600160a01b03166001600160a01b031681526020019081526020016000205460016116499190612497565b90508660c0015160096000336001600160a01b03166001600160a01b0316815260200190815260200160002060008f6001600160a01b03166001600160a01b0316815260200190815260200160002060008381526020019081526020016000206000820151816000015560208201518160010155604082015181600201556060820151816003015590505080600a6000336001600160a01b03166001600160a01b0316815260200190815260200160002060008f6001600160a01b03166001600160a01b03168152602001908152602001600020819055508c6001600160a01b0316336001600160a01b03167fce1dc810fa82e83c4f084d18c488cee677745c66f464ff8f8b76b23f125d41af428f60405161176f929190918252602082015260400190565b60405180910390a350505050505050505050505050565b6000611796620151806007612480565b6117a4620151806007612480565b6117ae9084612670565b6107b59190612480565b600080546001600160a01b038381166001600160a01b0319831681178455604051919092169283917f8be0079c531659141344cd1fd0a4f28419497f9722a3daafe3b4186f6b6457e09190a35050565b6001600160a01b0381166000908152600d60205260408120548061182f5750600092915050565b6001600160a01b0383166000908152600b6020908152604080832084845282528083208151808301909252805482526001015491810191909152905b6101f481101561198c5742831161198c5761188a620151806007612480565b6118949084612497565b925060006118a6620151806007612480565b83602001516118b59190612480565b905080836000015111156119195780836000018181516118d5919061265d565b9052506001600160a01b0386166000908152600c60209081526040808320878452825290912054908401805182919061190f90839061265d565b9052506119249050565b600080845260208401525b6001600160a01b0386166000908152600b602090815260408083208784528252909120845181559084015160019091015542841115611979576001600160a01b0386166000908152600d602052604090208490555b508061198481612692565b91505061186b565b50519392505050565b60125460025460009190600f0b428211156119c5576119b8620151806007612480565b6119c2908361265d565b91505b600082815260116020526040812054905b606481600f0b1215611a165782600f0b81600f0b0315611a16576119f981611ceb565b50611a0381611c21565b5080611a0e816126ab565b9150506119d6565b5060005b6101f4811015611af557428411611af557611a39620151806007612480565b611a439085612497565b93506000915060005b606481600f0b1215611ac35783600f0b81600f0b0315611ac357600f81900b6000818152600e6020908152604080832089845282528083205493835260138252808320898452909152902054611aa28183612480565b611aac9086612497565b945050508080611abb906126ab565b915050611a4c565b50600084815260116020526040902082905542841115611ae35760128490555b80611aed81612692565b915050611a1a565b509392505050565b600080611b0983611786565b60008181526011602052604090205490915080611b2b576000925050506107b5565b6001600160a01b038516600090815260056020526040812054611b5390600190600f0b6124e4565b600f81900b60009081526013602090815260408083208784528252808320546001600160a01b038b168452600b835281842088855290925290912054919250908381611ba784670de0b6b3a7640000612480565b611bb19190612480565b611bbb9190612670565b98975050505050505050565b6000546001600160a01b03163314610b535760405162461bcd60e51b815260206004820181905260248201527f4f776e61626c653a2063616c6c6572206973206e6f7420746865206f776e65726044820152606401610810565b6001600160801b03811660009081526014602052604081205480611c485750600092915050565b600f83900b6000908152601360209081526040808320848452909152812054905b6101f4811015611af557428311611af557611c88620151806007612480565b611c929084612497565b600f86900b60009081526013602090815260408083208484529091529020839055925042831115611cd9576001600160801b03851660009081526014602052604090208390555b80611ce381612692565b915050611c69565b6001600160801b03811660008181526010602052604081205490919080611d16575060009392505050565b600f84900b6000908152600e6020908152604080832084845282528083208151808301909252805482526001015491810191909152905b6101f4811015611e5757428311611e5757611d6c620151806007612480565b611d769084612497565b92506000611d88620151806007612480565b8360200151611d979190612480565b90508083600001511115611df3578083600001818151611db7919061265d565b905250600f87810b60009081526020918252604080822087835283529020549084018051829190611de990839061265d565b905250611dfe9050565b600080845260208401525b600f87900b6000908152600e602090815260408083208784528252909120845181559084015160019091015542841115611e445760008581526010602052604090208490555b5080611e4f81612692565b915050611d4d565b5051949350505050565b600180546001600160a01b0319169055610bcc816117b8565b6000611e8583611c21565b90506000611e9284611ceb565b90506000611e9e611995565b90506000611eb3610935620151806007612480565b9050611ebf8484612480565b611ec98685612480565b611ed39084612497565b611edd919061265d565b6000828152601160209081526040808320849055600f8a900b8084526013835281842086855283528184208a905560128690556001600160801b038b168452601483529281902085905580518581529182018990528101839052919350907e170bcdc909b6ac6e12d020fe8942256312cdcd555fb6d712899eba56d2f9019060600160405180910390a2505050505050565b6001600160a01b038216600090815260056020526040812054611f9790600190600f0b6124e4565b90506000611fa484611808565b90506000611fb183611c21565b90506000611fbe84611ceb565b90506000611fca611995565b90506000611fdf610935620151806007612480565b6001600160a01b0389166000818152600b6020908152604080832085845282528083208c9055928252600d9052908120829055909150856120208986612497565b61202a919061265d565b600f88900b6000908152600e6020908152604080832086845282528083208490556001600160801b038b16835260109091529020839055905061206d8585612480565b6120778683612480565b6120819085612497565b61208b919061265d565b600083815260116020908152604091829020839055601285905581514281529081018b90529081018290529093506001600160a01b038a16907f2d0d230497e89332e470eb504f613985f0c7abff50e94d09ef03a4bdc9c07e5a9060600160405180910390a2505050505050505050565b600081831161210b57816107b2565b5090919050565b6040518060e0016040528061214160405180606001604052806000815260200160008152602001600081525090565b815260200161216a60405180606001604052806000815260200160008152602001600081525090565b8152602001600081526020016000815260200160008152602001600081526020016121b66040518060800160405280600081526020016000815260200160008152602001600081525090565b905290565b6000602082840312156121cd57600080fd5b5035919050565b8035600f81900b81146121e657600080fd5b919050565b6000602082840312156121fd57600080fd5b6107b2826121d4565b6000806040838503121561221957600080fd5b612222836121d4565b946020939093013593505050565b80356001600160a01b03811681146121e657600080fd5b6000806040838503121561225a57600080fd5b61226383612230565b915061227160208401612230565b90509250929050565b60006020828403121561228c57600080fd5b6107b282612230565b600080604083850312156122a857600080fd5b61222283612230565b6000806000606084860312156122c657600080fd5b6122cf84612230565b92506122dd602085016121d4565b9150604084013590509250925092565b6000815180845260005b81811015612313576020818501810151868301820152016122f7565b506000602082860101526020601f19601f83011685010191505092915050565b6020815260006107b260208301846122ed565b634e487b7160e01b600052604160045260246000fd5b6000806040838503121561236f57600080fd5b823567ffffffffffffffff8082111561238757600080fd5b818501915085601f83011261239b57600080fd5b8135818111156123ad576123ad612346565b604051601f8201601f19908116603f011681019083821181831017156123d5576123d5612346565b816040528281528860208487010111156123ee57600080fd5b826020860160208301376000602093820184015298969091013596505050505050565b60008060006060848603121561242657600080fd5b61242f84612230565b92506122dd60208501612230565b634e487b7160e01b600052601160045260246000fd5b600f81810b9083900b0160016001607f1b03811360016001607f1b0319821217156107b5576107b561243d565b80820281158282048414176107b5576107b561243d565b808201808211156107b5576107b561243d565b600181811c908216806124be57607f821691505b6020821081036124de57634e487b7160e01b600052602260045260246000fd5b50919050565b600f82810b9082900b0360016001607f1b0319811260016001607f1b03821317156107b5576107b561243d565b601f821115610d4c57600081815260208120601f850160051c810160208610156125385750805b601f850160051c820191505b8181101561255757828155600101612544565b505050505050565b815167ffffffffffffffff81111561257957612579612346565b61258d8161258784546124aa565b84612511565b602080601f8311600181146125c257600084156125aa5750858301515b600019600386901b1c1916600185901b178555612557565b600085815260208120601f198616915b828110156125f1578886015182559484019460019091019084016125d2565b508582101561260f5787850151600019600388901b60f8161c191681555b5050505050600190811b01905550565b60408152600061263260408301856122ed565b905082600f0b60208301529392505050565b60006020828403121561265657600080fd5b5051919050565b818103818111156107b5576107b561243d565b60008261268d57634e487b7160e01b600052601260045260246000fd5b500490565b6000600182016126a4576126a461243d565b5060010190565b600081600f0b60016001607f1b0381036126c7576126c761243d565b6001019291505056fea2646970667358221220bc36b81518f79559f018e8c3eb65ee23a869b5263e7b6e4a9c8f95ded958d04064736f6c63430008110033",
  "linkReferences": {},
  "deployedLinkReferences": {}
}