{
  "_format": "hh-sol-artifact-1",
  "contractName": "GombocController",
  "sourceName": "contracts/GombocController.sol",
  "abi": [
    {
      "inputs": [
        {
          "internalType": "address",
          "name": "tokenAddress",
          "type": "address"
        },
        {
          "internalType": "address",
          "name": "votingEscrowAddress",
          "type": "address"
        }
      ],
      "stateMutability": "nonpayable",
      "type": "constructor"
    },
    {
      "anonymous": false,
      "inputs": [
        {
          "indexed": false,
          "internalType": "string",
          "name": "name",
          "type": "string"
        },
        {
          "indexed": false,
          "internalType": "int128",
          "name": "type_id",
          "type": "int128"
        }
      ],
      "name": "AddType",
      "type": "event"
    },
    {
      "anonymous": false,
      "inputs": [
        {
          "indexed": true,
          "internalType": "address",
          "name": "gomboc_address",
          "type": "address"
        },
        {
          "indexed": false,
          "internalType": "int128",
          "name": "gomboc_type",
          "type": "int128"
        },
        {
          "indexed": false,
          "internalType": "uint256",
          "name": "weight",
          "type": "uint256"
        }
      ],
      "name": "NewGomboc",
      "type": "event"
    },
    {
      "anonymous": false,
      "inputs": [
        {
          "indexed": true,
          "internalType": "address",
          "name": "gomboc_address",
          "type": "address"
        },
        {
          "indexed": false,
          "internalType": "uint256",
          "name": "time",
          "type": "uint256"
        },
        {
          "indexed": false,
          "internalType": "uint256",
          "name": "weight",
          "type": "uint256"
        },
        {
          "indexed": false,
          "internalType": "uint256",
          "name": "total_weight",
          "type": "uint256"
        }
      ],
      "name": "NewGombocWeight",
      "type": "event"
    },
    {
      "anonymous": false,
      "inputs": [
        {
          "indexed": true,
          "internalType": "int128",
          "name": "type_id",
          "type": "int128"
        },
        {
          "indexed": false,
          "internalType": "uint256",
          "name": "time",
          "type": "uint256"
        },
        {
          "indexed": false,
          "internalType": "uint256",
          "name": "weight",
          "type": "uint256"
        },
        {
          "indexed": false,
          "internalType": "uint256",
          "name": "total_weight",
          "type": "uint256"
        }
      ],
      "name": "NewTypeWeight",
      "type": "event"
    },
    {
      "anonymous": false,
      "inputs": [
        {
          "indexed": true,
          "internalType": "address",
          "name": "previousOwner",
          "type": "address"
        },
        {
          "indexed": true,
          "internalType": "address",
          "name": "newOwner",
          "type": "address"
        }
      ],
      "name": "OwnershipTransferStarted",
      "type": "event"
    },
    {
      "anonymous": false,
      "inputs": [
        {
          "indexed": true,
          "internalType": "address",
          "name": "previousOwner",
          "type": "address"
        },
        {
          "indexed": true,
          "internalType": "address",
          "name": "newOwner",
          "type": "address"
        }
      ],
      "name": "OwnershipTransferred",
      "type": "event"
    },
    {
      "anonymous": false,
      "inputs": [
        {
          "indexed": true,
          "internalType": "address",
          "name": "user",
          "type": "address"
        },
        {
          "indexed": true,
          "internalType": "address",
          "name": "gomboc_address",
          "type": "address"
        },
        {
          "indexed": false,
          "internalType": "uint256",
          "name": "time",
          "type": "uint256"
        },
        {
          "indexed": false,
          "internalType": "uint256",
          "name": "weight",
          "type": "uint256"
        }
      ],
      "name": "VoteForGomboc",
      "type": "event"
    },
    {
      "inputs": [],
      "name": "acceptOwnership",
      "outputs": [],
      "stateMutability": "nonpayable",
      "type": "function"
    },
    {
      "inputs": [
        {
          "internalType": "address",
          "name": "addr",
          "type": "address"
        },
        {
          "internalType": "int128",
          "name": "gombocType",
          "type": "int128"
        },
        {
          "internalType": "uint256",
          "name": "weight",
          "type": "uint256"
        }
      ],
      "name": "addGomboc",
      "outputs": [],
      "stateMutability": "nonpayable",
      "type": "function"
    },
    {
      "inputs": [
        {
          "internalType": "string",
          "name": "_name",
          "type": "string"
        },
        {
          "internalType": "uint256",
          "name": "weight",
          "type": "uint256"
        }
      ],
      "name": "addType",
      "outputs": [],
      "stateMutability": "nonpayable",
      "type": "function"
    },
    {
      "inputs": [
        {
          "internalType": "address",
          "name": "gombocAddress",
          "type": "address"
        },
        {
          "internalType": "uint256",
          "name": "weight",
          "type": "uint256"
        }
      ],
      "name": "changeGombocWeight",
      "outputs": [],
      "stateMutability": "nonpayable",
      "type": "function"
    },
    {
      "inputs": [
        {
          "internalType": "int128",
          "name": "typeId",
          "type": "int128"
        },
        {
          "internalType": "uint256",
          "name": "weight",
          "type": "uint256"
        }
      ],
      "name": "changeTypeWeight",
      "outputs": [],
      "stateMutability": "nonpayable",
      "type": "function"
    },
    {
      "inputs": [
        {
          "internalType": "int128",
          "name": "",
          "type": "int128"
        },
        {
          "internalType": "uint256",
          "name": "",
          "type": "uint256"
        }
      ],
      "name": "changesSum",
      "outputs": [
        {
          "internalType": "uint256",
          "name": "",
          "type": "uint256"
        }
      ],
      "stateMutability": "view",
      "type": "function"
    },
    {
      "inputs": [],
      "name": "checkpoint",
      "outputs": [],
      "stateMutability": "nonpayable",
      "type": "function"
    },
    {
      "inputs": [
        {
          "internalType": "address",
          "name": "addr",
          "type": "address"
        }
      ],
      "name": "checkpointGomboc",
      "outputs": [],
      "stateMutability": "nonpayable",
      "type": "function"
    },
    {
      "inputs": [
        {
          "internalType": "address",
          "name": "addr",
          "type": "address"
        }
      ],
      "name": "getGombocWeight",
      "outputs": [
        {
          "internalType": "uint256",
          "name": "",
          "type": "uint256"
        }
      ],
      "stateMutability": "view",
      "type": "function"
    },
    {
      "inputs": [],
      "name": "getTotalWeight",
      "outputs": [
        {
          "internalType": "uint256",
          "name": "",
          "type": "uint256"
        }
      ],
      "stateMutability": "view",
      "type": "function"
    },
    {
      "inputs": [
        {
          "internalType": "int128",
          "name": "typeId",
          "type": "int128"
        }
      ],
      "name": "getTypeWeight",
      "outputs": [
        {
          "internalType": "uint256",
          "name": "",
          "type": "uint256"
        }
      ],
      "stateMutability": "view",
      "type": "function"
    },
    {
      "inputs": [
        {
          "internalType": "int128",
          "name": "typeId",
          "type": "int128"
        }
      ],
      "name": "getWeightsSumPreType",
      "outputs": [
        {
          "internalType": "uint256",
          "name": "",
          "type": "uint256"
        }
      ],
      "stateMutability": "view",
      "type": "function"
    },
    {
      "inputs": [
        {
          "internalType": "address",
          "name": "gombocAddress",
          "type": "address"
        },
        {
          "internalType": "uint256",
          "name": "time",
          "type": "uint256"
        }
      ],
      "name": "gombocRelativeWeight",
      "outputs": [
        {
          "internalType": "uint256",
          "name": "",
          "type": "uint256"
        }
      ],
      "stateMutability": "view",
      "type": "function"
    },
    {
      "inputs": [
        {
          "internalType": "address",
          "name": "gombocAddress",
          "type": "address"
        },
        {
          "internalType": "uint256",
          "name": "time",
          "type": "uint256"
        }
      ],
      "name": "gombocRelativeWeightWrite",
      "outputs": [
        {
          "internalType": "uint256",
          "name": "",
          "type": "uint256"
        }
      ],
      "stateMutability": "nonpayable",
      "type": "function"
    },
    {
      "inputs": [
        {
          "internalType": "int128",
          "name": "",
          "type": "int128"
        }
      ],
      "name": "gombocTypeNames",
      "outputs": [
        {
          "internalType": "string",
          "name": "",
          "type": "string"
        }
      ],
      "stateMutability": "view",
      "type": "function"
    },
    {
      "inputs": [
        {
          "internalType": "address",
          "name": "_addr",
          "type": "address"
        }
      ],
      "name": "gombocTypes",
      "outputs": [
        {
          "internalType": "int128",
          "name": "",
          "type": "int128"
        }
      ],
      "stateMutability": "view",
      "type": "function"
    },
    {
      "inputs": [
        {
          "internalType": "uint256",
          "name": "",
          "type": "uint256"
        }
      ],
      "name": "gombocs",
      "outputs": [
        {
          "internalType": "address",
          "name": "",
          "type": "address"
        }
      ],
      "stateMutability": "view",
      "type": "function"
    },
    {
      "inputs": [
        {
          "internalType": "address",
          "name": "",
          "type": "address"
        },
        {
          "internalType": "address",
          "name": "",
          "type": "address"
        }
      ],
      "name": "lastUserVote",
      "outputs": [
        {
          "internalType": "uint256",
          "name": "",
          "type": "uint256"
        }
      ],
      "stateMutability": "view",
      "type": "function"
    },
    {
      "inputs": [],
      "name": "nGomboc",
      "outputs": [
        {
          "internalType": "int128",
          "name": "",
          "type": "int128"
        }
      ],
      "stateMutability": "view",
      "type": "function"
    },
    {
      "inputs": [],
      "name": "nGombocTypes",
      "outputs": [
        {
          "internalType": "int128",
          "name": "",
          "type": "int128"
        }
      ],
      "stateMutability": "view",
      "type": "function"
    },
    {
      "inputs": [],
      "name": "owner",
      "outputs": [
        {
          "internalType": "address",
          "name": "",
          "type": "address"
        }
      ],
      "stateMutability": "view",
      "type": "function"
    },
    {
      "inputs": [],
      "name": "pendingOwner",
      "outputs": [
        {
          "internalType": "address",
          "name": "",
          "type": "address"
        }
      ],
      "stateMutability": "view",
      "type": "function"
    },
    {
      "inputs": [
        {
          "internalType": "int128",
          "name": "",
          "type": "int128"
        },
        {
          "internalType": "uint256",
          "name": "",
          "type": "uint256"
        }
      ],
      "name": "pointsSum",
      "outputs": [
        {
          "internalType": "uint256",
          "name": "bias",
          "type": "uint256"
        },
        {
          "internalType": "uint256",
          "name": "slope",
          "type": "uint256"
        }
      ],
      "stateMutability": "view",
      "type": "function"
    },
    {
      "inputs": [
        {
          "internalType": "uint256",
          "name": "",
          "type": "uint256"
        }
      ],
      "name": "pointsTotal",
      "outputs": [
        {
          "internalType": "uint256",
          "name": "",
          "type": "uint256"
        }
      ],
      "stateMutability": "view",
      "type": "function"
    },
    {
      "inputs": [
        {
          "internalType": "int128",
          "name": "",
          "type": "int128"
        },
        {
          "internalType": "uint256",
          "name": "",
          "type": "uint256"
        }
      ],
      "name": "pointsTypeWeight",
      "outputs": [
        {
          "internalType": "uint256",
          "name": "",
          "type": "uint256"
        }
      ],
      "stateMutability": "view",
      "type": "function"
    },
    {
      "inputs": [
        {
          "internalType": "address",
          "name": "",
          "type": "address"
        },
        {
          "internalType": "uint256",
          "name": "",
          "type": "uint256"
        }
      ],
      "name": "pointsWeight",
      "outputs": [
        {
          "internalType": "uint256",
          "name": "bias",
          "type": "uint256"
        },
        {
          "internalType": "uint256",
          "name": "slope",
          "type": "uint256"
        }
      ],
      "stateMutability": "view",
      "type": "function"
    },
    {
      "inputs": [],
      "name": "renounceOwnership",
      "outputs": [],
      "stateMutability": "nonpayable",
      "type": "function"
    },
    {
      "inputs": [
        {
          "internalType": "uint256",
          "name": "",
          "type": "uint256"
        }
      ],
      "name": "timeSum",
      "outputs": [
        {
          "internalType": "uint256",
          "name": "",
          "type": "uint256"
        }
      ],
      "stateMutability": "view",
      "type": "function"
    },
    {
      "inputs": [],
      "name": "timeTotal",
      "outputs": [
        {
          "internalType": "uint256",
          "name": "",
          "type": "uint256"
        }
      ],
      "stateMutability": "view",
      "type": "function"
    },
    {
      "inputs": [
        {
          "internalType": "uint256",
          "name": "",
          "type": "uint256"
        }
      ],
      "name": "timeTypeWeight",
      "outputs": [
        {
          "internalType": "uint256",
          "name": "",
          "type": "uint256"
        }
      ],
      "stateMutability": "view",
      "type": "function"
    },
    {
      "inputs": [
        {
          "internalType": "address",
          "name": "",
          "type": "address"
        }
      ],
      "name": "timeWeight",
      "outputs": [
        {
          "internalType": "uint256",
          "name": "",
          "type": "uint256"
        }
      ],
      "stateMutability": "view",
      "type": "function"
    },
    {
      "inputs": [],
      "name": "token",
      "outputs": [
        {
          "internalType": "address",
          "name": "",
          "type": "address"
        }
      ],
      "stateMutability": "view",
      "type": "function"
    },
    {
      "inputs": [
        {
          "internalType": "address",
          "name": "newOwner",
          "type": "address"
        }
      ],
      "name": "transferOwnership",
      "outputs": [],
      "stateMutability": "nonpayable",
      "type": "function"
    },
    {
      "inputs": [
        {
          "internalType": "address",
          "name": "gombocAddress",
          "type": "address"
        },
        {
          "internalType": "uint256",
          "name": "userWeight",
          "type": "uint256"
        }
      ],
      "name": "voteForGombocWeights",
      "outputs": [],
      "stateMutability": "nonpayable",
      "type": "function"
    },
    {
      "inputs": [
        {
          "internalType": "address",
          "name": "",
          "type": "address"
        }
      ],
      "name": "voteUserPower",
      "outputs": [
        {
          "internalType": "uint256",
          "name": "",
          "type": "uint256"
        }
      ],
      "stateMutability": "view",
      "type": "function"
    },
    {
      "inputs": [
        {
          "internalType": "address",
          "name": "",
          "type": "address"
        },
        {
          "internalType": "address",
          "name": "",
          "type": "address"
        }
      ],
      "name": "voteUserSlopes",
      "outputs": [
        {
          "internalType": "uint256",
          "name": "slope",
          "type": "uint256"
        },
        {
          "internalType": "uint256",
          "name": "power",
          "type": "uint256"
        },
        {
          "internalType": "uint256",
          "name": "end",
          "type": "uint256"
        }
      ],
      "stateMutability": "view",
      "type": "function"
    },
    {
      "inputs": [],
      "name": "votingEscrow",
      "outputs": [
        {
          "internalType": "address",
          "name": "",
          "type": "address"
        }
      ],
      "stateMutability": "view",
      "type": "function"
    }
  ],
  "bytecode": "0x60c0346200012e57601f6200258938819003918201601f19168301916001600160401b03831184841017620001335780849260409485528339810103126200012e576200005a6020620000528362000149565b920162000149565b600180546001600160a01b031990811690915560008054918216339081178255909391620000ca916001600160a01b039182167f8be0079c531659141344cd1fd0a4f28419497f9722a3daafe3b4186f6b6457e08780a3620000c081841615156200015e565b831615156200015e565b60805260a05262093a80908142048281029281840414901517156200011a575064028fa6ae0e556040516123f5908162000194823960805181610233015260a0518181816102bd01526114e20152f35b634e487b7160e01b81526011600452602490fd5b600080fd5b634e487b7160e01b600052604160045260246000fd5b51906001600160a01b03821682036200012e57565b156200016657565b60405162461bcd60e51b8152602060048201526005602482015264043453030360dc1b6044820152606490fdfe608080604052600436101561001357600080fd5b60003560e01c908163057c9cb4146119d55750806306aba0e1146119a157806310d1ba581461193f578063117610fc146118f957806326f4ed51146118a3578063289f338f146118655780632cb3075e1461182b5780632e22618a1461153557806333561246146115065780634f2bfe5b146114c257806362897a32146113e5578063688f3f1f146113c35780636eb2d62c146113905780636fc25b061461136f578063715018a61461131457806377bc2ae0146112e157806379ba5097146112205780637d1530d5146111a0578063870e373314610f645780638da5cb5b14610f3d5780638ebea49214610d7157806393580fe014610d4d578063b827ab7914610cd5578063b93cd39d14610cab578063c2c4c5c114610c92578063c3a6ca1314610c3d578063daff6f0814610c04578063e0ab067e14610bd5578063e30c397814610bae578063e75ec69914610b33578063eab9041e14610aed578063ec73d90614610aaf578063f2fde38b14610a45578063f763d1ff146109f6578063f9b4467814610257578063fc0c546a146102135763fe5e3863146101b657600080fd5b3461020e57602036600319011261020e576001600160a01b036101d7611a11565b166000526402540be40860205260406000206402540be40a6020526040600020546000526020526020604060002054604051908152f35b600080fd5b3461020e57600036600319011261020e5760206040516001600160a01b037f0000000000000000000000000000000000000000000000000000000000000000168152f35b3461020e57604036600319011261020e57610270611a11565b6001600160a01b038082166000526402540be404602052610298604060002054600f0b611b69565b6102a8600082600f0b1215611bf4565b604051631e74dac160e31b81523360048201527f0000000000000000000000000000000000000000000000000000000000000000831691602082602481865afa9182156109b3576000926109bf575b506020602493604051948580926326f57e5760e11b82523360048301525afa9283156109b35760009361097f575b5062093a8080420180421161090f5781900493848281020482148515171561090f57818502811115610952576127106024351161092557336000526402540be4076020526040600020868816600052602052604060002054620d2f00810180911161090f5742106108e257604051938460c081011067ffffffffffffffff60c0870111176108cc576104ad9161271061047061049c9360c089016040526103ca611c28565b89526103d4611c28565b60208a0152600060408a0152600060608a0152600060808a0152600060a08a0152336000526402540be40560205260406000208b8d16600052602052604060002060026040519161042483611a77565b8054835260018101546020840152015490604081019182528a52600060408b015251878b0281116108b4575b5061046289515160408b015190611bd4565b60608a015260243590611bd4565b046040519061047e82611a77565b81526024356020820152816040820152602087015283870290611c47565b806080860152602085015151611bd4565b60a0840152336000526127106402540be406806020526104e96104dd604060002054602080890151015190611be7565b60208751015190611c47565b903360005260205280604060002055116108875760209361050987612091565b8688166000526402540be4088652604060002083830260005286526001604060002001546105c56105b261053c87611d50565b87600f0b6000526402540be40b8a5260406000208787026000528a526105866105736001604060002001549660a08c015190611be7565b60608b0151908181111561080e57611c47565b8b8d166000526402540be4088b5260406000208888026000528b5260406000205560a089015190611be7565b6060880151908181111561080e57611c47565b85600f0b6000526402540be40b885260406000208585026000528852604060002055838302604087510151116000146108155761066291610622610611610651938a8a01515190611be7565b885151908181111561080e57611c47565b898b166000526402540be408895260406000208686026000528952600160406000200155878701515190611be7565b855151908181111561080e57611c47565b9183600f0b6000526402540be40b86526040600020910260005284526001604060002001555b8151426040820151116107a3575b5082820151518486166000526402540be40984526040600020604085850151015160005284526106cc6040600020918254611be7565b9055828201515190600f0b6000526402540be40c83526040600020604084840151015160005283526107046040600020918254611be7565b905561070e611eee565b500151336000526402540be405602052604060002082841660005260205260026040806000209280518455602081015160018501550151910155336000526402540be40760205260406000208183166000526020524260406000205560405191428352602435602084015216907fce1dc810fa82e83c4f084d18c488cee677745c66f464ff8f8b76b23f125d41af60403392a3005b518486166000526402540be4098452604060002060408451015160005284526107d26040600020918254611c47565b905581515181600f0b6000526402540be40c8452604060002060408451015160005284526108066040600020918254611c47565b905585610696565b5080611c47565b505084840151518688166000526402540be40886526040600020838302600052865261084a6001604060002001918254611be7565b905584840151519183600f0b6000526402540be40b86526040600020910260005284526108806001604060002001918254611be7565b9055610688565b60405162461bcd60e51b815260206004820152600560248201526423a198181b60d91b6044820152606490fd5b6108c190888c0290611c47565b60408a01528c610450565b634e487b7160e01b600052604160045260246000fd5b60405162461bcd60e51b8152602060048201526005602482015264474330303560d81b6044820152606490fd5b634e487b7160e01b600052601160045260246000fd5b60405162461bcd60e51b815260206004820152600560248201526411d0cc0c0d60da1b6044820152606490fd5b60405162461bcd60e51b8152602060048201526005602482015264474330303360d81b6044820152606490fd5b9092506020813d6020116109ab575b8161099b60209383611aaf565b8101031261020e57519185610325565b3d915061098e565b6040513d6000823e3d90fd5b9291506020833d6020116109ee575b816109db60209383611aaf565b8101031261020e579151909160206102f7565b3d91506109ce565b3461020e57604036600319011261020e57610a0f611a01565b600f0b6000526402540be40b60205260406000206024356000526020526040806000206001815491015482519182526020820152f35b3461020e57602036600319011261020e57610a5e611a11565b610a66611b11565b6001600160a01b0380911690816001600160a01b03196001541617600155600054167f38d16b8cac22d99fc7c124b9cd0de2d3fa1faef420bfe791d8c362d765e22700600080a3005b3461020e57602036600319011261020e576001600160a01b03610ad0611a11565b166000526402540be4066020526020604060002054604051908152f35b3461020e57604036600319011261020e57610b06611a01565b600f0b60005264028fa6ae0f60205260406000206024356000526020526020604060002054604051908152f35b3461020e57604036600319011261020e57610b4c611a11565b610b54611a27565b906001600160a01b038091166000526402540be4056020526040600020911660005260205260406000208054610baa60026001840154930154604051938493846040919493926060820195825260208201520152565b0390f35b3461020e57600036600319011261020e5760206001600160a01b0360015416604051908152f35b3461020e57604036600319011261020e57610c02610bf1611a01565b610bf9611b11565b602435906122bc565b005b3461020e57602036600319011261020e576004356402540be40081101561020e576001600160a01b036020916004015416604051908152f35b3461020e57604036600319011261020e576001600160a01b03610c5e611a11565b166000526402540be40860205260406000206024356000526020526040806000206001815491015482519182526020820152f35b3461020e57600036600319011261020e57610c02611eee565b3461020e57602036600319011261020e57610ccc610cc7611a11565b612091565b50610c02611eee565b3461020e57602036600319011261020e57610cee611a01565b80600f0b6000526402540be40b6020526001600160801b0360406000209116633b9aca00811015610d37576402540be40d01546000526020526020604060002054604051908152f35b634e487b7160e01b600052603260045260246000fd5b3461020e57600036600319011261020e57602060025460801d60405190600f0b8152f35b3461020e57604036600319011261020e57610d8a611a11565b60243590610d96611b11565b6001600160a01b03811691826000526402540be40490602091808352610dd16000610dc76040822054600f0b611b69565b600f0b1215611bf4565b846000528252610df1610deb604060002054600f0b611b69565b93612091565b610dfa84611c63565b93610e0481611d50565b610e0c611eee565b9062093a809384420180421161090f5785900485810295818704149015171561090f57610e7b6001600160801b03918a6000526402540be40889526040600020876000528952876040600020558a6000526402540be40a895286604060002055610e768885611be7565b611c47565b9380600f0b6000526402540be40b88526040600020866000528852846040600020551692633b9aca00841015610d375787610ef7610f0394610ef17f2d0d230497e89332e470eb504f613985f0c7abff50e94d09ef03a4bdc9c07e5a9b610efd958a64028fa6ae0d9a6402540be40d0155611bd4565b90611be7565b92611bd4565b90611c47565b9382600052528260406000205564028fa6ae0e55610f3860405192839242846040919493926060820195825260208201520152565b0390a2005b3461020e57600036600319011261020e5760206001600160a01b0360005416604051908152f35b3461020e57604036600319011261020e5760043567ffffffffffffffff80821161020e573660238301121561020e5781600401358181116108cc5760405191602091601f1994610fbb8487601f8501160186611aaf565b818552366024838301011161020e578160009260248693018388013785010152602435610fe6611b11565b600254600f0b91826000526003845260406000209085519081116108cc5761100e8254611a3d565b601f811161115a575b508496601f82116001146110d1575090816110ad96959493927f6fbe76157c712f16b5a3c44ed48baa04e3450bc3fab0c020e848aca72bbccc84986000916110c6575b508160011b916000199060031b1c19161790555b61107782611b9f565b6001600160801b031960025416906001600160801b031617600255806110b6575b50604051938493604085526040850190611ad1565b918301520390a1005b6110c090826122bc565b85611098565b90508601518961105a565b81169682600052856000209760005b8181106111435750917f6fbe76157c712f16b5a3c44ed48baa04e3450bc3fab0c020e848aca72bbccc8498600192826110ad9a99989796951061112a575b5050811b01905561106e565b88015160001960f88460031b161c19169055898061111e565b888301518a556001909901989187019187016110e0565b8260005285600020601f830160051c810191878410611196575b601f0160051c01905b81811061118a5750611017565b6000815560010161117d565b9091508190611174565b3461020e57602036600319011261020e576001600160a01b036111c1611a11565b166000526402540be404602052604060002054600f0b80156111f3576111e8602091611b69565b60405190600f0b8152f35b60405162461bcd60e51b8152602060048201526005602482015264043453030360dc1b6044820152606490fd5b3461020e57600036600319011261020e576001546001600160a01b03338183160361128a576001600160a01b03198092166001556000549133908316176000553391167f8be0079c531659141344cd1fd0a4f28419497f9722a3daafe3b4186f6b6457e0600080a3005b60405162461bcd60e51b815260206004820152602960248201527f4f776e61626c6532537465703a2063616c6c6572206973206e6f7420746865206044820152683732bb9037bbb732b960b91b6064820152608490fd5b3461020e57602036600319011261020e57600435633b9aca0081101561020e576020906402540be40d0154604051908152f35b3461020e57600036600319011261020e5761132d611b11565b60006001600160a01b038019806001541660015582549081168355167f8be0079c531659141344cd1fd0a4f28419497f9722a3daafe3b4186f6b6457e08280a3005b3461020e57600036600319011261020e576020600254600f0b604051908152f35b3461020e57602036600319011261020e57600435633b9aca0081101561020e5760209064028fa6ae100154604051908152f35b3461020e57600036600319011261020e57602064028fa6ae0e54604051908152f35b3461020e5760208060031936011261020e576113ff611a01565b600f0b6000526003815260406000209060405191826000825461142181611a3d565b938484526001918683821691826000146114a0575050600114611461575b505061144d92500383611aaf565b610baa604051928284938452830190611ad1565b85925060005281600020906000915b85831061148857505061144d9350820101858061143f565b80548389018501528794508693909201918101611470565b925093505061144d94915060ff191682840152151560051b820101858061143f565b3461020e57600036600319011261020e5760206040516001600160a01b037f0000000000000000000000000000000000000000000000000000000000000000168152f35b3461020e57604036600319011261020e57602061152d611524611a11565b602435906121f1565b604051908152f35b3461020e57606036600319011261020e5761154e611a11565b602480359182600f0b9182840361020e576044359161156b611b11565b60008412158061181d575b156117f1576001600160a01b031693846000526402540be40491602092808452604060002054600f0b6117c5576002548060801d916001600160801b031991826115bf85611b9f565b60801b16936001600160801b03948580931617600255166402540be4008110156117b057600401805473ffffffffffffffffffffffffffffffffffffffff19168a17905561160c85611b9f565b9089600052865260406000209182541690831617905562093a809283420180421161179b5784900484810294818604149015171561178657856116cb575b1690633b9aca008210156116b757509181604094927f19673bf07d33c3c59c62af022ddbde96f27516096651b9f4649b2d076e612a4b96946402540be40d018054156116af575b5050866000526402540be40a825284600020558351928352820152a2005b558088611691565b634e487b7160e01b60009081526032600452fd5b6116d481611c63565b6116dd82611d50565b906116f06116e9611eee565b9289611be7565b896000526402540be40b88526040600020876000528852604060002055838316633b9aca008110156117715788611734939288610ef1936402540be40d0155611bd4565b8460005264028fa6ae0d86526040600020558364028fa6ae0e55876000526402540be408855260406000208460005285528560406000205561164a565b85634e487b7160e01b60005260326004526000fd5b82634e487b7160e01b60005260116004526000fd5b83634e487b7160e01b60005260116004526000fd5b84634e487b7160e01b60005260326004526000fd5b60405162461bcd60e51b8152600481018590526005818401526423a198181960d91b6044820152606490fd5b60405162461bcd60e51b81526020600482015260058184015264474330303160d81b6044820152606490fd5b50600254600f0b8412611576565b3461020e57604036600319011261020e57602061152d611849611a11565b61185281612091565b5061185b611eee565b50602435906121f1565b3461020e57602036600319011261020e576001600160a01b03611886611a11565b166000526402540be40a6020526020604060002054604051908152f35b3461020e57604036600319011261020e576118bc611a11565b6118c4611a27565b906001600160a01b038091166000526402540be407602052604060002091166000526020526020604060002054604051908152f35b3461020e57604036600319011261020e57611912611a01565b600f0b6000526402540be40c60205260406000206024356000526020526020604060002054604051908152f35b3461020e57602036600319011261020e57611958611a01565b80600f0b60005264028fa6ae0f6020526001600160801b0360406000209116633b9aca00811015610d375764028fa6ae1001546000526020526020604060002054604051908152f35b3461020e57600036600319011261020e5764028fa6ae0e5460005264028fa6ae0d6020526020604060002054604051908152f35b3461020e57602036600319011261020e5760209060043560005264028fa6ae0d82526040600020548152f35b6004359081600f0b820361020e57565b600435906001600160a01b038216820361020e57565b602435906001600160a01b038216820361020e57565b90600182811c92168015611a6d575b6020831014611a5757565b634e487b7160e01b600052602260045260246000fd5b91607f1691611a4c565b6060810190811067ffffffffffffffff8211176108cc57604052565b6040810190811067ffffffffffffffff8211176108cc57604052565b90601f8019910116810190811067ffffffffffffffff8211176108cc57604052565b919082519283825260005b848110611afd575050826000602080949584010152601f8019910116010190565b602081830181015184830182015201611adc565b6001600160a01b03600054163303611b2557565b606460405162461bcd60e51b815260206004820152602060248201527f4f776e61626c653a2063616c6c6572206973206e6f7420746865206f776e65726044820152fd5b600f0b60001901906f7fffffffffffffffffffffffffffffff1982126f7fffffffffffffffffffffffffffffff83131761090f57565b600f0b600101906f7fffffffffffffffffffffffffffffff82136f7fffffffffffffffffffffffffffffff1983121761090f57565b8181029291811591840414171561090f57565b9190820180921161090f57565b15611bfb57565b60405162461bcd60e51b8152602060048201526005602482015264047433030360dc1b6044820152606490fd5b60405190611c3582611a77565b60006040838281528260208201520152565b9190820391821161090f57565b600019811461090f5760010190565b6001600160801b0381600f0b911690633b9aca008210159182610d375764028fa6ae10019081548015611d475760009282845264028fa6ae0f94602086815260409081872085885281528187205497875b6101f48110611cca575b50505050505050505090565b428711611d425762093a808701809711611d2e5786888a52828452848a20818b5284528a858b205585428211611d0b575b5050611d0690611c54565b611cb4565b611d1a578655611d0685611cfb565b634e487b7160e01b8a52603260045260248afd5b634e487b7160e01b89526011600452602489fd5b611cbe565b50505050600090565b6001600160801b0381600f0b911690633b9aca008210159182610d37576402540be40d019081548015611d47576000928284526402540be40b94602095808752604090818720858852885281872091805198611dab8a611a93565b83548a5260018094015492818b01938452895b6101f48110611dd7575b50505050505050505050505190565b428911611ec95762093a8098898101809111611eb55780998651818102918183041490151715611ea157808e91825111600014611e9557611e189151611c47565b8d528a8c526402540be40c8452848c20818d528452611e3b858d20548751611c47565b86525b8a8c52828452848c20818d528452848c208d51815587875191015587428211611e72575b5050611e6d90611c54565b611dbe565b611e81578855611e6d87611e62565b634e487b7160e01b8c52603260045260248cfd5b508c90528b8652611e3e565b634e487b7160e01b8d52601160045260248dfd5b634e487b7160e01b8c52601160045260248cfd5b611dc8565b600f0b6f7fffffffffffffffffffffffffffffff811461090f5760010190565b64028fa6ae0e805460025490600f91820b9142821161207c575b60009282845264028fa6ae0d926020948486526040918282205496825b80870b606481121561206d578614611f595780611f44611f5492611d50565b50611f4e81611c63565b50611ece565b611f25565b5091939590929496975b84915b6101f48310611f7b5750505050505050505090565b909192939495969798428611612067575062093a808501809511612053578585815b828c0b606481121561203c578b8114611ffc57611ff691610ef1828c8c8f64028fa6ae0f8e611ff09885526402540be40b815282852084865281528285205495855252822091528b528d8d205490611bd4565b92611ece565b91611f9d565b509a989661202892509997959392999490945b8087528a85528b88882055428111612034575b50611c54565b91929394959697611f66565b835538612022565b509a9896612028925099979593929994909461200f565b634e487b7160e01b86526011600452602486fd5b98611cbe565b50509193959092949697611f63565b9062093a7f19810190811161090f5790611f08565b6001600160a01b031660008181526402540be40a906020908282526040808220549182156121e8576402540be408948585528282208483528552828220948351976120db89611a93565b8654895260018097015496828a01978852845b6101f48110612106575b505050505050505050505190565b4288116121e35762093a80978881018091116121cf5780988a518181029181830414901517156121bb57908c8261219a94938251116000146121af5761214c9151611c47565b8d528488526402540be4098652888820818952865261216f898920548c51611c47565b8b525b8488528b865288882081895286528888208d518155848c5191015542811161219f5750611c54565b6120ee565b8488528686528888205538612022565b50889052878b52612172565b634e487b7160e01b88526011600452602488fd5b634e487b7160e01b87526011600452602487fd5b6120f8565b94505050505090565b9062093a8080910481810291818304149015171561090f5760009080825260209064028fa6ae0d8252604090818420549485156122b3576001600160a01b0316928385526402540be404815261224c83862054600f0b611b69565b600f0b855264028fa6ae0f81528285208286528152828520549385526402540be40881528285209185525282205491670de0b6b3a7640000918083029283040361229f57509061229b91611bd4565b0490565b634e487b7160e01b81526011600452602490fd5b50505050905090565b906122c682611c63565b6122cf83611d50565b906122d8611eee565b9162093a809283420180421161090f5784900484810294818604149015171561090f5761231092610ef7610efd92610ef18886611bd4565b600082815264028fa6ae0d6020528160408220556001600160801b0385600f0b9586835264028fa6ae0f602052604083208584526020528560408420558464028fa6ae0e551690633b9aca008210156123ab575064028fa6ae1001829055604080519283526020830193909352918101919091527e170bcdc909b6ac6e12d020fe8942256312cdcd555fb6d712899eba56d2f90190606090a2565b634e487b7160e01b81526032600452602490fdfea2646970667358221220dfb548ea006f0510e2c7a76218eead2deef7a21dc1e7fd5356b9f92eff6c371864736f6c63430008110033",
  "linkReferences": {},
  "deployedLinkReferences": {}
}