{
  "_format": "hh-sol-artifact-1",
  "contractName": "GombocFeeDistributor",
  "sourceName": "contracts/feeDistributor/GombocFeeDistributor.sol",
  "abi": [
    {
      "inputs": [],
      "stateMutability": "nonpayable",
      "type": "constructor"
    },
    {
      "anonymous": false,
      "inputs": [
        {
          "indexed": false,
          "internalType": "uint256",
          "name": "time",
          "type": "uint256"
        },
        {
          "indexed": false,
          "internalType": "uint256",
          "name": "tokens",
          "type": "uint256"
        }
      ],
      "name": "CheckpointToken",
      "type": "event"
    },
    {
      "anonymous": false,
      "inputs": [
        {
          "indexed": true,
          "internalType": "address",
          "name": "gomboc",
          "type": "address"
        },
        {
          "indexed": true,
          "internalType": "address",
          "name": "recipient",
          "type": "address"
        },
        {
          "indexed": false,
          "internalType": "uint256",
          "name": "amount",
          "type": "uint256"
        },
        {
          "indexed": false,
          "internalType": "uint256",
          "name": "claimEpoch",
          "type": "uint256"
        },
        {
          "indexed": false,
          "internalType": "uint256",
          "name": "maxEpoch",
          "type": "uint256"
        }
      ],
      "name": "Claimed",
      "type": "event"
    },
    {
      "anonymous": false,
      "inputs": [
        {
          "indexed": false,
          "internalType": "uint8",
          "name": "version",
          "type": "uint8"
        }
      ],
      "name": "Initialized",
      "type": "event"
    },
    {
      "anonymous": false,
      "inputs": [
        {
          "indexed": true,
          "internalType": "address",
          "name": "previousOwner",
          "type": "address"
        },
        {
          "indexed": true,
          "internalType": "address",
          "name": "newOwner",
          "type": "address"
        }
      ],
      "name": "OwnershipTransferStarted",
      "type": "event"
    },
    {
      "anonymous": false,
      "inputs": [
        {
          "indexed": true,
          "internalType": "address",
          "name": "previousOwner",
          "type": "address"
        },
        {
          "indexed": true,
          "internalType": "address",
          "name": "newOwner",
          "type": "address"
        }
      ],
      "name": "OwnershipTransferred",
      "type": "event"
    },
    {
      "anonymous": false,
      "inputs": [
        {
          "indexed": false,
          "internalType": "address",
          "name": "account",
          "type": "address"
        }
      ],
      "name": "Paused",
      "type": "event"
    },
    {
      "anonymous": false,
      "inputs": [
        {
          "indexed": true,
          "internalType": "address",
          "name": "token",
          "type": "address"
        },
        {
          "indexed": true,
          "internalType": "address",
          "name": "emergencyReturn",
          "type": "address"
        },
        {
          "indexed": false,
          "internalType": "uint256",
          "name": "amount",
          "type": "uint256"
        }
      ],
      "name": "RecoverBalance",
      "type": "event"
    },
    {
      "anonymous": false,
      "inputs": [
        {
          "indexed": false,
          "internalType": "bool",
          "name": "toggleFlag",
          "type": "bool"
        }
      ],
      "name": "ToggleAllowCheckpointToken",
      "type": "event"
    },
    {
      "anonymous": false,
      "inputs": [
        {
          "indexed": false,
          "internalType": "address",
          "name": "account",
          "type": "address"
        }
      ],
      "name": "Unpaused",
      "type": "event"
    },
    {
      "inputs": [],
      "name": "acceptOwnership",
      "outputs": [],
      "stateMutability": "nonpayable",
      "type": "function"
    },
    {
      "inputs": [
        {
          "internalType": "uint256",
          "name": "amount",
          "type": "uint256"
        }
      ],
      "name": "burn",
      "outputs": [
        {
          "internalType": "bool",
          "name": "",
          "type": "bool"
        }
      ],
      "stateMutability": "nonpayable",
      "type": "function"
    },
    {
      "inputs": [],
      "name": "canCheckpointToken",
      "outputs": [
        {
          "internalType": "bool",
          "name": "",
          "type": "bool"
        }
      ],
      "stateMutability": "view",
      "type": "function"
    },
    {
      "inputs": [],
      "name": "checkpointToken",
      "outputs": [],
      "stateMutability": "nonpayable",
      "type": "function"
    },
    {
      "inputs": [
        {
          "internalType": "address",
          "name": "gomboc",
          "type": "address"
        },
        {
          "internalType": "address",
          "name": "_addr",
          "type": "address"
        }
      ],
      "name": "claim",
      "outputs": [
        {
          "internalType": "uint256",
          "name": "",
          "type": "uint256"
        }
      ],
      "stateMutability": "nonpayable",
      "type": "function"
    },
    {
      "inputs": [
        {
          "internalType": "address",
          "name": "gomboc",
          "type": "address"
        },
        {
          "internalType": "address[]",
          "name": "_receivers",
          "type": "address[]"
        }
      ],
      "name": "claimMany",
      "outputs": [
        {
          "internalType": "uint256",
          "name": "",
          "type": "uint256"
        }
      ],
      "stateMutability": "nonpayable",
      "type": "function"
    },
    {
      "inputs": [
        {
          "internalType": "address[]",
          "name": "gombocList",
          "type": "address[]"
        },
        {
          "internalType": "address",
          "name": "receiver",
          "type": "address"
        }
      ],
      "name": "claimManyGomboc",
      "outputs": [
        {
          "internalType": "uint256",
          "name": "",
          "type": "uint256"
        }
      ],
      "stateMutability": "nonpayable",
      "type": "function"
    },
    {
      "inputs": [],
      "name": "emergencyReturn",
      "outputs": [
        {
          "internalType": "address",
          "name": "",
          "type": "address"
        }
      ],
      "stateMutability": "view",
      "type": "function"
    },
    {
      "inputs": [
        {
          "internalType": "address",
          "name": "_gomboc",
          "type": "address"
        },
        {
          "internalType": "uint256",
          "name": "_weekCursor",
          "type": "uint256"
        }
      ],
      "name": "gombocBalancePreWeek",
      "outputs": [
        {
          "internalType": "uint256",
          "name": "",
          "type": "uint256"
        }
      ],
      "stateMutability": "view",
      "type": "function"
    },
    {
      "inputs": [],
      "name": "gombocController",
      "outputs": [
        {
          "internalType": "address",
          "name": "",
          "type": "address"
        }
      ],
      "stateMutability": "view",
      "type": "function"
    },
    {
      "inputs": [
        {
          "internalType": "address",
          "name": "_gombocController",
          "type": "address"
        },
        {
          "internalType": "uint256",
          "name": "_startTime",
          "type": "uint256"
        },
        {
          "internalType": "address",
          "name": "_token",
          "type": "address"
        },
        {
          "internalType": "address",
          "name": "_stHOPE",
          "type": "address"
        },
        {
          "internalType": "address",
          "name": "_emergencyReturn",
          "type": "address"
        }
      ],
      "name": "initialize",
      "outputs": [],
      "stateMutability": "nonpayable",
      "type": "function"
    },
    {
      "inputs": [],
      "name": "lastTokenTime",
      "outputs": [
        {
          "internalType": "uint256",
          "name": "",
          "type": "uint256"
        }
      ],
      "stateMutability": "view",
      "type": "function"
    },
    {
      "inputs": [],
      "name": "owner",
      "outputs": [
        {
          "internalType": "address",
          "name": "",
          "type": "address"
        }
      ],
      "stateMutability": "view",
      "type": "function"
    },
    {
      "inputs": [],
      "name": "pause",
      "outputs": [],
      "stateMutability": "nonpayable",
      "type": "function"
    },
    {
      "inputs": [],
      "name": "paused",
      "outputs": [
        {
          "internalType": "bool",
          "name": "",
          "type": "bool"
        }
      ],
      "stateMutability": "view",
      "type": "function"
    },
    {
      "inputs": [],
      "name": "pendingOwner",
      "outputs": [
        {
          "internalType": "address",
          "name": "",
          "type": "address"
        }
      ],
      "stateMutability": "view",
      "type": "function"
    },
    {
      "inputs": [],
      "name": "recoverBalance",
      "outputs": [
        {
          "internalType": "bool",
          "name": "",
          "type": "bool"
        }
      ],
      "stateMutability": "nonpayable",
      "type": "function"
    },
    {
      "inputs": [],
      "name": "renounceOwnership",
      "outputs": [],
      "stateMutability": "nonpayable",
      "type": "function"
    },
    {
      "inputs": [
        {
          "internalType": "address",
          "name": "_addr",
          "type": "address"
        }
      ],
      "name": "setEmergencyReturn",
      "outputs": [],
      "stateMutability": "nonpayable",
      "type": "function"
    },
    {
      "inputs": [],
      "name": "stHOPE",
      "outputs": [
        {
          "internalType": "address",
          "name": "",
          "type": "address"
        }
      ],
      "stateMutability": "view",
      "type": "function"
    },
    {
      "inputs": [],
      "name": "startTime",
      "outputs": [
        {
          "internalType": "uint256",
          "name": "",
          "type": "uint256"
        }
      ],
      "stateMutability": "view",
      "type": "function"
    },
    {
      "inputs": [],
      "name": "timeCursor",
      "outputs": [
        {
          "internalType": "uint256",
          "name": "",
          "type": "uint256"
        }
      ],
      "stateMutability": "view",
      "type": "function"
    },
    {
      "inputs": [
        {
          "internalType": "address",
          "name": "",
          "type": "address"
        },
        {
          "internalType": "address",
          "name": "",
          "type": "address"
        }
      ],
      "name": "timeCursorOf",
      "outputs": [
        {
          "internalType": "uint256",
          "name": "",
          "type": "uint256"
        }
      ],
      "stateMutability": "view",
      "type": "function"
    },
    {
      "inputs": [],
      "name": "toggleAllowCheckpointToken",
      "outputs": [],
      "stateMutability": "nonpayable",
      "type": "function"
    },
    {
      "inputs": [],
      "name": "token",
      "outputs": [
        {
          "internalType": "address",
          "name": "",
          "type": "address"
        }
      ],
      "stateMutability": "view",
      "type": "function"
    },
    {
      "inputs": [],
      "name": "tokenLastBalance",
      "outputs": [
        {
          "internalType": "uint256",
          "name": "",
          "type": "uint256"
        }
      ],
      "stateMutability": "view",
      "type": "function"
    },
    {
      "inputs": [
        {
          "internalType": "uint256",
          "name": "",
          "type": "uint256"
        }
      ],
      "name": "tokensPerWeek",
      "outputs": [
        {
          "internalType": "uint256",
          "name": "",
          "type": "uint256"
        }
      ],
      "stateMutability": "view",
      "type": "function"
    },
    {
      "inputs": [
        {
          "internalType": "address",
          "name": "newOwner",
          "type": "address"
        }
      ],
      "name": "transferOwnership",
      "outputs": [],
      "stateMutability": "nonpayable",
      "type": "function"
    },
    {
      "inputs": [],
      "name": "unpause",
      "outputs": [],
      "stateMutability": "nonpayable",
      "type": "function"
    },
    {
      "inputs": [
        {
          "internalType": "address",
          "name": "",
          "type": "address"
        },
        {
          "internalType": "address",
          "name": "",
          "type": "address"
        }
      ],
      "name": "userEpochOf",
      "outputs": [
        {
          "internalType": "uint256",
          "name": "",
          "type": "uint256"
        }
      ],
      "stateMutability": "view",
      "type": "function"
    },
    {
      "inputs": [
        {
          "internalType": "address",
          "name": "_gomboc",
          "type": "address"
        },
        {
          "internalType": "address",
          "name": "_user",
          "type": "address"
        },
        {
          "internalType": "uint256",
          "name": "_timestamp",
          "type": "uint256"
        }
      ],
      "name": "veForAt",
      "outputs": [
        {
          "internalType": "uint256",
          "name": "",
          "type": "uint256"
        }
      ],
      "stateMutability": "view",
      "type": "function"
    },
    {
      "inputs": [
        {
          "internalType": "address",
          "name": "_gomboc",
          "type": "address"
        },
        {
          "internalType": "address",
          "name": "_user",
          "type": "address"
        },
        {
          "internalType": "uint256",
          "name": "_timestamp",
          "type": "uint256"
        }
      ],
      "name": "vePrecentageForAt",
      "outputs": [
        {
          "internalType": "uint256",
          "name": "",
          "type": "uint256"
        }
      ],
      "stateMutability": "view",
      "type": "function"
    }
  ],
  "bytecode": "0x608080604052346100c1576000549060ff8260081c1661006f575060ff80821610610034575b6040516122dd90816100c78239f35b60ff90811916176000557f7f26b83ff96e1f2b6a682f133852f6798a09c465da95921460cefb3847402498602060405160ff8152a138610025565b62461bcd60e51b815260206004820152602760248201527f496e697469616c697a61626c653a20636f6e747261637420697320696e697469604482015266616c697a696e6760c81b6064820152608490fd5b600080fdfe608060408181526004918236101561001657600080fd5b600092833560e01c918263071cb5ad14611317575081630cc672e4146112f0578163171acc831461118957816321c0b3421461108d57816338b74b47146110445781633f4ba83a14610fae57816342966c6814610e715781635a4b8c1d14610e485781635c975abb14610e24578163715018a614610dbd578163745b97bd14610d9457816378e9792514610d7557816379ba509714610cef5781638030206014610b925781638456cb5914610b375781638721b78514610acd5781638736659b14610aae578163899519be14610a865781638da5cb5b14610a5d5781638ec8468a14610a3e5781638f4ddcfd146108af578163939ea66b14610890578163a01ef25f146106ad578163a143e2da14610684578163b1850e94146105a3578163b26bb8c414610563578163ba74da0b14610406578163bee5dc321461037a578163dca251701461024957508063e30c397814610221578063f2fde38b146101b05763fc0c546a1461018557600080fd5b346101ac57816003193601126101ac5760cf5490516001600160a01b039091168152602090f35b5080fd5b823461021e57602036600319011261021e576101ca61135d565b6101d26114df565b606580546001600160a01b0319166001600160a01b039283169081179091556033549091167f38d16b8cac22d99fc7c124b9cd0de2d3fa1faef420bfe791d8c362d765e227008380a380f35b80fd5b50346101ac57816003193601126101ac5760655490516001600160a01b039091168152602090f35b90503461037657816003193601126103765761026361135d565b9262093a809182602435048381029381850414901517156103635760d25462093a7f198401906001600160a01b03168482116103505785516319ab092360e11b81526001600160a01b0390971692870192835260208381019290925290959291869184918290819060400103915afa918215610344579084918193610309575b509081670de0b6b3a76400009461030194935260ce875220546115d6565b049051908152f35b86809294508193503d831161033d575b61032381836113f5565b810103126101ac5751908390670de0b6b3a76400006102e3565b503d610319565b508351903d90823e3d90fd5b634e487b7160e01b845260118352602484fd5b634e487b7160e01b825260119052602490fd5b8280fd5b919050346103765782600319360112610376576033546001600160a01b0316331480156103de575b156103b357826103b0611609565b80f35b906020606492519162461bcd60e51b83528201526005602482015264464430303160d81b6044820152fd5b5060ff60d25460a01c1680156103a2575060cd546201518081018091116103505742116103a2565b82843461021e578160031936011261021e57823567ffffffffffffffff81116101ac576104369036908501611417565b9161043f611378565b906104486119f5565b60cd549460ff60d25460a01c168061053b575b61052a575b62093a808096048681029681880414901517156105175750825b845181101561050a576001600160a01b03610495828761209e565b511680156104d25786846104a892611a5e565b806104bd575b506104b8906115c7565b61047a565b6104cb906104b89295611597565b93906104ae565b5050919250602093505b82806104eb575b505051908152f35b610503916104fb8260d1546115ba565b60d1556120e0565b83826104e3565b50919250602093506104dc565b634e487b7160e01b845260119052602483fd5b9450610534611609565b4294610460565b5062015180860180871161055057421161045b565b634e487b7160e01b855260118252602485fd5b833461021e57602036600319011261021e5761057d61135d565b6105856114df565b60018060a01b03166001600160601b0360a01b60d354161760d35580f35b82843461021e578060031936011261021e576105bd6114df565b60cf5482516370a0823160e01b815230948101949094526020936001600160a01b03918216908581602481855afa938415610679578094610645575b50508261060b918360d354169061222e565b7fd0a849a4b4c83176fa52813aff6ed8aa60f8756be6d3cc5cdf086614e3db6af4848260cf54169260d35416938551908152a35160018152f35b909193508582813d8311610672575b61065e81836113f5565b8101031261021e5750519161060b866105f9565b503d610654565b8551903d90823e3d90fd5b5050346101ac57816003193601126101ac5760d05490516001600160a01b039091168152602090f35b9050346103765760a0366003190112610376576106c861135d565b906044356001600160a01b038181169182900361088c576064359381851680950361088857608435938285168095036108845787549560ff8760081c161596878098610877575b8015610860575b156108065760ff1981166001178a55876107f5575b5061074560ff8a5460081c1661074081611537565b611537565b61074e3361148e565b62093a809182602435048381029381850414901517156107e257508160c9558160cd556001600160601b0360a01b948560cf54161760cf558460d054161760d05560ca55168160d254161760d25560d354161760d3556107ac575080f35b60207f7f26b83ff96e1f2b6a682f133852f6798a09c465da95921460cefb38474024989161ff001984541684555160018152a180f35b634e487b7160e01b8a5260119052602489fd5b61ffff19166101011789553861072b565b885162461bcd60e51b8152602081850152602e60248201527f496e697469616c697a61626c653a20636f6e747261637420697320616c72656160448201526d191e481a5b9a5d1a585b1a5e995960921b6064820152608490fd5b50303b1580156107165750600160ff821614610716565b50600160ff82161061070f565b8780fd5b8680fd5b8580fd5b5050346101ac57816003193601126101ac5760209060cd549051908152f35b82843461021e576108bf3661138e565b9062093a80939293809204828102928184041490151715610a2b57845163171acc8360e01b81526001600160a01b0380861688830190815292166020838101919091526040830184905290939291849081906060010381305afa928315610a215790859183946109e7575b5060d254825163c3a6ca1360e01b81526001600160a01b03968716898201908152602081019390935294958592911690829081906040015b03915afa9182156103445781926109b8575b50670de0b6b3a7640000928381029381850414901517156109a55760208461099e858551906115e9565b9051908152f35b634e487b7160e01b815260118552602490fd5b6109d9919250843d86116109e0575b6109d181836113f5565b810190611893565b9085610974565b503d6109c7565b91509192506020813d8211610a19575b81610a04602093836113f5565b8101031261037657519190849061096261092a565b3d91506109f7565b85513d84823e3d90fd5b634e487b7160e01b835260118652602483fd5b5050346101ac57816003193601126101ac5760209060d1549051908152f35b5050346101ac57816003193601126101ac5760335490516001600160a01b039091168152602090f35b90503461037657602036600319011261037657602092829135815260ce845220549051908152f35b5050346101ac57816003193601126101ac5760209060ca549051908152f35b5050346101ac57816003193601126101ac5760207fdbe6ac1081ebd8e648718341126659456f4009fcadfe1c23f66f5e61522610b291610b0b6114df565b60d2805460ff60a01b19811660a091821c60ff16159182901b60ff60a01b16179091559051908152a180f35b5050346101ac57816003193601126101ac5760207f62e78cea01bee320cd4e420270b5ea74000d11b0c9f74754ebdbfc544b05a25891610b756114df565b610b7d6119f5565b600160ff19609754161760975551338152a180f35b8383346101ac57806003193601126101ac57610bac61135d565b9160243567ffffffffffffffff81116101ac57610bcc9036908601611417565b92610bd56119f5565b60cd549460ff60d25460a01c1680610cc7575b610cb6575b62093a80809604868102968188041490151715610ca35750815b8451811015610c96576001600160a01b03610c22828761209e565b51168015610c6c57610c35878285611a5e565b9081610c4c575b5050610c47906115c7565b610c07565b90610c479294610c5f82610c64946120e0565b611597565b929087610c3c565b5050509150602092505b81610c82575b51908152f35b610c8e8260d1546115ba565b60d155610c7c565b5050915060209250610c76565b634e487b7160e01b835260119052602482fd5b9450610cc0611609565b4294610bed565b50620151808601808711610cdc574211610be8565b634e487b7160e01b845260118252602484fd5b91905034610376578260031936011261037657606554336001600160a01b0390911603610d2057826103b03361148e565b906020608492519162461bcd60e51b8352820152602960248201527f4f776e61626c6532537465703a2063616c6c6572206973206e6f7420746865206044820152683732bb9037bbb732b960b91b6064820152fd5b5050346101ac57816003193601126101ac5760209060c9549051908152f35b5050346101ac57816003193601126101ac5760d25490516001600160a01b039091168152602090f35b833461021e578060031936011261021e57610dd66114df565b606580546001600160a01b031990811690915560338054918216905581906001600160a01b03167f8be0079c531659141344cd1fd0a4f28419497f9722a3daafe3b4186f6b6457e08280a380f35b5050346101ac57816003193601126101ac5760209060ff6097541690519015158152f35b5050346101ac57816003193601126101ac5760d35490516001600160a01b039091168152602090f35b82843461021e57602092836003193601126101ac578035610e906119f5565b8481610e9f575b845160018152f35b60cf5485516323b872dd60e01b81523385820190815230602082015260408101949094529283916001600160a01b03169082908790829060600103925af1908115610fa4578391610f77575b5015610f3d5760ff60d25460a01c169182610f1e575b5050610f11575b82808084610e97565b610f19611609565b610f08565b90915060cd549162015180830180931161036357505042118380610f01565b825162461bcd60e51b815290810184905260146024820152731514905394d1915497d19493d357d1905253115160621b6044820152606490fd5b610f979150853d8711610f9d575b610f8f81836113f5565b8101906120c8565b85610eeb565b503d610f85565b84513d85823e3d90fd5b905034610376578260031936011261037657610fc86114df565b6097549060ff82161561100a575060ff1916609755513381527f5db9ee0a495bf2e6ff9c91a7834c1ba4fdd244a5e8aa4e537bd38aeae4b073aa90602090a180f35b606490602084519162461bcd60e51b8352820152601460248201527314185d5cd8589b194e881b9bdd081c185d5cd95960621b6044820152fd5b5050346101ac57806003193601126101ac578060209261106261135d565b61106a611378565b6001600160a01b03918216835260cb865283832091168252845220549051908152f35b8383346101ac57806003193601126101ac576110a761135d565b916110b0611378565b926110b96119f5565b6001600160a01b03841615611181575b60cd549160ff60d25460a01c1680611159575b611148575b62093a808093048381029381850414901517156111355760208585611107868387611a5e565b91828061111657505051908152f35b61111f916120e0565b61112b8260d1546115ba565b60d15583826104e3565b634e487b7160e01b815260118652602490fd5b9150611152611609565b42916110e1565b5062015180830180841161116e5742116110dc565b634e487b7160e01b825260118752602482fd5b3393506110c9565b82843461021e576111993661138e565b60d254855163362985ab60e01b81526001600160a01b03808516828a019081528187166020828101919091529994969495939091169291908990829081906040010381865afa9081156112e65787916112b7575b50906111ff84939287836080976118e2565b885163c06cd02b60e01b81526001600160a01b03928316968101968752939091166020860152604085015290928391908290819060600103915afa908115610fa457611272929161126c918591611289575b506112668151938789840151930151906115ba565b906115d6565b906115ba565b90811561128157509051908152f35b905090610c7c565b6112aa915060803d81116112b0575b6112a281836113f5565b810190611857565b87611251565b503d611298565b90508881813d83116112df575b6112ce81836113f5565b8101031261088857516111ff6111ed565b503d6112c4565b88513d89823e3d90fd5b5050346101ac57816003193601126101ac5760209060ff60d25460a01c1690519015158152f35b8490843461037657806003193601126103765760209261133561135d565b61133d611378565b6001600160a01b03918216835260cc865283832091168252845220548152f35b600435906001600160a01b038216820361137357565b600080fd5b602435906001600160a01b038216820361137357565b6060906003190112611373576001600160a01b0390600435828116810361137357916024359081168103611373579060443590565b6080810190811067ffffffffffffffff8211176113df57604052565b634e487b7160e01b600052604160045260246000fd5b90601f8019910116810190811067ffffffffffffffff8211176113df57604052565b9080601f830112156113735781359067ffffffffffffffff82116113df578160051b6040519360209361144c858401876113f5565b85528380860192820101928311611373578301905b82821061146f575050505090565b81356001600160a01b0381168103611373578152908301908301611461565b6001600160601b0360a01b90816065541660655560335460018060a01b038092168093821617603355167f8be0079c531659141344cd1fd0a4f28419497f9722a3daafe3b4186f6b6457e0600080a3565b6033546001600160a01b031633036114f357565b606460405162461bcd60e51b815260206004820152602060248201527f4f776e61626c653a2063616c6c6572206973206e6f7420746865206f776e65726044820152fd5b1561153e57565b60405162461bcd60e51b815260206004820152602b60248201527f496e697469616c697a61626c653a20636f6e7472616374206973206e6f74206960448201526a6e697469616c697a696e6760a81b6064820152608490fd5b919082018092116115a457565b634e487b7160e01b600052601160045260246000fd5b919082039182116115a457565b60001981146115a45760010190565b818102929181159184041417156115a457565b81156115f3570490565b634e487b7160e01b600052601260045260246000fd5b60018060a01b0360cf541690604080516370a0823160e01b815280806004953087830152602093849160249384915afa91821561184c5760009261181d575b5061165560d154836115ba565b9160d15560cd5461166681426115ba565b4260cd5562093a8097888304898102908082048b149015171561180957936000915b601483106116c7575b5050505050507fce749457b74e10f393f2c6b1ce4261b78791376db5a3f501477a809f03f500d6939450825191428352820152a1565b8a8601918287116117f65782421060001461177a57505050507fce749457b74e10f393f2c6b1ce4261b78791376db5a3f501477a809f03f500d6969750801580611771575b1561173857505060005260ce825282600020611729828254611597565b90555b84933880808080611691565b61174e61174861175393426115ba565b856115d6565b6115e9565b9060005260ce835261176a84600020918254611597565b905561172c565b5081421461170c565b919484809792949715806117ed575b156117b957505060005260ce8752876000206117a6878254611597565b90555b6117b384956115c7565b91611688565b61174e6117c96117cf93896115ba565b8a6115d6565b9060005260ce88526117e689600020918254611597565b90556117a9565b50818714611789565b634e487b7160e01b600090815260118352fd5b84601183634e487b7160e01b600052526000fd5b90918382813d8311611845575b61183481836113f5565b8101031261021e5750519038611648565b503d61182a565b84513d6000823e3d90fd5b9081608091031261137357606060405191611871836113c3565b8051835260208101516020840152604081015160408401520151606082015290565b908160409103126113735760405190604082019082821067ffffffffffffffff8311176113df57602091604052805183520151602082015290565b6001600160ff1b0381146115a45760010190565b60d25491946000946001600160a01b039093169392855b608090818812156119e957828110156119e9576119168382611597565b600281018091116115a4576040805163c06cd02b60e01b81526001600160a01b038c8116600480840191909152908916602483015260019390931c60448201819052949081816064818e5afa9182156119de57908a9392916000926119c1575b505001511161199157505061198b90966118ce565b956118f9565b9097925060001982019182116119ac575061198b90916118ce565b601190634e487b7160e01b6000525260246000fd5b6119d79250803d106112b0576112a281836113f5565b3880611976565b83513d6000823e3d90fd5b96505050945050505090565b60ff60975416611a0157565b60405162461bcd60e51b815260206004820152601060248201526f14185d5cd8589b194e881c185d5cd95960821b6044820152606490fd5b60405190611a46826113c3565b60006060838281528260208201528260408201520152565b604051919260c0830167ffffffffffffffff8111848210176113df5760405260008352600060208401526000604084015260006060840152611a9e611a39565b6080840152611aab611a39565b60a0840152600080845260208085019190915260d25460405163362985ab60e01b81526001600160a01b0387811660048301528581166024830152909116929181604481865afa908115611dcd5760009161206c575b5080604086015260c9549015612061576001600160a01b03848116600090815260cb60209081526040808320938a16835292905220546060860181905261203457611b5260408601518288876118e2565b85525b84511561202b575b845160405163c06cd02b60e01b81526001600160a01b038881166004830152861660248201526044810191909152608081606481875afa908115611dcd5760009161200c575b50806080870152606086015115611fce575b50606085015182811015611fc2578111611fb7575b50604051611bd7816113c3565b6000815260006020820152600060408201526000606082015260a085015260005b60328112611cbf575b50505060408201518251600019810194919085116115a45760209480821015611cb857505b8084526001600160a01b03928316600081815260cc87526040808220949095168082529387528481209290925560608086015182845260cb885285842085855288529285902092909255858501518551858701518651928352828901919091529481019490945291927fd795915374024be1f03204e052bd584b33bb85c9128ede9c54adbe0bbdc220959190a3015190565b9050611c26565b606085015182811015611fb1578062093a7f198101116115a45760808601516040015162093a7f198201101580611fa2575b15611dd957508451906001820182116115a45760018201808752608087015160a088015260408701511015611d5957611d549150604051611d31816113c3565b6000815260006020820152600060408201526000606082015260808701526118ce565b611bf8565b60405163c06cd02b60e01b81526001600160a01b038881166004830152861660248201526001929092016044830152608082606481875afa8015611dcd57611d5492600091611dae575b5060808701526118ce565b611dc7915060803d6080116112b0576112a281836113f5565b38611da3565b6040513d6000823e3d90fd5b611e0a611df4604060a0890151015162093a7f1984016115ba565b61126c60a08901519160208351930151906115d6565b8015611f9a575b80158080611f8c575b611f845715611e47575b505060608501519062093a8082018092116115a457611d549160608701526118ce565b6040805163c3a6ca1360e01b81526001600160a01b038816600482015262093a7f1984016024820152919082604481895afa918215611dcd57600092611f5e575b506040516319ab092360e11b81526001600160a01b038816600482015262093a7f19909301602484015290919060208280604481015b0381895afa918215611dcd57600092611f28575b50611f1c92611f09670de0b6b3a764000093611f04611f119460608d015160005260ce602052604060002054906115d6565b6115d6565b9051906115e9565b046020870151611597565b60208601523880611e24565b91506020823d602011611f56575b81611f43602093836113f5565b8101031261137357905190611f1c611ed2565b3d9150611f36565b611ebe9250611f7d60209160403d6040116109e0576109d181836113f5565b9250611e88565b505050611c01565b508751604089015110611e1a565b506000611e11565b50855160408701511015611cf1565b50611c01565b606085015238611bca565b50505050505050600090565b6040015162093a8090818101908181116115a45762093a7f019081116115a4578190048181029181830414901517156115a457606086015238611bb5565b612025915060803d6080116112b0576112a281836113f5565b38611ba3565b60018552611b5d565b6001600160a01b03848116600090815260cc60209081526040808320938a16835292905220548552611b55565b505050505050600090565b90506020813d602011612096575b81612087602093836113f5565b81010312611373575138611b01565b3d915061207a565b80518210156120b25760209160051b010190565b634e487b7160e01b600052603260045260246000fd5b90816020910312611373575180151581036113735790565b60cf5460d0546040805163095ea7b360e01b81526001600160a01b03928316600482015260248101869052600096959493602090829060449082908b9088165af1908115612224578791612206575b50156121d25785908260d05416803b1561037657829060a48351809581936373dd055560e01b83528a6004840152816024840152816044840152608060648401528160848401525af180156121c857612196575b505061219493945060d0541661222e565b565b67ffffffffffffffff82116121b45761219495965052849338612183565b634e487b7160e01b87526041600452602487fd5b81513d89823e3d90fd5b5162461bcd60e51b815260206004820152600e60248201526d1054141493d59157d1905253115160921b6044820152606490fd5b61221e915060203d8111610f9d57610f8f81836113f5565b3861212f565b82513d89823e3d90fd5b600091826044926020956040519363a9059cbb60e01b85526004850152602484015260018060a01b03165af13d15601f3d116001600051141617161561227057565b60405162461bcd60e51b815260206004820152600f60248201526e1514905394d1915497d19052531151608a1b6044820152606490fdfea264697066735822122002475c83571fceba89379b90623ac23ee06f792748b11692671d02cff4784e1b64736f6c63430008110033",
  "linkReferences": {},
  "deployedLinkReferences": {}
}