{
  "_format": "hh-sol-artifact-1",
  "contractName": "GombocController",
  "sourceName": "contracts/GombocController.sol",
  "abi": [
    {
      "inputs": [
        {
          "internalType": "address",
          "name": "tokenAddress",
          "type": "address"
        },
        {
          "internalType": "address",
          "name": "votingEscrowAddress",
          "type": "address"
        }
      ],
      "stateMutability": "nonpayable",
      "type": "constructor"
    },
    {
      "anonymous": false,
      "inputs": [
        {
          "indexed": false,
          "internalType": "string",
          "name": "name",
          "type": "string"
        },
        {
          "indexed": false,
          "internalType": "int128",
          "name": "type_id",
          "type": "int128"
        }
      ],
      "name": "AddType",
      "type": "event"
    },
    {
      "anonymous": false,
      "inputs": [
        {
          "indexed": true,
          "internalType": "address",
          "name": "gomboc_address",
          "type": "address"
        },
        {
          "indexed": false,
          "internalType": "int128",
          "name": "gomboc_type",
          "type": "int128"
        },
        {
          "indexed": false,
          "internalType": "uint256",
          "name": "weight",
          "type": "uint256"
        }
      ],
      "name": "NewGomboc",
      "type": "event"
    },
    {
      "anonymous": false,
      "inputs": [
        {
          "indexed": true,
          "internalType": "address",
          "name": "gomboc_address",
          "type": "address"
        },
        {
          "indexed": false,
          "internalType": "uint256",
          "name": "time",
          "type": "uint256"
        },
        {
          "indexed": false,
          "internalType": "uint256",
          "name": "weight",
          "type": "uint256"
        },
        {
          "indexed": false,
          "internalType": "uint256",
          "name": "total_weight",
          "type": "uint256"
        }
      ],
      "name": "NewGombocWeight",
      "type": "event"
    },
    {
      "anonymous": false,
      "inputs": [
        {
          "indexed": true,
          "internalType": "int128",
          "name": "type_id",
          "type": "int128"
        },
        {
          "indexed": false,
          "internalType": "uint256",
          "name": "time",
          "type": "uint256"
        },
        {
          "indexed": false,
          "internalType": "uint256",
          "name": "weight",
          "type": "uint256"
        },
        {
          "indexed": false,
          "internalType": "uint256",
          "name": "total_weight",
          "type": "uint256"
        }
      ],
      "name": "NewTypeWeight",
      "type": "event"
    },
    {
      "anonymous": false,
      "inputs": [
        {
          "indexed": true,
          "internalType": "address",
          "name": "previousOwner",
          "type": "address"
        },
        {
          "indexed": true,
          "internalType": "address",
          "name": "newOwner",
          "type": "address"
        }
      ],
      "name": "OwnershipTransferStarted",
      "type": "event"
    },
    {
      "anonymous": false,
      "inputs": [
        {
          "indexed": true,
          "internalType": "address",
          "name": "previousOwner",
          "type": "address"
        },
        {
          "indexed": true,
          "internalType": "address",
          "name": "newOwner",
          "type": "address"
        }
      ],
      "name": "OwnershipTransferred",
      "type": "event"
    },
    {
      "anonymous": false,
      "inputs": [
        {
          "indexed": true,
          "internalType": "address",
          "name": "user",
          "type": "address"
        },
        {
          "indexed": true,
          "internalType": "address",
          "name": "gomboc_address",
          "type": "address"
        },
        {
          "indexed": false,
          "internalType": "uint256",
          "name": "time",
          "type": "uint256"
        },
        {
          "indexed": false,
          "internalType": "uint256",
          "name": "weight",
          "type": "uint256"
        }
      ],
      "name": "VoteForGomboc",
      "type": "event"
    },
    {
      "inputs": [],
      "name": "acceptOwnership",
      "outputs": [],
      "stateMutability": "nonpayable",
      "type": "function"
    },
    {
      "inputs": [
        {
          "internalType": "address",
          "name": "addr",
          "type": "address"
        },
        {
          "internalType": "int128",
          "name": "gombocType",
          "type": "int128"
        },
        {
          "internalType": "uint256",
          "name": "weight",
          "type": "uint256"
        }
      ],
      "name": "addGomboc",
      "outputs": [],
      "stateMutability": "nonpayable",
      "type": "function"
    },
    {
      "inputs": [
        {
          "internalType": "string",
          "name": "_name",
          "type": "string"
        },
        {
          "internalType": "uint256",
          "name": "weight",
          "type": "uint256"
        }
      ],
      "name": "addType",
      "outputs": [],
      "stateMutability": "nonpayable",
      "type": "function"
    },
    {
      "inputs": [
        {
          "internalType": "address[]",
          "name": "gombocAddressList",
          "type": "address[]"
        },
        {
          "internalType": "uint256[]",
          "name": "userWeightList",
          "type": "uint256[]"
        }
      ],
      "name": "batchVoteForGombocWeights",
      "outputs": [],
      "stateMutability": "nonpayable",
      "type": "function"
    },
    {
      "inputs": [
        {
          "internalType": "address",
          "name": "gombocAddress",
          "type": "address"
        },
        {
          "internalType": "uint256",
          "name": "weight",
          "type": "uint256"
        }
      ],
      "name": "changeGombocWeight",
      "outputs": [],
      "stateMutability": "nonpayable",
      "type": "function"
    },
    {
      "inputs": [
        {
          "internalType": "int128",
          "name": "typeId",
          "type": "int128"
        },
        {
          "internalType": "uint256",
          "name": "weight",
          "type": "uint256"
        }
      ],
      "name": "changeTypeWeight",
      "outputs": [],
      "stateMutability": "nonpayable",
      "type": "function"
    },
    {
      "inputs": [
        {
          "internalType": "int128",
          "name": "",
          "type": "int128"
        },
        {
          "internalType": "uint256",
          "name": "",
          "type": "uint256"
        }
      ],
      "name": "changesSum",
      "outputs": [
        {
          "internalType": "uint256",
          "name": "",
          "type": "uint256"
        }
      ],
      "stateMutability": "view",
      "type": "function"
    },
    {
      "inputs": [],
      "name": "checkpoint",
      "outputs": [],
      "stateMutability": "nonpayable",
      "type": "function"
    },
    {
      "inputs": [
        {
          "internalType": "address",
          "name": "addr",
          "type": "address"
        }
      ],
      "name": "checkpointGomboc",
      "outputs": [],
      "stateMutability": "nonpayable",
      "type": "function"
    },
    {
      "inputs": [
        {
          "internalType": "address",
          "name": "addr",
          "type": "address"
        }
      ],
      "name": "getGombocWeight",
      "outputs": [
        {
          "internalType": "uint256",
          "name": "",
          "type": "uint256"
        }
      ],
      "stateMutability": "view",
      "type": "function"
    },
    {
      "inputs": [],
      "name": "getTotalWeight",
      "outputs": [
        {
          "internalType": "uint256",
          "name": "",
          "type": "uint256"
        }
      ],
      "stateMutability": "view",
      "type": "function"
    },
    {
      "inputs": [
        {
          "internalType": "int128",
          "name": "typeId",
          "type": "int128"
        }
      ],
      "name": "getTypeWeight",
      "outputs": [
        {
          "internalType": "uint256",
          "name": "",
          "type": "uint256"
        }
      ],
      "stateMutability": "view",
      "type": "function"
    },
    {
      "inputs": [
        {
          "internalType": "int128",
          "name": "typeId",
          "type": "int128"
        }
      ],
      "name": "getWeightsSumPreType",
      "outputs": [
        {
          "internalType": "uint256",
          "name": "",
          "type": "uint256"
        }
      ],
      "stateMutability": "view",
      "type": "function"
    },
    {
      "inputs": [
        {
          "internalType": "address",
          "name": "gombocAddress",
          "type": "address"
        },
        {
          "internalType": "uint256",
          "name": "time",
          "type": "uint256"
        }
      ],
      "name": "gombocRelativeWeight",
      "outputs": [
        {
          "internalType": "uint256",
          "name": "",
          "type": "uint256"
        }
      ],
      "stateMutability": "view",
      "type": "function"
    },
    {
      "inputs": [
        {
          "internalType": "address",
          "name": "gombocAddress",
          "type": "address"
        },
        {
          "internalType": "uint256",
          "name": "time",
          "type": "uint256"
        }
      ],
      "name": "gombocRelativeWeightWrite",
      "outputs": [
        {
          "internalType": "uint256",
          "name": "",
          "type": "uint256"
        }
      ],
      "stateMutability": "nonpayable",
      "type": "function"
    },
    {
      "inputs": [
        {
          "internalType": "int128",
          "name": "",
          "type": "int128"
        }
      ],
      "name": "gombocTypeNames",
      "outputs": [
        {
          "internalType": "string",
          "name": "",
          "type": "string"
        }
      ],
      "stateMutability": "view",
      "type": "function"
    },
    {
      "inputs": [
        {
          "internalType": "address",
          "name": "_addr",
          "type": "address"
        }
      ],
      "name": "gombocTypes",
      "outputs": [
        {
          "internalType": "int128",
          "name": "",
          "type": "int128"
        }
      ],
      "stateMutability": "view",
      "type": "function"
    },
    {
      "inputs": [
        {
          "internalType": "uint256",
          "name": "",
          "type": "uint256"
        }
      ],
      "name": "gombocs",
      "outputs": [
        {
          "internalType": "address",
          "name": "",
          "type": "address"
        }
      ],
      "stateMutability": "view",
      "type": "function"
    },
    {
      "inputs": [
        {
          "internalType": "address",
          "name": "",
          "type": "address"
        },
        {
          "internalType": "address",
          "name": "",
          "type": "address"
        }
      ],
      "name": "lastUserVote",
      "outputs": [
        {
          "internalType": "uint256",
          "name": "",
          "type": "uint256"
        }
      ],
      "stateMutability": "view",
      "type": "function"
    },
    {
      "inputs": [
        {
          "internalType": "address",
          "name": "",
          "type": "address"
        },
        {
          "internalType": "address",
          "name": "",
          "type": "address"
        }
      ],
      "name": "lastVoteVeLtPointEpoch",
      "outputs": [
        {
          "internalType": "uint256",
          "name": "",
          "type": "uint256"
        }
      ],
      "stateMutability": "view",
      "type": "function"
    },
    {
      "inputs": [],
      "name": "nGomboc",
      "outputs": [
        {
          "internalType": "int128",
          "name": "",
          "type": "int128"
        }
      ],
      "stateMutability": "view",
      "type": "function"
    },
    {
      "inputs": [],
      "name": "nGombocTypes",
      "outputs": [
        {
          "internalType": "int128",
          "name": "",
          "type": "int128"
        }
      ],
      "stateMutability": "view",
      "type": "function"
    },
    {
      "inputs": [],
      "name": "owner",
      "outputs": [
        {
          "internalType": "address",
          "name": "",
          "type": "address"
        }
      ],
      "stateMutability": "view",
      "type": "function"
    },
    {
      "inputs": [],
      "name": "pendingOwner",
      "outputs": [
        {
          "internalType": "address",
          "name": "",
          "type": "address"
        }
      ],
      "stateMutability": "view",
      "type": "function"
    },
    {
      "inputs": [
        {
          "internalType": "int128",
          "name": "",
          "type": "int128"
        },
        {
          "internalType": "uint256",
          "name": "",
          "type": "uint256"
        }
      ],
      "name": "pointsSum",
      "outputs": [
        {
          "internalType": "uint256",
          "name": "bias",
          "type": "uint256"
        },
        {
          "internalType": "uint256",
          "name": "slope",
          "type": "uint256"
        }
      ],
      "stateMutability": "view",
      "type": "function"
    },
    {
      "inputs": [
        {
          "internalType": "uint256",
          "name": "",
          "type": "uint256"
        }
      ],
      "name": "pointsTotal",
      "outputs": [
        {
          "internalType": "uint256",
          "name": "",
          "type": "uint256"
        }
      ],
      "stateMutability": "view",
      "type": "function"
    },
    {
      "inputs": [
        {
          "internalType": "int128",
          "name": "",
          "type": "int128"
        },
        {
          "internalType": "uint256",
          "name": "",
          "type": "uint256"
        }
      ],
      "name": "pointsTypeWeight",
      "outputs": [
        {
          "internalType": "uint256",
          "name": "",
          "type": "uint256"
        }
      ],
      "stateMutability": "view",
      "type": "function"
    },
    {
      "inputs": [
        {
          "internalType": "address",
          "name": "",
          "type": "address"
        },
        {
          "internalType": "uint256",
          "name": "",
          "type": "uint256"
        }
      ],
      "name": "pointsWeight",
      "outputs": [
        {
          "internalType": "uint256",
          "name": "bias",
          "type": "uint256"
        },
        {
          "internalType": "uint256",
          "name": "slope",
          "type": "uint256"
        }
      ],
      "stateMutability": "view",
      "type": "function"
    },
    {
      "inputs": [],
      "name": "renounceOwnership",
      "outputs": [],
      "stateMutability": "nonpayable",
      "type": "function"
    },
    {
      "inputs": [
        {
          "internalType": "uint256",
          "name": "",
          "type": "uint256"
        }
      ],
      "name": "timeSum",
      "outputs": [
        {
          "internalType": "uint256",
          "name": "",
          "type": "uint256"
        }
      ],
      "stateMutability": "view",
      "type": "function"
    },
    {
      "inputs": [],
      "name": "timeTotal",
      "outputs": [
        {
          "internalType": "uint256",
          "name": "",
          "type": "uint256"
        }
      ],
      "stateMutability": "view",
      "type": "function"
    },
    {
      "inputs": [
        {
          "internalType": "uint256",
          "name": "",
          "type": "uint256"
        }
      ],
      "name": "timeTypeWeight",
      "outputs": [
        {
          "internalType": "uint256",
          "name": "",
          "type": "uint256"
        }
      ],
      "stateMutability": "view",
      "type": "function"
    },
    {
      "inputs": [
        {
          "internalType": "address",
          "name": "",
          "type": "address"
        }
      ],
      "name": "timeWeight",
      "outputs": [
        {
          "internalType": "uint256",
          "name": "",
          "type": "uint256"
        }
      ],
      "stateMutability": "view",
      "type": "function"
    },
    {
      "inputs": [],
      "name": "token",
      "outputs": [
        {
          "internalType": "address",
          "name": "",
          "type": "address"
        }
      ],
      "stateMutability": "view",
      "type": "function"
    },
    {
      "inputs": [
        {
          "internalType": "address",
          "name": "newOwner",
          "type": "address"
        }
      ],
      "name": "transferOwnership",
      "outputs": [],
      "stateMutability": "nonpayable",
      "type": "function"
    },
    {
      "inputs": [
        {
          "internalType": "address",
          "name": "gombocAddress",
          "type": "address"
        },
        {
          "internalType": "uint256",
          "name": "userWeight",
          "type": "uint256"
        }
      ],
      "name": "voteForGombocWeights",
      "outputs": [],
      "stateMutability": "nonpayable",
      "type": "function"
    },
    {
      "inputs": [
        {
          "internalType": "address",
          "name": "",
          "type": "address"
        }
      ],
      "name": "voteUserPower",
      "outputs": [
        {
          "internalType": "uint256",
          "name": "",
          "type": "uint256"
        }
      ],
      "stateMutability": "view",
      "type": "function"
    },
    {
      "inputs": [
        {
          "internalType": "address",
          "name": "",
          "type": "address"
        },
        {
          "internalType": "address",
          "name": "",
          "type": "address"
        }
      ],
      "name": "voteUserSlopes",
      "outputs": [
        {
          "internalType": "uint256",
          "name": "slope",
          "type": "uint256"
        },
        {
          "internalType": "uint256",
          "name": "power",
          "type": "uint256"
        },
        {
          "internalType": "uint256",
          "name": "end",
          "type": "uint256"
        }
      ],
      "stateMutability": "view",
      "type": "function"
    },
    {
      "inputs": [
        {
          "internalType": "address",
          "name": "",
          "type": "address"
        },
        {
          "internalType": "address",
          "name": "",
          "type": "address"
        },
        {
          "internalType": "uint256",
          "name": "",
          "type": "uint256"
        }
      ],
      "name": "voteVeLtPointHistory",
      "outputs": [
        {
          "internalType": "uint256",
          "name": "bias",
          "type": "uint256"
        },
        {
          "internalType": "uint256",
          "name": "slope",
          "type": "uint256"
        },
        {
          "internalType": "uint256",
          "name": "ts",
          "type": "uint256"
        },
        {
          "internalType": "uint256",
          "name": "blk",
          "type": "uint256"
        }
      ],
      "stateMutability": "view",
      "type": "function"
    },
    {
      "inputs": [],
      "name": "votingEscrow",
      "outputs": [
        {
          "internalType": "address",
          "name": "",
          "type": "address"
        }
      ],
      "stateMutability": "view",
      "type": "function"
    }
  ],
  "bytecode": "0x60c06040523480156200001157600080fd5b5060405162002b8a38038062002b8a8339810160408190526200003491620001d0565b6200003f33620000f9565b6001600160a01b038216620000835760405162461bcd60e51b8152602060048201526005602482015264043453030360dc1b60448201526064015b60405180910390fd5b6001600160a01b038116620000c35760405162461bcd60e51b8152602060048201526005602482015264043453030360dc1b60448201526064016200007a565b6001600160a01b03828116608052811660a052620000ed4262000123602090811b6200180a17901c565b60125550620002519050565b600180546001600160a01b0319169055620001208162000163602090811b6200183c17901c565b50565b60006200013562015180600762000208565b6200014562015180600762000208565b6200015190846200022e565b6200015d919062000208565b92915050565b600080546001600160a01b038381166001600160a01b0319831681178455604051919092169283917f8be0079c531659141344cd1fd0a4f28419497f9722a3daafe3b4186f6b6457e09190a35050565b80516001600160a01b0381168114620001cb57600080fd5b919050565b60008060408385031215620001e457600080fd5b620001ef83620001b3565b9150620001ff60208401620001b3565b90509250929050565b80820281158282048414176200015d57634e487b7160e01b600052601160045260246000fd5b6000826200024c57634e487b7160e01b600052601260045260246000fd5b500490565b60805160a05161290562000285600039600081816103ce01528181610ef40152610f8a0152600061075401526129056000f3fe608060405234801561001057600080fd5b50600436106102485760003560e01c8063870e37331161013b578063e0ab067e116100b8578063f2fde38b1161007c578063f2fde38b146106f7578063f763d1ff1461070a578063f9b446781461073c578063fc0c546a1461074f578063fe5e38631461077657600080fd5b8063e0ab067e14610633578063e30c397814610646578063e75ec69914610657578063eab9041e146106ac578063ec73d906146106d757600080fd5b8063b93cd39d116100ff578063b93cd39d14610542578063c06cd02b14610555578063c2c4c5c1146105bb578063c3a6ca13146105c3578063daff6f081461060a57600080fd5b8063870e3733146104b45780638da5cb5b146104c75780638ebea492146104d857806393580fe0146104eb578063b827ab79146104ff57600080fd5b8063362985ab116101c95780636fc25b061161018d5780636fc25b0614610451578063715018a61461047157806377bc2ae01461047957806379ba5097146104995780637d1530d5146104a157600080fd5b8063362985ab1461039e5780634f2bfe5b146103c957806362897a3214610408578063688f3f1f146104285780636eb2d62c1461043157600080fd5b806326f4ed511161021057806326f4ed511461031a578063289f338f146103455780632cb3075e146103655780632e22618a14610378578063335612461461038b57600080fd5b806305574df31461024d578063057c9cb41461026257806306aba0e11461029557806310d1ba58146102ac578063117610fc146102ef575b600080fd5b61026061025b366004612331565b6107b1565b005b6102826102703660046123f1565b60116020526000908152604090205481565b6040519081526020015b60405180910390f35b601254600090815260116020526040902054610282565b6102826102ba36600461241c565b600f81900b60009081526013602090815260408083206001600160801b03909416835260148252808320548352929052205490565b6102826102fd366004612437565b600f60209081526000928352604080842090915290825290205481565b610282610328366004612461565b600860209081526000928352604080842090915290825290205481565b610282610353366004612494565b600d6020526000908152604090205481565b6102826103733660046124af565b61081c565b6102606103863660046124cb565b610844565b6102826103993660046124af565b610b24565b6102826103ac366004612461565b600a60209081526000928352604080842090915290825290205481565b6103f07f000000000000000000000000000000000000000000000000000000000000000081565b6040516001600160a01b03909116815260200161028c565b61041b61041636600461241c565b610b30565b60405161028c919061254d565b61028260125481565b61028261043f3660046123f1565b60146020526000908152604090205481565b60025461045e90600f0b81565b604051600f9190910b815260200161028c565b610260610bca565b6102826104873660046123f1565b60106020526000908152604090205481565b610260610bde565b61045e6104af366004612494565b610c58565b6102606104c2366004612560565b610cbd565b6000546001600160a01b03166103f0565b6102606104e63660046124af565b610d5d565b60025461045e90600160801b9004600f0b81565b61028261050d36600461241c565b600f81900b6000908152600e602090815260408083206001600160801b03909416835260108252808320548352929052205490565b610260610550366004612494565b610dd5565b61059b6105633660046125fa565b600960209081526000938452604080852082529284528284209052825290208054600182015460028301546003909301549192909184565b60408051948552602085019390935291830152606082015260800161028c565b610260610deb565b6105f56105d13660046124af565b600b6020908152600092835260408084209091529082529020805460019091015482565b6040805192835260208301919091520161028c565b6103f06106183660046123f1565b6004602052600090815260409020546001600160a01b031681565b610260610641366004612437565b610df3565b6001546001600160a01b03166103f0565b610691610665366004612461565b600660209081526000928352604080842090915290825290208054600182015460029092015490919083565b6040805193845260208401929092529082015260600161028c565b6102826106ba366004612437565b601360209081526000928352604080842090915290825290205481565b6102826106e5366004612494565b60076020526000908152604090205481565b610260610705366004612494565b610e05565b6105f5610718366004612437565b600e6020908152600092835260408084209091529082529020805460019091015482565b61026061074a3660046124af565b610e76565b6103f07f000000000000000000000000000000000000000000000000000000000000000081565b610282610784366004612494565b6001600160a01b03166000908152600b60209081526040808320600d835281842054845290915290205490565b60005b8251811080156107c45750608081105b15610817576108058382815181106107de576107de612626565b60200260200101518383815181106107f8576107f8612626565b6020026020010151610e76565b8061080f81612652565b9150506107b4565b505050565b60006108278361188c565b50610830611a19565b5061083b8383611b81565b90505b92915050565b61084c611c4b565b600082600f0b121580156108695750600254600f90810b9083900b125b6108a25760405162461bcd60e51b8152602060048201526005602482015264474330303160d81b60448201526064015b60405180910390fd5b6001600160a01b038316600090815260056020526040902054600f0b156108f35760405162461bcd60e51b815260206004820152600560248201526423a198181960d91b6044820152606401610899565b600254600160801b9004600f0b61090b81600161266b565b600280546001600160801b03928316600160801b029216919091179055836004600061093d846001600160801b031690565b8152602081019190915260400160002080546001600160a01b0319166001600160a01b039290921691909117905561097683600161266b565b6001600160a01b038516600090815260056020526040812080546001600160801b0319166001600160801b0393909316929092179091556109cd6109be620151806007612698565b6109c890426126af565b61180a565b90508215610a895760006109e085611ca5565b905060006109ed86611d6f565b905060006109f9611a19565b9050610a0582876126af565b600f88900b6000908152600e602090815260408083208884528252808320939093556001600160801b038a1682526010905220849055610a458684612698565b610a4f90826126af565b60008581526011602090815260408083209390935560128790556001600160a01b038b168252600b81528282208783529052208690555050505b6001600160801b0384166000908152601060205260408120549003610ac4576001600160801b03841660009081526010602052604090208190555b6001600160a01b0385166000818152600d60209081526040918290208490558151600f88900b81529081018690527f19673bf07d33c3c59c62af022ddbde96f27516096651b9f4649b2d076e612a4b910160405180910390a25050505050565b600061083b8383611b81565b60036020526000908152604090208054610b49906126c2565b80601f0160208091040260200160405190810160405280929190818152602001828054610b75906126c2565b8015610bc25780601f10610b9757610100808354040283529160200191610bc2565b820191906000526020600020905b815481529060010190602001808311610ba557829003601f168201915b505050505081565b610bd2611c4b565b610bdc6000611ee5565b565b60015433906001600160a01b03168114610c4c5760405162461bcd60e51b815260206004820152602960248201527f4f776e61626c6532537465703a2063616c6c6572206973206e6f7420746865206044820152683732bb9037bbb732b960b91b6064820152608401610899565b610c5581611ee5565b50565b6001600160a01b038116600090815260056020526040812054600f0b808203610cab5760405162461bcd60e51b8152602060048201526005602482015264043453030360dc1b6044820152606401610899565b610cb66001826126fc565b9392505050565b610cc5611c4b565b600254600f0b6000818152600360205260409020610ce38482612777565b50610cef81600161266b565b600280546001600160801b0319166001600160801b03929092169190911790558115610d1f57610d1f8183611efe565b7f6fbe76157c712f16b5a3c44ed48baa04e3450bc3fab0c020e848aca72bbccc848382604051610d50929190612837565b60405180910390a1505050565b610d65611c4b565b6001600160a01b038216600090815260056020526040812054610d8d90600190600f0b6126fc565b9050600081600f0b1215610dcb5760405162461bcd60e51b8152602060048201526005602482015264047433030360dc1b6044820152606401610899565b6108178383611ff3565b610dde8161188c565b50610de7611a19565b5050565b610c55611a19565b610dfb611c4b565b610de78282611efe565b610e0d611c4b565b600180546001600160a01b0383166001600160a01b03199091168117909155610e3e6000546001600160a01b031690565b6001600160a01b03167f38d16b8cac22d99fc7c124b9cd0de2d3fa1faef420bfe791d8c362d765e2270060405160405180910390a350565b6001600160a01b038216600090815260056020526040812054610e9e90600190600f0b6126fc565b9050600081600f0b1215610edc5760405162461bcd60e51b8152602060048201526005602482015264047433030360dc1b6044820152606401610899565b604051631e74dac160e31b81523360048201526000907f00000000000000000000000000000000000000000000000000000000000000006001600160a01b03169063f3a6d60890602401602060405180830381865afa158015610f43573d6000803e3d6000fd5b505050506040513d601f19601f82011682018060405250810190610f67919061285c565b6040516326f57e5760e11b81523360048201529091506000906001600160a01b037f00000000000000000000000000000000000000000000000000000000000000001690634deafcae90602401602060405180830381865afa158015610fd1573d6000803e3d6000fd5b505050506040513d601f19601f82011682018060405250810190610ff5919061285c565b9050600061100a6109be620151806007612698565b90508082116110435760405162461bcd60e51b8152602060048201526005602482015264474330303360d81b6044820152606401610899565b61271085111561107d5760405162461bcd60e51b815260206004820152600560248201526411d0cc0c0d60da1b6044820152606401610899565b61108b62015180600a612698565b3360009081526008602090815260408083206001600160a01b038b1684529091529020546110b991906126af565b4210156110f05760405162461bcd60e51b8152602060048201526005602482015264474330303560d81b6044820152606401610899565b6110f8612196565b3360009081526006602090815260408083206001600160a01b038b168452825280832081516060810183528154815260018201549381019390935260020154828201908152918452830191909152518210156111655780516040015161115f908390612875565b60408201525b60408101518151516111779190612698565b606080830191909152604080519182019052806127106111978988612698565b6111a19190612888565b8152602080820189905260409091018590528201526111c08284612875565b608082018190526020820151516111d79190612698565b60a08201908152604080516080810182529151825260208084018051518285015283830186905243606085015260c0850193909352336000908152600782529190912054835182015192519091015190919061123390836126af565b61123d9190612875565b336000908152600760205260409020819055905061271081111561128b5760405162461bcd60e51b815260206004820152600560248201526423a198181b60d91b6044820152606401610899565b60006112968961188c565b6001600160a01b038a166000908152600b602090815260408083208884529091528120600101549192506112c989611d6f565b600f8a900b6000908152600e602090815260408083208a8452909152902060010154606087015160a088015192935090916113129061130890876126af565b8860600151612180565b61131c9190612875565b6001600160a01b038d166000908152600b602090815260408083208b8452909152902055606086015160a08701516113589061130890856126af565b6113629190612875565b600f8b900b6000908152600e602090815260408083208b845290915290819020919091558651015187101561142b578551516020870151516113b0906113a890866126af565b885151612180565b6113ba9190612875565b6001600160a01b038d166000908152600b602090815260408083208b845282529091206001019190915586515190870151516113fa906113a890846126af565b6114049190612875565b600f8b900b6000908152600e602090815260408083208b84529091529020600101556114a9565b602080870151516001600160a01b038e166000908152600b835260408082208b83529093529182206001018054919290916114679084906126af565b909155505060208087015151600f8c900b6000908152600e835260408082208b83529093529182206001018054919290916114a39084906126af565b90915550505b85516040015142101561152f578551516001600160a01b038d166000908152600c602090815260408083208a518201518452909152812080549091906114f0908490612875565b9091555050855151600f8b810b6000908152602091825260408082208a5182015183529092529081208054909190611529908490612875565b90915550505b60208087018051516001600160a01b038f166000908152600c84526040808220935181015182529290935290822080549192909161156e9084906126af565b90915550506020808701805151600f8d810b6000908152908452604080822093518101518252929093529082208054919290916115ac9084906126af565b909155506115ba9050611a19565b50856020015160066000336001600160a01b03166001600160a01b0316815260200190815260200160002060008e6001600160a01b03166001600160a01b031681526020019081526020016000206000820151816000015560208201518160010155604082015181600201559050504260086000336001600160a01b03166001600160a01b0316815260200190815260200160002060008e6001600160a01b03166001600160a01b03168152602001908152602001600020819055506000600a6000336001600160a01b03166001600160a01b0316815260200190815260200160002060008e6001600160a01b03166001600160a01b031681526020019081526020016000205460016116cd91906126af565b90508660c0015160096000336001600160a01b03166001600160a01b0316815260200190815260200160002060008f6001600160a01b03166001600160a01b0316815260200190815260200160002060008381526020019081526020016000206000820151816000015560208201518160010155604082015181600201556060820151816003015590505080600a6000336001600160a01b03166001600160a01b0316815260200190815260200160002060008f6001600160a01b03166001600160a01b03168152602001908152602001600020819055508c6001600160a01b0316336001600160a01b03167fce1dc810fa82e83c4f084d18c488cee677745c66f464ff8f8b76b23f125d41af428f6040516117f3929190918252602082015260400190565b60405180910390a350505050505050505050505050565b600061181a620151806007612698565b611828620151806007612698565b6118329084612888565b61083e9190612698565b600080546001600160a01b038381166001600160a01b0319831681178455604051919092169283917f8be0079c531659141344cd1fd0a4f28419497f9722a3daafe3b4186f6b6457e09190a35050565b6001600160a01b0381166000908152600d6020526040812054806118b35750600092915050565b6001600160a01b0383166000908152600b6020908152604080832084845282528083208151808301909252805482526001015491810191909152905b6101f4811015611a1057428311611a105761190e620151806007612698565b61191890846126af565b9250600061192a620151806007612698565b83602001516119399190612698565b9050808360000151111561199d5780836000018181516119599190612875565b9052506001600160a01b0386166000908152600c602090815260408083208784528252909120549084018051829190611993908390612875565b9052506119a89050565b600080845260208401525b6001600160a01b0386166000908152600b6020908152604080832087845282529091208451815590840151600190910155428411156119fd576001600160a01b0386166000908152600d602052604090208490555b5080611a0881612652565b9150506118ef565b50519392505050565b60125460025460009190600f0b42821115611a4957611a3c620151806007612698565b611a469083612875565b91505b600082815260116020526040812054905b606481600f0b1215611a9a5782600f0b81600f0b0315611a9a57611a7d81611d6f565b50611a8781611ca5565b5080611a92816128aa565b915050611a5a565b5060005b6101f4811015611b7957428411611b7957611abd620151806007612698565b611ac790856126af565b93506000915060005b606481600f0b1215611b475783600f0b81600f0b0315611b4757600f81900b6000818152600e6020908152604080832089845282528083205493835260138252808320898452909152902054611b268183612698565b611b3090866126af565b945050508080611b3f906128aa565b915050611ad0565b50600084815260116020526040902082905542841115611b675760128490555b80611b7181612652565b915050611a9e565b509392505050565b600080611b8d8361180a565b60008181526011602052604090205490915080611baf5760009250505061083e565b6001600160a01b038516600090815260056020526040812054611bd790600190600f0b6126fc565b600f81900b60009081526013602090815260408083208784528252808320546001600160a01b038b168452600b835281842088855290925290912054919250908381611c2b84670de0b6b3a7640000612698565b611c359190612698565b611c3f9190612888565b98975050505050505050565b6000546001600160a01b03163314610bdc5760405162461bcd60e51b815260206004820181905260248201527f4f776e61626c653a2063616c6c6572206973206e6f7420746865206f776e65726044820152606401610899565b6001600160801b03811660009081526014602052604081205480611ccc5750600092915050565b600f83900b6000908152601360209081526040808320848452909152812054905b6101f4811015611b7957428311611b7957611d0c620151806007612698565b611d1690846126af565b600f86900b60009081526013602090815260408083208484529091529020839055925042831115611d5d576001600160801b03851660009081526014602052604090208390555b80611d6781612652565b915050611ced565b6001600160801b03811660008181526010602052604081205490919080611d9a575060009392505050565b600f84900b6000908152600e6020908152604080832084845282528083208151808301909252805482526001015491810191909152905b6101f4811015611edb57428311611edb57611df0620151806007612698565b611dfa90846126af565b92506000611e0c620151806007612698565b8360200151611e1b9190612698565b90508083600001511115611e77578083600001818151611e3b9190612875565b905250600f87810b60009081526020918252604080822087835283529020549084018051829190611e6d908390612875565b905250611e829050565b600080845260208401525b600f87900b6000908152600e602090815260408083208784528252909120845181559084015160019091015542841115611ec85760008581526010602052604090208490555b5080611ed381612652565b915050611dd1565b5051949350505050565b600180546001600160a01b0319169055610c558161183c565b6000611f0983611ca5565b90506000611f1684611d6f565b90506000611f22611a19565b90506000611f376109be620151806007612698565b9050611f438484612698565b611f4d8685612698565b611f5790846126af565b611f619190612875565b6000828152601160209081526040808320849055600f8a900b8084526013835281842086855283528184208a905560128690556001600160801b038b168452601483529281902085905580518581529182018990528101839052919350907e170bcdc909b6ac6e12d020fe8942256312cdcd555fb6d712899eba56d2f9019060600160405180910390a2505050505050565b6001600160a01b03821660009081526005602052604081205461201b90600190600f0b6126fc565b905060006120288461188c565b9050600061203583611ca5565b9050600061204284611d6f565b9050600061204e611a19565b905060006120636109be620151806007612698565b6001600160a01b0389166000818152600b6020908152604080832085845282528083208c9055928252600d9052908120829055909150856120a489866126af565b6120ae9190612875565b600f88900b6000908152600e6020908152604080832086845282528083208490556001600160801b038b1683526010909152902083905590506120f18585612698565b6120fb8683612698565b61210590856126af565b61210f9190612875565b600083815260116020908152604091829020839055601285905581514281529081018b90529081018290529093506001600160a01b038a16907f2d0d230497e89332e470eb504f613985f0c7abff50e94d09ef03a4bdc9c07e5a9060600160405180910390a2505050505050505050565b600081831161218f578161083b565b5090919050565b6040518060e001604052806121c560405180606001604052806000815260200160008152602001600081525090565b81526020016121ee60405180606001604052806000815260200160008152602001600081525090565b81526020016000815260200160008152602001600081526020016000815260200161223a6040518060800160405280600081526020016000815260200160008152602001600081525090565b905290565b634e487b7160e01b600052604160045260246000fd5b604051601f8201601f1916810167ffffffffffffffff8111828210171561227e5761227e61223f565b604052919050565b600067ffffffffffffffff8211156122a0576122a061223f565b5060051b60200190565b80356001600160a01b03811681146122c157600080fd5b919050565b600082601f8301126122d757600080fd5b813560206122ec6122e783612286565b612255565b82815260059290921b8401810191818101908684111561230b57600080fd5b8286015b84811015612326578035835291830191830161230f565b509695505050505050565b6000806040838503121561234457600080fd5b823567ffffffffffffffff8082111561235c57600080fd5b818501915085601f83011261237057600080fd5b813560206123806122e783612286565b82815260059290921b8401810191818101908984111561239f57600080fd5b948201945b838610156123c4576123b5866122aa565b825294820194908201906123a4565b965050860135925050808211156123da57600080fd5b506123e7858286016122c6565b9150509250929050565b60006020828403121561240357600080fd5b5035919050565b8035600f81900b81146122c157600080fd5b60006020828403121561242e57600080fd5b61083b8261240a565b6000806040838503121561244a57600080fd5b6124538361240a565b946020939093013593505050565b6000806040838503121561247457600080fd5b61247d836122aa565b915061248b602084016122aa565b90509250929050565b6000602082840312156124a657600080fd5b61083b826122aa565b600080604083850312156124c257600080fd5b612453836122aa565b6000806000606084860312156124e057600080fd5b6124e9846122aa565b92506124f76020850161240a565b9150604084013590509250925092565b6000815180845260005b8181101561252d57602081850181015186830182015201612511565b506000602082860101526020601f19601f83011685010191505092915050565b60208152600061083b6020830184612507565b6000806040838503121561257357600080fd5b823567ffffffffffffffff8082111561258b57600080fd5b818501915085601f83011261259f57600080fd5b81356020828211156125b3576125b361223f565b6125c5601f8301601f19168201612255565b925081835287818386010111156125db57600080fd5b8181850182850137600091830181019190915290969401359450505050565b60008060006060848603121561260f57600080fd5b612618846122aa565b92506124f7602085016122aa565b634e487b7160e01b600052603260045260246000fd5b634e487b7160e01b600052601160045260246000fd5b6000600182016126645761266461263c565b5060010190565b600f81810b9083900b0160016001607f1b03811360016001607f1b03198212171561083e5761083e61263c565b808202811582820484141761083e5761083e61263c565b8082018082111561083e5761083e61263c565b600181811c908216806126d657607f821691505b6020821081036126f657634e487b7160e01b600052602260045260246000fd5b50919050565b600f82810b9082900b0360016001607f1b0319811260016001607f1b038213171561083e5761083e61263c565b601f82111561081757600081815260208120601f850160051c810160208610156127505750805b601f850160051c820191505b8181101561276f5782815560010161275c565b505050505050565b815167ffffffffffffffff8111156127915761279161223f565b6127a58161279f84546126c2565b84612729565b602080601f8311600181146127da57600084156127c25750858301515b600019600386901b1c1916600185901b17855561276f565b600085815260208120601f198616915b82811015612809578886015182559484019460019091019084016127ea565b50858210156128275787850151600019600388901b60f8161c191681555b5050505050600190811b01905550565b60408152600061284a6040830185612507565b905082600f0b60208301529392505050565b60006020828403121561286e57600080fd5b5051919050565b8181038181111561083e5761083e61263c565b6000826128a557634e487b7160e01b600052601260045260246000fd5b500490565b600081600f0b60016001607f1b0381036128c6576128c661263c565b6001019291505056fea2646970667358221220dfaf523a83a7fbbe443c20d9aabc9c16d0c2a457fee109893ba7a545b35e2bd764736f6c63430008110033",
  "linkReferences": {},
  "deployedLinkReferences": {}
}