{
  "_format": "hh-sol-artifact-1",
  "contractName": "HOPE",
  "sourceName": "contracts/tokens/HOPE.sol",
  "abi": [
    {
      "anonymous": false,
      "inputs": [
        {
          "indexed": true,
          "internalType": "address",
          "name": "account",
          "type": "address"
        },
        {
          "indexed": false,
          "internalType": "uint256",
          "name": "effectiveBlock",
          "type": "uint256"
        },
        {
          "indexed": false,
          "internalType": "address",
          "name": "sender",
          "type": "address"
        }
      ],
      "name": "AgentChangeEffectiveBlock",
      "type": "event"
    },
    {
      "anonymous": false,
      "inputs": [
        {
          "indexed": true,
          "internalType": "address",
          "name": "account",
          "type": "address"
        },
        {
          "indexed": false,
          "internalType": "uint256",
          "name": "expirationBlock",
          "type": "uint256"
        },
        {
          "indexed": false,
          "internalType": "address",
          "name": "sender",
          "type": "address"
        }
      ],
      "name": "AgentChangeExpirationBlock",
      "type": "event"
    },
    {
      "anonymous": false,
      "inputs": [
        {
          "indexed": true,
          "internalType": "address",
          "name": "account",
          "type": "address"
        },
        {
          "indexed": false,
          "internalType": "uint256",
          "name": "credit",
          "type": "uint256"
        },
        {
          "indexed": false,
          "internalType": "address",
          "name": "sender",
          "type": "address"
        }
      ],
      "name": "AgentDecreaseCredit",
      "type": "event"
    },
    {
      "anonymous": false,
      "inputs": [
        {
          "indexed": true,
          "internalType": "address",
          "name": "account",
          "type": "address"
        },
        {
          "indexed": false,
          "internalType": "uint256",
          "name": "credit",
          "type": "uint256"
        },
        {
          "indexed": false,
          "internalType": "uint256",
          "name": "effectiveBlock",
          "type": "uint256"
        },
        {
          "indexed": false,
          "internalType": "uint256",
          "name": "expirationBlock",
          "type": "uint256"
        },
        {
          "indexed": false,
          "internalType": "bool",
          "name": "minable",
          "type": "bool"
        },
        {
          "indexed": false,
          "internalType": "bool",
          "name": "burnable",
          "type": "bool"
        },
        {
          "indexed": false,
          "internalType": "address",
          "name": "sender",
          "type": "address"
        }
      ],
      "name": "AgentGranted",
      "type": "event"
    },
    {
      "anonymous": false,
      "inputs": [
        {
          "indexed": true,
          "internalType": "address",
          "name": "account",
          "type": "address"
        },
        {
          "indexed": false,
          "internalType": "uint256",
          "name": "credit",
          "type": "uint256"
        },
        {
          "indexed": false,
          "internalType": "address",
          "name": "sender",
          "type": "address"
        }
      ],
      "name": "AgentIncreaseCredit",
      "type": "event"
    },
    {
      "anonymous": false,
      "inputs": [
        {
          "indexed": true,
          "internalType": "address",
          "name": "account",
          "type": "address"
        },
        {
          "indexed": false,
          "internalType": "address",
          "name": "sender",
          "type": "address"
        }
      ],
      "name": "AgentRevoked",
      "type": "event"
    },
    {
      "anonymous": false,
      "inputs": [
        {
          "indexed": true,
          "internalType": "address",
          "name": "account",
          "type": "address"
        },
        {
          "indexed": false,
          "internalType": "bool",
          "name": "burnable",
          "type": "bool"
        },
        {
          "indexed": false,
          "internalType": "address",
          "name": "sender",
          "type": "address"
        }
      ],
      "name": "AgentSwitchBurnable",
      "type": "event"
    },
    {
      "anonymous": false,
      "inputs": [
        {
          "indexed": true,
          "internalType": "address",
          "name": "account",
          "type": "address"
        },
        {
          "indexed": false,
          "internalType": "bool",
          "name": "minable",
          "type": "bool"
        },
        {
          "indexed": false,
          "internalType": "address",
          "name": "sender",
          "type": "address"
        }
      ],
      "name": "AgentSwitchMinable",
      "type": "event"
    },
    {
      "anonymous": false,
      "inputs": [
        {
          "indexed": true,
          "internalType": "address",
          "name": "owner",
          "type": "address"
        },
        {
          "indexed": true,
          "internalType": "address",
          "name": "spender",
          "type": "address"
        },
        {
          "indexed": false,
          "internalType": "uint256",
          "name": "value",
          "type": "uint256"
        }
      ],
      "name": "Approval",
      "type": "event"
    },
    {
      "anonymous": false,
      "inputs": [
        {
          "indexed": false,
          "internalType": "uint8",
          "name": "version",
          "type": "uint8"
        }
      ],
      "name": "Initialized",
      "type": "event"
    },
    {
      "anonymous": false,
      "inputs": [
        {
          "indexed": true,
          "internalType": "address",
          "name": "previousOwner",
          "type": "address"
        },
        {
          "indexed": true,
          "internalType": "address",
          "name": "newOwner",
          "type": "address"
        }
      ],
      "name": "OwnershipTransferStarted",
      "type": "event"
    },
    {
      "anonymous": false,
      "inputs": [
        {
          "indexed": true,
          "internalType": "address",
          "name": "previousOwner",
          "type": "address"
        },
        {
          "indexed": true,
          "internalType": "address",
          "name": "newOwner",
          "type": "address"
        }
      ],
      "name": "OwnershipTransferred",
      "type": "event"
    },
    {
      "anonymous": false,
      "inputs": [
        {
          "indexed": true,
          "internalType": "address",
          "name": "from",
          "type": "address"
        },
        {
          "indexed": true,
          "internalType": "address",
          "name": "to",
          "type": "address"
        },
        {
          "indexed": false,
          "internalType": "uint256",
          "name": "value",
          "type": "uint256"
        }
      ],
      "name": "Transfer",
      "type": "event"
    },
    {
      "inputs": [],
      "name": "acceptOwnership",
      "outputs": [],
      "stateMutability": "nonpayable",
      "type": "function"
    },
    {
      "inputs": [
        {
          "internalType": "address",
          "name": "owner",
          "type": "address"
        },
        {
          "internalType": "address",
          "name": "spender",
          "type": "address"
        }
      ],
      "name": "allowance",
      "outputs": [
        {
          "internalType": "uint256",
          "name": "",
          "type": "uint256"
        }
      ],
      "stateMutability": "view",
      "type": "function"
    },
    {
      "inputs": [
        {
          "internalType": "address",
          "name": "spender",
          "type": "address"
        },
        {
          "internalType": "uint256",
          "name": "amount",
          "type": "uint256"
        }
      ],
      "name": "approve",
      "outputs": [
        {
          "internalType": "bool",
          "name": "",
          "type": "bool"
        }
      ],
      "stateMutability": "nonpayable",
      "type": "function"
    },
    {
      "inputs": [
        {
          "internalType": "address",
          "name": "account",
          "type": "address"
        }
      ],
      "name": "balanceOf",
      "outputs": [
        {
          "internalType": "uint256",
          "name": "",
          "type": "uint256"
        }
      ],
      "stateMutability": "view",
      "type": "function"
    },
    {
      "inputs": [
        {
          "internalType": "uint256",
          "name": "amount",
          "type": "uint256"
        }
      ],
      "name": "burn",
      "outputs": [],
      "stateMutability": "nonpayable",
      "type": "function"
    },
    {
      "inputs": [
        {
          "internalType": "address",
          "name": "account",
          "type": "address"
        },
        {
          "internalType": "uint256",
          "name": "effectiveBlock",
          "type": "uint256"
        }
      ],
      "name": "changeEffectiveBlock",
      "outputs": [],
      "stateMutability": "nonpayable",
      "type": "function"
    },
    {
      "inputs": [
        {
          "internalType": "address",
          "name": "account",
          "type": "address"
        },
        {
          "internalType": "uint256",
          "name": "expirationBlock",
          "type": "uint256"
        }
      ],
      "name": "changeExpirationBlock",
      "outputs": [],
      "stateMutability": "nonpayable",
      "type": "function"
    },
    {
      "inputs": [],
      "name": "decimals",
      "outputs": [
        {
          "internalType": "uint8",
          "name": "",
          "type": "uint8"
        }
      ],
      "stateMutability": "view",
      "type": "function"
    },
    {
      "inputs": [
        {
          "internalType": "address",
          "name": "spender",
          "type": "address"
        },
        {
          "internalType": "uint256",
          "name": "subtractedValue",
          "type": "uint256"
        }
      ],
      "name": "decreaseAllowance",
      "outputs": [
        {
          "internalType": "bool",
          "name": "",
          "type": "bool"
        }
      ],
      "stateMutability": "nonpayable",
      "type": "function"
    },
    {
      "inputs": [
        {
          "internalType": "address",
          "name": "account",
          "type": "address"
        },
        {
          "internalType": "uint256",
          "name": "credit",
          "type": "uint256"
        }
      ],
      "name": "decreaseCredit",
      "outputs": [],
      "stateMutability": "nonpayable",
      "type": "function"
    },
    {
      "inputs": [
        {
          "internalType": "address",
          "name": "account",
          "type": "address"
        }
      ],
      "name": "getEffectiveBlock",
      "outputs": [
        {
          "internalType": "uint256",
          "name": "",
          "type": "uint256"
        }
      ],
      "stateMutability": "view",
      "type": "function"
    },
    {
      "inputs": [
        {
          "internalType": "address",
          "name": "account",
          "type": "address"
        }
      ],
      "name": "getExpirationBlock",
      "outputs": [
        {
          "internalType": "uint256",
          "name": "",
          "type": "uint256"
        }
      ],
      "stateMutability": "view",
      "type": "function"
    },
    {
      "inputs": [
        {
          "internalType": "address",
          "name": "account",
          "type": "address"
        }
      ],
      "name": "getMaxCredit",
      "outputs": [
        {
          "internalType": "uint256",
          "name": "",
          "type": "uint256"
        }
      ],
      "stateMutability": "view",
      "type": "function"
    },
    {
      "inputs": [
        {
          "internalType": "address",
          "name": "account",
          "type": "address"
        }
      ],
      "name": "getRemainingCredit",
      "outputs": [
        {
          "internalType": "uint256",
          "name": "",
          "type": "uint256"
        }
      ],
      "stateMutability": "view",
      "type": "function"
    },
    {
      "inputs": [
        {
          "internalType": "address",
          "name": "account",
          "type": "address"
        },
        {
          "internalType": "uint256",
          "name": "credit",
          "type": "uint256"
        },
        {
          "internalType": "uint256",
          "name": "effectiveBlock",
          "type": "uint256"
        },
        {
          "internalType": "uint256",
          "name": "expirationBlock",
          "type": "uint256"
        },
        {
          "internalType": "bool",
          "name": "minable",
          "type": "bool"
        },
        {
          "internalType": "bool",
          "name": "burnable",
          "type": "bool"
        }
      ],
      "name": "grantAgent",
      "outputs": [],
      "stateMutability": "nonpayable",
      "type": "function"
    },
    {
      "inputs": [
        {
          "internalType": "address",
          "name": "account",
          "type": "address"
        }
      ],
      "name": "hasAgent",
      "outputs": [
        {
          "internalType": "bool",
          "name": "",
          "type": "bool"
        }
      ],
      "stateMutability": "view",
      "type": "function"
    },
    {
      "inputs": [
        {
          "internalType": "address",
          "name": "spender",
          "type": "address"
        },
        {
          "internalType": "uint256",
          "name": "addedValue",
          "type": "uint256"
        }
      ],
      "name": "increaseAllowance",
      "outputs": [
        {
          "internalType": "bool",
          "name": "",
          "type": "bool"
        }
      ],
      "stateMutability": "nonpayable",
      "type": "function"
    },
    {
      "inputs": [
        {
          "internalType": "address",
          "name": "account",
          "type": "address"
        },
        {
          "internalType": "uint256",
          "name": "credit",
          "type": "uint256"
        }
      ],
      "name": "increaseCredit",
      "outputs": [],
      "stateMutability": "nonpayable",
      "type": "function"
    },
    {
      "inputs": [
        {
          "internalType": "address",
          "name": "_restrictedList",
          "type": "address"
        }
      ],
      "name": "initialize",
      "outputs": [],
      "stateMutability": "nonpayable",
      "type": "function"
    },
    {
      "inputs": [
        {
          "internalType": "address",
          "name": "account",
          "type": "address"
        }
      ],
      "name": "isBurnable",
      "outputs": [
        {
          "internalType": "bool",
          "name": "",
          "type": "bool"
        }
      ],
      "stateMutability": "view",
      "type": "function"
    },
    {
      "inputs": [
        {
          "internalType": "address",
          "name": "account",
          "type": "address"
        }
      ],
      "name": "isMinable",
      "outputs": [
        {
          "internalType": "bool",
          "name": "",
          "type": "bool"
        }
      ],
      "stateMutability": "view",
      "type": "function"
    },
    {
      "inputs": [
        {
          "internalType": "address",
          "name": "to",
          "type": "address"
        },
        {
          "internalType": "uint256",
          "name": "amount",
          "type": "uint256"
        }
      ],
      "name": "mint",
      "outputs": [],
      "stateMutability": "nonpayable",
      "type": "function"
    },
    {
      "inputs": [],
      "name": "name",
      "outputs": [
        {
          "internalType": "string",
          "name": "",
          "type": "string"
        }
      ],
      "stateMutability": "view",
      "type": "function"
    },
    {
      "inputs": [],
      "name": "owner",
      "outputs": [
        {
          "internalType": "address",
          "name": "",
          "type": "address"
        }
      ],
      "stateMutability": "view",
      "type": "function"
    },
    {
      "inputs": [],
      "name": "pendingOwner",
      "outputs": [
        {
          "internalType": "address",
          "name": "",
          "type": "address"
        }
      ],
      "stateMutability": "view",
      "type": "function"
    },
    {
      "inputs": [],
      "name": "renounceOwnership",
      "outputs": [],
      "stateMutability": "nonpayable",
      "type": "function"
    },
    {
      "inputs": [],
      "name": "restrictedList",
      "outputs": [
        {
          "internalType": "address",
          "name": "",
          "type": "address"
        }
      ],
      "stateMutability": "view",
      "type": "function"
    },
    {
      "inputs": [
        {
          "internalType": "address",
          "name": "account",
          "type": "address"
        }
      ],
      "name": "revokeAgent",
      "outputs": [],
      "stateMutability": "nonpayable",
      "type": "function"
    },
    {
      "inputs": [
        {
          "internalType": "address",
          "name": "account",
          "type": "address"
        },
        {
          "internalType": "bool",
          "name": "burnable",
          "type": "bool"
        }
      ],
      "name": "switchBurnable",
      "outputs": [],
      "stateMutability": "nonpayable",
      "type": "function"
    },
    {
      "inputs": [
        {
          "internalType": "address",
          "name": "account",
          "type": "address"
        },
        {
          "internalType": "bool",
          "name": "minable",
          "type": "bool"
        }
      ],
      "name": "switchMinable",
      "outputs": [],
      "stateMutability": "nonpayable",
      "type": "function"
    },
    {
      "inputs": [],
      "name": "symbol",
      "outputs": [
        {
          "internalType": "string",
          "name": "",
          "type": "string"
        }
      ],
      "stateMutability": "view",
      "type": "function"
    },
    {
      "inputs": [],
      "name": "totalSupply",
      "outputs": [
        {
          "internalType": "uint256",
          "name": "",
          "type": "uint256"
        }
      ],
      "stateMutability": "view",
      "type": "function"
    },
    {
      "inputs": [
        {
          "internalType": "address",
          "name": "to",
          "type": "address"
        },
        {
          "internalType": "uint256",
          "name": "amount",
          "type": "uint256"
        }
      ],
      "name": "transfer",
      "outputs": [
        {
          "internalType": "bool",
          "name": "",
          "type": "bool"
        }
      ],
      "stateMutability": "nonpayable",
      "type": "function"
    },
    {
      "inputs": [
        {
          "internalType": "address",
          "name": "from",
          "type": "address"
        },
        {
          "internalType": "address",
          "name": "to",
          "type": "address"
        },
        {
          "internalType": "uint256",
          "name": "amount",
          "type": "uint256"
        }
      ],
      "name": "transferFrom",
      "outputs": [
        {
          "internalType": "bool",
          "name": "",
          "type": "bool"
        }
      ],
      "stateMutability": "nonpayable",
      "type": "function"
    },
    {
      "inputs": [
        {
          "internalType": "address",
          "name": "newOwner",
          "type": "address"
        }
      ],
      "name": "transferOwnership",
      "outputs": [],
      "stateMutability": "nonpayable",
      "type": "function"
    }
  ],
  "bytecode": "0x60808060405234610016576122d1908161001c8239f35b600080fdfe608060408181526004908136101561001657600080fd5b600092833560e01c90816306fdde0314611a5c57508063095ea7b314611a3257806317a423ef14611a0c57806318160ddd146119ed5780631b20aafc146119c757806323b872dd14611826578063251729661461180057806329f3e6be14611716578063313ce567146116fa57806339509351146116ab5780633d421ea2146116855780633f0f0919146115c657806340c10f19146113be57806342966c68146111e05780634aa11248146111a45780636975454c1461117757806370a0823114611140578063715018a6146110e357806379ba50971461105e5780637cd160251461102f5780637da6ac0d14610f8d5780638da5cb5b14610f6557806395d89b4114610e845780639c5c95fc14610da75780639ecd4e6a14610baa578063a457c2d714610b05578063a504aded14610add578063a56ee0e014610a05578063a9059cbb146108e6578063c4d66de814610496578063dd62ed3e1461044d578063e30c397814610421578063ea765370146102f3578063f2fde38b146102855763fa3ca466146101a557600080fd5b346102815780600319360112610281576101bd611b4d565b906001600160a01b03602435926101d2611bdd565b16926101df841515611f71565b83855260c96020526101f660ff8387205416611dcc565b83855260c9602052808286200154831015610257575082845260c96020908152818520600301839055905191825233908201527f4c38ca70e16ee3cdc7337d37c626ec86781fcd6879704b1cc3eefb43a97d81269080604081015b0390a280f35b6020606492519162461bcd60e51b8352820152600560248201526420a398189960d91b6044820152fd5b8280fd5b83346102f05760203660031901126102f05761029f611b4d565b6102a7611bdd565b6001600160a01b0380911690816001600160a01b03196097541617609755606554167f38d16b8cac22d99fc7c124b9cd0de2d3fa1faef420bfe791d8c362d765e227008380a380f35b80fd5b503461028157806003193601126102815761030c611b4d565b906001600160a01b0360243592610321611bdd565b169261032e841515611f71565b83855260209060c9825261034760ff8488205416611dcc565b83156103f85784865260c982526002838720015484116103cf5750916102519160c97ffdd698477e15c452212c14b9e3a287151224a493c6c59cb04f01832acb862d80948688528181526001838920016103a2858254611fd9565b9055868852526002818720016103b9838254611fd9565b9055519081523360208201529081906040820190565b915162461bcd60e51b8152918201526005602482015264414730303960d81b6044820152606490fd5b915162461bcd60e51b81529182015260056024820152640828e6060760db1b6044820152606490fd5b8382346104495781600319360112610449576020906001600160a01b03609754169051908152f35b5080fd5b8382346104495780600319360112610449578060209261046b611b4d565b610473611b68565b6001600160a01b0391821683526034865283832091168252845220549051908152f35b50903461028157602090816003193601126108e2576104b3611b4d565b84549160ff8360081c1615918280936108d5575b80156108be575b15610855576001600160a01b0390600194848660ff198316178a55610844575b50166104fb811515611f71565b6001600160a01b031960fb54161760fb5561052560ff875460081c1661052081612017565b612017565b61052e33611b8d565b610536611fe6565b61053e611fe6565b61055260ff895460081c1661052081612017565b81519267ffffffffffffffff938481116108315780610572603654611c35565b94601f958681116107c4575b508990868311600114610745578c9261073a575b5050600019600383901b1c191690871b176036555b815193841161072757509082916105bf603754611c35565b8281116106b8575b508691831160011461063957889261062e575b5050600019600383901b1c191690831b176037555b6105f7578380f35b7f7f26b83ff96e1f2b6a682f133852f6798a09c465da95921460cefb38474024989261ff0019855416855551908152a13880808380f35b0151905038806105da565b603789528593507f42a7b7dd785cd69714a189dffb3fd7d7174edc9ece837694ce50f7078f7c31ae9190601f1984168a5b898282106106a25750508411610689575b505050811b016037556105ef565b015160001960f88460031b161c1916905538808061067b565b838501518655899790950194938401930161066a565b90919250603789527f42a7b7dd785cd69714a189dffb3fd7d7174edc9ece837694ce50f7078f7c31ae8380860160051c82019289871061071e575b91869589929594930160051c01915b8281106107105750506105c7565b8b8155869550889101610702565b925081926106f3565b634e487b7160e01b895260419052602488fd5b015190503880610592565b60368d528993507f4a11f94e20a93c79f6ec743a1954ec4fc2c08429ae2122118bf234b2185c81b89190601f1984168e5b8d8282106107ae5750508411610795575b505050811b016036556105a7565b015160001960f88460031b161c19169055388080610787565b8385015186558d97909501949384019301610776565b90915060368c527f4a11f94e20a93c79f6ec743a1954ec4fc2c08429ae2122118bf234b2185c81b88680850160051c8201928c8610610828575b918b91869594930160051c01915b82811061081a57505061057e565b8e81558594508b910161080c565b925081926107fe565b634e487b7160e01b8a526041825260248afd5b61ffff1916610101178855386104ee565b855162461bcd60e51b8152808301869052602e60248201527f496e697469616c697a61626c653a20636f6e747261637420697320616c72656160448201527f647920696e697469616c697a65640000000000000000000000000000000000006064820152608490fd5b50303b1580156104ce5750600160ff8516146104ce565b50600160ff8516106104c7565b8380fd5b509034610281578160031936011261028157610900611b4d565b906001600160a01b03938460fb541691845195632919f73560e21b80885233838901526020978881602481895afa9081156109fb57908993929186916109de575b5015958661096a575b83896109638a6109598b61208f565b602435903361212b565b5160018152f35b60249293949596508851958694859384528916908301525afa9182156109d357610963939261095992906109a6575b501591928538808061094a565b6109c69150863d88116109cc575b6109be8183611c6f565b810190612077565b38610999565b503d6109b4565b8451903d90823e3d90fd5b6109f59150843d86116109cc576109be8183611c6f565b38610941565b88513d87823e3d90fd5b8382346104495780600319360112610449577f94663b97a0b95bb2e91cf13e324f357fb02d74984001548b86dca69c24b0bd54610251610a43611b4d565b6001600160a01b03610a53611b7e565b91610a5c611bdd565b1693610a69851515611f71565b84865260c9602052610a8060ff8288205416611dcc565b84865260c9602052610aa460ff6005838920015460081c1615158315151415611fa5565b84865260c9602052808620600501805461ff00191683151560081b61ff00161790555b5190151581523360208201529081906040820190565b8382346104495781600319360112610449576020906001600160a01b0360fb54169051908152f35b5091346102f057826003193601126102f057610b1f611b4d565b91836024359233815260346020528181206001600160a01b0386168252602052205490828210610b59576020856109638585038733611cca565b608490602086519162461bcd60e51b8352820152602560248201527f45524332303a2064656372656173656420616c6c6f77616e63652062656c6f77604482015264207a65726f60d81b6064820152fd5b5090346102815760c036600319011261028157610bc5611b4d565b6024359160443593606435906084359586151593848803610da35760a43580151596878203610d9f576001600160a01b0390610bff611bdd565b1698610c0c8a1515611f71565b898b5260209260c9845260ff868d205416610d74578915610d495743871115610d1e5786851015610cf3578694926005878e610cba8f967f653c7adce8c38cac02918619b870346e7e3665daa532904f41de39a25e4551e99f9d9b99979c60c09f9d978f610cd499865260c98b52868620600160ff198254161790558060018888200155600287872001558a60038787200155858520015584848420019060ff801983541691151516179055565b20019061ff00825491151560081b169061ff001916179055565b8251968752860152840152606083015260808201523360a0820152a280f35b855162461bcd60e51b81529081018490526005602482015264414730313560d81b6044820152606490fd5b855162461bcd60e51b8152908101849052600560248201526420a398181b60d91b6044820152606490fd5b855162461bcd60e51b81529081018490526005602482015264414730303560d81b6044820152606490fd5b855162461bcd60e51b81529081018490526005602482015264414730303160d81b6044820152606490fd5b8a80fd5b8880fd5b5034610281578060031936011261028157610dc0611b4d565b906001600160a01b0360243592610dd5611bdd565b1692610de2841515611f71565b83855260c9602052610df960ff8387205416611dcc565b8215610e5a57507f84e17095e2891395ad1fbd948081d0d4224f8fd3147418315a85d9031ef243c7916102519184865260c9602052600181872001610e3f838254611ca7565b905584865260c96020526002818720016103b9838254611ca7565b6020606492519162461bcd60e51b83528201526005602482015264414730303760d81b6044820152fd5b83823461044957816003193601126104495780519082603754610ea681611c35565b80855291600191808316908115610f3d5750600114610ee0575b505050610ed282610edc940383611c6f565b5191829182611b04565b0390f35b9450603785527f42a7b7dd785cd69714a189dffb3fd7d7174edc9ece837694ce50f7078f7c31ae5b828610610f2557505050610ed2826020610edc9582010194610ec0565b80546020878701810191909152909501948101610f08565b610edc975086935060209250610ed294915060ff191682840152151560051b82010194610ec0565b8382346104495781600319360112610449576020906001600160a01b03606554169051908152f35b50346102815760203660031901126102815760207f3855bc4f5f7ba28049e0abd622b6ffbbf63cb46e6b09593b9213c9fd38db5cad918460056001600160a01b03610fd6611b4d565b610fde611bdd565b1695610feb871515611f71565b86835260c9855261100160ff8585205416611dcc565b86835260c985528284812091818355816001840155816002840155816003840155820155015551338152a280f35b83823461044957602036600319011261044957602090611055611050611b4d565b611e8c565b90519015158152f35b5034610281578260031936011261028157336001600160a01b03609754160361108e578261108b33611b8d565b80f35b906020608492519162461bcd60e51b8352820152602960248201527f4f776e61626c6532537465703a2063616c6c6572206973206e6f7420746865206044820152683732bb9037bbb732b960b91b6064820152fd5b83346102f057806003193601126102f0576110fc611bdd565b806001600160a01b0380198060975416609755606554908116606555167f8be0079c531659141344cd1fd0a4f28419497f9722a3daafe3b4186f6b6457e08280a380f35b83823461044957602036600319011261044957806020926001600160a01b03611167611b4d565b1681526033845220549051908152f35b8382346104495760203660031901126104495760209061119d611198611b4d565b611e37565b9051908152f35b8382346104495760203660031901126104495760ff816020936001600160a01b036111cd611b4d565b16815260c9855220541690519015158152f35b503461028157602091826003193601126108e25780359033855260c9845261120d60ff8487205416611dcc565b61121633611ec6565b156113935761122f61122733611f03565b4310156120c3565b6112434361123c33611f3a565b10156120f7565b3315611346573385526033845282852054908282106112f85750819033865260338552038285205580603554036035558382518281527fddf252ad1be2c89b69c2b068fc378daa952ba7f163c4a11628f55a4df523b3ef853392a36112b0816112ab33611e37565b611ca7565b6112b933611e00565b10156112da575060029060c96112ce33611e00565b93338652528320015580f35b916112f39160c960029233875252842001918254611ca7565b905580f35b835162461bcd60e51b8152908101859052602260248201527f45524332303a206275726e20616d6f756e7420657863656564732062616c616e604482015261636560f01b6064820152608490fd5b825162461bcd60e51b8152908101849052602160248201527f45524332303a206275726e2066726f6d20746865207a65726f206164647265736044820152607360f81b6064820152608490fd5b825162461bcd60e51b81529081018490526005602482015264414730303360d81b6044820152606490fd5b50346102815780600319360112610281576113d7611b4d565b60249081359333865260209260c984526113f660ff8689205416611dcc565b6113ff33611e8c565b1561159c576001600160a01b03848160fb54169483885180948193632919f73560e21b8352169788888301525afa9081156115925790611447918991611575575b501561208f565b33321461154b5761145a61122733611f03565b6114674361123c33611f3a565b8561147133611e37565b106115215782156114df5750509160c96002926112f39461149487603554611ca7565b60355580885260338252838820878154019055877fddf252ad1be2c89b69c2b068fc378daa952ba7f163c4a11628f55a4df523b3ef8386518a8152a333875252842001918254611fd9565b845162461bcd60e51b8152918201849052601f908201527f45524332303a206d696e7420746f20746865207a65726f2061646472657373006044820152606490fd5b845162461bcd60e51b8152918201849052600590820152641051cc0c0d60da1b6044820152606490fd5b845162461bcd60e51b8152918201849052600590820152640484f3030360dc1b6044820152606490fd5b61158c9150863d88116109cc576109be8183611c6f565b38611440565b86513d8a823e3d90fd5b845162461bcd60e51b81529182018490526005908201526420a398181960d91b6044820152606490fd5b8382346104495780600319360112610449577f983d7331307ece40a28c52e3bf4570a2ccfd6c6184923cebc4053c656b4d935e610251611604611b4d565b6001600160a01b03611614611b7e565b9161161d611bdd565b169361162a851515611f71565b84865260c960205261164160ff8288205416611dcc565b84865260c960205261166260ff600583892001541615158315151415611fa5565b84865260c9602052610ac7826005838920019060ff801983541691151516179055565b838234610449576020366003190112610449576020906110556116a6611b4d565b611ec6565b8382346104495780600319360112610449576109636020926116f36116ce611b4d565b91338152603486528481206001600160a01b0384168252865284602435912054611ca7565b9033611cca565b8382346104495781600319360112610449576020905160128152f35b503461028157806003193601126102815761172f611b4d565b906001600160a01b0360243592611744611bdd565b1692611751841515611f71565b83855260c960205261176860ff8387205416611dcc565b83855260c9602052808286200154831415806117f7575b156117cd5783855260c96020908152828620909101839055905191825233908201527f2f1ca4720d128d11983e04ae6367a69f52eecc9d80bba3dd836d2b220b7fa266908060408101610251565b6020606492519162461bcd60e51b83528201526005602482015264414730313360d81b6044820152fd5b5043831161177f565b8382346104495760203660031901126104495760209061119d611821611b4d565b611f03565b5082903461044957606036600319011261044957611842611b4d565b61184a611b68565b604435916001600160a01b03948560fb541695855196632919f73560e21b9182895280851692838b8b01526020998a81602481875afa9081156119bd57928c928c92889796958d99916119a0575b5015948561193a575b50505050506118af9061208f565b8152603487528181203382528752205495600187016118d5575b5090610963929161212b565b8387106118f757506118ef83610963959697033383611cca565b8594936118c9565b845162461bcd60e51b8152908101869052601d60248201527f45524332303a20696e73756666696369656e7420616c6c6f77616e63650000006044820152606490fd5b909193959697602493955051958694859384528b16908301525afa908115611996578392916118af91899591611979575b5015905089898c80806118a1565b61199091508a3d8c116109cc576109be8183611c6f565b8b61196b565b87513d85823e3d90fd5b6119b79150843d86116109cc576109be8183611c6f565b8f611898565b8a513d88823e3d90fd5b8382346104495760203660031901126104495760209061119d6119e8611b4d565b611e00565b8382346104495781600319360112610449576020906035549051908152f35b8382346104495760203660031901126104495760209061119d611a2d611b4d565b611f3a565b838234610449578060031936011261044957602090610963611a52611b4d565b6024359033611cca565b9250503461028157826003193601126102815782603654611a7c81611c35565b80855291600191808316908115610f3d5750600114611aa757505050610ed282610edc940383611c6f565b9450603685527f4a11f94e20a93c79f6ec743a1954ec4fc2c08429ae2122118bf234b2185c81b85b828610611aec57505050610ed2826020610edc9582010194610ec0565b80546020878701810191909152909501948101611acf565b6020808252825181830181905290939260005b828110611b3957505060409293506000838284010152601f8019910116010190565b818101860151848201604001528501611b17565b600435906001600160a01b0382168203611b6357565b600080fd5b602435906001600160a01b0382168203611b6357565b602435908115158203611b6357565b6001600160a01b03199081609754166097556065546001600160a01b038092168093821617606555167f8be0079c531659141344cd1fd0a4f28419497f9722a3daafe3b4186f6b6457e0600080a3565b6001600160a01b03606554163303611bf157565b606460405162461bcd60e51b815260206004820152602060248201527f4f776e61626c653a2063616c6c6572206973206e6f7420746865206f776e65726044820152fd5b90600182811c92168015611c65575b6020831014611c4f57565b634e487b7160e01b600052602260045260246000fd5b91607f1691611c44565b90601f8019910116810190811067ffffffffffffffff821117611c9157604052565b634e487b7160e01b600052604160045260246000fd5b91908201809211611cb457565b634e487b7160e01b600052601160045260246000fd5b6001600160a01b03809116918215611d7b5716918215611d2b5760207f8c5be1e5ebec7d5bd14f71427d1e84f3dd0314c0f7b2291e5b200ac8c7c3b925918360005260348252604060002085600052825280604060002055604051908152a3565b60405162461bcd60e51b815260206004820152602260248201527f45524332303a20617070726f766520746f20746865207a65726f206164647265604482015261737360f01b6064820152608490fd5b60405162461bcd60e51b8152602060048201526024808201527f45524332303a20617070726f76652066726f6d20746865207a65726f206164646044820152637265737360e01b6064820152608490fd5b15611dd357565b60405162461bcd60e51b8152602060048201526005602482015264041473030360dc1b6044820152606490fd5b6001600160a01b03168060005260c9602052611e2360ff60406000205416611dcc565b60005260c960205260016040600020015490565b6001600160a01b031660009080825260c9602052611e5b60ff604084205416611dcc565b815260c960205260036040822001544310611e895743600460408320015410611e8957604060029120015490565b90565b6001600160a01b03168060005260c9602052611eaf60ff60406000205416611dcc565b60005260c960205260ff6005604060002001541690565b6001600160a01b03168060005260c9602052611ee960ff60406000205416611dcc565b60005260c960205260ff60056040600020015460081c1690565b6001600160a01b03168060005260c9602052611f2660ff60406000205416611dcc565b60005260c960205260036040600020015490565b6001600160a01b03168060005260c9602052611f5d60ff60406000205416611dcc565b60005260c960205260046040600020015490565b15611f7857565b60405162461bcd60e51b8152602060048201526005602482015264043453030360dc1b6044820152606490fd5b15611fac57565b60405162461bcd60e51b8152602060048201526005602482015264041473031360dc1b6044820152606490fd5b91908203918211611cb457565b604051906040820182811067ffffffffffffffff821117611c91576040526004825263484f504560e01b6020830152565b1561201e57565b60405162461bcd60e51b815260206004820152602b60248201527f496e697469616c697a61626c653a20636f6e7472616374206973206e6f74206960448201526a6e697469616c697a696e6760a81b6064820152608490fd5b90816020910312611b6357518015158103611b635790565b1561209657565b60405162461bcd60e51b8152602060048201526005602482015264046413030360dc1b6044820152606490fd5b156120ca57565b60405162461bcd60e51b81526020600482015260056024820152641051cc0c4d60da1b6044820152606490fd5b156120fe57565b60405162461bcd60e51b8152602060048201526005602482015264414730313160d81b6044820152606490fd5b6001600160a01b0380911691821561224857169182156121f757600082815260336020526040812054918083106121a357604082827fddf252ad1be2c89b69c2b068fc378daa952ba7f163c4a11628f55a4df523b3ef95876020965260338652038282205586815220818154019055604051908152a3565b60405162461bcd60e51b815260206004820152602660248201527f45524332303a207472616e7366657220616d6f756e7420657863656564732062604482015265616c616e636560d01b6064820152608490fd5b60405162461bcd60e51b815260206004820152602360248201527f45524332303a207472616e7366657220746f20746865207a65726f206164647260448201526265737360e81b6064820152608490fd5b60405162461bcd60e51b815260206004820152602560248201527f45524332303a207472616e736665722066726f6d20746865207a65726f206164604482015264647265737360d81b6064820152608490fdfea264697066735822122081267571e4d42a17530f50ab2f2e7074c101bc36b787b926ec7bf91e2f519cc264736f6c63430008110033",
  "linkReferences": {},
  "deployedLinkReferences": {}
}