{
  "_format": "hh-sol-artifact-1",
  "contractName": "MockLP",
  "sourceName": "contracts/mock/MockLP.sol",
  "abi": [
    {
      "inputs": [
        {
          "internalType": "string",
          "name": "_name",
          "type": "string"
        },
        {
          "internalType": "string",
          "name": "_symbol",
          "type": "string"
        },
        {
          "internalType": "uint256",
          "name": "_decimal",
          "type": "uint256"
        },
        {
          "internalType": "uint256",
          "name": "_supply",
          "type": "uint256"
        }
      ],
      "stateMutability": "nonpayable",
      "type": "constructor"
    },
    {
      "anonymous": false,
      "inputs": [
        {
          "indexed": true,
          "internalType": "address",
          "name": "_owner",
          "type": "address"
        },
        {
          "indexed": true,
          "internalType": "address",
          "name": "_spender",
          "type": "address"
        },
        {
          "indexed": false,
          "internalType": "uint256",
          "name": "_value",
          "type": "uint256"
        }
      ],
      "name": "Approval",
      "type": "event"
    },
    {
      "anonymous": false,
      "inputs": [
        {
          "indexed": true,
          "internalType": "address",
          "name": "_from",
          "type": "address"
        },
        {
          "indexed": true,
          "internalType": "address",
          "name": "_to",
          "type": "address"
        },
        {
          "indexed": false,
          "internalType": "uint256",
          "name": "_value",
          "type": "uint256"
        }
      ],
      "name": "Transfer",
      "type": "event"
    },
    {
      "inputs": [
        {
          "internalType": "address",
          "name": "_owner",
          "type": "address"
        },
        {
          "internalType": "address",
          "name": "_spender",
          "type": "address"
        }
      ],
      "name": "allowance",
      "outputs": [
        {
          "internalType": "uint256",
          "name": "",
          "type": "uint256"
        }
      ],
      "stateMutability": "view",
      "type": "function"
    },
    {
      "inputs": [
        {
          "internalType": "address",
          "name": "",
          "type": "address"
        },
        {
          "internalType": "address",
          "name": "",
          "type": "address"
        }
      ],
      "name": "allowances",
      "outputs": [
        {
          "internalType": "uint256",
          "name": "",
          "type": "uint256"
        }
      ],
      "stateMutability": "view",
      "type": "function"
    },
    {
      "inputs": [
        {
          "internalType": "address",
          "name": "_spender",
          "type": "address"
        },
        {
          "internalType": "uint256",
          "name": "_value",
          "type": "uint256"
        }
      ],
      "name": "approve",
      "outputs": [
        {
          "internalType": "bool",
          "name": "",
          "type": "bool"
        }
      ],
      "stateMutability": "nonpayable",
      "type": "function"
    },
    {
      "inputs": [
        {
          "internalType": "address",
          "name": "",
          "type": "address"
        }
      ],
      "name": "balanceOf",
      "outputs": [
        {
          "internalType": "uint256",
          "name": "",
          "type": "uint256"
        }
      ],
      "stateMutability": "view",
      "type": "function"
    },
    {
      "inputs": [
        {
          "internalType": "uint256",
          "name": "_value",
          "type": "uint256"
        }
      ],
      "name": "burn",
      "outputs": [],
      "stateMutability": "nonpayable",
      "type": "function"
    },
    {
      "inputs": [
        {
          "internalType": "address",
          "name": "_to",
          "type": "address"
        },
        {
          "internalType": "uint256",
          "name": "_value",
          "type": "uint256"
        }
      ],
      "name": "burnFrom",
      "outputs": [],
      "stateMutability": "nonpayable",
      "type": "function"
    },
    {
      "inputs": [],
      "name": "decimals",
      "outputs": [
        {
          "internalType": "uint256",
          "name": "",
          "type": "uint256"
        }
      ],
      "stateMutability": "view",
      "type": "function"
    },
    {
      "inputs": [
        {
          "internalType": "address",
          "name": "_to",
          "type": "address"
        },
        {
          "internalType": "uint256",
          "name": "_value",
          "type": "uint256"
        }
      ],
      "name": "mint",
      "outputs": [],
      "stateMutability": "nonpayable",
      "type": "function"
    },
    {
      "inputs": [],
      "name": "minter",
      "outputs": [
        {
          "internalType": "address",
          "name": "",
          "type": "address"
        }
      ],
      "stateMutability": "view",
      "type": "function"
    },
    {
      "inputs": [],
      "name": "name",
      "outputs": [
        {
          "internalType": "string",
          "name": "",
          "type": "string"
        }
      ],
      "stateMutability": "view",
      "type": "function"
    },
    {
      "inputs": [
        {
          "internalType": "address",
          "name": "_minter",
          "type": "address"
        }
      ],
      "name": "setMinter",
      "outputs": [],
      "stateMutability": "nonpayable",
      "type": "function"
    },
    {
      "inputs": [],
      "name": "symbol",
      "outputs": [
        {
          "internalType": "string",
          "name": "",
          "type": "string"
        }
      ],
      "stateMutability": "view",
      "type": "function"
    },
    {
      "inputs": [],
      "name": "totalSupply",
      "outputs": [
        {
          "internalType": "uint256",
          "name": "",
          "type": "uint256"
        }
      ],
      "stateMutability": "view",
      "type": "function"
    },
    {
      "inputs": [
        {
          "internalType": "address",
          "name": "_to",
          "type": "address"
        },
        {
          "internalType": "uint256",
          "name": "_value",
          "type": "uint256"
        }
      ],
      "name": "transfer",
      "outputs": [
        {
          "internalType": "bool",
          "name": "",
          "type": "bool"
        }
      ],
      "stateMutability": "nonpayable",
      "type": "function"
    },
    {
      "inputs": [
        {
          "internalType": "address",
          "name": "_from",
          "type": "address"
        },
        {
          "internalType": "address",
          "name": "_to",
          "type": "address"
        },
        {
          "internalType": "uint256",
          "name": "_value",
          "type": "uint256"
        }
      ],
      "name": "transferFrom",
      "outputs": [
        {
          "internalType": "bool",
          "name": "",
          "type": "bool"
        }
      ],
      "stateMutability": "nonpayable",
      "type": "function"
    }
  ],
  "bytecode": "0x608060405234620003b35762000dec803803806200001d81620003b8565b928339810190608081830312620003b35780516001600160401b039290838111620003b3578162000050918401620003de565b916020918282015190858211620003b3576200006e918301620003de565b926060604083015192015194604d83116200039d5782600a0a958681029681880414901517156200039d57815181811162000387576000958654916001948584811c941680156200037c575b8885101462000368578190601f9485811162000315575b508890858311600114620002b1578a92620002a5575b5050600019600383901b1c191690851b1787555b8051928311620002915783548481811c9116801562000286575b8782101462000272578281116200022a575b5085918311600114620001b25760008051602062000dcc8339815191529594939291879183620001a6575b5050600019600383901b1c191690821b1790555b600255338084526003825260408085208690556005869055600680546001600160a01b031916831790555194855293a360405161097b9081620004518239f35b01519050388062000152565b838752858720959493929190601f198316885b8181106200021457509160008051602062000dcc83398151915297918486959410620001fa575b505050811b01905562000166565b015160001960f88460031b161c19169055388080620001ec565b82840151895597850197928701928701620001c5565b8488528688208380860160051c82019289871062000268575b0160051c019085905b8281106200025c57505062000127565b8981550185906200024c565b9250819262000243565b634e487b7160e01b88526022600452602488fd5b90607f169062000115565b634e487b7160e01b87526041600452602487fd5b015190503880620000e7565b8a8052898b208894509190601f1984168c5b8c828210620002fe5750508411620002e4575b505050811b018755620000fb565b015160001960f88460031b161c19169055388080620002d6565b8385015186558b97909501949384019301620002c3565b909150898052888a208580850160051c8201928b86106200035e575b918991869594930160051c01915b8281106200034f575050620000d1565b8c81558594508991016200033f565b9250819262000331565b634e487b7160e01b89526022600452602489fd5b93607f1693620000ba565b634e487b7160e01b600052604160045260246000fd5b634e487b7160e01b600052601160045260246000fd5b600080fd5b6040519190601f01601f191682016001600160401b038111838210176200038757604052565b919080601f84011215620003b35782516001600160401b038111620003875760209062000414601f8201601f19168301620003b8565b92818452828287010111620003b35760005b8181106200043c57508260009394955001015290565b85810183015184820184015282016200042656fe60806040908082526004918236101561001757600080fd5b600092833560e01c92836306fdde03146106af575082630754617214610687578263095ea7b31461064357826318160ddd1461062457826323b872dd146104d8578263313ce567146104b957826340c10f19146103ed57826342966c68146103b957826355b6ed5c1461010557826370a082311461038257826379cc67901461034457826395d89b4114610220578263a9059cbb14610153578263dd62ed3e1461010557505063fca3b5aa146100cc57600080fd5b34610102576020366003190112610102576001600160a01b036100ed6107ce565b166001600160a01b0319600654161760065580f35b80fd5b9091503461014f578160031936011261014f5760209282916101256107ce565b61012d6107e9565b916001600160a01b038092168452865283832091168252845220549051908152f35b8280fd5b90833461010257816003193601126101025761016d6107ce565b6001600160a01b036024359116916101868315156107ff565b33815260036020528381205482810390811161020d5733825260036020528482205582815283812054908282018092116101fa5760209550808486925260038752205582519081527fddf252ad1be2c89b69c2b068fc378daa952ba7f163c4a11628f55a4df523b3ef843392a35160018152f35b634e487b7160e01b815260118652602490fd5b634e487b7160e01b825260118652602482fd5b83823461034057816003193601126103405780519082600180549081811c90808316928315610336575b60209384841081146103235783885290811561030757506001146102b2575b505050829003601f01601f191682019267ffffffffffffffff84118385101761029f575082918261029b925282610785565b0390f35b634e487b7160e01b815260418552602490fd5b8087529192508591837fb10e2d527612073b26eecdfd717e6a320cf44b4afac2b0732d9fcbe2b7fa0cf65b8385106102f35750505050830101858080610269565b8054888601830152930192849082016102dd565b60ff1916878501525050151560051b8401019050858080610269565b634e487b7160e01b895260228a52602489fd5b91607f169161024a565b5080fd5b838234610340573660031901126101025761037f6103606107ce565b6103766001600160a01b03600654163314610857565b602435906108a3565b80f35b83823461034057602036600319011261034057806020926001600160a01b036103a96107ce565b1681526003845220549051908152f35b8390346103405760203660031901126103405761037f906103e66001600160a01b03600654163314610857565b35336108a3565b91503461014f578060031936011261014f576104076107ce565b90602435916001600160a01b03906104248260065416331461083a565b169261043184151561083a565b6005548381018091116104a65760055583855260036020528185205490838201809211610493575084927fddf252ad1be2c89b69c2b068fc378daa952ba7f163c4a11628f55a4df523b3ef92602092868652600384528186205551908152a380f35b634e487b7160e01b865260119052602485fd5b634e487b7160e01b865260118252602486fd5b8382346103405781600319360112610340576020906002549051908152f35b908334610102576060366003190112610102576104f36107ce565b926104fc6107e9565b90604435906001600160a01b0380809716936105198515156107ff565b16936105268515156107ff565b838152602096600388528682205484810390811161061157858352600389528783205585825286822054848101809111610611578683526003895287832055600654889392911633036105a5575b50507fddf252ad1be2c89b69c2b068fc378daa952ba7f163c4a11628f55a4df523b3ef918551908152a35160018152f35b909150838152818752858120338252875285812054918383039283116105fe578482528752858120338252875285902055847fddf252ad1be2c89b69c2b068fc378daa952ba7f163c4a11628f55a4df523b3ef87610574565b634e487b7160e01b825260119052602490fd5b634e487b7160e01b835260118452602483fd5b8382346103405781600319360112610340576020906005549051908152f35b9091503461014f578160031936011261014f57916020926106626107ce565b9033835284526001600160a01b03838320911682528352816024359120555160018152f35b8382346103405781600319360112610340576020906001600160a01b03600654169051908152f35b8491923461014f578260031936011261014f57828354600181811c9080831692831561077b575b602093848410811461032357838852908115610307575060011461072657505050829003601f01601f191682019267ffffffffffffffff84118385101761029f575082918261029b925282610785565b8680529192508591837f290decd9548b62a8d60345a988386fc84ba6bc95484008f6362f93160ef3e5635b8385106107675750505050830101858080610269565b805488860183015293019284908201610751565b91607f16916106d6565b6020808252825181830181905290939260005b8281106107ba57505060409293506000838284010152601f8019910116010190565b818101860151848201604001528501610798565b600435906001600160a01b03821682036107e457565b600080fd5b602435906001600160a01b03821682036107e457565b1561080657565b60405162461bcd60e51b815260206004820152600c60248201526b7a65726f206164647265737360a01b6044820152606490fd5b1561084157565b634e487b7160e01b600052600160045260246000fd5b1561085e57565b60405162461bcd60e51b815260206004820152601e60248201527f6f6e6c79206d696e74657220697320616c6c6f77656420746f206275726e00006044820152606490fd5b6001600160a01b03166108b781151561083a565b60055482810390811161092f576005556000918183526003602052604083205481810390811161091b577fddf252ad1be2c89b69c2b068fc378daa952ba7f163c4a11628f55a4df523b3ef91602091848652600383526040862055604051908152a3565b634e487b7160e01b84526011600452602484fd5b634e487b7160e01b600052601160045260246000fdfea26469706673582212200a38f99404f59384afb2e153446ba8e81f690b3f3ec5d817afd5a283e1d31b4664736f6c63430008110033ddf252ad1be2c89b69c2b068fc378daa952ba7f163c4a11628f55a4df523b3ef",
  "linkReferences": {},
  "deployedLinkReferences": {}
}