{
  "_format": "hh-sol-artifact-1",
  "contractName": "Minter",
  "sourceName": "contracts/Minter.sol",
  "abi": [
    {
      "inputs": [
        {
          "internalType": "address",
          "name": "_token",
          "type": "address"
        },
        {
          "internalType": "address",
          "name": "_controller",
          "type": "address"
        }
      ],
      "stateMutability": "nonpayable",
      "type": "constructor"
    },
    {
      "anonymous": false,
      "inputs": [
        {
          "indexed": true,
          "internalType": "address",
          "name": "recipient",
          "type": "address"
        },
        {
          "indexed": false,
          "internalType": "address",
          "name": "gomboc",
          "type": "address"
        },
        {
          "indexed": false,
          "internalType": "uint256",
          "name": "minted",
          "type": "uint256"
        }
      ],
      "name": "Minted",
      "type": "event"
    },
    {
      "inputs": [
        {
          "internalType": "address",
          "name": "",
          "type": "address"
        },
        {
          "internalType": "address",
          "name": "",
          "type": "address"
        }
      ],
      "name": "allowedToMintFor",
      "outputs": [
        {
          "internalType": "bool",
          "name": "",
          "type": "bool"
        }
      ],
      "stateMutability": "view",
      "type": "function"
    },
    {
      "inputs": [],
      "name": "controller",
      "outputs": [
        {
          "internalType": "address",
          "name": "",
          "type": "address"
        }
      ],
      "stateMutability": "view",
      "type": "function"
    },
    {
      "inputs": [
        {
          "internalType": "address",
          "name": "gombocAddress",
          "type": "address"
        }
      ],
      "name": "mint",
      "outputs": [],
      "stateMutability": "nonpayable",
      "type": "function"
    },
    {
      "inputs": [
        {
          "internalType": "address",
          "name": "gombocAddress",
          "type": "address"
        },
        {
          "internalType": "address",
          "name": "_for",
          "type": "address"
        }
      ],
      "name": "mintFor",
      "outputs": [],
      "stateMutability": "nonpayable",
      "type": "function"
    },
    {
      "inputs": [
        {
          "internalType": "address[]",
          "name": "gombocAddressList",
          "type": "address[]"
        }
      ],
      "name": "mintMany",
      "outputs": [],
      "stateMutability": "nonpayable",
      "type": "function"
    },
    {
      "inputs": [
        {
          "internalType": "address",
          "name": "",
          "type": "address"
        },
        {
          "internalType": "address",
          "name": "",
          "type": "address"
        }
      ],
      "name": "minted",
      "outputs": [
        {
          "internalType": "uint256",
          "name": "",
          "type": "uint256"
        }
      ],
      "stateMutability": "view",
      "type": "function"
    },
    {
      "inputs": [
        {
          "internalType": "address",
          "name": "mintingUser",
          "type": "address"
        }
      ],
      "name": "toggleApproveMint",
      "outputs": [],
      "stateMutability": "nonpayable",
      "type": "function"
    },
    {
      "inputs": [],
      "name": "token",
      "outputs": [
        {
          "internalType": "address",
          "name": "",
          "type": "address"
        }
      ],
      "stateMutability": "view",
      "type": "function"
    }
  ],
  "bytecode": "0x60c03461008657601f61081838819003918201601f19168301916001600160401b0383118484101761008b57808492604094855283398101031261008657610052602061004b836100a1565b92016100a1565b9060805260a05260405161076290816100b6823960805181818160990152610590015260a05181818160e001526104770152f35b600080fd5b634e487b7160e01b600052604160045260246000fd5b51906001600160a01b03821682036100865756fe6040608081526004908136101561001557600080fd5b600091823560e01c9081630f3ec99814610339578163388de6ce146102eb578163397ada21146101cf575080636a627842146101a55780637504a15d1461014b5780638b752bb014610104578063f77c4791146100c15763fc0c546a1461007b57600080fd5b346100bd57816003193601126100bd57602090516001600160a01b037f0000000000000000000000000000000000000000000000000000000000000000168152f35b5080fd5b50346100bd57816003193601126100bd57602090516001600160a01b037f0000000000000000000000000000000000000000000000000000000000000000168152f35b50346100bd57806003193601126100bd578060209261012161039a565b6101296103b5565b6001600160a01b03918216835282865283832091168252845220549051908152f35b50346100bd57806003193601126100bd5761016461039a565b9060ff61016f6103b5565b9133855260016020528085206001600160a01b038416865260205284205416610196578280f35b61019f91610445565b38808280f35b82346101cc5760203660031901126101cc576101c96101c261039a565b3390610445565b80f35b80fd5b905082346101cc57602091826003193601126100bd5767ffffffffffffffff9281358481116102e757366023820112156102e757808301359485116102d4578460051b955194610221838801876103cb565b855281850160248097830101913683116102d0578701905b8282106102ad5750505050815b83518110156102a9576001600160a01b03806102628387610403565b5116156102a3576102809033906102798488610403565b5116610445565b600019811461029157600101610246565b634e487b7160e01b8352601182528483fd5b50610280565b8280f35b81356001600160a01b03811681036102cc578152908301908301610239565b8680fd5b8580fd5b634e487b7160e01b845260418352602484fd5b8380fd5b5050346100bd57806003193601126100bd5760ff8160209361030b61039a565b6103136103b5565b6001600160a01b0391821683526001875283832091168252855220549151911615158152f35b5050346100bd5760203660031901126100bd576001600160a01b0361035c61039a565b1690818352600160205280832033845260205260ff818420541615918352600160205280832033845260205282209060ff8019835416911617905580f35b600435906001600160a01b03821682036103b057565b600080fd5b602435906001600160a01b03821682036103b057565b90601f8019910116810190811067ffffffffffffffff8211176103ed57604052565b634e487b7160e01b600052604160045260246000fd5b80518210156104175760209160051b010190565b634e487b7160e01b600052603260045260246000fd5b908160209103126103b0575180151581036103b05790565b9190604092835190637d1530d560e01b82526001600160a01b03918282169260049484868401526020928381602481867f0000000000000000000000000000000000000000000000000000000000000000165afa908115610721576000916106e9575b50600090600f0b126106be57875163b07b709b60e01b81528183168782018190529690848160248160008b5af18015610696576106a1575b50885163caa0b9ed60e01b815281810188905284816024818a5afa90811561069657600091610669575b5087600052600085528960002087600052855289600020549687820397828911610654578203610542575b5050505050505050509050565b60008981528087528b81209181529086528a81209190915589516340c10f1960e01b81526001600160a01b0390931691830191825260208201879052919284928492839190829060400103927f0000000000000000000000000000000000000000000000000000000000000000165af1801561064957917f9d228d69b5fdb8d273a2336f8fb8612d039631024ea9bf09c424a9503aa078f0959697916106099361061b575b50505192839283602090939291936001600160a01b0360408201951681520152565b0390a280388080808080808080610535565b8161063a92903d10610642575b61063281836103cb565b81019061042d565b5038806105e7565b503d610628565b87513d6000823e3d90fd5b601184634e487b7160e01b6000525260246000fd5b908582813d831161068f575b61067f81836103cb565b810103126101cc5750513861050a565b503d610675565b8a513d6000823e3d90fd5b6106b790853d87116106425761063281836103cb565b50386104e0565b875162461bcd60e51b81528087018490526005602482015264043453030360dc1b6044820152606490fd5b8481813d831161071a575b6106fe81836103cb565b810103126100bd57519081600f0b82036101cc575060006104a8565b503d6106f4565b89513d6000823e3d90fdfea2646970667358221220524b515f478d2e4fe6bd850f55c19b1111a4cc42e5e1b1cee03b08c859c220ba64736f6c63430008110033",
  "linkReferences": {},
  "deployedLinkReferences": {}
}