{
  "_format": "hh-sol-artifact-1",
  "contractName": "LT",
  "sourceName": "contracts/tokens/LT.sol",
  "abi": [
    {
      "anonymous": false,
      "inputs": [
        {
          "indexed": true,
          "internalType": "address",
          "name": "owner",
          "type": "address"
        },
        {
          "indexed": true,
          "internalType": "address",
          "name": "spender",
          "type": "address"
        },
        {
          "indexed": false,
          "internalType": "uint256",
          "name": "value",
          "type": "uint256"
        }
      ],
      "name": "Approval",
      "type": "event"
    },
    {
      "anonymous": false,
      "inputs": [
        {
          "indexed": false,
          "internalType": "uint8",
          "name": "version",
          "type": "uint8"
        }
      ],
      "name": "Initialized",
      "type": "event"
    },
    {
      "anonymous": false,
      "inputs": [
        {
          "indexed": true,
          "internalType": "address",
          "name": "previousOwner",
          "type": "address"
        },
        {
          "indexed": true,
          "internalType": "address",
          "name": "newOwner",
          "type": "address"
        }
      ],
      "name": "OwnershipTransferStarted",
      "type": "event"
    },
    {
      "anonymous": false,
      "inputs": [
        {
          "indexed": true,
          "internalType": "address",
          "name": "previousOwner",
          "type": "address"
        },
        {
          "indexed": true,
          "internalType": "address",
          "name": "newOwner",
          "type": "address"
        }
      ],
      "name": "OwnershipTransferred",
      "type": "event"
    },
    {
      "anonymous": false,
      "inputs": [
        {
          "indexed": true,
          "internalType": "address",
          "name": "minter",
          "type": "address"
        }
      ],
      "name": "SetMinter",
      "type": "event"
    },
    {
      "anonymous": false,
      "inputs": [
        {
          "indexed": true,
          "internalType": "address",
          "name": "from",
          "type": "address"
        },
        {
          "indexed": true,
          "internalType": "address",
          "name": "to",
          "type": "address"
        },
        {
          "indexed": false,
          "internalType": "uint256",
          "name": "value",
          "type": "uint256"
        }
      ],
      "name": "Transfer",
      "type": "event"
    },
    {
      "anonymous": false,
      "inputs": [
        {
          "indexed": false,
          "internalType": "uint256",
          "name": "time",
          "type": "uint256"
        },
        {
          "indexed": false,
          "internalType": "uint256",
          "name": "rate",
          "type": "uint256"
        },
        {
          "indexed": false,
          "internalType": "uint256",
          "name": "supply",
          "type": "uint256"
        }
      ],
      "name": "UpdateMiningParameters",
      "type": "event"
    },
    {
      "inputs": [],
      "name": "acceptOwnership",
      "outputs": [],
      "stateMutability": "nonpayable",
      "type": "function"
    },
    {
      "inputs": [
        {
          "internalType": "address",
          "name": "owner",
          "type": "address"
        },
        {
          "internalType": "address",
          "name": "spender",
          "type": "address"
        }
      ],
      "name": "allowance",
      "outputs": [
        {
          "internalType": "uint256",
          "name": "",
          "type": "uint256"
        }
      ],
      "stateMutability": "view",
      "type": "function"
    },
    {
      "inputs": [
        {
          "internalType": "address",
          "name": "spender",
          "type": "address"
        },
        {
          "internalType": "uint256",
          "name": "amount",
          "type": "uint256"
        }
      ],
      "name": "approve",
      "outputs": [
        {
          "internalType": "bool",
          "name": "",
          "type": "bool"
        }
      ],
      "stateMutability": "nonpayable",
      "type": "function"
    },
    {
      "inputs": [],
      "name": "availableSupply",
      "outputs": [
        {
          "internalType": "uint256",
          "name": "",
          "type": "uint256"
        }
      ],
      "stateMutability": "view",
      "type": "function"
    },
    {
      "inputs": [
        {
          "internalType": "address",
          "name": "account",
          "type": "address"
        }
      ],
      "name": "balanceOf",
      "outputs": [
        {
          "internalType": "uint256",
          "name": "",
          "type": "uint256"
        }
      ],
      "stateMutability": "view",
      "type": "function"
    },
    {
      "inputs": [
        {
          "internalType": "uint256",
          "name": "value",
          "type": "uint256"
        }
      ],
      "name": "burn",
      "outputs": [
        {
          "internalType": "bool",
          "name": "",
          "type": "bool"
        }
      ],
      "stateMutability": "nonpayable",
      "type": "function"
    },
    {
      "inputs": [],
      "name": "decimals",
      "outputs": [
        {
          "internalType": "uint8",
          "name": "",
          "type": "uint8"
        }
      ],
      "stateMutability": "view",
      "type": "function"
    },
    {
      "inputs": [
        {
          "internalType": "address",
          "name": "spender",
          "type": "address"
        },
        {
          "internalType": "uint256",
          "name": "subtractedValue",
          "type": "uint256"
        }
      ],
      "name": "decreaseAllowance",
      "outputs": [
        {
          "internalType": "bool",
          "name": "",
          "type": "bool"
        }
      ],
      "stateMutability": "nonpayable",
      "type": "function"
    },
    {
      "inputs": [],
      "name": "futureEpochTimeWrite",
      "outputs": [
        {
          "internalType": "uint256",
          "name": "",
          "type": "uint256"
        }
      ],
      "stateMutability": "nonpayable",
      "type": "function"
    },
    {
      "inputs": [
        {
          "internalType": "address",
          "name": "spender",
          "type": "address"
        },
        {
          "internalType": "uint256",
          "name": "addedValue",
          "type": "uint256"
        }
      ],
      "name": "increaseAllowance",
      "outputs": [
        {
          "internalType": "bool",
          "name": "",
          "type": "bool"
        }
      ],
      "stateMutability": "nonpayable",
      "type": "function"
    },
    {
      "inputs": [
        {
          "internalType": "string",
          "name": "_name",
          "type": "string"
        },
        {
          "internalType": "string",
          "name": "_symbol",
          "type": "string"
        }
      ],
      "name": "initialize",
      "outputs": [],
      "stateMutability": "nonpayable",
      "type": "function"
    },
    {
      "inputs": [],
      "name": "miningEpoch",
      "outputs": [
        {
          "internalType": "int128",
          "name": "",
          "type": "int128"
        }
      ],
      "stateMutability": "view",
      "type": "function"
    },
    {
      "inputs": [
        {
          "internalType": "address",
          "name": "to",
          "type": "address"
        },
        {
          "internalType": "uint256",
          "name": "value",
          "type": "uint256"
        }
      ],
      "name": "mint",
      "outputs": [
        {
          "internalType": "bool",
          "name": "",
          "type": "bool"
        }
      ],
      "stateMutability": "nonpayable",
      "type": "function"
    },
    {
      "inputs": [
        {
          "internalType": "uint256",
          "name": "start",
          "type": "uint256"
        },
        {
          "internalType": "uint256",
          "name": "end",
          "type": "uint256"
        }
      ],
      "name": "mintableInTimeframe",
      "outputs": [
        {
          "internalType": "uint256",
          "name": "",
          "type": "uint256"
        }
      ],
      "stateMutability": "view",
      "type": "function"
    },
    {
      "inputs": [],
      "name": "minter",
      "outputs": [
        {
          "internalType": "address",
          "name": "",
          "type": "address"
        }
      ],
      "stateMutability": "view",
      "type": "function"
    },
    {
      "inputs": [],
      "name": "name",
      "outputs": [
        {
          "internalType": "string",
          "name": "",
          "type": "string"
        }
      ],
      "stateMutability": "view",
      "type": "function"
    },
    {
      "inputs": [],
      "name": "owner",
      "outputs": [
        {
          "internalType": "address",
          "name": "",
          "type": "address"
        }
      ],
      "stateMutability": "view",
      "type": "function"
    },
    {
      "inputs": [],
      "name": "pendingOwner",
      "outputs": [
        {
          "internalType": "address",
          "name": "",
          "type": "address"
        }
      ],
      "stateMutability": "view",
      "type": "function"
    },
    {
      "inputs": [],
      "name": "rate",
      "outputs": [
        {
          "internalType": "uint256",
          "name": "",
          "type": "uint256"
        }
      ],
      "stateMutability": "view",
      "type": "function"
    },
    {
      "inputs": [],
      "name": "renounceOwnership",
      "outputs": [],
      "stateMutability": "nonpayable",
      "type": "function"
    },
    {
      "inputs": [
        {
          "internalType": "address",
          "name": "_minter",
          "type": "address"
        }
      ],
      "name": "setMinter",
      "outputs": [],
      "stateMutability": "nonpayable",
      "type": "function"
    },
    {
      "inputs": [],
      "name": "startEpochSupply",
      "outputs": [
        {
          "internalType": "uint256",
          "name": "",
          "type": "uint256"
        }
      ],
      "stateMutability": "view",
      "type": "function"
    },
    {
      "inputs": [],
      "name": "startEpochTime",
      "outputs": [
        {
          "internalType": "uint256",
          "name": "",
          "type": "uint256"
        }
      ],
      "stateMutability": "view",
      "type": "function"
    },
    {
      "inputs": [],
      "name": "symbol",
      "outputs": [
        {
          "internalType": "string",
          "name": "",
          "type": "string"
        }
      ],
      "stateMutability": "view",
      "type": "function"
    },
    {
      "inputs": [],
      "name": "totalSupply",
      "outputs": [
        {
          "internalType": "uint256",
          "name": "",
          "type": "uint256"
        }
      ],
      "stateMutability": "view",
      "type": "function"
    },
    {
      "inputs": [
        {
          "internalType": "address",
          "name": "to",
          "type": "address"
        },
        {
          "internalType": "uint256",
          "name": "amount",
          "type": "uint256"
        }
      ],
      "name": "transfer",
      "outputs": [
        {
          "internalType": "bool",
          "name": "",
          "type": "bool"
        }
      ],
      "stateMutability": "nonpayable",
      "type": "function"
    },
    {
      "inputs": [
        {
          "internalType": "address",
          "name": "from",
          "type": "address"
        },
        {
          "internalType": "address",
          "name": "to",
          "type": "address"
        },
        {
          "internalType": "uint256",
          "name": "amount",
          "type": "uint256"
        }
      ],
      "name": "transferFrom",
      "outputs": [
        {
          "internalType": "bool",
          "name": "",
          "type": "bool"
        }
      ],
      "stateMutability": "nonpayable",
      "type": "function"
    },
    {
      "inputs": [
        {
          "internalType": "address",
          "name": "newOwner",
          "type": "address"
        }
      ],
      "name": "transferOwnership",
      "outputs": [],
      "stateMutability": "nonpayable",
      "type": "function"
    },
    {
      "inputs": [],
      "name": "updateMiningParameters",
      "outputs": [],
      "stateMutability": "nonpayable",
      "type": "function"
    }
  ],
  "bytecode": "0x6080806040523461001657611a22908161001c8239f35b600080fdfe608060408181526004908136101561001657600080fd5b600092833560e01c90816306fdde03146112b8575080630754617214611290578063095ea7b3146112665780631814a5b11461124757806318160ddd1461122857806323b872dd1461115d578063277dbafb146111405780632c4e722e14611121578063313ce5671461110557806339509351146110b657806340c10f1914610f5657806342966c6814610e425780634cd88b76146108f657806364ef6dd4146108d457806370a082311461089d578063715018a61461084057806379ba5097146107be5780637ecc2b561461079a5780638da5cb5b1461077257806395d89b4114610691578063a457c2d7146105ec578063a9059cbb146105bb578063c3b03fa814610375578063cb626ae214610303578063dd5fbc9a146102e4578063dd62ed3e1461029b578063e30c39781461026f578063f2fde38b146102015763fca3b5aa1461016357600080fd5b346101fd5760203660031901126101fd5761017c6113a9565b6101846114b9565b60c954926001600160a01b03928385166101d25750501680916001600160a01b0319161760c9557fcec52196e972044edde8689a1b608e459c5946b7f3e5c8cd3d6d8e126d422e1c8280a280f35b906020606492519162461bcd60e51b83528201526005602482015264424130303360d81b6044820152fd5b8280fd5b833461026c57602036600319011261026c5761021b6113a9565b6102236114b9565b6001600160a01b0380911690816001600160a01b03196097541617609755606554167f38d16b8cac22d99fc7c124b9cd0de2d3fa1faef420bfe791d8c362d765e227008380a380f35b80fd5b8382346102975781600319360112610297576020906001600160a01b03609754169051908152f35b5080fd5b838234610297578060031936011261029757806020926102b96113a9565b6102c16113c4565b6001600160a01b0391821683526034865283832091168252845220549051908152f35b83823461029757816003193601126102975760209060cd549051908152f35b50346101fd57826003193601126101fd5760cb546301e1338081018091116103625742106103375782610334611860565b80f35b906020606492519162461bcd60e51b83528201526005602482015264042413030360dc1b6044820152fd5b634e487b7160e01b845260118352602484fd5b50346101fd57806003193601126101fd5781359160249384359182851161059157819460cb5460cc54916301e13380958683018084116104425780821161054e575b50868301808411610442578111610524578593925b6103e885106103e0575b60208a8a51908152f35b80821015610496575b6301e1337f1981019081116104425792671080e992061ab3009081810291818304149015171561044257670de0b6b3a764000090049368a42118e77bc5af0ac785116104545760001981146104425760010193926103cc565b634e487b7160e01b8752601186528a87fd5b885162461bcd60e51b81526020818801526018818d01527f546869732073686f756c64206e657665722068617070656e00000000000000006044820152606490fd5b969594939291908087890190818a11918261050757808411610519575b84926105075784106104c65750506103d6565b6104e68a9c926104ec92869798999a9b9c6104f29697106104ff576117f3565b866117e0565b9061154b565b988083106103e9576103d6565b8e91506117f3565b634e487b7160e01b8952601188528d89fd5b9150508690806104b3565b875162461bcd60e51b81526020818701526005818c015264212098181960d91b6044820152606490fd5b9093925091670de0b6b3a76400009081810291818304149015171561057f57671080e992061ab300900492386103b7565b634e487b7160e01b8652601185528986fd5b606490600587602087519362461bcd60e51b855284015282015264424130303160d81b6044820152fd5b8382346102975780600319360112610297576020906105e56105db6113a9565b602435903361156e565b5160018152f35b50913461026c578260031936011261026c576106066113a9565b91836024359233815260346020528181206001600160a01b0386168252602052205490828210610640576020856105e585850387336116de565b608490602086519162461bcd60e51b8352820152602560248201527f45524332303a2064656372656173656420616c6c6f77616e63652062656c6f77604482015264207a65726f60d81b6064820152fd5b838234610297578160031936011261029757805190826037546106b381611511565b8085529160019180831690811561074a57506001146106ed575b5050506106df826106e99403836113da565b5191829182611360565b0390f35b9450603785527f42a7b7dd785cd69714a189dffb3fd7d7174edc9ece837694ce50f7078f7c31ae5b828610610732575050506106df8260206106e995820101946106cd565b80546020878701810191909152909501948101610715565b6106e99750869350602092506106df94915060ff191682840152151560051b820101946106cd565b8382346102975781600319360112610297576020906001600160a01b03606554169051908152f35b8382346102975781600319360112610297576020906107b76119cb565b9051908152f35b50346101fd57826003193601126101fd57336001600160a01b0360975416036107eb578261033433611469565b906020608492519162461bcd60e51b8352820152602960248201527f4f776e61626c6532537465703a2063616c6c6572206973206e6f7420746865206044820152683732bb9037bbb732b960b91b6064820152fd5b833461026c578060031936011261026c576108596114b9565b806001600160a01b0380198060975416609755606554908116606555167f8be0079c531659141344cd1fd0a4f28419497f9722a3daafe3b4186f6b6457e08280a380f35b83823461029757602036600319011261029757806020926001600160a01b036108c46113a9565b1681526033845220549051908152f35b83823461029757816003193601126102975760209060ca54600f0b9051908152f35b50346101fd57806003193601126101fd5767ffffffffffffffff918035838111610e3e576109279036908301611412565b906024908135858111610e3a576109419036908301611412565b9286549560ff8760081c161594858096610e2d575b8015610e16575b15610dae57600197868960ff198316178b55610d9d575b5061098e60ff8a5460081c1661098981611800565b611800565b61099733611469565b6109ab60ff8a5460081c1661098981611800565b8251828111610d8b57806109c0603654611511565b94601f95868111610d1d575b50602090868311600114610c9e578c92610c93575b5050600019600383901b1c191690891b176036555b8051918211610c81578190610a0c603754611511565b848111610c13575b50602090848311600114610b94578a92610b89575b5050600019600383901b1c191690871b176037555b3315610b4a5750603554916c050c783eb9b5c85f2a8000000092838101809111610b385760355533875260336020528487208381540190558451838152877fddf252ad1be2c89b69c2b068fc378daa952ba7f163c4a11628f55a4df523b3ef60203393a362015180420191824211610b2757426301dfe1ff1901928311610b2757505060cb556fffffffffffffffffffffffffffffffff801960ca54161760ca558460cc5560cd55610aee578280f35b825461ff0019168355519081527f7f26b83ff96e1f2b6a682f133852f6798a09c465da95921460cefb384740249890602090a138808280f35b634e487b7160e01b88526011905286fd5b50634e487b7160e01b87526011825286fd5b606492602086519362461bcd60e51b85528401528201527f45524332303a206d696e7420746f20746865207a65726f2061646472657373006044820152fd5b015190503880610a29565b60378b528993507f42a7b7dd785cd69714a189dffb3fd7d7174edc9ece837694ce50f7078f7c31ae9190601f1984168c5b818110610bfb57508411610be2575b505050811b01603755610a3e565b015160001960f88460031b161c19169055388080610bd4565b8284015185558c969094019360209384019301610bc5565b90915060378a527f42a7b7dd785cd69714a189dffb3fd7d7174edc9ece837694ce50f7078f7c31ae8480850160051c82019260208610610c78575b918b91869594930160051c01915b828110610c6a575050610a14565b8c81558594508b9101610c5c565b92508192610c4e565b634e487b7160e01b8952604184528489fd5b0151905038806109e1565b60368d528b93507f4a11f94e20a93c79f6ec743a1954ec4fc2c08429ae2122118bf234b2185c81b89190601f1984168e5b818110610d0557508411610cec575b505050811b016036556109f6565b015160001960f88460031b161c19169055388080610cde565b8284015185558e969094019360209384019301610ccf565b90915060368c527f4a11f94e20a93c79f6ec743a1954ec4fc2c08429ae2122118bf234b2185c81b88680850160051c82019260208610610d82575b918d91869594930160051c01915b828110610d745750506109cc565b8e81558594508d9101610d66565b92508192610d58565b634e487b7160e01b8a5260418552858afd5b61ffff191661010117895538610974565b865162461bcd60e51b8152602081860152602e818701527f496e697469616c697a61626c653a20636f6e747261637420697320616c72656160448201527f647920696e697469616c697a65640000000000000000000000000000000000006064820152608490fd5b50303b15801561095d5750600160ff89161461095d565b50600160ff891610610956565b8680fd5b8480fd5b50823461026c5760209283600319360112610297578035903315610f0957338352603385528383205490828210610ebb57508190338452603386520383832055806035540360355582519081527fddf252ad1be2c89b69c2b068fc378daa952ba7f163c4a11628f55a4df523b3ef843392a35160018152f35b845162461bcd60e51b8152908101869052602260248201527f45524332303a206275726e20616d6f756e7420657863656564732062616c616e604482015261636560f01b6064820152608490fd5b835162461bcd60e51b8152908101859052602160248201527f45524332303a206275726e2066726f6d20746865207a65726f206164647265736044820152607360f81b6064820152608490fd5b50823461026c578160031936011261026c57610f706113a9565b90602435916001600160a01b03908160c95416330361108b57169182156110605760cb546301e13380810180911161104d57421015611040575b603554610fb7828261154b565b610fbf6119cb565b10611015576020955081610ff57fddf252ad1be2c89b69c2b068fc378daa952ba7f163c4a11628f55a4df523b3ef93889361154b565b603555848452603382528584208181540190558551908152a35160018152f35b845162461bcd60e51b81526020818801526005602482015264424130303560d81b6044820152606490fd5b611048611860565b610faa565b634e487b7160e01b835260118652602483fd5b835162461bcd60e51b81526020818701526005602482015264043453030360dc1b6044820152606490fd5b845162461bcd60e51b8152602081880152600560248201526410904c0c0d60da1b6044820152606490fd5b8382346102975780600319360112610297576105e56020926110fe6110d96113a9565b91338152603486528481206001600160a01b038416825286528460243591205461154b565b90336116de565b8382346102975781600319360112610297576020905160128152f35b83823461029757816003193601126102975760209060cc549051908152f35b8382346102975781600319360112610297576020906107b7611993565b50919034610297576060366003190112610297576111796113a9565b6111816113c4565b9184604435946001600160a01b0384168152603460205281812033825260205220549060001982036111bc575b6020866105e587878761156e565b8482106111e557509183916111da602096956105e5950333836116de565b9193948193506111ae565b606490602087519162461bcd60e51b8352820152601d60248201527f45524332303a20696e73756666696369656e7420616c6c6f77616e63650000006044820152fd5b8382346102975781600319360112610297576020906035549051908152f35b83823461029757816003193601126102975760209060cb549051908152f35b8382346102975780600319360112610297576020906105e56112866113a9565b60243590336116de565b8382346102975781600319360112610297576020906001600160a01b0360c954169051908152f35b925050346101fd57826003193601126101fd57826036546112d881611511565b8085529160019180831690811561074a5750600114611303575050506106df826106e99403836113da565b9450603685527f4a11f94e20a93c79f6ec743a1954ec4fc2c08429ae2122118bf234b2185c81b85b828610611348575050506106df8260206106e995820101946106cd565b8054602087870181019190915290950194810161132b565b6020808252825181830181905290939260005b82811061139557505060409293506000838284010152601f8019910116010190565b818101860151848201604001528501611373565b600435906001600160a01b03821682036113bf57565b600080fd5b602435906001600160a01b03821682036113bf57565b90601f8019910116810190811067ffffffffffffffff8211176113fc57604052565b634e487b7160e01b600052604160045260246000fd5b81601f820112156113bf5780359067ffffffffffffffff82116113fc5760405192611447601f8401601f1916602001856113da565b828452602083830101116113bf57816000926020809301838601378301015290565b6001600160a01b03199081609754166097556065546001600160a01b038092168093821617606555167f8be0079c531659141344cd1fd0a4f28419497f9722a3daafe3b4186f6b6457e0600080a3565b6001600160a01b036065541633036114cd57565b606460405162461bcd60e51b815260206004820152602060248201527f4f776e61626c653a2063616c6c6572206973206e6f7420746865206f776e65726044820152fd5b90600182811c92168015611541575b602083101461152b57565b634e487b7160e01b600052602260045260246000fd5b91607f1691611520565b9190820180921161155857565b634e487b7160e01b600052601160045260246000fd5b6001600160a01b0380911691821561168b571691821561163a57600082815260336020526040812054918083106115e657604082827fddf252ad1be2c89b69c2b068fc378daa952ba7f163c4a11628f55a4df523b3ef95876020965260338652038282205586815220818154019055604051908152a3565b60405162461bcd60e51b815260206004820152602660248201527f45524332303a207472616e7366657220616d6f756e7420657863656564732062604482015265616c616e636560d01b6064820152608490fd5b60405162461bcd60e51b815260206004820152602360248201527f45524332303a207472616e7366657220746f20746865207a65726f206164647260448201526265737360e81b6064820152608490fd5b60405162461bcd60e51b815260206004820152602560248201527f45524332303a207472616e736665722066726f6d20746865207a65726f206164604482015264647265737360d81b6064820152608490fd5b6001600160a01b0380911691821561178f571691821561173f5760207f8c5be1e5ebec7d5bd14f71427d1e84f3dd0314c0f7b2291e5b200ac8c7c3b925918360005260348252604060002085600052825280604060002055604051908152a3565b60405162461bcd60e51b815260206004820152602260248201527f45524332303a20617070726f766520746f20746865207a65726f206164647265604482015261737360f01b6064820152608490fd5b60405162461bcd60e51b8152602060048201526024808201527f45524332303a20617070726f76652066726f6d20746865207a65726f206164646044820152637265737360e01b6064820152608490fd5b8181029291811591840414171561155857565b9190820391821161155857565b1561180757565b60405162461bcd60e51b815260206004820152602b60248201527f496e697469616c697a61626c653a20636f6e7472616374206973206e6f74206960448201526a6e697469616c697a696e6760a81b6064820152608490fd5b60cc5460cd5460cb546301e13380908181018091116115585760cb5560ca54600181600f0b016f7fffffffffffffffffffffffffffffff1981126f7fffffffffffffffffffffffffffffff821317611558576fffffffffffffffffffffffffffffffff16906fffffffffffffffffffffffffffffffff19161760ca55821560001461193057507f27e46362a1e6129b6dd539c984ce739291a97128dfcaeca1255e8ac83abd9441915060609068a42118e77bc5af0ac7905b8160cc556040519142835260208301526040820152a1565b8083029083820403611558576119459161154b565b908160cd55670de0b6b3a764000080820291820403611558577f27e46362a1e6129b6dd539c984ce739291a97128dfcaeca1255e8ac83abd944191671080e992061ab3006060920490611918565b60cb546301e1338090818101809111611558574281116119c657506119b6611860565b60cb549081018091116115585790565b905090565b6119e960cd546104ec6119e060cb54426117f3565b60cc54906117e0565b9056fea26469706673582212203dda87585768be0f5840a208ffc400940296482403ac03645f88560401c2150564736f6c63430008110033",
  "linkReferences": {},
  "deployedLinkReferences": {}
}