{
  "_format": "hh-sol-artifact-1",
  "contractName": "Permit2",
  "sourceName": "contracts/mock/Permit2.sol",
  "abi": [
    {
      "inputs": [
        {
          "internalType": "uint256",
          "name": "deadline",
          "type": "uint256"
        }
      ],
      "name": "AllowanceExpired",
      "type": "error"
    },
    {
      "inputs": [],
      "name": "ExcessiveInvalidation",
      "type": "error"
    },
    {
      "inputs": [
        {
          "internalType": "uint256",
          "name": "amount",
          "type": "uint256"
        }
      ],
      "name": "InsufficientAllowance",
      "type": "error"
    },
    {
      "inputs": [
        {
          "internalType": "uint256",
          "name": "maxAmount",
          "type": "uint256"
        }
      ],
      "name": "InvalidAmount",
      "type": "error"
    },
    {
      "inputs": [],
      "name": "InvalidContractSignature",
      "type": "error"
    },
    {
      "inputs": [],
      "name": "InvalidNonce",
      "type": "error"
    },
    {
      "inputs": [],
      "name": "InvalidSignature",
      "type": "error"
    },
    {
      "inputs": [],
      "name": "InvalidSignatureLength",
      "type": "error"
    },
    {
      "inputs": [],
      "name": "InvalidSigner",
      "type": "error"
    },
    {
      "inputs": [],
      "name": "LengthMismatch",
      "type": "error"
    },
    {
      "inputs": [
        {
          "internalType": "uint256",
          "name": "signatureDeadline",
          "type": "uint256"
        }
      ],
      "name": "SignatureExpired",
      "type": "error"
    },
    {
      "anonymous": false,
      "inputs": [
        {
          "indexed": true,
          "internalType": "address",
          "name": "owner",
          "type": "address"
        },
        {
          "indexed": true,
          "internalType": "address",
          "name": "token",
          "type": "address"
        },
        {
          "indexed": true,
          "internalType": "address",
          "name": "spender",
          "type": "address"
        },
        {
          "indexed": false,
          "internalType": "uint160",
          "name": "amount",
          "type": "uint160"
        },
        {
          "indexed": false,
          "internalType": "uint48",
          "name": "expiration",
          "type": "uint48"
        }
      ],
      "name": "Approval",
      "type": "event"
    },
    {
      "anonymous": false,
      "inputs": [
        {
          "indexed": true,
          "internalType": "address",
          "name": "owner",
          "type": "address"
        },
        {
          "indexed": false,
          "internalType": "address",
          "name": "token",
          "type": "address"
        },
        {
          "indexed": false,
          "internalType": "address",
          "name": "spender",
          "type": "address"
        }
      ],
      "name": "Lockdown",
      "type": "event"
    },
    {
      "anonymous": false,
      "inputs": [
        {
          "indexed": true,
          "internalType": "address",
          "name": "owner",
          "type": "address"
        },
        {
          "indexed": true,
          "internalType": "address",
          "name": "token",
          "type": "address"
        },
        {
          "indexed": true,
          "internalType": "address",
          "name": "spender",
          "type": "address"
        },
        {
          "indexed": false,
          "internalType": "uint48",
          "name": "newNonce",
          "type": "uint48"
        },
        {
          "indexed": false,
          "internalType": "uint48",
          "name": "oldNonce",
          "type": "uint48"
        }
      ],
      "name": "NonceInvalidation",
      "type": "event"
    },
    {
      "anonymous": false,
      "inputs": [
        {
          "indexed": true,
          "internalType": "address",
          "name": "owner",
          "type": "address"
        },
        {
          "indexed": true,
          "internalType": "address",
          "name": "token",
          "type": "address"
        },
        {
          "indexed": true,
          "internalType": "address",
          "name": "spender",
          "type": "address"
        },
        {
          "indexed": false,
          "internalType": "uint160",
          "name": "amount",
          "type": "uint160"
        },
        {
          "indexed": false,
          "internalType": "uint48",
          "name": "expiration",
          "type": "uint48"
        },
        {
          "indexed": false,
          "internalType": "uint48",
          "name": "nonce",
          "type": "uint48"
        }
      ],
      "name": "Permit",
      "type": "event"
    },
    {
      "anonymous": false,
      "inputs": [
        {
          "indexed": true,
          "internalType": "address",
          "name": "owner",
          "type": "address"
        },
        {
          "indexed": false,
          "internalType": "uint256",
          "name": "word",
          "type": "uint256"
        },
        {
          "indexed": false,
          "internalType": "uint256",
          "name": "mask",
          "type": "uint256"
        }
      ],
      "name": "UnorderedNonceInvalidation",
      "type": "event"
    },
    {
      "inputs": [],
      "name": "DOMAIN_SEPARATOR",
      "outputs": [
        {
          "internalType": "bytes32",
          "name": "",
          "type": "bytes32"
        }
      ],
      "stateMutability": "view",
      "type": "function"
    },
    {
      "inputs": [
        {
          "internalType": "address",
          "name": "",
          "type": "address"
        },
        {
          "internalType": "address",
          "name": "",
          "type": "address"
        },
        {
          "internalType": "address",
          "name": "",
          "type": "address"
        }
      ],
      "name": "allowance",
      "outputs": [
        {
          "internalType": "uint160",
          "name": "amount",
          "type": "uint160"
        },
        {
          "internalType": "uint48",
          "name": "expiration",
          "type": "uint48"
        },
        {
          "internalType": "uint48",
          "name": "nonce",
          "type": "uint48"
        }
      ],
      "stateMutability": "view",
      "type": "function"
    },
    {
      "inputs": [
        {
          "internalType": "address",
          "name": "token",
          "type": "address"
        },
        {
          "internalType": "address",
          "name": "spender",
          "type": "address"
        },
        {
          "internalType": "uint160",
          "name": "amount",
          "type": "uint160"
        },
        {
          "internalType": "uint48",
          "name": "expiration",
          "type": "uint48"
        }
      ],
      "name": "approve",
      "outputs": [],
      "stateMutability": "nonpayable",
      "type": "function"
    },
    {
      "inputs": [
        {
          "internalType": "address",
          "name": "token",
          "type": "address"
        },
        {
          "internalType": "address",
          "name": "spender",
          "type": "address"
        },
        {
          "internalType": "uint48",
          "name": "newNonce",
          "type": "uint48"
        }
      ],
      "name": "invalidateNonces",
      "outputs": [],
      "stateMutability": "nonpayable",
      "type": "function"
    },
    {
      "inputs": [
        {
          "internalType": "uint256",
          "name": "wordPos",
          "type": "uint256"
        },
        {
          "internalType": "uint256",
          "name": "mask",
          "type": "uint256"
        }
      ],
      "name": "invalidateUnorderedNonces",
      "outputs": [],
      "stateMutability": "nonpayable",
      "type": "function"
    },
    {
      "inputs": [
        {
          "components": [
            {
              "internalType": "address",
              "name": "token",
              "type": "address"
            },
            {
              "internalType": "address",
              "name": "spender",
              "type": "address"
            }
          ],
          "internalType": "struct IAllowanceTransfer.TokenSpenderPair[]",
          "name": "approvals",
          "type": "tuple[]"
        }
      ],
      "name": "lockdown",
      "outputs": [],
      "stateMutability": "nonpayable",
      "type": "function"
    },
    {
      "inputs": [
        {
          "internalType": "address",
          "name": "",
          "type": "address"
        },
        {
          "internalType": "uint256",
          "name": "",
          "type": "uint256"
        }
      ],
      "name": "nonceBitmap",
      "outputs": [
        {
          "internalType": "uint256",
          "name": "",
          "type": "uint256"
        }
      ],
      "stateMutability": "view",
      "type": "function"
    },
    {
      "inputs": [
        {
          "internalType": "address",
          "name": "owner",
          "type": "address"
        },
        {
          "components": [
            {
              "components": [
                {
                  "internalType": "address",
                  "name": "token",
                  "type": "address"
                },
                {
                  "internalType": "uint160",
                  "name": "amount",
                  "type": "uint160"
                },
                {
                  "internalType": "uint48",
                  "name": "expiration",
                  "type": "uint48"
                },
                {
                  "internalType": "uint48",
                  "name": "nonce",
                  "type": "uint48"
                }
              ],
              "internalType": "struct IAllowanceTransfer.PermitDetails[]",
              "name": "details",
              "type": "tuple[]"
            },
            {
              "internalType": "address",
              "name": "spender",
              "type": "address"
            },
            {
              "internalType": "uint256",
              "name": "sigDeadline",
              "type": "uint256"
            }
          ],
          "internalType": "struct IAllowanceTransfer.PermitBatch",
          "name": "permitBatch",
          "type": "tuple"
        },
        {
          "internalType": "bytes",
          "name": "signature",
          "type": "bytes"
        }
      ],
      "name": "permit",
      "outputs": [],
      "stateMutability": "nonpayable",
      "type": "function"
    },
    {
      "inputs": [
        {
          "internalType": "address",
          "name": "owner",
          "type": "address"
        },
        {
          "components": [
            {
              "components": [
                {
                  "internalType": "address",
                  "name": "token",
                  "type": "address"
                },
                {
                  "internalType": "uint160",
                  "name": "amount",
                  "type": "uint160"
                },
                {
                  "internalType": "uint48",
                  "name": "expiration",
                  "type": "uint48"
                },
                {
                  "internalType": "uint48",
                  "name": "nonce",
                  "type": "uint48"
                }
              ],
              "internalType": "struct IAllowanceTransfer.PermitDetails",
              "name": "details",
              "type": "tuple"
            },
            {
              "internalType": "address",
              "name": "spender",
              "type": "address"
            },
            {
              "internalType": "uint256",
              "name": "sigDeadline",
              "type": "uint256"
            }
          ],
          "internalType": "struct IAllowanceTransfer.PermitSingle",
          "name": "permitSingle",
          "type": "tuple"
        },
        {
          "internalType": "bytes",
          "name": "signature",
          "type": "bytes"
        }
      ],
      "name": "permit",
      "outputs": [],
      "stateMutability": "nonpayable",
      "type": "function"
    },
    {
      "inputs": [
        {
          "components": [
            {
              "components": [
                {
                  "internalType": "address",
                  "name": "token",
                  "type": "address"
                },
                {
                  "internalType": "uint256",
                  "name": "amount",
                  "type": "uint256"
                }
              ],
              "internalType": "struct ISignatureTransfer.TokenPermissions",
              "name": "permitted",
              "type": "tuple"
            },
            {
              "internalType": "uint256",
              "name": "nonce",
              "type": "uint256"
            },
            {
              "internalType": "uint256",
              "name": "deadline",
              "type": "uint256"
            }
          ],
          "internalType": "struct ISignatureTransfer.PermitTransferFrom",
          "name": "permit",
          "type": "tuple"
        },
        {
          "components": [
            {
              "internalType": "address",
              "name": "to",
              "type": "address"
            },
            {
              "internalType": "uint256",
              "name": "requestedAmount",
              "type": "uint256"
            }
          ],
          "internalType": "struct ISignatureTransfer.SignatureTransferDetails",
          "name": "transferDetails",
          "type": "tuple"
        },
        {
          "internalType": "address",
          "name": "owner",
          "type": "address"
        },
        {
          "internalType": "bytes",
          "name": "signature",
          "type": "bytes"
        }
      ],
      "name": "permitTransferFrom",
      "outputs": [],
      "stateMutability": "nonpayable",
      "type": "function"
    },
    {
      "inputs": [
        {
          "components": [
            {
              "components": [
                {
                  "internalType": "address",
                  "name": "token",
                  "type": "address"
                },
                {
                  "internalType": "uint256",
                  "name": "amount",
                  "type": "uint256"
                }
              ],
              "internalType": "struct ISignatureTransfer.TokenPermissions[]",
              "name": "permitted",
              "type": "tuple[]"
            },
            {
              "internalType": "uint256",
              "name": "nonce",
              "type": "uint256"
            },
            {
              "internalType": "uint256",
              "name": "deadline",
              "type": "uint256"
            }
          ],
          "internalType": "struct ISignatureTransfer.PermitBatchTransferFrom",
          "name": "permit",
          "type": "tuple"
        },
        {
          "components": [
            {
              "internalType": "address",
              "name": "to",
              "type": "address"
            },
            {
              "internalType": "uint256",
              "name": "requestedAmount",
              "type": "uint256"
            }
          ],
          "internalType": "struct ISignatureTransfer.SignatureTransferDetails[]",
          "name": "transferDetails",
          "type": "tuple[]"
        },
        {
          "internalType": "address",
          "name": "owner",
          "type": "address"
        },
        {
          "internalType": "bytes",
          "name": "signature",
          "type": "bytes"
        }
      ],
      "name": "permitTransferFrom",
      "outputs": [],
      "stateMutability": "nonpayable",
      "type": "function"
    },
    {
      "inputs": [
        {
          "components": [
            {
              "components": [
                {
                  "internalType": "address",
                  "name": "token",
                  "type": "address"
                },
                {
                  "internalType": "uint256",
                  "name": "amount",
                  "type": "uint256"
                }
              ],
              "internalType": "struct ISignatureTransfer.TokenPermissions",
              "name": "permitted",
              "type": "tuple"
            },
            {
              "internalType": "uint256",
              "name": "nonce",
              "type": "uint256"
            },
            {
              "internalType": "uint256",
              "name": "deadline",
              "type": "uint256"
            }
          ],
          "internalType": "struct ISignatureTransfer.PermitTransferFrom",
          "name": "permit",
          "type": "tuple"
        },
        {
          "components": [
            {
              "internalType": "address",
              "name": "to",
              "type": "address"
            },
            {
              "internalType": "uint256",
              "name": "requestedAmount",
              "type": "uint256"
            }
          ],
          "internalType": "struct ISignatureTransfer.SignatureTransferDetails",
          "name": "transferDetails",
          "type": "tuple"
        },
        {
          "internalType": "address",
          "name": "owner",
          "type": "address"
        },
        {
          "internalType": "bytes32",
          "name": "witness",
          "type": "bytes32"
        },
        {
          "internalType": "string",
          "name": "witnessTypeString",
          "type": "string"
        },
        {
          "internalType": "bytes",
          "name": "signature",
          "type": "bytes"
        }
      ],
      "name": "permitWitnessTransferFrom",
      "outputs": [],
      "stateMutability": "nonpayable",
      "type": "function"
    },
    {
      "inputs": [
        {
          "components": [
            {
              "components": [
                {
                  "internalType": "address",
                  "name": "token",
                  "type": "address"
                },
                {
                  "internalType": "uint256",
                  "name": "amount",
                  "type": "uint256"
                }
              ],
              "internalType": "struct ISignatureTransfer.TokenPermissions[]",
              "name": "permitted",
              "type": "tuple[]"
            },
            {
              "internalType": "uint256",
              "name": "nonce",
              "type": "uint256"
            },
            {
              "internalType": "uint256",
              "name": "deadline",
              "type": "uint256"
            }
          ],
          "internalType": "struct ISignatureTransfer.PermitBatchTransferFrom",
          "name": "permit",
          "type": "tuple"
        },
        {
          "components": [
            {
              "internalType": "address",
              "name": "to",
              "type": "address"
            },
            {
              "internalType": "uint256",
              "name": "requestedAmount",
              "type": "uint256"
            }
          ],
          "internalType": "struct ISignatureTransfer.SignatureTransferDetails[]",
          "name": "transferDetails",
          "type": "tuple[]"
        },
        {
          "internalType": "address",
          "name": "owner",
          "type": "address"
        },
        {
          "internalType": "bytes32",
          "name": "witness",
          "type": "bytes32"
        },
        {
          "internalType": "string",
          "name": "witnessTypeString",
          "type": "string"
        },
        {
          "internalType": "bytes",
          "name": "signature",
          "type": "bytes"
        }
      ],
      "name": "permitWitnessTransferFrom",
      "outputs": [],
      "stateMutability": "nonpayable",
      "type": "function"
    },
    {
      "inputs": [
        {
          "components": [
            {
              "internalType": "address",
              "name": "from",
              "type": "address"
            },
            {
              "internalType": "address",
              "name": "to",
              "type": "address"
            },
            {
              "internalType": "uint160",
              "name": "amount",
              "type": "uint160"
            },
            {
              "internalType": "address",
              "name": "token",
              "type": "address"
            }
          ],
          "internalType": "struct IAllowanceTransfer.AllowanceTransferDetails[]",
          "name": "transferDetails",
          "type": "tuple[]"
        }
      ],
      "name": "transferFrom",
      "outputs": [],
      "stateMutability": "nonpayable",
      "type": "function"
    },
    {
      "inputs": [
        {
          "internalType": "address",
          "name": "from",
          "type": "address"
        },
        {
          "internalType": "address",
          "name": "to",
          "type": "address"
        },
        {
          "internalType": "uint160",
          "name": "amount",
          "type": "uint160"
        },
        {
          "internalType": "address",
          "name": "token",
          "type": "address"
        }
      ],
      "name": "transferFrom",
      "outputs": [],
      "stateMutability": "nonpayable",
      "type": "function"
    }
  ],
  "bytecode": "0x60c0346100bb574660a052602081017f8cad95687ba82c2ce50e74f7b754645e5117c3a5bec8151c0726d5857980a86681527f9ac997416e8ff9d2ff6bebeb7149f65cdae5e32e2b90440b566bb3044041d36a60408301524660608301523060808301526080825260a082019180831060018060401b038411176100a55782604052519020608052611f1590816100c18239608051816115e5015260a051816115bf0152f35b634e487b7160e01b600052604160045260246000fd5b600080fdfe60806040526004361015610013575b600080fd5b60003560e01c80630d58b1db1461013f578063137c29fe146101365780632a2d80d11461012d5780632b67b5701461012457806330f28b7a1461011b5780633644e5151461011257806336c78516146101095780633ff9dcb1146101005780634fe02b44146100f757806365d9723c146100ee57806387517c45146100e5578063927da105146100dc578063cc53287f146100d3578063edd9444b146100ca5763fe8ec1a7146100c257600080fd5b61000e6110d3565b5061000e610f7f565b5061000e610dbb565b5061000e610ce9565b5061000e610bb9565b5061000e610a42565b5061000e6109f5565b5061000e61098a565b5061000e61093e565b5061000e61091a565b5061000e61083f565b5061000e6107b8565b5061000e6106b3565b5061000e6103f3565b503461000e5760208060031936011261000e5767ffffffffffffffff60043581811161000e573660238201121561000e57806004013591821161000e576024906007368385831b8401011161000e5760005b84811061019a57005b80821b8301906080602319833603011261000e5761022660019288604091606083516101c58161026c565b60848b840135936101d5856102c6565b848352604481013580966101e8826102c6565b840152606481013580976101fb826102c6565b840152013591829161020c836102c6565b01526001600160a01b0380808093169516931691166113a6565b01610191565b50634e487b7160e01b600052604160045260246000fd5b6060810190811067ffffffffffffffff82111761025f57604052565b61026761022c565b604052565b6080810190811067ffffffffffffffff82111761025f57604052565b60a0810190811067ffffffffffffffff82111761025f57604052565b90601f8019910116810190811067ffffffffffffffff82111761025f57604052565b6001600160a01b0381160361000e57565b604435906102e4826102c6565b565b35906102e4826102c6565b919082604091031261000e576040516040810181811067ffffffffffffffff821117610334575b6040526020808294803561032b816102c6565b84520135910152565b61033c61022c565b610318565b60031901906080821261000e57604080519061035c82610243565b8082941261000e57805181810181811067ffffffffffffffff8211176103a7575b825260043561038b816102c6565b8152602435602082015282526044356020830152606435910152565b6103af61022c565b61037d565b604090608319011261000e57608490565b9181601f8401121561000e5782359167ffffffffffffffff831161000e576020838186019501011161000e57565b503461000e5761014036600319011261000e5761040f36610341565b610418366103b4565b60c435610424816102c6565b67ffffffffffffffff926101043584811161000e576104479036906004016103c5565b9290936101243595861161000e5761046661058d9636906004016103c5565b9590946040519061047682610288565b606482527f5065726d69745769746e6573735472616e7366657246726f6d28546f6b656e5060208301527f65726d697373696f6e73207065726d69747465642c616464726573732073706560408301527f6e6465722c75696e74323536206e6f6e63652c75696e7432353620646561646c6060830152631a5b994b60e21b6080830152610516604051938492610510602085018096611a0d565b91611a38565b039161052a601f19938481018352826102a4565b5190209061058461053b8651611b76565b6020878101516040808a0151815193840197885290830193909352336060830152608082015260a081019190915260e43560c0820152918260e081015b039081018352826102a4565b519020926116a8565b005b60209067ffffffffffffffff81116105a9575b60051b0190565b6105b161022c565b6105a2565b6044359065ffffffffffff8216820361000e57565b6064359065ffffffffffff8216820361000e57565b359065ffffffffffff8216820361000e57565b608090602319011261000e576040519061060c8261026c565b81602435610619816102c6565b8152604435610627816102c6565b602082015265ffffffffffff90606435828116810361000e576040820152608435918216820361000e5760600152565b919082608091031261000e5760405161066f8161026c565b60606106ae8183958035610682816102c6565b85526020810135610692816102c6565b60208601526106a3604082016105e0565b6040860152016105e0565b910152565b503461000e5760031960603682011261000e576004356106d2816102c6565b6024359067ffffffffffffffff9283831161000e57606090833603011261000e576040519161070083610243565b806004013584811161000e5781013660238201121561000e576004810135906107288261058f565b9061073660405192836102a4565b82825260209260248484019160071b8301019136831161000e57602401905b82821061079f57505050845260449190610771602483016102e6565b908501520135604083015260443592831161000e5761079761058d9336906004016103c5565b929091611259565b846080916107ad3685610657565b815201910190610755565b503461000e5761010036600319011261000e576004356107d7816102c6565b60c036602319011261000e576040516107ef81610243565b6107f8366105f3565b815260a435610806816102c6565b602082015260c435604082015260e4359167ffffffffffffffff831161000e5761083761058d9336906004016103c5565b929091611169565b503461000e5761010036600319011261000e5761085b36610341565b610864366103b4565b60c43590610871826102c6565b60e4359267ffffffffffffffff841161000e5761089561058d9436906004016103c5565b9390926108a28351611b76565b602084015161058460408601519161090c6040519384926020840196339088909493926001600160a01b0360809360a08401977f939c21a48a8dbe3a9a2404a1d46691e4d39f6583d6ec6b35714604c986d801068552602085015216604083015260608201520152565b03601f1981018352826102a4565b503461000e57600036600319011261000e5760206109366115bc565b604051908152f35b503461000e57608036600319011261000e5761058d60043561095f816102c6565b60243561096b816102c6565b60443590610978826102c6565b60643592610985846102c6565b6113a6565b503461000e57604036600319011261000e576004356024359060009133835282602052604083208284526020526040832081815417905560405191825260208201527f3704902f963766a4e561bbaab6e6cdc1b1dd12f6e9e99648da8843b3f46b918d60403392a280f35b503461000e57604036600319011261000e576001600160a01b03600435610a1b816102c6565b16600052600060205260406000206024356000526020526020604060002054604051908152f35b503461000e57606036600319011261000e57600435610a60816102c6565b602435610a6c816102c6565b610a746105b6565b610abb610ab483610a9c86610a9c336001600160a01b03166000526001602052604060002090565b906001600160a01b0316600052602052604060002090565b5460d01c90565b9165ffffffffffff8084168184161115610ba75761ffff908484031611610b9557610b9081610b5f84610b2a7f55eb90d810e1700b35a8e7e25395ff7f2b2259abd7415ca2284dfb1c246418f395610a9c8a610a9c336001600160a01b03166000526001602052604060002090565b9079ffffffffffffffffffffffffffffffffffffffffffffffffffff82549165ffffffffffff60d01b9060d01b169116179055565b6040805165ffffffffffff95861681529490951660208501526001600160a01b039081169516933393918291820190565b0390a4005b604051631269ad1360e11b8152600490fd5b604051633ab3447f60e11b8152600490fd5b503461000e57608036600319011261000e57600435610bd7816102c6565b602435610be3816102c6565b604435610bef816102c6565b7fda9fa7c1b00402c17d0161b249b1ab8bbec047c5a52207b9c112deffd817036b610b90610c1b6105cb565b93336000526001602052610ca884610c4e83610a9c8a6040600020906001600160a01b0316600052602052604060002090565b65ffffffffffff888116610ce25742165b81547fffffffffffff00000000000000000000000000000000000000000000000000001660a09190911b65ffffffffffff60a01b16176001600160a01b03909216919091179055565b6040519182916001600160a01b0380911697169533958390929165ffffffffffff6020916001600160a01b03604085019616845216910152565b5087610c5f565b503461000e57606036600319011261000e57600435610d07816102c6565b610d56602435610d16816102c6565b610a9c60443591610d26836102c6565b6001600160a01b0380951660005260016020526040600020906001600160a01b0316600052602052604060002090565b54604080519282166001600160a01b0316835265ffffffffffff60a083901c16602084015260d09190911c90820152606090f35b9181601f8401121561000e5782359167ffffffffffffffff831161000e576020808501948460061b01011161000e57565b503461000e5760208060031936011261000e5760043567ffffffffffffffff811161000e57610dee903690600401610d8a565b919060005b838110610dfc57005b80610e0a6001928685611495565b35610e14816102c6565b7f89b1add15eff56b3dfe299ad94e01f2b52fbcb80ae1a3baea6ae8c04cb2b98a4610ebd86610e44858a89611495565b0135610e4f816102c6565b336000528588526040610e9c610e7f83610a9c8885600020906001600160a01b0316600052602052604060002090565b805473ffffffffffffffffffffffffffffffffffffffff19169055565b516001600160a01b0394851681529316602084015233929081906040820190565b0390a201610df3565b91909160608184031261000e576040805191610ee183610243565b8294813567ffffffffffffffff811161000e57820181601f8201121561000e57803590610f0d8261058f565b91610f1a865193846102a4565b808352602093848085019260061b8401019281841161000e5790858897969594939201915b838310610f5b5750505050855280820135908501520135910152565b9482939495610f6e8383999a94956102f1565b815201920190879695949392610f3f565b503461000e57608036600319011261000e5767ffffffffffffffff60043581811161000e57610fb2903690600401610ec6565b9060243581811161000e57610fcb903690600401610d8a565b909260443592610fda846102c6565b60643590811161000e57610ff29036906004016103c5565b939092825151956110028761197b565b60005b8881106110a6575061058d975060405190816110256020820180936119e0565b0391611039601f19938481018352826102a4565b51902060208681015160408089015181517ffcf35f5ac6a2c28868dc44c302166470266239195f02b0ee408334829333b76694810194855291820194909452336060820152608081019190915260a08101929092529161109d908260c08101610578565b5190209361180e565b806110be6110b86110ce938951611237565b51611b76565b6110c88285611237565b526119c4565b611005565b503461000e5760c036600319011261000e5767ffffffffffffffff60043581811161000e57611106903690600401610ec6565b60243582811161000e5761111e903690600401610d8a565b916111276102d7565b60843585811161000e5761113f9036906004016103c5565b92909160a43596871161000e5761115d61058d9736906004016103c5565b96909560643593611725565b90939291936040810190815180421161120857506111fe836102e496976111908451611adf565b966111f860208601986001600160a01b0397888b511690516040519160208301937ff3841cd1ff0085026a6327b620b67997ce40f282c88a8e905a7a5626e310f3d08552604084015260608301526080820152608081526111f081610288565b519020611677565b91611c67565b51925116916114c0565b6024906040519063cd21db4f60e01b82526004820152fd5b50634e487b7160e01b600052603260045260246000fd5b602091815181101561124c575b60051b010190565b611254611220565b611244565b919290926040840191825180421161120857509083918551519361127c8561197b565b9460005b8181106113745750509161133f9493916111f86113329460405196876112aa6020820180936119e0565b03976112be601f19998a81018352826102a4565b519020906111f060208c01986112db8a516001600160a01b031690565b9251926105786040519485926020840197886001600160a01b0360609295949360808301967faf1b0d30d2cab0380e68f0689007e3254993c596f2fdd0aaa7f4d04f79440863845260208401521660408201520152565b516001600160a01b031690565b908251519260005b848110611355575050505050565b8061136e85856113686001958751611237565b516114c0565b01611347565b61139b91929394955061139161138b828b51611237565b51611adf565b6110c88289611237565b908694939291611280565b9291926113e56113cd84610a9c846001600160a01b03166000526001602052604060002090565b336001600160a01b0316600052602052604060002090565b9384549065ffffffffffff8260a01c1680421161147357506001600160a01b0380921695828703611420575b506102e4955081169316611e5a565b86838316116000146114455760405163f96fb07160e01b815260048101889052602490fd5b9061146d839283836102e49a03166001600160a01b03166001600160a01b0319825416179055565b90611411565b604051636c0d979760e11b815265ffffffffffff919091166004820152602490fd5b91908110156114a6575b60061b0190565b6114ae611220565b61149f565b356114bd816102c6565b90565b91909165ffffffffffff9182606083015116906001600160a01b0390818451169480604084602088015116960151169361151583610a9c89610a9c8c6001600160a01b03166000526001602052604060002090565b9481865460d01c03610ba7577fc6a377bfc4eb120024a8ac08eef205be16b817020812c73223e81d1bdb9708ec95876115b09483156000146115b55742165b65ffffffffffff60a01b9060a01b1665ffffffffffff60d01b6001860160d01b16171790558460405195869516991696849160409194936001600160a01b03606085019616845265ffffffffffff809216602085015216910152565b0390a4565b5082611554565b467f000000000000000000000000000000000000000000000000000000000000000003611607577f000000000000000000000000000000000000000000000000000000000000000090565b60405160208101907f8cad95687ba82c2ce50e74f7b754645e5117c3a5bec8151c0726d5857980a86682527f9ac997416e8ff9d2ff6bebeb7149f65cdae5e32e2b90440b566bb3044041d36a60408201524660608201523060808201526080815261167181610288565b51902090565b61167f6115bc565b9060405190602082019261190160f01b845260228301526042820152604281526116718161026c565b9594939092936020840135946040880151804211611208575060208851015180871161170d5750836001600160a01b039389936111f86116f9946116f460206102e49d9e01518661193e565b611677565b515116913591611708836102c6565b611e5a565b60249060405190633728b83d60e01b82526004820152fd5b94989796959390919293611737611a46565b9061174f6040519b8c92610510602085018096611a0d565b0399611763601f199b8c81018352826102a4565b519020908551516117738161197b565b9060005b8181106117ed5750506102e4999a61109d916040516117aa8161179e6020820180956119e0565b038481018352826102a4565b5190206020898101516040808c0151815193840198895290830193909352336060830152608082015260a081019190915260c08101939093528260e08101610578565b806117ff6110b8611809938c51611237565b6110c88286611237565b611777565b95909395805151956040928383015180421161192557508488036118fb576118459186916111f860209b6116f48d8801518661193e565b60005b868110611859575050505050505050565b611864818351611237565b518861187183878a611495565b013590898101518083116118e257509181888888600196859661189b575b50505050505001611848565b6118d7956118d1926118c66118ba6118cc94516001600160a01b031690565b6001600160a01b031690565b95611495565b6114b3565b91611e5a565b80388888888361188f565b8551633728b83d60e01b81526004810191909152602490fd5b83517fff633a38000000000000000000000000000000000000000000000000000000008152600490fd5b845163cd21db4f60e01b81526004810191909152602490fd5b906001600160a01b03600160ff83161b9216600052600060205260406000209060081c6000526020526040600020818154188091551615610ba757565b906119858261058f565b61199260405191826102a4565b82815280926119a3601f199161058f565b0190602036910137565b50634e487b7160e01b600052601160045260246000fd5b60019060001981146119d4570190565b6119dc6119ad565b0190565b805160208092019160005b8281106119f9575050505090565b8351855293810193928101926001016119eb565b9081519160005b838110611a25575050016000815290565b8060208092840101518185015201611a14565b908092918237016000815290565b60405190611a5382610288565b606b82526a0d88191958591b1a5b994b60aa1b6080837f5065726d697442617463685769746e6573735472616e7366657246726f6d285460208201527f6f6b656e5065726d697373696f6e735b5d207065726d69747465642c6164647260408201527f657373207370656e6465722c75696e74323536206e6f6e63652c75696e74323560608201520152565b60405160208101917f65626cad6cb96493bf6f5ebea28756c966f023ab9e8a83a7101849d5573b367883526001600160a01b038082511660408401526020820151166060830152606065ffffffffffff9182604082015116608085015201511660a082015260a0815260c0810181811067ffffffffffffffff821117611b69575b60405251902090565b611b7161022c565b611b60565b6040516020808201927f618358ac3db8dc274f0cd8829da7e234bd48cd73c4a740aede1adec9846d06a184526001600160a01b03815116604084015201516060820152606081526116718161026c565b9081602091031261000e57516001600160e01b03198116810361000e5790565b91926060938192845260406020850152816040850152848401376000828201840152601f01601f1916010190565b506040513d6000823e3d90fd5b919082604091031261000e576020823592013590565b60ff601b9116019060ff8211611c4957565b6102e46119ad565b604091821015611c5f570190565b6119dc611220565b906000843b611db8575060418103611d505790602092611cf483611ccc611cc6611ca0611c98600098880188611c21565b949097611c51565b357fff000000000000000000000000000000000000000000000000000000000000001690565b60f81c90565b935b604051948594859094939260ff6060936080840197845216602083015260408201520152565b838052039060015afa15611d43575b6001600160a01b038060005116918215611d31571603611d1f57565b604051632057875960e21b8152600490fd5b604051638baa579f60e01b8152600490fd5b611d4b611c14565b611d03565b9060408203611da657602092611d6e82600094611cf4940190611c21565b929092611da07f7fffffffffffffffffffffffffffffffffffffffffffffffffffffffffffffff82169160ff1c611c37565b93611cce565b604051634be6321b60e01b8152600490fd5b929390602091611de8936001600160a01b03604051809681958294630b135d3f60e11b9b8c855260048501611be6565b0392165afa918215611e4d575b91611e1f575b506001600160e01b03191603611e0d57565b604051632c19a72f60e21b8152600490fd5b611e40915060203d8111611e46575b611e3881836102a4565b810190611bc6565b38611dfb565b503d611e2e565b611e55611c14565b611df5565b9060006064926020958295604051946323b872dd60e01b86526004860152602485015260448401525af13d15601f3d1160016000511416171615611e9a57565b60405162461bcd60e51b815260206004820152601460248201527f5452414e534645525f46524f4d5f4641494c45440000000000000000000000006044820152606490fdfea2646970667358221220c5203a904ed685fe71871f1135bad979b9670f0c093e69a9f7a88021197d36dd64736f6c63430008110033",
  "linkReferences": {},
  "deployedLinkReferences": {}
}