{
  "_format": "hh-sol-artifact-1",
  "contractName": "PoolGomboc",
  "sourceName": "contracts/gombocs/PoolGomboc.sol",
  "abi": [
    {
      "inputs": [],
      "stateMutability": "nonpayable",
      "type": "constructor"
    },
    {
      "anonymous": false,
      "inputs": [
        {
          "indexed": true,
          "internalType": "address",
          "name": "_owner",
          "type": "address"
        },
        {
          "indexed": true,
          "internalType": "address",
          "name": "_spender",
          "type": "address"
        },
        {
          "indexed": false,
          "internalType": "uint256",
          "name": "_value",
          "type": "uint256"
        }
      ],
      "name": "Approval",
      "type": "event"
    },
    {
      "anonymous": false,
      "inputs": [
        {
          "indexed": true,
          "internalType": "address",
          "name": "provider",
          "type": "address"
        },
        {
          "indexed": false,
          "internalType": "uint256",
          "name": "value",
          "type": "uint256"
        }
      ],
      "name": "Deposit",
      "type": "event"
    },
    {
      "anonymous": false,
      "inputs": [
        {
          "indexed": true,
          "internalType": "address",
          "name": "previousOwner",
          "type": "address"
        },
        {
          "indexed": true,
          "internalType": "address",
          "name": "newOwner",
          "type": "address"
        }
      ],
      "name": "OwnershipTransferStarted",
      "type": "event"
    },
    {
      "anonymous": false,
      "inputs": [
        {
          "indexed": true,
          "internalType": "address",
          "name": "previousOwner",
          "type": "address"
        },
        {
          "indexed": true,
          "internalType": "address",
          "name": "newOwner",
          "type": "address"
        }
      ],
      "name": "OwnershipTransferred",
      "type": "event"
    },
    {
      "anonymous": false,
      "inputs": [
        {
          "indexed": true,
          "internalType": "address",
          "name": "_from",
          "type": "address"
        },
        {
          "indexed": true,
          "internalType": "address",
          "name": "_to",
          "type": "address"
        },
        {
          "indexed": false,
          "internalType": "uint256",
          "name": "_value",
          "type": "uint256"
        }
      ],
      "name": "Transfer",
      "type": "event"
    },
    {
      "anonymous": false,
      "inputs": [
        {
          "indexed": false,
          "internalType": "address",
          "name": "user",
          "type": "address"
        },
        {
          "indexed": false,
          "internalType": "uint256",
          "name": "originalBalance",
          "type": "uint256"
        },
        {
          "indexed": false,
          "internalType": "uint256",
          "name": "originalSupply",
          "type": "uint256"
        },
        {
          "indexed": false,
          "internalType": "uint256",
          "name": "workingBalance",
          "type": "uint256"
        },
        {
          "indexed": false,
          "internalType": "uint256",
          "name": "workingSupply",
          "type": "uint256"
        },
        {
          "indexed": false,
          "internalType": "uint256",
          "name": "votingBalance",
          "type": "uint256"
        },
        {
          "indexed": false,
          "internalType": "uint256",
          "name": "votingTotal",
          "type": "uint256"
        }
      ],
      "name": "UpdateLiquidityLimit",
      "type": "event"
    },
    {
      "anonymous": false,
      "inputs": [
        {
          "indexed": true,
          "internalType": "address",
          "name": "provider",
          "type": "address"
        },
        {
          "indexed": false,
          "internalType": "uint256",
          "name": "value",
          "type": "uint256"
        }
      ],
      "name": "Withdraw",
      "type": "event"
    },
    {
      "inputs": [],
      "name": "acceptOwnership",
      "outputs": [],
      "stateMutability": "nonpayable",
      "type": "function"
    },
    {
      "inputs": [
        {
          "internalType": "address",
          "name": "_rewardToken",
          "type": "address"
        },
        {
          "internalType": "address",
          "name": "_distributor",
          "type": "address"
        }
      ],
      "name": "addReward",
      "outputs": [],
      "stateMutability": "nonpayable",
      "type": "function"
    },
    {
      "inputs": [
        {
          "internalType": "address",
          "name": "",
          "type": "address"
        },
        {
          "internalType": "address",
          "name": "",
          "type": "address"
        }
      ],
      "name": "allowance",
      "outputs": [
        {
          "internalType": "uint256",
          "name": "",
          "type": "uint256"
        }
      ],
      "stateMutability": "view",
      "type": "function"
    },
    {
      "inputs": [
        {
          "internalType": "address",
          "name": "_spender",
          "type": "address"
        },
        {
          "internalType": "uint256",
          "name": "_value",
          "type": "uint256"
        }
      ],
      "name": "approve",
      "outputs": [
        {
          "internalType": "bool",
          "name": "",
          "type": "bool"
        }
      ],
      "stateMutability": "nonpayable",
      "type": "function"
    },
    {
      "inputs": [
        {
          "internalType": "address",
          "name": "",
          "type": "address"
        }
      ],
      "name": "balanceOf",
      "outputs": [
        {
          "internalType": "uint256",
          "name": "",
          "type": "uint256"
        }
      ],
      "stateMutability": "view",
      "type": "function"
    },
    {
      "inputs": [
        {
          "internalType": "address",
          "name": "",
          "type": "address"
        },
        {
          "internalType": "address",
          "name": "",
          "type": "address"
        }
      ],
      "name": "claimData",
      "outputs": [
        {
          "internalType": "uint256",
          "name": "",
          "type": "uint256"
        }
      ],
      "stateMutability": "view",
      "type": "function"
    },
    {
      "inputs": [],
      "name": "claimRewards",
      "outputs": [],
      "stateMutability": "nonpayable",
      "type": "function"
    },
    {
      "inputs": [
        {
          "internalType": "address",
          "name": "_user",
          "type": "address"
        },
        {
          "internalType": "address",
          "name": "_reward_token",
          "type": "address"
        }
      ],
      "name": "claimableReward",
      "outputs": [
        {
          "internalType": "uint256",
          "name": "",
          "type": "uint256"
        }
      ],
      "stateMutability": "view",
      "type": "function"
    },
    {
      "inputs": [
        {
          "internalType": "address",
          "name": "_addr",
          "type": "address"
        }
      ],
      "name": "claimableTokens",
      "outputs": [
        {
          "internalType": "uint256",
          "name": "",
          "type": "uint256"
        }
      ],
      "stateMutability": "nonpayable",
      "type": "function"
    },
    {
      "inputs": [
        {
          "internalType": "address",
          "name": "_addr",
          "type": "address"
        },
        {
          "internalType": "address",
          "name": "_token",
          "type": "address"
        }
      ],
      "name": "claimedReward",
      "outputs": [
        {
          "internalType": "uint256",
          "name": "",
          "type": "uint256"
        }
      ],
      "stateMutability": "view",
      "type": "function"
    },
    {
      "inputs": [],
      "name": "controller",
      "outputs": [
        {
          "internalType": "contract IGombocController",
          "name": "",
          "type": "address"
        }
      ],
      "stateMutability": "view",
      "type": "function"
    },
    {
      "inputs": [],
      "name": "decimals",
      "outputs": [
        {
          "internalType": "uint256",
          "name": "",
          "type": "uint256"
        }
      ],
      "stateMutability": "view",
      "type": "function"
    },
    {
      "inputs": [
        {
          "internalType": "address",
          "name": "_spender",
          "type": "address"
        },
        {
          "internalType": "uint256",
          "name": "_subtractedValue",
          "type": "uint256"
        }
      ],
      "name": "decreaseAllowance",
      "outputs": [
        {
          "internalType": "bool",
          "name": "",
          "type": "bool"
        }
      ],
      "stateMutability": "nonpayable",
      "type": "function"
    },
    {
      "inputs": [
        {
          "internalType": "uint256",
          "name": "_value",
          "type": "uint256"
        },
        {
          "internalType": "uint256",
          "name": "_nonce",
          "type": "uint256"
        },
        {
          "internalType": "uint256",
          "name": "_deadline",
          "type": "uint256"
        },
        {
          "internalType": "bytes",
          "name": "_signature",
          "type": "bytes"
        },
        {
          "internalType": "address",
          "name": "_addr",
          "type": "address"
        }
      ],
      "name": "deposit",
      "outputs": [],
      "stateMutability": "nonpayable",
      "type": "function"
    },
    {
      "inputs": [
        {
          "internalType": "uint256",
          "name": "_value",
          "type": "uint256"
        },
        {
          "internalType": "uint256",
          "name": "_nonce",
          "type": "uint256"
        },
        {
          "internalType": "uint256",
          "name": "_deadline",
          "type": "uint256"
        },
        {
          "internalType": "bytes",
          "name": "_signature",
          "type": "bytes"
        }
      ],
      "name": "deposit",
      "outputs": [],
      "stateMutability": "nonpayable",
      "type": "function"
    },
    {
      "inputs": [
        {
          "internalType": "uint256",
          "name": "_value",
          "type": "uint256"
        },
        {
          "internalType": "uint256",
          "name": "_nonce",
          "type": "uint256"
        },
        {
          "internalType": "uint256",
          "name": "_deadline",
          "type": "uint256"
        },
        {
          "internalType": "bytes",
          "name": "_signature",
          "type": "bytes"
        },
        {
          "internalType": "address",
          "name": "_addr",
          "type": "address"
        },
        {
          "internalType": "bool",
          "name": "_claimRewards_",
          "type": "bool"
        }
      ],
      "name": "deposit",
      "outputs": [],
      "stateMutability": "nonpayable",
      "type": "function"
    },
    {
      "inputs": [
        {
          "internalType": "address",
          "name": "_rewardToken",
          "type": "address"
        },
        {
          "internalType": "uint256",
          "name": "_amount",
          "type": "uint256"
        }
      ],
      "name": "depositRewardToken",
      "outputs": [],
      "stateMutability": "payable",
      "type": "function"
    },
    {
      "inputs": [],
      "name": "factory",
      "outputs": [
        {
          "internalType": "address",
          "name": "",
          "type": "address"
        }
      ],
      "stateMutability": "view",
      "type": "function"
    },
    {
      "inputs": [],
      "name": "futureEpochTime",
      "outputs": [
        {
          "internalType": "uint256",
          "name": "",
          "type": "uint256"
        }
      ],
      "stateMutability": "view",
      "type": "function"
    },
    {
      "inputs": [
        {
          "internalType": "address",
          "name": "_spender",
          "type": "address"
        },
        {
          "internalType": "uint256",
          "name": "_addedValue",
          "type": "uint256"
        }
      ],
      "name": "increaseAllowance",
      "outputs": [
        {
          "internalType": "bool",
          "name": "",
          "type": "bool"
        }
      ],
      "stateMutability": "nonpayable",
      "type": "function"
    },
    {
      "inputs": [],
      "name": "inflationRate",
      "outputs": [
        {
          "internalType": "uint256",
          "name": "",
          "type": "uint256"
        }
      ],
      "stateMutability": "view",
      "type": "function"
    },
    {
      "inputs": [
        {
          "internalType": "address",
          "name": "_lpAddr",
          "type": "address"
        },
        {
          "internalType": "address",
          "name": "_minter",
          "type": "address"
        },
        {
          "internalType": "address",
          "name": "_permit2Address",
          "type": "address"
        }
      ],
      "name": "initialize",
      "outputs": [],
      "stateMutability": "nonpayable",
      "type": "function"
    },
    {
      "inputs": [],
      "name": "integrateCheckpoint",
      "outputs": [
        {
          "internalType": "uint256",
          "name": "",
          "type": "uint256"
        }
      ],
      "stateMutability": "view",
      "type": "function"
    },
    {
      "inputs": [
        {
          "internalType": "address",
          "name": "",
          "type": "address"
        }
      ],
      "name": "integrateCheckpointOf",
      "outputs": [
        {
          "internalType": "uint256",
          "name": "",
          "type": "uint256"
        }
      ],
      "stateMutability": "view",
      "type": "function"
    },
    {
      "inputs": [
        {
          "internalType": "address",
          "name": "",
          "type": "address"
        }
      ],
      "name": "integrateFraction",
      "outputs": [
        {
          "internalType": "uint256",
          "name": "",
          "type": "uint256"
        }
      ],
      "stateMutability": "view",
      "type": "function"
    },
    {
      "inputs": [
        {
          "internalType": "address",
          "name": "",
          "type": "address"
        }
      ],
      "name": "integrateInvSupplyOf",
      "outputs": [
        {
          "internalType": "uint256",
          "name": "",
          "type": "uint256"
        }
      ],
      "stateMutability": "view",
      "type": "function"
    },
    {
      "inputs": [],
      "name": "isKilled",
      "outputs": [
        {
          "internalType": "bool",
          "name": "",
          "type": "bool"
        }
      ],
      "stateMutability": "view",
      "type": "function"
    },
    {
      "inputs": [
        {
          "internalType": "address",
          "name": "_addr",
          "type": "address"
        }
      ],
      "name": "kick",
      "outputs": [],
      "stateMutability": "nonpayable",
      "type": "function"
    },
    {
      "inputs": [
        {
          "internalType": "address",
          "name": "addr",
          "type": "address"
        }
      ],
      "name": "lpBalanceOf",
      "outputs": [
        {
          "internalType": "uint256",
          "name": "",
          "type": "uint256"
        }
      ],
      "stateMutability": "view",
      "type": "function"
    },
    {
      "inputs": [],
      "name": "lpToken",
      "outputs": [
        {
          "internalType": "address",
          "name": "",
          "type": "address"
        }
      ],
      "stateMutability": "view",
      "type": "function"
    },
    {
      "inputs": [],
      "name": "lpTotalSupply",
      "outputs": [
        {
          "internalType": "uint256",
          "name": "",
          "type": "uint256"
        }
      ],
      "stateMutability": "view",
      "type": "function"
    },
    {
      "inputs": [],
      "name": "ltToken",
      "outputs": [
        {
          "internalType": "contract ILT",
          "name": "",
          "type": "address"
        }
      ],
      "stateMutability": "view",
      "type": "function"
    },
    {
      "inputs": [],
      "name": "minter",
      "outputs": [
        {
          "internalType": "contract IMinter",
          "name": "",
          "type": "address"
        }
      ],
      "stateMutability": "view",
      "type": "function"
    },
    {
      "inputs": [],
      "name": "name",
      "outputs": [
        {
          "internalType": "string",
          "name": "",
          "type": "string"
        }
      ],
      "stateMutability": "view",
      "type": "function"
    },
    {
      "inputs": [],
      "name": "owner",
      "outputs": [
        {
          "internalType": "address",
          "name": "",
          "type": "address"
        }
      ],
      "stateMutability": "view",
      "type": "function"
    },
    {
      "inputs": [],
      "name": "pendingOwner",
      "outputs": [
        {
          "internalType": "address",
          "name": "",
          "type": "address"
        }
      ],
      "stateMutability": "view",
      "type": "function"
    },
    {
      "inputs": [],
      "name": "period",
      "outputs": [
        {
          "internalType": "uint256",
          "name": "",
          "type": "uint256"
        }
      ],
      "stateMutability": "view",
      "type": "function"
    },
    {
      "inputs": [
        {
          "internalType": "uint256",
          "name": "",
          "type": "uint256"
        }
      ],
      "name": "periodTimestamp",
      "outputs": [
        {
          "internalType": "uint256",
          "name": "",
          "type": "uint256"
        }
      ],
      "stateMutability": "view",
      "type": "function"
    },
    {
      "inputs": [],
      "name": "permit2Address",
      "outputs": [
        {
          "internalType": "address",
          "name": "",
          "type": "address"
        }
      ],
      "stateMutability": "view",
      "type": "function"
    },
    {
      "inputs": [],
      "name": "renounceOwnership",
      "outputs": [],
      "stateMutability": "nonpayable",
      "type": "function"
    },
    {
      "inputs": [],
      "name": "rewardCount",
      "outputs": [
        {
          "internalType": "uint256",
          "name": "",
          "type": "uint256"
        }
      ],
      "stateMutability": "view",
      "type": "function"
    },
    {
      "inputs": [
        {
          "internalType": "address",
          "name": "",
          "type": "address"
        }
      ],
      "name": "rewardData",
      "outputs": [
        {
          "internalType": "address",
          "name": "token",
          "type": "address"
        },
        {
          "internalType": "address",
          "name": "distributor",
          "type": "address"
        },
        {
          "internalType": "uint256",
          "name": "periodFinish",
          "type": "uint256"
        },
        {
          "internalType": "uint256",
          "name": "rate",
          "type": "uint256"
        },
        {
          "internalType": "uint256",
          "name": "lastUpdate",
          "type": "uint256"
        },
        {
          "internalType": "uint256",
          "name": "integral",
          "type": "uint256"
        }
      ],
      "stateMutability": "view",
      "type": "function"
    },
    {
      "inputs": [
        {
          "internalType": "address",
          "name": "",
          "type": "address"
        },
        {
          "internalType": "address",
          "name": "",
          "type": "address"
        }
      ],
      "name": "rewardIntegralFor",
      "outputs": [
        {
          "internalType": "uint256",
          "name": "",
          "type": "uint256"
        }
      ],
      "stateMutability": "view",
      "type": "function"
    },
    {
      "inputs": [
        {
          "internalType": "uint256",
          "name": "",
          "type": "uint256"
        }
      ],
      "name": "rewardTokens",
      "outputs": [
        {
          "internalType": "address",
          "name": "",
          "type": "address"
        }
      ],
      "stateMutability": "view",
      "type": "function"
    },
    {
      "inputs": [
        {
          "internalType": "address",
          "name": "",
          "type": "address"
        }
      ],
      "name": "rewardsReceiver",
      "outputs": [
        {
          "internalType": "address",
          "name": "",
          "type": "address"
        }
      ],
      "stateMutability": "view",
      "type": "function"
    },
    {
      "inputs": [
        {
          "internalType": "bool",
          "name": "_isKilled",
          "type": "bool"
        }
      ],
      "name": "setKilled",
      "outputs": [],
      "stateMutability": "nonpayable",
      "type": "function"
    },
    {
      "inputs": [
        {
          "internalType": "address",
          "name": "_rewardToken",
          "type": "address"
        },
        {
          "internalType": "address",
          "name": "_distributor",
          "type": "address"
        }
      ],
      "name": "setRewardDistributor",
      "outputs": [],
      "stateMutability": "nonpayable",
      "type": "function"
    },
    {
      "inputs": [
        {
          "internalType": "address",
          "name": "_receiver",
          "type": "address"
        }
      ],
      "name": "setRewardsReceiver",
      "outputs": [],
      "stateMutability": "nonpayable",
      "type": "function"
    },
    {
      "inputs": [],
      "name": "symbol",
      "outputs": [
        {
          "internalType": "string",
          "name": "",
          "type": "string"
        }
      ],
      "stateMutability": "view",
      "type": "function"
    },
    {
      "inputs": [],
      "name": "totalSupply",
      "outputs": [
        {
          "internalType": "uint256",
          "name": "",
          "type": "uint256"
        }
      ],
      "stateMutability": "view",
      "type": "function"
    },
    {
      "inputs": [
        {
          "internalType": "address",
          "name": "_to",
          "type": "address"
        },
        {
          "internalType": "uint256",
          "name": "_value",
          "type": "uint256"
        }
      ],
      "name": "transfer",
      "outputs": [
        {
          "internalType": "bool",
          "name": "",
          "type": "bool"
        }
      ],
      "stateMutability": "nonpayable",
      "type": "function"
    },
    {
      "inputs": [
        {
          "internalType": "address",
          "name": "_from",
          "type": "address"
        },
        {
          "internalType": "address",
          "name": "_to",
          "type": "address"
        },
        {
          "internalType": "uint256",
          "name": "_value",
          "type": "uint256"
        }
      ],
      "name": "transferFrom",
      "outputs": [
        {
          "internalType": "bool",
          "name": "",
          "type": "bool"
        }
      ],
      "stateMutability": "nonpayable",
      "type": "function"
    },
    {
      "inputs": [
        {
          "internalType": "address",
          "name": "newOwner",
          "type": "address"
        }
      ],
      "name": "transferOwnership",
      "outputs": [],
      "stateMutability": "nonpayable",
      "type": "function"
    },
    {
      "inputs": [
        {
          "internalType": "address",
          "name": "_addr",
          "type": "address"
        }
      ],
      "name": "userCheckpoint",
      "outputs": [
        {
          "internalType": "bool",
          "name": "",
          "type": "bool"
        }
      ],
      "stateMutability": "nonpayable",
      "type": "function"
    },
    {
      "inputs": [],
      "name": "votingEscrow",
      "outputs": [
        {
          "internalType": "contract IVotingEscrow",
          "name": "",
          "type": "address"
        }
      ],
      "stateMutability": "view",
      "type": "function"
    },
    {
      "inputs": [
        {
          "internalType": "uint256",
          "name": "_value",
          "type": "uint256"
        }
      ],
      "name": "withdraw",
      "outputs": [],
      "stateMutability": "nonpayable",
      "type": "function"
    },
    {
      "inputs": [
        {
          "internalType": "uint256",
          "name": "_value",
          "type": "uint256"
        },
        {
          "internalType": "bool",
          "name": "_claimRewards_",
          "type": "bool"
        }
      ],
      "name": "withdraw",
      "outputs": [],
      "stateMutability": "nonpayable",
      "type": "function"
    },
    {
      "inputs": [
        {
          "internalType": "address",
          "name": "",
          "type": "address"
        }
      ],
      "name": "workingBalances",
      "outputs": [
        {
          "internalType": "uint256",
          "name": "",
          "type": "uint256"
        }
      ],
      "stateMutability": "view",
      "type": "function"
    },
    {
      "inputs": [],
      "name": "workingSupply",
      "outputs": [
        {
          "internalType": "uint256",
          "name": "",
          "type": "uint256"
        }
      ],
      "stateMutability": "view",
      "type": "function"
    }
  ],
  "bytecode": "0x608080604052346100705761dead60018060a01b031980600154166001556000543382821617600055339060018060a01b03167f8be0079c531659141344cd1fd0a4f28419497f9722a3daafe3b4186f6b6457e0600080a36001601255602754161760275561496090816100768239f35b600080fdfe6080604052600436101561001257600080fd5b60003560e01c8063025185c314612c5e57806306fdde0314612bb85780630754617214612b8f5780630959950414612b4a578063095ea7b314612b2457806318160ddd14611b3257806323b872dd14612a925780632619582614612a4b57806327cc37b014612a005780632b1b9a21146126ea5780632e1a7d4d1461259e578063313ce5671461258057806331e202cc1461255457806331f9e35b1461253657806334380a61146124dc578063372500ab146124b757806338d0743614612365578063395093511461231457806340b47e1a1461220957806348e5d9f8146121945780634f2bfe5b1461216b578063505362c41461213f57806353cc9e5414611fd75780635fcbd28514611fae57806363f5777714611f5d57806364e6ec0314611b5057806366be232214611b3257806368bbad9814611af757806370a0823114611499578063715018a614611a925780637699b4cd14611a585780637908542514611a3a57806379ba5097146119775780637bb7bed11461194157806384d24226146118945780638da5cb5b1461186b5780638fe8a10114611845578063958da8de1461180b57806395d89b411461173757806396c55175146114d35780639c46665c146114995780639e48d35e1461147b578063a457c2d7146113d4578063a5870d6b146113ab578063a9059cbb1461136d578063b07b709b146112c0578063b1bd608614611286578063c0c53b8b14610b22578063c45a015514610af9578063c522498314610ad0578063c8562f7214610ab2578063caa0b9ed14610a78578063d26abffa1461092e578063dd62ed3e146108dd578063e30c3978146108b4578063e50912ae14610863578063ef5cfb8c14610836578063ef78d4fd14610818578063f1e42ccd14610354578063f2fde38b146102e95763f77c4791146102bb57600080fd5b346102e45760003660031901126102e4576005546040516001600160a01b039091168152602090f35b600080fd5b346102e45760203660031901126102e457610302612dad565b61030a612e5b565b60018060a01b0380911690816001600160601b0360a01b6001541617600155600054167f38d16b8cac22d99fc7c124b9cd0de2d3fa1faef420bfe791d8c362d765e22700600080a3005b346102e45760403660031901126102e45761036d612dad565b610375612dc3565b61037d613656565b6001600160a01b0381166107ac575b601854906040519061039d82612cf9565b600060408301819052606083018190526080830181905260a0830181905260c0830181905282526001600160a01b0381811660208401528416610746575b50601b54604082015260005b600881106103f7575b6001601255005b6040820151811461074157601c8101546001600160a01b0390811660608401818152600091825260246020818152604080852060050154608089015292519094168352909252206002015442811115610738575061047d425b60a0840181905260608401516001600160a01b031660009081526024602052604090206004015490612ef3565b8060c0840152610671575b6001600160a01b0384166104a5575b6104a090613127565b6103e7565b60018060a01b0360608301511660005260259081602052604060002060018060a01b038616600052602052604060002054600092608085015190818310610615575b50505060018060a01b038516600052601a80602052604060002060018060a01b03606086015116600052602052610527604060002054938460801c612ee6565b9283610537575b50509050610497565b92602091610551826001600160801b036105b29716612ee6565b6001600160a01b038981166000908152928552604080842060608a0180518416865290875281852093909355915188860151925163a9059cbb60e01b8152928216600484015260248301949094529095869390911691839182906044820190565b03925af1918215610609576104a0926105d3916000916105da575b50613bcc565b858061052e565b6105fc915060203d602011610602575b6105f48183612d14565b8101906139d3565b876105cd565b503d6105ea565b6040513d6000823e3d90fd5b60608601516001600160a01b03908116600090815260209283526040808220928b1682529190925290205583516080850151929350670de0b6b3a7640000926106679261066191612ef3565b90612eb3565b04908580806104e7565b60a082015160608301516001600160a01b031660009081526024602052604090206004015582156104885760c082015160608301516001600160a01b0316600090815260409020600301546106c591612eb3565b670de0b6b3a7640000818181020481148215171561072257846106ec916106f69302612ec6565b6080840151612ee6565b6080830181905260608301516001600160a01b0316600090815260246020526040902060050155610488565b634e487b7160e01b600052601160045260246000fd5b61047d90610450565b6103f0565b6001600160a01b038481166000908152601760205260409020548352161561076f575b836103db565b60018060a01b038316600052602660205260018060a01b0360406000205416806020830152610769576001600160a01b0383166020820152610769565b6001600160a01b038216331461038c5760405162461bcd60e51b815260206004820152602e60248201527f43616e6e6f74207265646972656374207768656e20636c61696d696e6720666f60448201526d391030b737ba3432b9103ab9b2b960911b6064820152608490fd5b346102e45760003660031901126102e4576020600a54604051908152f35b346102e45760203660031901126102e4576103f0610852612dad565b61085a613656565b60185490614559565b346102e45760403660031901126102e45761087c612dad565b610884612dc3565b9060018060a01b03809116600052601a602052604060002091166000526020526020604060002054604051908152f35b346102e45760003660031901126102e4576001546040516001600160a01b039091168152602090f35b346102e45760403660031901126102e4576108f6612dad565b6108fe612dc3565b9060018060a01b038091166000526019602052604060002091166000526020526020604060002054604051908152f35b346102e45760403660031901126102e457610947612dad565b6001600160a01b0380610958612dc3565b16918260005260209260248452600560406000200154601854806109e2575b506109b8670de0b6b3a7640000916109da95846000526025885260406000209516948560005287526106616040600020546017895260406000205492612ef3565b0491600052601a8452604060002090600052835260406000205460801c612ee6565b604051908152f35b93600260406000200154804210600014610a6c5750610a25610a0e425b60046040600020015490612ef3565b846000526024885260036040600020015490612eb3565b90670de0b6b3a76400009182810292818404149015171561072257610a63670de0b6b3a764000093610a5d6109da986109b895612ec6565b90612ee6565b92509450610977565b610a0e610a25916109ff565b346102e45760203660031901126102e4576001600160a01b03610a99612dad565b16600052600f6020526020604060002054604051908152f35b346102e45760003660031901126102e4576020600954604051908152f35b346102e45760003660031901126102e4576016546040516001600160a01b039091168152602090f35b346102e45760003660031901126102e4576027546040516001600160a01b039091168152602090f35b346102e45760603660031901126102e457610b3b612dad565b610b43612dc3565b6001600160a01b03919060443583811691908290036102e45760275490848216611249576001600160a01b031991821633176027556011549060ff82166111ed576001869260ff191617601155818516836002541617600255168082600354161760035560405190637e062a3560e11b8252602082600481845afa90811561060957866020926004946000916111d0575b5016848454161783556040519283809263f77c479160e01b82525afa801561060957856020916004936000916111b3575b50168084600554161760055560405192838092634f2bfe5b60e01b82525afa8015610609578591600091611184575b501681600654161760065560008052600b602052426040600020558360045416604051631627391760e11b8152602081600481855afa90811561060957600091611151575b5060009160209160105560046040518094819363277dbafb60e01b83525af19081156106095760009161111f575b5060075560165416176016556040516395d89b4160e01b81526000816004818686165afa908115610609576000916110a6575b508051906001600160401b038211610eef57610cf7601454612dd9565b601f8111611039575b50602090601f8311600114610fc057602093929160009183610fb5575b50508160011b916000199060031b1c1916176014555b60046040518094819363313ce56760e01b8352165afa801561060957600090610f78575b60ff915016601555604051806000601454610d7181612dd9565b9060018116908115610f545750600114610f05575b50610daa91816620476f6d626f6360c81b6007935203601819810184520182612d14565b80516001600160401b038111610eef57610dc5601354612dd9565b601f8111610e8a575b50602091601f8211600114610e0c57918192600092610e01575b5050600019600383901b1c191660019190911b17601355005b015190508280610de8565b601f1982169260136000527f66de8ffda797e3de9c05e8fc57b3bf0ec28a930d40b0d285d93c06501cf6a0909160005b858110610e7257508360019510610e59575b505050811b01601355005b015160001960f88460031b161c19169055828080610e4e565b91926020600181928685015181550194019201610e3c565b60136000527f66de8ffda797e3de9c05e8fc57b3bf0ec28a930d40b0d285d93c06501cf6a090601f830160051c81019160208410610ee5575b601f0160051c01905b818110610ed95750610dce565b60008155600101610ecc565b9091508190610ec3565b634e487b7160e01b600052604160045260246000fd5b91505060146000528160008051602061490b8339815191526000905b838210610f3a5750909182016020019050610daa610d86565b602091925080600191548385880101520191018391610f21565b60ff191660208581019190915282151590920284019091019150610daa9050610d86565b506020813d602011610fad575b81610f9260209383612d14565b810103126102e4575160ff811681036102e45760ff90610d57565b3d9150610f85565b015190508580610d1d565b90601460005260008051602061490b8339815191529160005b601f1985168110611021575091839160019360209695601f19811610611008575b505050811b01601455610d33565b015160001960f88460031b161c19169055858080610ffa565b91926020600181928685015181550194019201610fd9565b6014600052601f830160051c60008051602061490b833981519152019060208410611090575b601f0160051c60008051602061490b83398151915201905b8181106110845750610d00565b60008155600101611077565b60008051602061490b833981519152915061105f565b90503d806000833e6110b88183612d14565b8101906020818303126102e4578051906001600160401b0382116102e4570181601f820112156102e45780516110ed81612d35565b926110fb6040519485612d14565b818452602082840101116102e4576111199160208085019101612e13565b83610cda565b90506020813d602011611149575b8161113a60209383612d14565b810103126102e4575185610ca7565b3d915061112d565b90506020813d60201161117c575b8161116c60209383612d14565b810103126102e457516000610c79565b3d915061115f565b6111a6915060203d6020116111ac575b61119e8183612d14565b810190613637565b86610c34565b503d611194565b6111ca9150833d85116111ac5761119e8183612d14565b88610c05565b6111e79150843d86116111ac5761119e8183612d14565b89610bd4565b60405162461bcd60e51b815260206004820152602e60248201527f496e697469616c697a61626c653a20636f6e747261637420697320616c72656160448201526d191e481a5b9a5d1a585b1a5e995960921b6064820152608490fd5b60405162461bcd60e51b81526020600482015260156024820152742837b7b623b7b6b137b19d102327a92124a22222a760591b6044820152606490fd5b346102e45760203660031901126102e4576001600160a01b036112a7612dad565b16600052600d6020526020604060002054604051908152f35b346102e45760203660031901126102e4576112d9612dad565b6001600160a01b03818116919033831490811561135f575b50156113265761131b9161130482613136565b600052601760205260406000205460185491612f00565b602060405160018152f35b60405162461bcd60e51b815260206004820152601160248201527019195d8e881d5b985d5d1a1bdc9a5e9959607a1b6044820152606490fd5b9050600354163314836112f1565b346102e45760403660031901126102e45761139b611389612dad565b611391613656565b60243590336139eb565b6001601255602060405160018152f35b346102e45760003660031901126102e4576004546040516001600160a01b039091168152602090f35b346102e45760403660031901126102e4576113ed612dad565b60243590336000526019602052604060002060018060a01b038216600052602052604060002054918083106114285761131b92039033613aca565b60405162461bcd60e51b815260206004820152602560248201527f45524332303a2064656372656173656420616c6c6f77616e63652062656c6f77604482015264207a65726f60d81b6064820152608490fd5b346102e45760003660031901126102e4576020600754604051908152f35b346102e45760203660031901126102e4576001600160a01b036114ba612dad565b1660005260176020526020604060002054604051908152f35b346102e4576020806003193601126102e4576114ed612dad565b60018060a01b038082169081600052600e8452604060002054906006541690604051906381fc83bb60e01b82528360048301528582602481865afa8015610609578690600090611708575b60405163eac6a66760e01b81526001600160a01b0388166004820152602481019190915292508280604481015b0381865afa918215610609576000926116d9575b50600084815260178752604090819020549051633037408d60e01b81526001600160a01b038716600482015242602482015290938790829060449082905afa908115610609576000916116ac575b50159182156116a2575b5050156116655781600052600884526040600020549060288102908082046028149015171561072257606490041015611629576116279260179161161484613136565b6000525260406000205460185491612f00565b005b60405162461bcd60e51b815260048101849052601460248201527319195d8e881ada58dac81b9bdd081b995959195960621b6044820152606490fd5b60405162461bcd60e51b815260048101859052601560248201527419195d8e881ada58dac81b9bdd08185b1b1bddd959605a1b6044820152606490fd5b11905085806115d1565b90508681813d83116116d2575b6116c38183612d14565b810103126102e45751876115c7565b503d6116b9565b9091508581813d8311611701575b6116f18183612d14565b810103126102e457519086611579565b503d6116e7565b5082813d8311611730575b61171d8183612d14565b810103126102e457856115659251611538565b503d611713565b346102e45760003660031901126102e457604051600060145461175981612dd9565b808452906001908181169081156117e4575060011461179b575b6117978461178381860382612d14565b604051918291602083526020830190612e36565b0390f35b60146000908152925060008051602061490b8339815191525b8284106117cc57505050810160200161178382611773565b805460208587018101919091529093019281016117b4565b60ff191660208087019190915292151560051b850190920192506117839150839050611773565b346102e45760203660031901126102e4576001600160a01b0361182c612dad565b1660005260086020526020604060002054604051908152f35b346102e45760003660031901126102e457602060ff60015460a01c166040519015158152f35b346102e45760003660031901126102e4576000546040516001600160a01b039091168152602090f35b346102e4576020806003193601126102e4576118ae612dad565b6118b781613136565b60018060a01b038091169081600052600f8352826040600020549160035416926044604051809581936308b752bb60e41b835260048301523060248301525afa90811561060957600091611910575b6109da9250612ef3565b90508282813d831161193a575b6119278183612d14565b810103126102e4576109da915190611906565b503d61191d565b346102e45760203660031901126102e45760043560088110156102e457601c01546040516001600160a01b039091168152602090f35b346102e45760003660031901126102e4576001546001600160a01b0333818316036119e3576001600160601b0360a01b8092166001556000549133908316176000553391167f8be0079c531659141344cd1fd0a4f28419497f9722a3daafe3b4186f6b6457e0600080a3005b60405162461bcd60e51b815260206004820152602960248201527f4f776e61626c6532537465703a2063616c6c6572206973206e6f7420746865206044820152683732bb9037bbb732b960b91b6064820152608490fd5b346102e45760003660031901126102e4576020601b54604051908152f35b346102e45760203660031901126102e4576001600160a01b03611a79612dad565b16600052600e6020526020604060002054604051908152f35b346102e45760003660031901126102e457611aab612e5b565b600180546001600160a01b0319908116909155600080549182168155906001600160a01b03167f8be0079c531659141344cd1fd0a4f28419497f9722a3daafe3b4186f6b6457e08280a3005b346102e45760203660031901126102e45760206001600160a01b0380611b1b612dad565b166000526026825260406000205416604051908152f35b346102e45760003660031901126102e4576020601854604051908152f35b346102e45760c03660031901126102e4576064356001600160401b0381116102e457611b80903690600401612d50565b611b88612d97565b9060a4359182151583036102e457611b9e613656565b611ba781613136565b600091600435809481611c0a575b50836000805160206148eb83398151915260208560018060a01b031693847fe1fffcc4923d04b559f4d29a8bfc6cda04eb5b0d3c460751c2402c5c5cc9109c83604051848152a2604051908152a36001601255005b611c6591611c2791601b5415159060185491611f4c575b50612ee6565b6001600160a01b038416600081815260176020526040902054611c4b908890612ee6565b906000526017602052806040600020558160185584612f00565b6016546002546040516001600160a01b0392831692909116611c8682612cb0565b815285602082015260405190611c9b82612ccb565b81526024356020820152604435604082015260405192611cba84612cb0565b3080855260208086018990528351516040516370a0823160e01b815260048101939093526001600160a01b0316929082602481865afa948515610609578892600096611f15575b506024351580611f0b575b80611f02575b15611e4957505084516020808701516040516323b872dd60e01b81523360048201526001600160a01b0390931660248401526044830152926064919083905af13d15601f3d11600188511416171615611e0d5760206024915b51516040516370a0823160e01b815230600482015292839182906001600160a01b03165afa908115611e02578591611dcf575b50602091611dab91612ef3565b91015103611dbb57838381611bb5565b634e487b7160e01b82526001600452602482fd5b90506020813d602011611dfa575b81611dea60209383612d14565b810103126102e457516020611d9e565b3d9150611ddd565b6040513d87823e3d90fd5b60405162461bcd60e51b81526020600482015260146024820152731514905394d1915497d19493d357d1905253115160621b6044820152606490fd5b91509150803b156102e45760405163187945bd60e11b8152835180516001600160a01b03166004830152602001516024820152916000918391829084908290611ed3905b60208a810151604485015260408b015160648501528c516001600160a01b031660848501528c015160a48401523360c484015261010060e4840152610104830190612e36565b03925af1801561060957611eed575b506020602491611d6b565b611ef8919550612ce6565b6000936020611ee2565b50815115611d12565b5060443515611d0c565b925094506020823d602011611f44575b81611f3260209383612d14565b810103126102e457879151948a611d01565b3d9150611f25565b611f57908288613f38565b88611c21565b346102e45760403660031901126102e457611f76612dad565b611f7e612dc3565b9060018060a01b038091166000526025602052604060002091166000526020526020604060002054604051908152f35b346102e45760003660031901126102e4576002546040516001600160a01b039091168152602090f35b346102e45760403660031901126102e457611ff0612dad565b611ff8612dc3565b60018060a01b0380921691826000526020916024835281600160406000200154168033148015612132575b156120ef571561209e571691821561205957600090815260249091526040902060010180546001600160a01b0319169091179055005b60405162461bcd60e51b815260048101839052601c60248201527f6469737472696275746f7220746865207a65726f2061646472657373000000006044820152606490fd5b60405162461bcd60e51b815260048101849052602360248201527f63757272656e744469737472696275746f7220746865207a65726f206164647260448201526265737360e81b6064820152608490fd5b6064846040519062461bcd60e51b825280600483015260248201527f4d7573742063757272656e744469737472696275746f72206f72206f776e65726044820152fd5b5082600054163314612023565b346102e45760003660031901126102e457600a54600052600b6020526020604060002054604051908152f35b346102e45760003660031901126102e4576006546040516001600160a01b039091168152602090f35b346102e45760203660031901126102e45760c06001600160a01b03806121b8612dad565b166000526024602052604060002081815416916001820154169060028101546003820154906005600484015493015493604051958652602086015260408501526060840152608083015260a0820152f35b346102e45760403660031901126102e457612222612dad565b61222a612dc3565b612232612e5b565b601b549160088310156122dc576001600160a01b0390811660008181526024602052604090206001015490919081166122a6578160005260246020526001604060002001906001600160601b0360a01b93168382541617905582601c01918254161790556001810180911161072257601b55005b60405162461bcd60e51b815260206004820152600e60248201526d5265706561742073657474696e6760901b6044820152606490fd5b60405162461bcd60e51b815260206004820152601060248201526f14995dd85c9908151a1c995cda1bdb1960821b6044820152606490fd5b346102e45760403660031901126102e45761131b612330612dad565b336000526019602052604060002060018060a01b03821660005260205261235e602435604060002054612ee6565b9033613aca565b346102e45760403660031901126102e45760043560243580151581036102e45761238d613656565b61239633613136565b816123ec575b6000826040518181527f884edad9ce6fa2440d8a54cc123490eb96d2768479d49ff9c7366125a942436460203392a26040519081526000805160206148eb83398151915260203392a36001601255005b6124098261243b92601b54151590601854916124a6575b50612ef3565b33600052601760205261242183604060002054612ef3565b336000526017602052806040600020558160185533612f00565b60025460405163a9059cbb60e01b8152336004820152602481018390529190602090839060449082906000906001600160a01b03165af191821561060957600092612488575b509061239c565b61249f9060203d8111610602576105f48183612d14565b5082612481565b6124b1908233613f38565b85612403565b346102e45760003660031901126102e4576124d0613656565b6103f060185433614559565b346102e45760403660031901126102e4576124f5612dad565b6124fd612dc3565b9060018060a01b03809116600052601a6020526040600020911660005260205260206001600160801b0360406000205416604051908152f35b346102e45760003660031901126102e4576020601054604051908152f35b346102e45760203660031901126102e457600435600052600b6020526020604060002054604051908152f35b346102e45760003660031901126102e4576020601554604051908152f35b346102e4576020806003193601126102e4576004356125bb613656565b6125c433613136565b80612617575b6000805160206148eb8339815191526000926040518381527f884edad9ce6fa2440d8a54cc123490eb96d2768479d49ff9c7366125a9424364823392a26040519283523392a36001601255005b61266061263082601b541515601854906126db57612ef3565b336000526017845261264783604060002054612ef3565b3360005260178552806040600020558160185533612f00565b60025460405163a9059cbb60e01b81523360048201526024810183905292908190849060449082906000906001600160a01b03165af1908115610609576000936000805160206148eb833981519152926126be575b509250506125ca565b6126d490823d8411610602576105f48183612d14565b50846126b5565b6126e58133613c0a565b612ef3565b60403660031901126102e4576126fe612dad565b602480359161270b613656565b60018060a01b038091169283600052602091838352806001604060002001541633036129bc57601854906040519061274282612cf9565b604082019160608101916000835260808201926000845260a08301926000845260008960c08301928284528281520152601b54865260005b6008811061289b575b5050505050505050604051906323b872dd60e01b8252336004830152308483015280604483015282826064816000895af19182156106095762093a80926127d1916000916128845750613bcc565b60008581528484526040902060020154428111612846575084600052838352046003604060002001555b826000528181524260046040600020015562093a8042019283421161283157600052526002604060002001556001601255600080f35b82634e487b7160e01b60005260116004526000fd5b90610a5d61285861286e934290612ef3565b8760005286865260036040600020015490612eb3565b04836000528282526003604060002001556127fb565b6105fc9150853d8711610602576105f48183612d14565b865181146129b7578381601c0154168084526000528a8a52600580604060002001548752848451166000528b8b526002604060002001548042106000146129ae57506128fe425b808852868651166000528d8d5260046040600020015490612ef3565b808452612915575b5061291090613127565b61277a565b8551858551166000528c8c5260046040600020015588156129065761294b83518686511660005260036040600020015490612eb3565b670de0b6b3a764000090818102918183041490151715612999579061297e6129778b6129109594612ec6565b8951612ee6565b90818952868651166000528d8d526040600020015590612906565b8c634e487b7160e01b60005260116004526000fd5b6128fe906128e2565b612783565b60405162461bcd60e51b8152600481018490526018818601527f4e6f207065726d697373696f6e20746f206578656375746500000000000000006044820152606490fd5b346102e45760803660031901126102e4576064356001600160401b0381116102e457612a336103f0913690600401612d50565b612a3b613656565b33906044356024356004356136ac565b346102e45760203660031901126102e457612a64612dad565b33600090815260266020526040902080546001600160a01b0319166001600160a01b03909216919091179055005b346102e45760603660031901126102e45761139b612aae612dad565b612ab6612dc3565b60443591612ac2613656565b6001600160a01b03811660008181526019602090815260408083203384529091529020548460018201612af8575b5050506139eb565b612b0191612ef3565b906000526019602052604060002033600052602052604060002055848084612af0565b346102e45760403660031901126102e45761131b612b40612dad565b6024359033613aca565b346102e45760203660031901126102e4576004358015158091036102e457612b70612e5b565b6001805460ff60a01b191660a09290921b60ff60a01b16919091179055005b346102e45760003660031901126102e4576003546040516001600160a01b039091168152602090f35b346102e45760003660031901126102e4576040516000601354612bda81612dd9565b808452906001908181169081156117e45750600114612c03576117978461178381860382612d14565b6013600090815292507f66de8ffda797e3de9c05e8fc57b3bf0ec28a930d40b0d285d93c06501cf6a0905b828410612c4657505050810160200161178382611773565b80546020858701810191909152909301928101612c2e565b346102e45760a03660031901126102e4576064356001600160401b0381116102e457612c916103f0913690600401612d50565b612c99612d97565b90612ca2613656565b6044356024356004356136ac565b604081019081106001600160401b03821117610eef57604052565b606081019081106001600160401b03821117610eef57604052565b6001600160401b038111610eef57604052565b60e081019081106001600160401b03821117610eef57604052565b90601f801991011681019081106001600160401b03821117610eef57604052565b6001600160401b038111610eef57601f01601f191660200190565b81601f820112156102e457803590612d6782612d35565b92612d756040519485612d14565b828452602083830101116102e457816000926020809301838601378301015290565b608435906001600160a01b03821682036102e457565b600435906001600160a01b03821682036102e457565b602435906001600160a01b03821682036102e457565b90600182811c92168015612e09575b6020831014612df357565b634e487b7160e01b600052602260045260246000fd5b91607f1691612de8565b60005b838110612e265750506000910152565b8181015183820152602001612e16565b90602091612e4f81518092818552858086019101612e13565b601f01601f1916010190565b6000546001600160a01b03163303612e6f57565b606460405162461bcd60e51b815260206004820152602060248201527f4f776e61626c653a2063616c6c6572206973206e6f7420746865206f776e65726044820152fd5b8181029291811591840414171561072257565b8115612ed0570490565b634e487b7160e01b600052601260045260246000fd5b9190820180921161072257565b9190820391821161072257565b60065460408051633037408d60e01b81526001600160a01b0384811660048301524260248301529283169695929493909260209283856044818c5afa9485156130eb576000956130f6575b508360249697989982519788809263d2dcd93360e01b82524260048301525afa9586156130eb576000966130b9575b506028870287810460281488151715610722576064900486151580613097575b613028575b7f47211fe8b1eecabef1c013b28eb9caa892fd6bf2d3f1f5111d08cc115de841659860e0989796959493929180891015613022575087935b16968760005260088552612ffb82600020548584600020556126e586600954612ee6565b948560095582519889528801528601526060850152608084015260a083015260c0820152a1565b93612fd7565b969594939291906130398583612eb3565b98603c8a0299808b04603c14901517156107225761308760e09960646130808a7f47211fe8b1eecabef1c013b28eb9caa892fd6bf2d3f1f5111d08cc115de841659e612ec6565b0490612ee6565b9192939495969798509850612f9f565b5060008052600b85528160002054621275008101809111610722574211612f9a565b90958482813d83116130e4575b6130d08183612d14565b810103126130e15750519438612f7a565b80fd5b503d6130c6565b50513d6000823e3d90fd5b9894848a813d8311613120575b61310d8183612d14565b810103126130e157509751939783612f4b565b503d613103565b60001981146107225760010190565b60405160009160c082016001600160401b03811183821017613623576040528260208301528260408301528260608301528260808301528260a0830152600a548083528352600b6020526040832054602083015281518352600c6020526040832054604083015260105480606084015260808301526007548060a084015260208301511115613546575b6005546001600160a01b0316803b156135425783809160246040518094819363b93cd39d60e01b83523060048401525af1801561353757613508575b5060ff60015460a01c166134fd575b60208201518042116132ce575b508151600181018091116132ba579081604092845280600a558452600b60205242828520558183015183518552600c6020528285205560018060a01b0316918284526008602052670de0b6b3a76400006132858386205461066185850151600d6020528689205490612ef3565b04838552600f60205261329c838620918254612ee6565b90550151908252600d6020526040822055600e602052604042912055565b634e487b7160e01b84526011600452602484fd5b60095462093a8082018083116107225762093a80900462093a8081029080820462093a80149015171561072257428110156134f6575b6005546001600160a01b031692869291905b6101f48410613329575b50505050613218565b6133338183612ef3565b9062093a808104918262093a8081020462093a801483151715610722576040516319ab092360e11b815230600482015262093a809390930260248401526020836044818a5afa9283156134eb579189918694938c946134b0575b50846133e1575b50505050504281146133db578062093a8081018111610722574262093a80820110156133d15762093a806133ca91015b93613127565b9290613316565b506133ca426133c4565b80613320565b60a0830151868382101591826134a6575b50501561347d57506134558361343f84604061343789613432613432986106616134276134639d61346d9f9d60600151612eb3565b9160a0880151612ef3565b612ec6565b910151612ee6565b60408d015260808c015160608d01819052612eb3565b61066160a08c015187612ef3565b6040880151612ee6565b60408701525b8138878180613394565b613432915061349761346394606061349c97950151612eb3565b612eb3565b6040870152613473565b10905086386133f2565b9250925092506020813d6020116134e3575b816134cf60209383612d14565b810103126102e4578492899151923861338d565b3d91506134c2565b6040513d8c823e3d90fd5b5042613304565b82606083015261320b565b6001600160401b0381949294116135235760405291386131fc565b634e487b7160e01b82526041600452602482fd5b6040513d86823e3d90fd5b8380fd5b6004805460405163277dbafb60e01b81526001600160a01b0392909160209183918290899087165af1908115611e025785916135ec575b5060049160209160075582541660405192838092631627391760e11b82525afa9081156135375784916135ba575b508060808401526010556131c0565b90506020813d6020116135e4575b816135d560209383612d14565b810103126135425751386135ab565b3d91506135c8565b90506020813d60201161361b575b8161360760209383612d14565b810103126136175751600461357d565b8480fd5b3d91506135fa565b634e487b7160e01b84526041600452602484fd5b908160209103126102e457516001600160a01b03811681036102e45790565b600260125414613667576002601255565b60405162461bcd60e51b815260206004820152601f60248201527f5265656e7472616e637947756172643a207265656e7472616e742063616c6c006044820152606490fd5b939192906000936136bc84613136565b85613713575b50505060206000805160206148eb8339815191529160018060a01b031693847fe1fffcc4923d04b559f4d29a8bfc6cda04eb5b0d3c460751c2402c5c5cc9109c83604051848152a2604051908152a3565b61376661372c87601b541515601854906139c457612ee6565b6001600160a01b0386168088526017602052604088205461374e908a90612ee6565b90885260176020528060408920558160185586612f00565b60165460025460405192916001600160a01b03908116911661378784612cb0565b83528760208401526040519261379c84612ccb565b8352836020840152816040840152604051946137b786612cb0565b30865288602087015260018060a01b038451511692604051956370a0823160e01b8752306004880152602087602481885afa9687156134eb57908a949392918598613983575b5015908161397a575b5080613971575b156138e957505084516020808701516040516323b872dd60e01b81523360048201526001600160a01b0390931660248401526044830152926064919083905af13d15601f3d11600188511416171615611e0d5760206024915b51516040516370a0823160e01b815230600482015292839182906001600160a01b03165afa908115611e025785916138b6575b506020916138a691612ef3565b91015103611dbb573880806136c2565b90506020813d6020116138e1575b816138d160209383612d14565b810103126102e457516020613899565b3d91506138c4565b91508092503b1561396d5760405163187945bd60e11b8152835180516001600160a01b0316600483015260200151602482015291879183919082908490829061393190611e8d565b03925af180156139625761394b575b506020602491613866565b6024919561395a602092612ce6565b959150613940565b6040513d88823e3d90fd5b8680fd5b5080511561380d565b90501538613806565b919293945096506020813d6020116139bc575b816139a360209383612d14565b810103126139b85790899392915196386137fd565b8980fd5b3d9150613996565b6139ce8189613c0a565b612ee6565b908160209103126102e4575180151581036102e45790565b919060206000805160206148eb83398151915291613a0885613136565b613a1181613136565b83613a2e575b6040519384526001600160a01b03908116941692a3565b613aa7601854601b54151580613abb575b60018060a01b0380891691613a798460009480865260178a52613a668c6040882054612ef3565b90865260178a528060408720558c612f00565b613aac575b8416808252601786526040613a968982852054612ee6565b928392815260178852205583612f00565b613a17565b613ab68386614374565b613a7e565b613ac58289614374565b613a3f565b6001600160a01b03908116918215613b7b5716918215613b2b5760207f8c5be1e5ebec7d5bd14f71427d1e84f3dd0314c0f7b2291e5b200ac8c7c3b925918360005260198252604060002085600052825280604060002055604051908152a3565b60405162461bcd60e51b815260206004820152602260248201527f45524332303a20617070726f766520746f20746865207a65726f206164647265604482015261737360f01b6064820152608490fd5b60405162461bcd60e51b8152602060048201526024808201527f45524332303a20617070726f76652066726f6d20746865207a65726f206164646044820152637265737360e01b6064820152608490fd5b15613bd357565b60405162461bcd60e51b815260206004820152600f60248201526e151c985b9cd9995c8819985a5b1959608a1b6044820152606490fd5b60405190613c1782612cf9565b600060408301526000606083015260006080830152600060a0830152600060c0830152600082526000602083015260018060a01b038116613f18575b601b54604083015260005b60088110613c6d575b50505050565b60408301518114613f1357601c8101546001600160a01b039081166060850181815260009182526024602081815260408085206005015460808a015292519094168352909252206002015442811115613f0a5750613cf3425b60a0850181905260608501516001600160a01b031660009081526024602052604090206004015490612ef3565b8060c0850152613e52575b613d15906001600160a01b038316613d1a57613127565b613c5e565b60608401516001600160a01b0390811660009081526025602081815260408084209488168452939052918120546080870151808210613dfd575b5050905060018060a01b038416600052601a9081602052604060002060018060a01b03606088015116600052602052604060002054613d96828260801c612ee6565b9182613da6575b50505050613127565b613db1575b80613d9d565b6001600160801b03613dc79260801b9116612ee6565b9060018060a01b038516600052602052604060002060018060a01b03606087015116600052602052604060002055388080613dab565b613e499250670de0b6b3a76400009360018060a01b0360608a015116600052602052604060002060018060a01b0388166000526020526040600020556106618751916080890151612ef3565b04803880613d54565b60a083015160608401516001600160a01b03166000908152602460205260409020600401558315613cfe5760c083015160608401516001600160a01b031660009081526040902060030154613ea691612eb3565b90670de0b6b3a764000091808381020483148115171561072257613ed286613d1594613edc9302612ec6565b6080860151612ee6565b6080850181905260608501516001600160a01b03166000908152602460205260409020600501559050613cfe565b613cf390613cc6565b613c67565b6001600160a01b0381166000908152601760205260409020548252613c53565b91604051613f4581612cf9565b600060408201526000606082015260006080820152600060a0820152600060c0820152600081526000602082015260018060a01b038416614308575b601b54604082015260005b60088110613f9c575b5050505050565b6040820151811461430357601c8101546001600160a01b03908116606084018181526000918252602460208181526040808520600501546080890152925190941683529092522060020154428111156142fa57506140214260a0840181905260608401516001600160a01b031660009081526024602052604090206004015490612ef3565b8060c0840152614253575b6001600160a01b038516614049575b61404490613127565b613f8c565b60018060a01b0360608301511660005260259081602052604060002060018060a01b0387166000526020526040600020546000926080850151908183106141fd575b50505060018060a01b038616600052601a80602052604060002060018060a01b03606086015116600052602052604060002054926140cc818560801c612ee6565b93846140dd575b505050905061403b565b6001600160801b03169086156141a75750926020916140ff8261416096612ee6565b6001600160a01b038a81166000908152928552604080842060608a0180518416865290875281852093909355915188860151925163a9059cbb60e01b8152928216600484015260248301949094529095869390911691839182906044820190565b03925af19182156106095761404492614180916000916141885750613bcc565b3880806140d3565b6141a1915060203d602011610602576105f48183612d14565b386105cd565b9061404494916141ba575b505050614180565b6141c79160801b90612ee6565b9060018060a01b038816600052602052604060002060018060a01b036060860151166000526020526040600020553880806141b2565b60608601516001600160a01b03908116600090815260209283526040808220928c1682529190925290205583516080850151929350670de0b6b3a7640000926142499261066191612ef3565b049038808061408b565b60a082015160608301516001600160a01b0316600090815260246020526040902060040155831561402c5760c082015160608301516001600160a01b0316600090815260409020600301546142a791612eb3565b670de0b6b3a7640000818181020481148215171561072257856106ec916142ce9302612ec6565b6080830181905260608301516001600160a01b031660009081526024602052604090206005015561402c565b61402190610450565b613f95565b6001600160a01b0384166000908152601760205260409020548152818061436c575b15613f815760018060a01b038416600052602660205260018060a01b0360406000205416806020830152613f81576001600160a01b0384166020820152613f81565b50600161432a565b6040519061438182612cf9565b600060408301526000606083015260006080830152600060a0830152600060c0830152600082526000602083015260018060a01b038116614539575b601b54604083015260005b600881106143d65750505050565b60408301518114613f1357601c8101546001600160a01b039081166060850181815260009182526024602081815260408085206005015460808a015292519094168352909252206002015442811115614530575061445b4260a0850181905260608501516001600160a01b031660009081526024602052604090206004015490612ef3565b8060c0850152614482575b61447d906001600160a01b038316613d1a57613127565b6143c8565b60a083015160608401516001600160a01b031660009081526024602052604090206004015583156144665760c083015160608401516001600160a01b0316600090815260409020600301546144d691612eb3565b90670de0b6b3a764000091808381020483148115171561072257613ed28661447d946145029302612ec6565b6080850181905260608501516001600160a01b03166000908152602460205260409020600501559050614466565b61445b90613cc6565b6001600160a01b03811660009081526017602052604090205482526143bd565b9060405161456681612cf9565b600060408201526000606082015260006080820152600060a0820152600060c0820152600081526000602082015260018060a01b03831661489f575b601b54604082015260005b600881106145bb5750505050565b60408201518114613f1357601c8101546001600160a01b039081166060840181815260009182526024602081815260408085206005015460808901529251909416835290925220600201544281111561489657506146404260a0840181905260608401516001600160a01b031660009081526024602052604090206004015490612ef3565b8060c08401526147ef575b6001600160a01b038416614668575b61466390613127565b6145ad565b60018060a01b0360608301511660005260259081602052604060002060018060a01b038616600052602052604060002054600092608085015190818310614799575b50505060018060a01b038516600052601a602052604060002060018060a01b036060850151166000526020526146e9604060002054928360801c612ee6565b91826146f8575b50905061465a565b82614711614773946001600160801b0360209416612ee6565b6001600160a01b038881166000908152601a8552604080822060608a0180518516845290875281832094909455925188860151935163a9059cbb60e01b8152938316600485015260248401949094529195869390911691839182906044820190565b03925af19182156106095761466392614793916000916141885750613bcc565b386146f0565b60608601516001600160a01b03908116600090815260209283526040808220928b1682529190925290205583516080850151929350670de0b6b3a7640000926147e59261066191612ef3565b04903880806146aa565b60a082015160608301516001600160a01b0316600090815260246020526040902060040155821561464b5760c082015160608301516001600160a01b03166000908152604090206003015461484391612eb3565b670de0b6b3a7640000818181020481148215171561072257846106ec9161486a9302612ec6565b6080830181905260608301516001600160a01b031660009081526024602052604090206005015561464b565b61464090610450565b6001600160a01b03838116600081815260176020908152604080832054865292825260268152919020549091169082018190526145a2576001600160a01b03831660208201526145a256feddf252ad1be2c89b69c2b068fc378daa952ba7f163c4a11628f55a4df523b3efce6d7b5282bd9a3661ae061feed1dbda4e52ab073b1f9285be6e155d9c38d4eca26469706673582212200178fa69e7f41f99f8d02927dc394128345ba45a165be1c8b634d59eafdd26cf64736f6c63430008110033",
  "linkReferences": {},
  "deployedLinkReferences": {}
}