{
  "_format": "hh-sol-artifact-1",
  "contractName": "PoolGomboc",
  "sourceName": "contracts/gombocs/PoolGomboc.sol",
  "abi": [
    {
      "anonymous": false,
      "inputs": [
        {
          "indexed": true,
          "internalType": "address",
          "name": "_owner",
          "type": "address"
        },
        {
          "indexed": true,
          "internalType": "address",
          "name": "_spender",
          "type": "address"
        },
        {
          "indexed": false,
          "internalType": "uint256",
          "name": "_value",
          "type": "uint256"
        }
      ],
      "name": "Approval",
      "type": "event"
    },
    {
      "anonymous": false,
      "inputs": [
        {
          "indexed": true,
          "internalType": "address",
          "name": "provider",
          "type": "address"
        },
        {
          "indexed": false,
          "internalType": "uint256",
          "name": "value",
          "type": "uint256"
        }
      ],
      "name": "Deposit",
      "type": "event"
    },
    {
      "anonymous": false,
      "inputs": [
        {
          "indexed": false,
          "internalType": "uint8",
          "name": "version",
          "type": "uint8"
        }
      ],
      "name": "Initialized",
      "type": "event"
    },
    {
      "anonymous": false,
      "inputs": [
        {
          "indexed": true,
          "internalType": "address",
          "name": "previousOwner",
          "type": "address"
        },
        {
          "indexed": true,
          "internalType": "address",
          "name": "newOwner",
          "type": "address"
        }
      ],
      "name": "OwnershipTransferStarted",
      "type": "event"
    },
    {
      "anonymous": false,
      "inputs": [
        {
          "indexed": true,
          "internalType": "address",
          "name": "previousOwner",
          "type": "address"
        },
        {
          "indexed": true,
          "internalType": "address",
          "name": "newOwner",
          "type": "address"
        }
      ],
      "name": "OwnershipTransferred",
      "type": "event"
    },
    {
      "anonymous": false,
      "inputs": [
        {
          "indexed": true,
          "internalType": "address",
          "name": "_from",
          "type": "address"
        },
        {
          "indexed": true,
          "internalType": "address",
          "name": "_to",
          "type": "address"
        },
        {
          "indexed": false,
          "internalType": "uint256",
          "name": "_value",
          "type": "uint256"
        }
      ],
      "name": "Transfer",
      "type": "event"
    },
    {
      "anonymous": false,
      "inputs": [
        {
          "indexed": false,
          "internalType": "address",
          "name": "user",
          "type": "address"
        },
        {
          "indexed": false,
          "internalType": "uint256",
          "name": "originalBalance",
          "type": "uint256"
        },
        {
          "indexed": false,
          "internalType": "uint256",
          "name": "originalSupply",
          "type": "uint256"
        },
        {
          "indexed": false,
          "internalType": "uint256",
          "name": "workingBalance",
          "type": "uint256"
        },
        {
          "indexed": false,
          "internalType": "uint256",
          "name": "workingSupply",
          "type": "uint256"
        },
        {
          "indexed": false,
          "internalType": "uint256",
          "name": "votingBalance",
          "type": "uint256"
        },
        {
          "indexed": false,
          "internalType": "uint256",
          "name": "votingTotal",
          "type": "uint256"
        }
      ],
      "name": "UpdateLiquidityLimit",
      "type": "event"
    },
    {
      "anonymous": false,
      "inputs": [
        {
          "indexed": true,
          "internalType": "address",
          "name": "provider",
          "type": "address"
        },
        {
          "indexed": false,
          "internalType": "uint256",
          "name": "value",
          "type": "uint256"
        }
      ],
      "name": "Withdraw",
      "type": "event"
    },
    {
      "inputs": [],
      "name": "acceptOwnership",
      "outputs": [],
      "stateMutability": "nonpayable",
      "type": "function"
    },
    {
      "inputs": [
        {
          "internalType": "address",
          "name": "_rewardToken",
          "type": "address"
        },
        {
          "internalType": "address",
          "name": "_distributor",
          "type": "address"
        }
      ],
      "name": "addReward",
      "outputs": [],
      "stateMutability": "nonpayable",
      "type": "function"
    },
    {
      "inputs": [
        {
          "internalType": "address",
          "name": "",
          "type": "address"
        },
        {
          "internalType": "address",
          "name": "",
          "type": "address"
        }
      ],
      "name": "allowance",
      "outputs": [
        {
          "internalType": "uint256",
          "name": "",
          "type": "uint256"
        }
      ],
      "stateMutability": "view",
      "type": "function"
    },
    {
      "inputs": [
        {
          "internalType": "address",
          "name": "_spender",
          "type": "address"
        },
        {
          "internalType": "uint256",
          "name": "_value",
          "type": "uint256"
        }
      ],
      "name": "approve",
      "outputs": [
        {
          "internalType": "bool",
          "name": "",
          "type": "bool"
        }
      ],
      "stateMutability": "nonpayable",
      "type": "function"
    },
    {
      "inputs": [
        {
          "internalType": "address",
          "name": "",
          "type": "address"
        }
      ],
      "name": "balanceOf",
      "outputs": [
        {
          "internalType": "uint256",
          "name": "",
          "type": "uint256"
        }
      ],
      "stateMutability": "view",
      "type": "function"
    },
    {
      "inputs": [
        {
          "internalType": "address",
          "name": "",
          "type": "address"
        },
        {
          "internalType": "address",
          "name": "",
          "type": "address"
        }
      ],
      "name": "claimData",
      "outputs": [
        {
          "internalType": "uint256",
          "name": "",
          "type": "uint256"
        }
      ],
      "stateMutability": "view",
      "type": "function"
    },
    {
      "inputs": [],
      "name": "claimRewards",
      "outputs": [],
      "stateMutability": "nonpayable",
      "type": "function"
    },
    {
      "inputs": [
        {
          "internalType": "address",
          "name": "_addr",
          "type": "address"
        }
      ],
      "name": "claimRewards",
      "outputs": [],
      "stateMutability": "nonpayable",
      "type": "function"
    },
    {
      "inputs": [
        {
          "internalType": "address",
          "name": "_addr",
          "type": "address"
        },
        {
          "internalType": "address",
          "name": "_receiver",
          "type": "address"
        }
      ],
      "name": "claimRewards",
      "outputs": [],
      "stateMutability": "nonpayable",
      "type": "function"
    },
    {
      "inputs": [
        {
          "internalType": "address",
          "name": "_user",
          "type": "address"
        },
        {
          "internalType": "address",
          "name": "_reward_token",
          "type": "address"
        }
      ],
      "name": "claimableReward",
      "outputs": [
        {
          "internalType": "uint256",
          "name": "",
          "type": "uint256"
        }
      ],
      "stateMutability": "view",
      "type": "function"
    },
    {
      "inputs": [
        {
          "internalType": "address",
          "name": "_addr",
          "type": "address"
        }
      ],
      "name": "claimableTokens",
      "outputs": [
        {
          "internalType": "uint256",
          "name": "",
          "type": "uint256"
        }
      ],
      "stateMutability": "view",
      "type": "function"
    },
    {
      "inputs": [
        {
          "internalType": "address",
          "name": "_addr",
          "type": "address"
        },
        {
          "internalType": "address",
          "name": "_token",
          "type": "address"
        }
      ],
      "name": "claimedReward",
      "outputs": [
        {
          "internalType": "uint256",
          "name": "",
          "type": "uint256"
        }
      ],
      "stateMutability": "view",
      "type": "function"
    },
    {
      "inputs": [],
      "name": "controller",
      "outputs": [
        {
          "internalType": "contract IGombocController",
          "name": "",
          "type": "address"
        }
      ],
      "stateMutability": "view",
      "type": "function"
    },
    {
      "inputs": [],
      "name": "decimals",
      "outputs": [
        {
          "internalType": "uint256",
          "name": "",
          "type": "uint256"
        }
      ],
      "stateMutability": "view",
      "type": "function"
    },
    {
      "inputs": [
        {
          "internalType": "address",
          "name": "_spender",
          "type": "address"
        },
        {
          "internalType": "uint256",
          "name": "_subtractedValue",
          "type": "uint256"
        }
      ],
      "name": "decreaseAllowance",
      "outputs": [
        {
          "internalType": "bool",
          "name": "",
          "type": "bool"
        }
      ],
      "stateMutability": "nonpayable",
      "type": "function"
    },
    {
      "inputs": [
        {
          "internalType": "uint256",
          "name": "_value",
          "type": "uint256"
        },
        {
          "internalType": "address",
          "name": "_addr",
          "type": "address"
        }
      ],
      "name": "deposit",
      "outputs": [],
      "stateMutability": "nonpayable",
      "type": "function"
    },
    {
      "inputs": [
        {
          "internalType": "uint256",
          "name": "_value",
          "type": "uint256"
        },
        {
          "internalType": "address",
          "name": "_addr",
          "type": "address"
        },
        {
          "internalType": "bool",
          "name": "_claimRewards_",
          "type": "bool"
        }
      ],
      "name": "deposit",
      "outputs": [],
      "stateMutability": "nonpayable",
      "type": "function"
    },
    {
      "inputs": [
        {
          "internalType": "uint256",
          "name": "_value",
          "type": "uint256"
        }
      ],
      "name": "deposit",
      "outputs": [],
      "stateMutability": "nonpayable",
      "type": "function"
    },
    {
      "inputs": [
        {
          "internalType": "address",
          "name": "_rewardToken",
          "type": "address"
        },
        {
          "internalType": "uint256",
          "name": "_amount",
          "type": "uint256"
        }
      ],
      "name": "depositRewardToken",
      "outputs": [],
      "stateMutability": "payable",
      "type": "function"
    },
    {
      "inputs": [],
      "name": "futureEpochTime",
      "outputs": [
        {
          "internalType": "uint256",
          "name": "",
          "type": "uint256"
        }
      ],
      "stateMutability": "view",
      "type": "function"
    },
    {
      "inputs": [
        {
          "internalType": "address",
          "name": "_spender",
          "type": "address"
        },
        {
          "internalType": "uint256",
          "name": "_addedValue",
          "type": "uint256"
        }
      ],
      "name": "increaseAllowance",
      "outputs": [
        {
          "internalType": "bool",
          "name": "",
          "type": "bool"
        }
      ],
      "stateMutability": "nonpayable",
      "type": "function"
    },
    {
      "inputs": [],
      "name": "inflationRate",
      "outputs": [
        {
          "internalType": "uint256",
          "name": "",
          "type": "uint256"
        }
      ],
      "stateMutability": "view",
      "type": "function"
    },
    {
      "inputs": [
        {
          "internalType": "address",
          "name": "_lpAddr",
          "type": "address"
        },
        {
          "internalType": "address",
          "name": "_minter",
          "type": "address"
        },
        {
          "internalType": "address",
          "name": "_permit2Address",
          "type": "address"
        }
      ],
      "name": "initialize",
      "outputs": [],
      "stateMutability": "nonpayable",
      "type": "function"
    },
    {
      "inputs": [],
      "name": "integrateCheckpoint",
      "outputs": [
        {
          "internalType": "uint256",
          "name": "",
          "type": "uint256"
        }
      ],
      "stateMutability": "view",
      "type": "function"
    },
    {
      "inputs": [
        {
          "internalType": "address",
          "name": "",
          "type": "address"
        }
      ],
      "name": "integrateCheckpointOf",
      "outputs": [
        {
          "internalType": "uint256",
          "name": "",
          "type": "uint256"
        }
      ],
      "stateMutability": "view",
      "type": "function"
    },
    {
      "inputs": [
        {
          "internalType": "address",
          "name": "",
          "type": "address"
        }
      ],
      "name": "integrateFraction",
      "outputs": [
        {
          "internalType": "uint256",
          "name": "",
          "type": "uint256"
        }
      ],
      "stateMutability": "view",
      "type": "function"
    },
    {
      "inputs": [
        {
          "internalType": "address",
          "name": "",
          "type": "address"
        }
      ],
      "name": "integrateInvSupplyOf",
      "outputs": [
        {
          "internalType": "uint256",
          "name": "",
          "type": "uint256"
        }
      ],
      "stateMutability": "view",
      "type": "function"
    },
    {
      "inputs": [],
      "name": "isKilled",
      "outputs": [
        {
          "internalType": "bool",
          "name": "",
          "type": "bool"
        }
      ],
      "stateMutability": "view",
      "type": "function"
    },
    {
      "inputs": [
        {
          "internalType": "address",
          "name": "_addr",
          "type": "address"
        }
      ],
      "name": "kick",
      "outputs": [],
      "stateMutability": "nonpayable",
      "type": "function"
    },
    {
      "inputs": [
        {
          "internalType": "address",
          "name": "addr",
          "type": "address"
        }
      ],
      "name": "lpBalanceOf",
      "outputs": [
        {
          "internalType": "uint256",
          "name": "",
          "type": "uint256"
        }
      ],
      "stateMutability": "view",
      "type": "function"
    },
    {
      "inputs": [],
      "name": "lpToken",
      "outputs": [
        {
          "internalType": "address",
          "name": "",
          "type": "address"
        }
      ],
      "stateMutability": "view",
      "type": "function"
    },
    {
      "inputs": [],
      "name": "lpTotalSupply",
      "outputs": [
        {
          "internalType": "uint256",
          "name": "",
          "type": "uint256"
        }
      ],
      "stateMutability": "view",
      "type": "function"
    },
    {
      "inputs": [],
      "name": "ltToken",
      "outputs": [
        {
          "internalType": "contract ILT",
          "name": "",
          "type": "address"
        }
      ],
      "stateMutability": "view",
      "type": "function"
    },
    {
      "inputs": [],
      "name": "minter",
      "outputs": [
        {
          "internalType": "contract IMinter",
          "name": "",
          "type": "address"
        }
      ],
      "stateMutability": "view",
      "type": "function"
    },
    {
      "inputs": [],
      "name": "name",
      "outputs": [
        {
          "internalType": "string",
          "name": "",
          "type": "string"
        }
      ],
      "stateMutability": "view",
      "type": "function"
    },
    {
      "inputs": [],
      "name": "owner",
      "outputs": [
        {
          "internalType": "address",
          "name": "",
          "type": "address"
        }
      ],
      "stateMutability": "view",
      "type": "function"
    },
    {
      "inputs": [],
      "name": "pendingOwner",
      "outputs": [
        {
          "internalType": "address",
          "name": "",
          "type": "address"
        }
      ],
      "stateMutability": "view",
      "type": "function"
    },
    {
      "inputs": [],
      "name": "period",
      "outputs": [
        {
          "internalType": "uint256",
          "name": "",
          "type": "uint256"
        }
      ],
      "stateMutability": "view",
      "type": "function"
    },
    {
      "inputs": [
        {
          "internalType": "uint256",
          "name": "",
          "type": "uint256"
        }
      ],
      "name": "periodTimestamp",
      "outputs": [
        {
          "internalType": "uint256",
          "name": "",
          "type": "uint256"
        }
      ],
      "stateMutability": "view",
      "type": "function"
    },
    {
      "inputs": [],
      "name": "permit2Address",
      "outputs": [
        {
          "internalType": "address",
          "name": "",
          "type": "address"
        }
      ],
      "stateMutability": "view",
      "type": "function"
    },
    {
      "inputs": [],
      "name": "renounceOwnership",
      "outputs": [],
      "stateMutability": "nonpayable",
      "type": "function"
    },
    {
      "inputs": [],
      "name": "rewardCount",
      "outputs": [
        {
          "internalType": "uint256",
          "name": "",
          "type": "uint256"
        }
      ],
      "stateMutability": "view",
      "type": "function"
    },
    {
      "inputs": [
        {
          "internalType": "address",
          "name": "",
          "type": "address"
        }
      ],
      "name": "rewardData",
      "outputs": [
        {
          "internalType": "address",
          "name": "token",
          "type": "address"
        },
        {
          "internalType": "address",
          "name": "distributor",
          "type": "address"
        },
        {
          "internalType": "uint256",
          "name": "periodFinish",
          "type": "uint256"
        },
        {
          "internalType": "uint256",
          "name": "rate",
          "type": "uint256"
        },
        {
          "internalType": "uint256",
          "name": "lastUpdate",
          "type": "uint256"
        },
        {
          "internalType": "uint256",
          "name": "integral",
          "type": "uint256"
        }
      ],
      "stateMutability": "view",
      "type": "function"
    },
    {
      "inputs": [
        {
          "internalType": "address",
          "name": "",
          "type": "address"
        },
        {
          "internalType": "address",
          "name": "",
          "type": "address"
        }
      ],
      "name": "rewardIntegralFor",
      "outputs": [
        {
          "internalType": "uint256",
          "name": "",
          "type": "uint256"
        }
      ],
      "stateMutability": "view",
      "type": "function"
    },
    {
      "inputs": [
        {
          "internalType": "uint256",
          "name": "",
          "type": "uint256"
        }
      ],
      "name": "rewardTokens",
      "outputs": [
        {
          "internalType": "address",
          "name": "",
          "type": "address"
        }
      ],
      "stateMutability": "view",
      "type": "function"
    },
    {
      "inputs": [
        {
          "internalType": "address",
          "name": "",
          "type": "address"
        }
      ],
      "name": "rewardsReceiver",
      "outputs": [
        {
          "internalType": "address",
          "name": "",
          "type": "address"
        }
      ],
      "stateMutability": "view",
      "type": "function"
    },
    {
      "inputs": [
        {
          "internalType": "bool",
          "name": "_isKilled",
          "type": "bool"
        }
      ],
      "name": "setKilled",
      "outputs": [],
      "stateMutability": "nonpayable",
      "type": "function"
    },
    {
      "inputs": [
        {
          "internalType": "address",
          "name": "_rewardToken",
          "type": "address"
        },
        {
          "internalType": "address",
          "name": "_distributor",
          "type": "address"
        }
      ],
      "name": "setRewardDistributor",
      "outputs": [],
      "stateMutability": "nonpayable",
      "type": "function"
    },
    {
      "inputs": [
        {
          "internalType": "address",
          "name": "_receiver",
          "type": "address"
        }
      ],
      "name": "setRewardsReceiver",
      "outputs": [],
      "stateMutability": "nonpayable",
      "type": "function"
    },
    {
      "inputs": [],
      "name": "symbol",
      "outputs": [
        {
          "internalType": "string",
          "name": "",
          "type": "string"
        }
      ],
      "stateMutability": "view",
      "type": "function"
    },
    {
      "inputs": [],
      "name": "totalSupply",
      "outputs": [
        {
          "internalType": "uint256",
          "name": "",
          "type": "uint256"
        }
      ],
      "stateMutability": "view",
      "type": "function"
    },
    {
      "inputs": [
        {
          "internalType": "address",
          "name": "_to",
          "type": "address"
        },
        {
          "internalType": "uint256",
          "name": "_value",
          "type": "uint256"
        }
      ],
      "name": "transfer",
      "outputs": [
        {
          "internalType": "bool",
          "name": "",
          "type": "bool"
        }
      ],
      "stateMutability": "nonpayable",
      "type": "function"
    },
    {
      "inputs": [
        {
          "internalType": "address",
          "name": "_from",
          "type": "address"
        },
        {
          "internalType": "address",
          "name": "_to",
          "type": "address"
        },
        {
          "internalType": "uint256",
          "name": "_value",
          "type": "uint256"
        }
      ],
      "name": "transferFrom",
      "outputs": [
        {
          "internalType": "bool",
          "name": "",
          "type": "bool"
        }
      ],
      "stateMutability": "nonpayable",
      "type": "function"
    },
    {
      "inputs": [
        {
          "internalType": "address",
          "name": "newOwner",
          "type": "address"
        }
      ],
      "name": "transferOwnership",
      "outputs": [],
      "stateMutability": "nonpayable",
      "type": "function"
    },
    {
      "inputs": [
        {
          "internalType": "address",
          "name": "_addr",
          "type": "address"
        }
      ],
      "name": "userCheckpoint",
      "outputs": [
        {
          "internalType": "bool",
          "name": "",
          "type": "bool"
        }
      ],
      "stateMutability": "nonpayable",
      "type": "function"
    },
    {
      "inputs": [],
      "name": "votingEscrow",
      "outputs": [
        {
          "internalType": "contract IVotingEscrow",
          "name": "",
          "type": "address"
        }
      ],
      "stateMutability": "view",
      "type": "function"
    },
    {
      "inputs": [
        {
          "internalType": "uint256",
          "name": "_value",
          "type": "uint256"
        }
      ],
      "name": "withdraw",
      "outputs": [],
      "stateMutability": "nonpayable",
      "type": "function"
    },
    {
      "inputs": [
        {
          "internalType": "uint256",
          "name": "_value",
          "type": "uint256"
        },
        {
          "internalType": "bool",
          "name": "_claimRewards_",
          "type": "bool"
        }
      ],
      "name": "withdraw",
      "outputs": [],
      "stateMutability": "nonpayable",
      "type": "function"
    },
    {
      "inputs": [
        {
          "internalType": "address",
          "name": "",
          "type": "address"
        }
      ],
      "name": "workingBalances",
      "outputs": [
        {
          "internalType": "uint256",
          "name": "",
          "type": "uint256"
        }
      ],
      "stateMutability": "view",
      "type": "function"
    },
    {
      "inputs": [],
      "name": "workingSupply",
      "outputs": [
        {
          "internalType": "uint256",
          "name": "",
          "type": "uint256"
        }
      ],
      "stateMutability": "view",
      "type": "function"
    }
  ],
  "bytecode": "0x60808060405234610016576147ec908161001c8239f35b600080fdfe608080604052600436101561001357600080fd5b60003560e01c90816306fdde0314612c67575080630754617214612c3d5780630959950414612c04578063095ea7b314612bde57806318160ddd14611ff157806323b872dd14612b485780632619582614612b025780632b1b9a21146127ca5780632e1a7d4d14612678578063313ce5671461265957806331e202cc1461262d57806331f9e35b1461260f57806334380a61146125b3578063372500ab1461258d57806338d074361461243657806339509351146123e357806340b47e1a146122be57806348e5d9f8146122485780634f2bfe5b14612221578063505362c4146121f557806353cc9e541461208b5780635fcbd2851461206357806363f577771461201057806366be232214611ff157806368bbad9814611fb55780636e553f6514611f8957806370a082311461178a578063715018a614611f2c5780637699b4cd14611ef25780637908542514611ed357806379ba509714611e125780637bb7bed114611ddc57806383df674714611c5257806384d2422614611ba15780638da5cb5b14611b7a5780638fe8a10114611b57578063958da8de14611b1d57806395d89b4114611a3957806396c55175146117c55780639c46665c1461178a5780639e48d35e1461176c578063a457c2d7146116c3578063a5870d6b1461169c578063a9059cbb1461165e578063b07b709b146115a0578063b1bd608614611566578063b6b55f2514611541578063c0c53b8b14610b45578063c522498314610b1d578063c8562f7214610aff578063caa0b9ed14610ac5578063d26abffa14610974578063dd62ed3e14610921578063e30c3978146108fa578063e50912ae146108a7578063ef5cfb8c14610879578063ef78d4fd1461085b578063f1e42ccd14610349578063f2fde38b146102df5763f77c4791146102b357600080fd5b346102da5760003660031901126102da5760206001600160a01b0360995416604051908152f35b600080fd5b346102da5760203660031901126102da576102f8612dd4565b610300612e00565b6001600160a01b0380911690816001600160a01b03196065541617606555603354167f38d16b8cac22d99fc7c124b9cd0de2d3fa1faef420bfe791d8c362d765e22700600080a3005b346102da5760403660031901126102da57610362612dd4565b61036a612dea565b610372613603565b6001600160a01b0381166107e0575b61010e54906040519061039382612d47565b600060408301526000606083015260006080830152600060a0830152600060c0830152600082526001600160a01b03811660208301526001600160a01b038416610776575b5061011154604082015260005b600881106103f5575b600160d655005b60408201518114610771576001600160a01b038161011201541680606084015260005261011a60205260056040600020015460808301526001600160a01b0360608301511660005261011a6020526002604060002001548042106000146107685750610488425b8060a08501526001600160a01b0360608501511660005261011a60205260046040600020015490612e98565b8060c08401526106a3575b6001600160a01b0384166104b0575b6104ab906130cc565b6103e5565b6001600160a01b0360608301511660005261011b908160205260406000206001600160a01b038616600052602052604060002054600092608085015190818310610642575b5050506001600160a01b0385166000526101108060205260406000206001600160a01b03606086015116600052602052610538604060002054938460801c612e8b565b9283610548575b505090506104a2565b92602091610562826001600160801b036105df9716612e8b565b906001600160a01b038916600052835260406000206001600160a01b0360608801511660005283526040600020556001600160a01b036060860151166001600160a01b038387015116600060405180978195829463a9059cbb60e01b845260048401602090939291936001600160a01b0360408201951681520152565b03925af1918215610636576104ab9261060091600091610607575b506139b0565b858061053f565b610629915060203d60201161062f575b6106218183612d63565b810190613659565b876105fa565b503d610617565b6040513d6000823e3d90fd5b670de0b6b3a76400009394509061069992916001600160a01b0360608801511660005260205260406000206001600160a01b0389166000526020526040600020556106938551916080870151612e98565b90612e58565b04908580806104f5565b60a08201516001600160a01b0360608401511660005261011a6020526004604060002001558215610493576106f660c08301516001600160a01b0360608501511660005260036040600020015490612e58565b670de0b6b3a76400008181810204811482151715610752578461071d916107279302612e6b565b6080840151612e8b565b8060808401526001600160a01b0360608401511660005261011a602052600560406000200155610493565b634e487b7160e01b600052601160045260246000fd5b6104889061045c565b6103ee565b6001600160a01b039081851660005261010d602052604060002054835216156107a0575b836103d8565b6001600160a01b03831660005261011c6020526001600160a01b036040600020541680602083015261079a576001600160a01b038316602082015261079a565b6001600160a01b03821633146103815760405162461bcd60e51b815260206004820152602e60248201527f43616e6e6f74207265646972656374207768656e20636c61696d696e6720666f60448201527f7220616e6f7468657220757365720000000000000000000000000000000000006064820152608490fd5b346102da5760003660031901126102da576020609e54604051908152f35b346102da5760203660031901126102da576103ee610895612dd4565b61089d613603565b61010e54906143c0565b346102da5760403660031901126102da576108c0612dd4565b6108c8612dea565b906001600160a01b03809116600052610110602052604060002091166000526020526020604060002054604051908152f35b346102da5760003660031901126102da5760206001600160a01b0360655416604051908152f35b346102da5760403660031901126102da5761093a612dd4565b610942612dea565b906001600160a01b0380911660005261010f602052604060002091166000526020526020604060002054604051908152f35b346102da5760403660031901126102da5761098d612dd4565b6001600160a01b03908161099f612dea565b16908160005261011a916020938385526005604060002001549061010e549485610a34575b50610a2c9450670de0b6b3a764000091610a09918460005261011b8852604060002095169485600052875261069360406000205461010d895260406000205492612e98565b04916000526101108452604060002090600052835260406000205460801c612e8b565b604051908152f35b610a7690600260406000200154804210600014610abc5750610a60425b60046040600020015490612e98565b9085600052885260036040600020015490612e58565b90670de0b6b3a76400009182810292818404149015171561075257610ab4670de0b6b3a764000093610aae610a2c98610a0995612e6b565b90612e8b565b9250906109c4565b610a6090610a51565b346102da5760203660031901126102da576001600160a01b03610ae6612dd4565b1660005260a36020526020604060002054604051908152f35b346102da5760003660031901126102da576020609d54604051908152f35b346102da5760003660031901126102da5760206001600160a01b0361010c5416604051908152f35b346102da5760603660031901126102da57610b5e612dd4565b610b66612dea565b60449081356001600160a01b03918282168092036102da576000549360ff8560081c161594858096611534575b801561151d575b156114b35760ff198116600117600055856114a1575b50838616156114375782156113cd5760ff60005460081c1615611375578382161561133157506097805474ffffffffffffffffffffffffffffffffffffffff001916600892831b74ffffffffffffffffffffffffffffffffffffffff00161790819055604051637e062a3560e11b815292911c8316602083600481845afa9283156106365760009361130c575b506020600491856001600160a01b031995168560985416176098556040519283809263f77c479160e01b82525afa801561063657846020916004936000916112ef575b50168085609954161760995560405192838092634f2bfe5b60e01b82525afa80156106365784916000916112c0575b501682609a541617609a5560008052609f602052426040600020558260985416604051631627391760e11b8152602081600481855afa9081156106365760009161128d575b5060009160209160a45560046040518094819363277dbafb60e01b83525af19081156106365760009161125b575b50609b5561010c908282541617905561010b9082851690825416179055604051926395d89b4160e01b84526000846004818585165afa938415610636576000946111d5575b50835167ffffffffffffffff8111610fc257610d8561010954612d0d565b601f8111611131575b506020601f82116001146110a6578190602094959660009261109b575b50508160011b916000199060031b1c191617610109555b60046040518094819363313ce56760e01b8352165afa80156106365760009061105e575b60ff91501661010a556040519081600061010954610e0381612d0d565b906001811690811561103a5750600114610fd8575b50610e3c9181662d476f6d626f6360c81b6007935203601819810185520183612d63565b815167ffffffffffffffff8111610fc25761010890610e5b8254612d0d565b601f8111610f5e575b506020601f8211600114610edc5781929394600092610ed1575b50508160011b916000199060031b1c19161790555b610e9957005b61ff0019600054166000557f7f26b83ff96e1f2b6a682f133852f6798a09c465da95921460cefb3847402498602060405160018152a1005b015190508480610e7e565b601f19821690836000527f8543e9adbfbe1f62b7411fdf032fcfea758a7d6b332f64d971a1334c2ff364dd9160005b818110610f4657509583600195969710610f2d575b505050811b019055610e93565b015160001960f88460031b161c19169055848080610f20565b9192602060018192868b015181550194019201610f0b565b826000527f8543e9adbfbe1f62b7411fdf032fcfea758a7d6b332f64d971a1334c2ff364dd601f830160051c81019160208410610fb8575b601f0160051c01905b818110610fac5750610e64565b60008155600101610f9f565b9091508190610f96565b634e487b7160e01b600052604160045260246000fd5b915050610109600052827fd7f48d1c2d4fdcceabee32a4fd1437f382c65f0f9af09a878c95c20147dc06a86000905b8382106110205750909182016020019050610e3c610e18565b602091925080600191548385890101520191018491611007565b60ff191660208581019190915282151590920284019091019150610e3c9050610e18565b506020813d602011611093575b8161107860209383612d63565b810103126102da575160ff811681036102da5760ff90610de6565b3d915061106b565b015190508680610dab565b601f198216956101096000527fd7f48d1c2d4fdcceabee32a4fd1437f382c65f0f9af09a878c95c20147dc06a89660005b818110611119575091602095969791846001959410611100575b505050811b0161010955610dc2565b015160001960f88460031b161c191690558680806110f1565b838301518955600190980197602093840193016110d7565b610109600052601f820160051c7fd7f48d1c2d4fdcceabee32a4fd1437f382c65f0f9af09a878c95c20147dc06a80190602083106111ad575b601f0160051c7fd7f48d1c2d4fdcceabee32a4fd1437f382c65f0f9af09a878c95c20147dc06a801905b8181106111a15750610d8e565b60008155600101611194565b7fd7f48d1c2d4fdcceabee32a4fd1437f382c65f0f9af09a878c95c20147dc06a8915061116a565b9093503d806000833e6111e88183612d63565b8101906020818303126102da57805167ffffffffffffffff918282116102da57019082601f830112156102da578151908111610fc25760405192611236601f8301601f191660200185612d63565b818452602082840101116102da576112549160208085019101612d85565b9284610d67565b90506020813d602011611285575b8161127660209383612d63565b810103126102da575186610d22565b3d9150611269565b90506020813d6020116112b8575b816112a860209383612d63565b810103126102da57516000610cf4565b3d915061129b565b6112e2915060203d6020116112e8575b6112da8183612d63565b8101906135e4565b87610caf565b503d6112d0565b6113069150833d85116112e8576112da8183612d63565b89610c80565b6004919350611329602091823d84116112e8576112da8183612d63565b939150610c3d565b6064907f696e76616c696420766f74696e67457363726f774164647265737300000000006040519162461bcd60e51b835260206004840152601b6024840152820152fd5b6084907f496e697469616c697a61626c653a20636f6e7472616374206973206e6f7420696040519162461bcd60e51b835260206004840152602b60248401528201526a6e697469616c697a696e6760a81b6064820152fd5b6084907f5374616b696e67486f70653a3a696e697469616c697a653a20696e76616c69646040519162461bcd60e51b835260206004840152603060248401528201527f207065726d6974322061646472657373000000000000000000000000000000006064820152fd5b6084907f5374616b696e67486f70653a3a696e697469616c697a653a20696e76616c69646040519162461bcd60e51b835260206004840152603060248401528201527f206c70546f6b656e2061646472657373000000000000000000000000000000006064820152fd5b61ffff19166101011760005586610bb0565b60405162461bcd60e51b815260206004820152602e60248201527f496e697469616c697a61626c653a20636f6e747261637420697320616c726561818401527f647920696e697469616c697a65640000000000000000000000000000000000006064820152608490fd5b50303b158015610b9a5750600160ff821614610b9a565b50600160ff821610610b93565b346102da5760203660031901126102da5761155a613603565b6103ee33600435613671565b346102da5760203660031901126102da576001600160a01b03611587612dd4565b1660005260a16020526020604060002054604051908152f35b346102da5760203660031901126102da576115b9612dd4565b6001600160a01b03908181169182331490811561164d575b5015611608576115fd916115e4826130db565b60005261010d60205260406000205461010e5491612ea5565b602060405160018152f35b60405162461bcd60e51b815260206004820152601160248201527f6465763a20756e617574686f72697a65640000000000000000000000000000006044820152606490fd5b905060975460081c163314836115d1565b346102da5760403660031901126102da5761168c61167a612dd4565b611682613603565b60243590336137cd565b600160d655602060405160018152f35b346102da5760003660031901126102da5760206001600160a01b0360985416604051908152f35b346102da5760403660031901126102da576116dc612dd4565b602435903360005261010f60205260406000206001600160a01b03821660005260205260406000205491808310611719576115fd920390336138ad565b60405162461bcd60e51b815260206004820152602560248201527f45524332303a2064656372656173656420616c6c6f77616e63652062656c6f77604482015264207a65726f60d81b6064820152608490fd5b346102da5760003660031901126102da576020609b54604051908152f35b346102da5760203660031901126102da576001600160a01b036117ab612dd4565b1660005261010d6020526020604060002054604051908152f35b346102da576020806003193601126102da576117df612dd4565b6001600160a01b038082168060005260a2845260406000205491609a54166040516381fc83bb60e01b81528260048201528581602481855afa8015610636578690600090611a0a575b60405163eac6a66760e01b81526001600160a01b0388166004820152602481019190915291508180604481015b0381855afa908115610636576000916119dd575b50600083815261010d808852604091829020549151633037408d60e01b81526001600160a01b0388166004820152426024820152909591938890829060449082905afa908115610636576000916119b0575b50159182156119a6575b5050156119615781600052609c8552604060002054906028810290808204602814901517156107525760649004101561191c579261191a93611906846130db565b6000525260406000205461010e5491612ea5565b005b60405162461bcd60e51b815260048101859052601460248201527f6465763a206b69636b206e6f74206e65656465640000000000000000000000006044820152606490fd5b60405162461bcd60e51b815260048101869052601560248201527f6465763a206b69636b206e6f7420616c6c6f77656400000000000000000000006044820152606490fd5b11905086806118c5565b90508781813d83116119d6575b6119c78183612d63565b810103126102da5751886118bb565b503d6119bd565b90508581813d8311611a03575b6119f48183612d63565b810103126102da575186611869565b503d6119ea565b5081813d8311611a32575b611a1f8183612d63565b810103126102da57856118559151611828565b503d611a15565b346102da5760003660031901126102da5760405160006101098054611a5d81612d0d565b80855291600191808316908115611af35750600114611a97575b611a9385611a8781870382612d63565b60405191829182612da8565b0390f35b600090815292507fd7f48d1c2d4fdcceabee32a4fd1437f382c65f0f9af09a878c95c20147dc06a85b828410611adb575050508101602001611a8782611a93611a77565b80546020858701810191909152909301928101611ac0565b869550611a9396935060209250611a8794915060ff191682840152151560051b8201019293611a77565b346102da5760203660031901126102da576001600160a01b03611b3e612dd4565b16600052609c6020526020604060002054604051908152f35b346102da5760003660031901126102da57602060ff609754166040519015158152f35b346102da5760003660031901126102da5760206001600160a01b0360335416604051908152f35b346102da576020806003193601126102da57611bbb612dd4565b611bc4816130db565b6001600160a01b03809116908160005260a38352826040600020549160975460081c16926044604051809581936308b752bb60e41b835260048301523060248301525afa90811561063657600091611c21575b610a2c9250612e98565b90508282813d8311611c4b575b611c388183612d63565b810103126102da57610a2c915190611c17565b503d611c2e565b346102da5760603660031901126102da57600435611c6e612dea565b60443580151581036102da57611c82613603565b611c8b826130db565b82611ce8575b5060008051602061479783398151915260206001600160a01b036000931693847fe1fffcc4923d04b559f4d29a8bfc6cda04eb5b0d3c460751c2402c5c5cc9109c83604051848152a2604051908152a3600160d655005b611d44611d078461011154151561010e94855491611dcb575b50612e8b565b6001600160a01b039281848616918260005261010d80602052611d2f89604060002054612e8b565b93600052602052826040600020555584612ea5565b61010b546040516323b872dd60e01b815233600482015230602482015260448101859052929160209184916064918391600091165af1918215610636576001600160a01b0360008051602061479783398151915292602092600095611dae575b5093505050611c91565b611dc490843d811161062f576106218183612d63565b5086611da4565b611dd6908288613d5a565b87611d01565b346102da5760203660031901126102da5760043560088110156102da576001600160a01b03602091610112015416604051908152f35b346102da5760003660031901126102da576065546001600160a01b033381831603611e7c576001600160a01b03198092166065556033549133908316176033553391167f8be0079c531659141344cd1fd0a4f28419497f9722a3daafe3b4186f6b6457e0600080a3005b60405162461bcd60e51b815260206004820152602960248201527f4f776e61626c6532537465703a2063616c6c6572206973206e6f7420746865206044820152683732bb9037bbb732b960b91b6064820152608490fd5b346102da5760003660031901126102da57602061011154604051908152f35b346102da5760203660031901126102da576001600160a01b03611f13612dd4565b1660005260a26020526020604060002054604051908152f35b346102da5760003660031901126102da57611f45612e00565b60006001600160a01b0380198060655416606555603354908116603355167f8be0079c531659141344cd1fd0a4f28419497f9722a3daafe3b4186f6b6457e08280a3005b346102da5760403660031901126102da576103ee611fa5612dea565b611fad613603565b600435613671565b346102da5760203660031901126102da5760206001600160a01b0380611fd9612dd4565b1660005261011c825260406000205416604051908152f35b346102da5760003660031901126102da57602061010e54604051908152f35b346102da5760403660031901126102da57612029612dd4565b612031612dea565b906001600160a01b0380911660005261011b602052604060002091166000526020526020604060002054604051908152f35b346102da5760003660031901126102da5760206001600160a01b0361010b5416604051908152f35b346102da5760403660031901126102da576120a4612dd4565b6120ac612dea565b906001600160a01b03809116918260005261011a91602091838352816001604060002001541680331480156121e8575b156121a55715612154571692831561210f57600052526001604060002001906001600160a01b0319825416179055600080f35b60405162461bcd60e51b815260048101839052601c60248201527f6469737472696275746f7220746865207a65726f2061646472657373000000006044820152606490fd5b60405162461bcd60e51b815260048101849052602360248201527f63757272656e744469737472696275746f7220746865207a65726f206164647260448201526265737360e81b6064820152608490fd5b6064846040519062461bcd60e51b825280600483015260248201527f4d7573742063757272656e744469737472696275746f72206f72206f776e65726044820152fd5b50826033541633146120dc565b346102da5760003660031901126102da57609e54600052609f6020526020604060002054604051908152f35b346102da5760003660031901126102da5760206001600160a01b03609a5416604051908152f35b346102da5760203660031901126102da5760c06001600160a01b038061226c612dd4565b1660005261011a602052604060002081815416916001820154169060028101546003820154906005600484015493015493604051958652602086015260408501526060840152608083015260a0820152f35b346102da5760403660031901126102da576122d7612dd4565b6122df612dea565b6122e7612e00565b61011190815492600884101561239e576001600160a01b03809116908160005261011a80602052816001604060002001541661235957826000526020526001604060002001906001600160a01b0319931683825416179055836101120191825416179055600182018092116107525755005b60405162461bcd60e51b815260206004820152600e60248201527f5265706561742073657474696e670000000000000000000000000000000000006044820152606490fd5b60405162461bcd60e51b815260206004820152601060248201527f526577617264205468726573686f6c64000000000000000000000000000000006044820152606490fd5b346102da5760403660031901126102da576115fd6123ff612dd4565b3360005261010f60205260406000206001600160a01b03821660005260205261242f602435604060002054612e8b565b90336138ad565b346102da5760403660031901126102da5760043560243580151581036102da5761245e613603565b612467336130db565b816124bd575b6000826040518181527f884edad9ce6fa2440d8a54cc123490eb96d2768479d49ff9c7366125a942436460203392a260405190815260008051602061479783398151915260203392a3600160d655005b612510906124dd8361011154151561010e9384549161257c575b50612e98565b90336000528161010d91826020526124fa86604060002054612e98565b9233600052602052826040600020555533612ea5565b61010b5460405163a9059cbb60e01b8152336004820152602481018390529190602090839060449082906000906001600160a01b03165af19182156106365760009261255e575b509061246d565b6125759060203d811161062f576106218183612d63565b5082612557565b612587908233613d5a565b866124d7565b346102da5760003660031901126102da576125a6613603565b6103ee61010e54336143c0565b346102da5760403660031901126102da576125cc612dd4565b6125d4612dea565b906001600160a01b038091166000526101106020526040600020911660005260205260206001600160801b0360406000205416604051908152f35b346102da5760003660031901126102da57602060a454604051908152f35b346102da5760203660031901126102da57600435600052609f6020526020604060002054604051908152f35b346102da5760003660031901126102da57602061010a54604051908152f35b346102da576020806003193601126102da57600435612695613603565b61269e336130db565b806126f1575b6000805160206147978339815191526000926040518381527f884edad9ce6fa2440d8a54cc123490eb96d2768479d49ff9c7366125a9424364823392a26040519283523392a3600160d655005b61273f61011154151561270e8361010e928354906127bb57612e98565b90336000528161010d9182875261272a86604060002054612e98565b92336000528752826040600020555533612ea5565b61010b5460405163a9059cbb60e01b81523360048201526024810183905292908190849060449082906000906001600160a01b03165af1908115610636576000936000805160206147978339815191529261279e575b509250506126a4565b6127b490823d841161062f576106218183612d63565b5084612795565b6127c581336139fc565b612e98565b60403660031901126102da576127de612dd4565b6024908135906127ec613603565b6001600160a01b038091168060005261011a9260209284845280600160406000200154163303612abe5761010e54906040519061282882612d47565b606082016000815260808301916000835260a08401916000835260c08501600081526000865260008a8701526101115460408701528a60005b6008811061299a575b50506040516323b872dd60e01b815233600482015230602482015260448101899052979650899550879450849350506064830191506128a69050565b03816000875af19182156106365762093a80926128ca9160009161297d57506139b0565b6000838152858552604090206002015442811161293f575082600052848452046003604060002001555b806000528282524260046040600020015562093a8042019384421161292b575060005252600260406000200155600160d655600080f35b634e487b7160e01b60009081526011600452fd5b90610aae612951612967934290612e98565b8560005287875260036040600020015490612e58565b04816000528383526003604060002001556128f4565b6129949150863d881161062f576106218183612d63565b886105fa565b60408801518114612ab9578481610112015416808552600052818c52612a028c60059384604060002001548a5287875116600052808252600260406000200154804210600014612ab3575042915b828a52888851166000525260046040600020015490612e98565b808452612a1b575b612a1491506130cc565b8b90612861565b8551858551166000528d8d526004604060002001558815612a0a57612a5183518686511660005260036040600020015490612e58565b670de0b6b3a764000090818102918183041490151715612a9e57612a14928e612a868f938d612a7f91612e6b565b8b51612e8b565b92838b52888851166000525260406000200155612a0a565b8e634e487b7160e01b60005260116004526000fd5b916129e8565b61286a565b60405162461bcd60e51b8152600481018590526018818801527f4e6f207065726d697373696f6e20746f206578656375746500000000000000006044820152606490fd5b346102da5760203660031901126102da57612b1b612dd4565b3360005261011c6020526001600160a01b03604060002091166001600160a01b0319825416179055600080f35b346102da5760603660031901126102da5761168c612b64612dd4565b612b6c612dea565b60443591612b78613603565b6001600160a01b0381168060005261010f80602052604060002033600052602052604060002054856000198203612bb3575b505050506137cd565b612bbc91612e98565b9160005260205260406000203360005260205260406000205584808085612baa565b346102da5760403660031901126102da576115fd612bfa612dd4565b60243590336138ad565b346102da5760203660031901126102da576004358015158091036102da57612c2a612e00565b60ff801960975416911617609755600080f35b346102da5760003660031901126102da5760206001600160a01b0360975460081c16604051908152f35b346102da5760003660031901126102da5760006101088054612c8881612d0d565b80855291600191808316908115611af35750600114612cb157611a9385611a8781870382612d63565b600090815292507f8543e9adbfbe1f62b7411fdf032fcfea758a7d6b332f64d971a1334c2ff364dd5b828410612cf5575050508101602001611a8782611a93611a77565b80546020858701810191909152909301928101612cda565b90600182811c92168015612d3d575b6020831014612d2757565b634e487b7160e01b600052602260045260246000fd5b91607f1691612d1c565b60e0810190811067ffffffffffffffff821117610fc257604052565b90601f8019910116810190811067ffffffffffffffff821117610fc257604052565b60005b838110612d985750506000910152565b8181015183820152602001612d88565b60409160208252612dc88151809281602086015260208686019101612d85565b601f01601f1916010190565b600435906001600160a01b03821682036102da57565b602435906001600160a01b03821682036102da57565b6001600160a01b03603354163303612e1457565b606460405162461bcd60e51b815260206004820152602060248201527f4f776e61626c653a2063616c6c6572206973206e6f7420746865206f776e65726044820152fd5b8181029291811591840414171561075257565b8115612e75570490565b634e487b7160e01b600052601260045260246000fd5b9190820180921161075257565b9190820391821161075257565b609a5460408051633037408d60e01b81526001600160a01b0384811660048301524260248301529283169695929493909260209283856044818c5afa9485156130905760009561309b575b508360249697989982519788809263d2dcd93360e01b82524260048301525afa9586156130905760009661305e575b50602887028781046028148815171561075257606490048615158061303c575b612fcd575b7f47211fe8b1eecabef1c013b28eb9caa892fd6bf2d3f1f5111d08cc115de841659860e0989796959493929180891015612fc7575087935b169687600052609c8552612fa082600020548584600020556127c586609d54612e8b565b9485609d5582519889528801528601526060850152608084015260a083015260c0820152a1565b93612f7c565b96959493929190612fde8583612e58565b98603c8a0299808b04603c14901517156107525761302c60e09960646130258a7f47211fe8b1eecabef1c013b28eb9caa892fd6bf2d3f1f5111d08cc115de841659e612e6b565b0490612e8b565b9192939495969798509850612f44565b5060008052609f85528160002054621275008101809111610752574211612f3f565b90958482813d8311613089575b6130758183612d63565b810103126130865750519438612f1f565b80fd5b503d61306b565b50513d6000823e3d90fd5b9894848a813d83116130c5575b6130b28183612d63565b8101031261308657509751939783612ef0565b503d6130a8565b60001981146107525760010190565b60405160009160c0820167ffffffffffffffff8111838210176135d0576040528260208301528260408301528260608301528260808301528260a0830152609e548083528352609f602052604083205460208301528151835260a06020526040832054604083015260a4548060608401526080830152609b548060a0840152602083015111156134ea575b6001600160a01b0360995416803b156134e65783809160246040518094819363b93cd39d60e01b83523060048401525af180156134db576134ab575b5060ff609754166134a0575b6020820151804211613272575b5081516001810180911161325e57604091816001600160a01b0392855280609e558552609f6020524283862055828401518451865260a0602052838620551691828452609c602052670de0b6b3a7640000613229838620546106938585015160a16020528689205490612e98565b0483855260a3602052613240838620918254612e8b565b9055015190825260a1602052604082205560a2602052604042912055565b634e487b7160e01b84526011600452602484fd5b609d5462093a8082018083116107525762093a80900462093a8081029080820462093a8014901517156107525742811015613499575b9085916001600160a01b0360995416935b6101f484106132cc575b505050506131bb565b6132d68183612e98565b9062093a808104918262093a8081020462093a801483151715610752576040516319ab092360e11b815230600482015262093a809390930260248401526020836044818a5afa92831561348e579189918694938c94613453575b5084613384575b505050505042811461337e578062093a8081018111610752574262093a80820110156133745762093a8061336d91015b936130cc565b92906132b9565b5061336d42613367565b806132c3565b60a083015186838210159182613449575b50501561342057506133f8836133e28460406133da896133d56133d5986106936133ca6134069d6134109f9d60600151612e58565b9160a0880151612e98565b612e6b565b910151612e8b565b60408d015260808c015160608d01819052612e58565b61069360a08c015187612e98565b6040880151612e8b565b60408701525b8138878180613337565b6133d5915061343a61340694606061343f97950151612e58565b612e58565b6040870152613416565b1090508638613395565b9250925092506020813d602011613486575b8161347260209383612d63565b810103126102da5784928991519238613330565b3d9150613465565b6040513d8c823e3d90fd5b50426132a8565b8260608301526131ae565b67ffffffffffffffff81949294116134c75760405291386131a2565b634e487b7160e01b82526041600452602482fd5b6040513d86823e3d90fd5b8380fd5b6001600160a01b03836020826098541660046040518094819363277dbafb60e01b83525af19081156135c557859161358e575b50609b55609854604051631627391760e11b81529160209183916004918391165afa9081156134db57849161355c575b5080608084015260a455613166565b90506020813d602011613586575b8161357760209383612d63565b810103126134e657513861354d565b3d915061356a565b90506020813d6020116135bd575b816135a960209383612d63565b810103126135b95751600461351d565b8480fd5b3d915061359c565b6040513d87823e3d90fd5b634e487b7160e01b84526041600452602484fd5b908160209103126102da57516001600160a01b03811681036102da5790565b600260d6541461361457600260d655565b60405162461bcd60e51b815260206004820152601f60248201527f5265656e7472616e637947756172643a207265656e7472616e742063616c6c006044820152606490fd5b908160209103126102da575180151581036102da5790565b9061367b816130db565b816136d2575b60008051602061479783398151915260206001600160a01b036000931693847fe1fffcc4923d04b559f4d29a8bfc6cda04eb5b0d3c460751c2402c5c5cc9109c83604051848152a2604051908152a3565b6101115415156136ec8361010e928354906137be57612e8b565b61372a6001600160a01b03918285168160009582875261010d806020526137178a60408a2054612e8b565b9388526020528260408820555585612ea5565b61010b546040516323b872dd60e01b8152336004820152306024820152604481018690529291602091849160649183918691165af19081156137b257506001600160a01b0360009360008051602061479783398151915293602093613795575b509350505050613681565b6137ab90843d811161062f576106218183612d63565b503861378a565b604051903d90823e3d90fd5b6137c881866139fc565b612e8b565b91906020600080516020614797833981519152916137ea856130db565b6137f3816130db565b83613810575b6040519384526001600160a01b03809116941692a3565b61388a61010e54858760406101115415158061389e575b6001600160a01b03906138608683861660009681885261385061010d998a8f52888a2054612e98565b918852888d528187892055612ea5565b61388f575b86169182815283885261387b8a83832054612e8b565b93849382528852205583612ea5565b6137f9565b61389985886141cf565b613865565b6138a885846141cf565b613827565b6001600160a01b0380911691821561395f571691821561390f5760207f8c5be1e5ebec7d5bd14f71427d1e84f3dd0314c0f7b2291e5b200ac8c7c3b925918360005261010f8252604060002085600052825280604060002055604051908152a3565b60405162461bcd60e51b815260206004820152602260248201527f45524332303a20617070726f766520746f20746865207a65726f206164647265604482015261737360f01b6064820152608490fd5b60405162461bcd60e51b8152602060048201526024808201527f45524332303a20617070726f76652066726f6d20746865207a65726f206164646044820152637265737360e01b6064820152608490fd5b156139b757565b60405162461bcd60e51b815260206004820152600f60248201527f5472616e73666572206661696c656400000000000000000000000000000000006044820152606490fd5b60405190613a0982612d47565b600060408301526000606083015260006080830152600060a0830152600060c083015260008252600060208301526001600160a01b038116613d3a575b61011154604083015260005b60088110613a61575b50505050565b60408301518114613d35576001600160a01b038161011201541680606085015260005261011a60205260056040600020015460808401526001600160a01b0360608401511660005261011a602052600260406000200154804210600014613d305750425b8060a08501526001600160a01b0360608501511660005261011a602052613af6600491826040600020015490612e98565b8060c0860152613c66575b50613b19906001600160a01b038316613b1e576130cc565b613a52565b6001600160a01b0360608501511660005261011b8060205260406000206001600160a01b0385166000526020526040600020546000906080870151808210613c0f575b505090506001600160a01b038416600052610110908160205260406000206001600160a01b03606088015116600052602052604060002054613ba6828260801c612e8b565b9182613bb6575b505050506130cc565b613bc1575b80613bad565b6001600160801b03613bd79260801b9116612e8b565b906001600160a01b03851660005260205260406000206001600160a01b03606087015116600052602052604060002055388080613bbb565b613c5d9250670de0b6b3a7640000936001600160a01b0360608a01511660005260205260406000206001600160a01b0388166000526020526040600020556106938751916080890151612e98565b04803880613b61565b60a08401516001600160a01b0360608601511660005261011a60205281604060002001558415613b0157613cb860c08501516001600160a01b0360608701511660005260036040600020015490612e58565b670de0b6b3a7640000918183810204831482151715613d1b5750613ce586613b199493613cef9302612e6b565b6080860151612e8b565b8060808601526001600160a01b0360608601511660005261011a60205260056040600020015590613b01565b601190634e487b7160e01b6000525260246000fd5b613ac5565b613a5b565b6001600160a01b03811660005261010d6020526040600020548252613a46565b91604051613d6781612d47565b600060408201526000606082015260006080820152600060a0820152600060c082015260008152600060208201526001600160a01b038416614160575b61011154604082015260005b60088110613dc0575b5050505050565b6040820151811461415b576001600160a01b038161011201541680606084015260005261011a60205260056040600020015460808301526001600160a01b0360608301511660005261011a6020526002604060002001548042106000146141525750613e52428060a08501526001600160a01b0360608501511660005261011a60205260046040600020015490612e98565b8060c08401526140ad575b6001600160a01b038516613e7a575b613e75906130cc565b613db0565b6001600160a01b0360608301511660005261011b908160205260406000206001600160a01b038716600052602052604060002054600092608085015190818310614052575b5050506001600160a01b0386166000526101108060205260406000206001600160a01b0360608601511660005260205260406000205492613f03818560801c612e8b565b9384613f14575b5050509050613e6c565b6001600160801b0316908615613ffa575092602091613f3682613fb396612e8b565b906001600160a01b038a16600052835260406000206001600160a01b0360608801511660005283526040600020556001600160a01b036060860151166001600160a01b038387015116600060405180978195829463a9059cbb60e01b845260048401602090939291936001600160a01b0360408201951681520152565b03925af191821561063657613e7592613fd391600091613fdb57506139b0565b388080613f0a565b613ff4915060203d60201161062f576106218183612d63565b386105fa565b90613e75949161400d575b505050613fd3565b61401a9160801b90612e8b565b906001600160a01b03881660005260205260406000206001600160a01b03606086015116600052602052604060002055388080614005565b670de0b6b3a7640000939450906140a392916001600160a01b0360608801511660005260205260406000206001600160a01b038a166000526020526040600020556106938551916080870151612e98565b0490388080613ebf565b60a08201516001600160a01b0360608401511660005261011a6020526004604060002001558315613e5d5761410060c08301516001600160a01b0360608501511660005260036040600020015490612e58565b670de0b6b3a76400008181810204811482151715610752578561071d916141279302612e6b565b8060808401526001600160a01b0360608401511660005261011a602052600560406000200155613e5d565b613e529061045c565b613db9565b6001600160a01b03841660005261010d602052604060002054815281806141c7575b15613da4576001600160a01b03841660005261011c6020526001600160a01b0360406000205416806020830152613da4576001600160a01b0384166020820152613da4565b506001614182565b604051906141dc82612d47565b600060408301526000606083015260006080830152600060a0830152600060c083015260008252600060208301526001600160a01b0381166143a0575b61011154604083015260005b600881106142335750505050565b60408301518114613d35576001600160a01b038161011201541680606085015260005261011a60205260056040600020015460808401526001600160a01b0360608401511660005261011a60205260026040600020015480421060001461439b5750425b8060a08501526001600160a01b0360608501511660005261011a6020526142c8600491826040600020015490612e98565b8060c08601526142f0575b506142eb906001600160a01b038316613b1e576130cc565b614225565b60a08401516001600160a01b0360608601511660005261011a602052816040600020015584156142d35761434260c08501516001600160a01b0360608701511660005260036040600020015490612e58565b670de0b6b3a7640000918183810204831482151715613d1b5750613ce5866142eb949361436f9302612e6b565b8060808601526001600160a01b0360608601511660005261011a602052600560406000200155906142d3565b614297565b6001600160a01b03811660005261010d6020526040600020548252614219565b906040516143cd81612d47565b600060408201526000606082015260006080820152600060a0820152600060c082015260008152600060208201526001600160a01b03831661473b575b61011154604082015260005b600881106144245750505050565b60408201518114613d35576001600160a01b038161011201541680606084015260005261011a60205260056040600020015460808301526001600160a01b0360608301511660005261011a60205260026040600020015480421060001461473257506144b6428060a08501526001600160a01b0360608501511660005261011a60205260046040600020015490612e98565b8060c084015261468d575b6001600160a01b0384166144de575b6144d9906130cc565b614416565b6001600160a01b0360608301511660005261011b908160205260406000206001600160a01b038616600052602052604060002054600092608085015190818310614632575b5050506001600160a01b03851660005261011060205260406000206001600160a01b03606085015116600052602052614565604060002054928360801c612e8b565b9182614574575b5090506144d0565b8261458d61460c946001600160801b0360209416612e8b565b6001600160a01b038816600052610110835260406000206001600160a01b0360608801511660005283526040600020556001600160a01b036060860151166001600160a01b038387015116600060405180978195829463a9059cbb60e01b845260048401602090939291936001600160a01b0360408201951681520152565b03925af1918215610636576144d99261462c91600091613fdb57506139b0565b3861456c565b670de0b6b3a76400009394509061468392916001600160a01b0360608801511660005260205260406000206001600160a01b0389166000526020526040600020556106938551916080870151612e98565b0490388080614523565b60a08201516001600160a01b0360608401511660005261011a60205260046040600020015582156144c1576146e060c08301516001600160a01b0360608501511660005260036040600020015490612e58565b670de0b6b3a76400008181810204811482151715610752578461071d916147079302612e6b565b8060808401526001600160a01b0360608401511660005261011a6020526005604060002001556144c1565b6144b69061045c565b6001600160a01b03831660005261010d60205260406000205481526001600160a01b03831660005261011c6020526001600160a01b036040600020541680602083015261440a576001600160a01b038316602082015261440a56feddf252ad1be2c89b69c2b068fc378daa952ba7f163c4a11628f55a4df523b3efa26469706673582212205864ec1d04143cf1e96b7bd13438cbc604f193e67d50796fd62e5ff8aa2a678964736f6c63430008110033",
  "linkReferences": {},
  "deployedLinkReferences": {}
}