{
  "_format": "hh-sol-artifact-1",
  "contractName": "RestrictedList",
  "sourceName": "contracts/RestrictedList.sol",
  "abi": [
    {
      "anonymous": false,
      "inputs": [
        {
          "indexed": false,
          "internalType": "address",
          "name": "_user",
          "type": "address"
        }
      ],
      "name": "AddedRestrictedList",
      "type": "event"
    },
    {
      "anonymous": false,
      "inputs": [
        {
          "indexed": true,
          "internalType": "address",
          "name": "previousOwner",
          "type": "address"
        },
        {
          "indexed": true,
          "internalType": "address",
          "name": "newOwner",
          "type": "address"
        }
      ],
      "name": "OwnershipTransferStarted",
      "type": "event"
    },
    {
      "anonymous": false,
      "inputs": [
        {
          "indexed": true,
          "internalType": "address",
          "name": "previousOwner",
          "type": "address"
        },
        {
          "indexed": true,
          "internalType": "address",
          "name": "newOwner",
          "type": "address"
        }
      ],
      "name": "OwnershipTransferred",
      "type": "event"
    },
    {
      "anonymous": false,
      "inputs": [
        {
          "indexed": false,
          "internalType": "address",
          "name": "_user",
          "type": "address"
        }
      ],
      "name": "RemovedRestrictedList",
      "type": "event"
    },
    {
      "inputs": [],
      "name": "acceptOwnership",
      "outputs": [],
      "stateMutability": "nonpayable",
      "type": "function"
    },
    {
      "inputs": [
        {
          "internalType": "address",
          "name": "_evilUser",
          "type": "address"
        }
      ],
      "name": "addRestrictedList",
      "outputs": [],
      "stateMutability": "nonpayable",
      "type": "function"
    },
    {
      "inputs": [
        {
          "internalType": "address",
          "name": "",
          "type": "address"
        }
      ],
      "name": "isRestrictedList",
      "outputs": [
        {
          "internalType": "bool",
          "name": "",
          "type": "bool"
        }
      ],
      "stateMutability": "view",
      "type": "function"
    },
    {
      "inputs": [],
      "name": "owner",
      "outputs": [
        {
          "internalType": "address",
          "name": "",
          "type": "address"
        }
      ],
      "stateMutability": "view",
      "type": "function"
    },
    {
      "inputs": [],
      "name": "pendingOwner",
      "outputs": [
        {
          "internalType": "address",
          "name": "",
          "type": "address"
        }
      ],
      "stateMutability": "view",
      "type": "function"
    },
    {
      "inputs": [
        {
          "internalType": "address",
          "name": "_clearedUser",
          "type": "address"
        }
      ],
      "name": "removeRestrictedList",
      "outputs": [],
      "stateMutability": "nonpayable",
      "type": "function"
    },
    {
      "inputs": [],
      "name": "renounceOwnership",
      "outputs": [],
      "stateMutability": "nonpayable",
      "type": "function"
    },
    {
      "inputs": [
        {
          "internalType": "address",
          "name": "newOwner",
          "type": "address"
        }
      ],
      "name": "transferOwnership",
      "outputs": [],
      "stateMutability": "nonpayable",
      "type": "function"
    }
  ],
  "bytecode": "0x6080806040523461006357600180546001600160a01b03199081169091556000805433928116831782556001600160a01b0316907f8be0079c531659141344cd1fd0a4f28419497f9722a3daafe3b4186f6b6457e09080a361040f90816100698239f35b600080fdfe60406080815260048036101561001457600080fd5b600091823560e01c90816362acec8914610313578163715018a6146102b557816379ba5097146101e85781638da5cb5b146101c2578163a467dcd414610183578163dc2d30ed14610112578163e30c3978146100ea575063f2fde38b1461007a57600080fd5b346100e65760203660031901126100e657356001600160a01b038082168092036100e2576100a6610381565b816001600160a01b031960015416176001558254167f38d16b8cac22d99fc7c124b9cd0de2d3fa1faef420bfe791d8c362d765e227008380a380f35b8280fd5b5080fd5b8390346100e657816003193601126100e6576020906001600160a01b03600154169051908152f35b919050346100e25760203660031901126100e25735906001600160a01b0382168092036100e2577f1c076b3f188c8cc8a8b120b4001b5b86b7f7cfafd0456ec479981dbd24f5533991602091610166610381565b81855260028352808520805460ff1916600117905551908152a180f35b919050346100e25760203660031901126100e257356001600160a01b0381168091036100e257818360ff92602095526002855220541690519015158152f35b8390346100e657816003193601126100e6576001600160a01b0360209254169051908152f35b9050346100e257826003193601126100e257600154916001600160a01b0391338385160361026057505073ffffffffffffffffffffffffffffffffffffffff1991821660015582543392811683178455167f8be0079c531659141344cd1fd0a4f28419497f9722a3daafe3b4186f6b6457e08380a380f35b906020608492519162461bcd60e51b8352820152602960248201527f4f776e61626c6532537465703a2063616c6c6572206973206e6f7420746865206044820152683732bb9037bbb732b960b91b6064820152fd5b83346103105780600319360112610310576102ce610381565b806001600160a01b038019806001541660015582549081168355167f8be0079c531659141344cd1fd0a4f28419497f9722a3daafe3b4186f6b6457e08280a380f35b80fd5b919050346100e25760203660031901126100e25735906001600160a01b0382168092036100e2577f5a46486c63789ddf38c1abcd9ddab36420ef3e0ce977972d386abdc46b282d4e91602091610367610381565b81855260028352808520805460ff1916905551908152a180f35b6001600160a01b0360005416330361039557565b606460405162461bcd60e51b815260206004820152602060248201527f4f776e61626c653a2063616c6c6572206973206e6f7420746865206f776e65726044820152fdfea2646970667358221220a4037753d1a0f1ec7787cacab1edafd608ba06d15903c1fb388bd4cff444ebaf64736f6c63430008110033",
  "linkReferences": {},
  "deployedLinkReferences": {}
}