{
  "_format": "hh-sol-artifact-1",
  "contractName": "HOPESalesAgent",
  "sourceName": "contracts/agents/HOPESalesAgent.sol",
  "abi": [
    {
      "inputs": [
        {
          "internalType": "address",
          "name": "_hopeToken",
          "type": "address"
        },
        {
          "internalType": "address",
          "name": "_permit2",
          "type": "address"
        }
      ],
      "stateMutability": "nonpayable",
      "type": "constructor"
    },
    {
      "anonymous": false,
      "inputs": [
        {
          "indexed": false,
          "internalType": "string",
          "name": "symbol",
          "type": "string"
        },
        {
          "indexed": false,
          "internalType": "address",
          "name": "token",
          "type": "address"
        },
        {
          "indexed": false,
          "internalType": "uint256",
          "name": "rate",
          "type": "uint256"
        }
      ],
      "name": "AddCurrency",
      "type": "event"
    },
    {
      "anonymous": false,
      "inputs": [
        {
          "indexed": false,
          "internalType": "string",
          "name": "fromCurrency",
          "type": "string"
        },
        {
          "indexed": true,
          "internalType": "address",
          "name": "buyer",
          "type": "address"
        },
        {
          "indexed": false,
          "internalType": "uint256",
          "name": "fromValue",
          "type": "uint256"
        },
        {
          "indexed": false,
          "internalType": "uint256",
          "name": "toValue",
          "type": "uint256"
        },
        {
          "indexed": false,
          "internalType": "uint256",
          "name": "blockTimestamp",
          "type": "uint256"
        }
      ],
      "name": "Buy",
      "type": "event"
    },
    {
      "anonymous": false,
      "inputs": [
        {
          "indexed": false,
          "internalType": "string",
          "name": "symbol",
          "type": "string"
        },
        {
          "indexed": false,
          "internalType": "uint256",
          "name": "newRate",
          "type": "uint256"
        },
        {
          "indexed": false,
          "internalType": "uint256",
          "name": "oldRate",
          "type": "uint256"
        }
      ],
      "name": "ChangeCurrencyRate",
      "type": "event"
    },
    {
      "anonymous": false,
      "inputs": [
        {
          "indexed": false,
          "internalType": "string",
          "name": "symbol",
          "type": "string"
        }
      ],
      "name": "DeleteCurrency",
      "type": "event"
    },
    {
      "anonymous": false,
      "inputs": [
        {
          "indexed": true,
          "internalType": "address",
          "name": "previousOwner",
          "type": "address"
        },
        {
          "indexed": true,
          "internalType": "address",
          "name": "newOwner",
          "type": "address"
        }
      ],
      "name": "OwnershipTransferStarted",
      "type": "event"
    },
    {
      "anonymous": false,
      "inputs": [
        {
          "indexed": true,
          "internalType": "address",
          "name": "previousOwner",
          "type": "address"
        },
        {
          "indexed": true,
          "internalType": "address",
          "name": "newOwner",
          "type": "address"
        }
      ],
      "name": "OwnershipTransferred",
      "type": "event"
    },
    {
      "anonymous": false,
      "inputs": [
        {
          "indexed": false,
          "internalType": "address",
          "name": "account",
          "type": "address"
        }
      ],
      "name": "Paused",
      "type": "event"
    },
    {
      "anonymous": false,
      "inputs": [
        {
          "indexed": false,
          "internalType": "string",
          "name": "symbol",
          "type": "string"
        },
        {
          "indexed": true,
          "internalType": "address",
          "name": "to",
          "type": "address"
        },
        {
          "indexed": false,
          "internalType": "uint256",
          "name": "amount",
          "type": "uint256"
        }
      ],
      "name": "Redeem",
      "type": "event"
    },
    {
      "anonymous": false,
      "inputs": [
        {
          "indexed": false,
          "internalType": "address",
          "name": "account",
          "type": "address"
        }
      ],
      "name": "Unpaused",
      "type": "event"
    },
    {
      "inputs": [],
      "name": "acceptOwnership",
      "outputs": [],
      "stateMutability": "nonpayable",
      "type": "function"
    },
    {
      "inputs": [
        {
          "internalType": "string",
          "name": "symbol",
          "type": "string"
        },
        {
          "internalType": "address",
          "name": "token",
          "type": "address"
        },
        {
          "internalType": "uint256",
          "name": "rate",
          "type": "uint256"
        }
      ],
      "name": "addCurrency",
      "outputs": [],
      "stateMutability": "nonpayable",
      "type": "function"
    },
    {
      "inputs": [
        {
          "internalType": "string",
          "name": "symbol",
          "type": "string"
        }
      ],
      "name": "balanceOf",
      "outputs": [
        {
          "internalType": "uint256",
          "name": "",
          "type": "uint256"
        }
      ],
      "stateMutability": "view",
      "type": "function"
    },
    {
      "inputs": [
        {
          "internalType": "string",
          "name": "fromCurrency",
          "type": "string"
        },
        {
          "internalType": "uint256",
          "name": "fromValue",
          "type": "uint256"
        },
        {
          "internalType": "uint256",
          "name": "nonce",
          "type": "uint256"
        },
        {
          "internalType": "uint256",
          "name": "deadline",
          "type": "uint256"
        },
        {
          "internalType": "bytes",
          "name": "signature",
          "type": "bytes"
        }
      ],
      "name": "buy",
      "outputs": [],
      "stateMutability": "nonpayable",
      "type": "function"
    },
    {
      "inputs": [
        {
          "internalType": "string",
          "name": "symbol",
          "type": "string"
        },
        {
          "internalType": "uint256",
          "name": "rate",
          "type": "uint256"
        }
      ],
      "name": "changeCurrencyRate",
      "outputs": [],
      "stateMutability": "nonpayable",
      "type": "function"
    },
    {
      "inputs": [
        {
          "internalType": "string",
          "name": "",
          "type": "string"
        }
      ],
      "name": "currencys",
      "outputs": [
        {
          "internalType": "address",
          "name": "token",
          "type": "address"
        },
        {
          "internalType": "string",
          "name": "symbol",
          "type": "string"
        },
        {
          "internalType": "uint256",
          "name": "rate",
          "type": "uint256"
        }
      ],
      "stateMutability": "view",
      "type": "function"
    },
    {
      "inputs": [
        {
          "internalType": "string",
          "name": "symbol",
          "type": "string"
        }
      ],
      "name": "deleteCurrency",
      "outputs": [],
      "stateMutability": "nonpayable",
      "type": "function"
    },
    {
      "inputs": [],
      "name": "hopeToken",
      "outputs": [
        {
          "internalType": "address",
          "name": "",
          "type": "address"
        }
      ],
      "stateMutability": "view",
      "type": "function"
    },
    {
      "inputs": [],
      "name": "owner",
      "outputs": [
        {
          "internalType": "address",
          "name": "",
          "type": "address"
        }
      ],
      "stateMutability": "view",
      "type": "function"
    },
    {
      "inputs": [],
      "name": "pause",
      "outputs": [],
      "stateMutability": "nonpayable",
      "type": "function"
    },
    {
      "inputs": [],
      "name": "paused",
      "outputs": [
        {
          "internalType": "bool",
          "name": "",
          "type": "bool"
        }
      ],
      "stateMutability": "view",
      "type": "function"
    },
    {
      "inputs": [],
      "name": "pendingOwner",
      "outputs": [
        {
          "internalType": "address",
          "name": "",
          "type": "address"
        }
      ],
      "stateMutability": "view",
      "type": "function"
    },
    {
      "inputs": [],
      "name": "permit2",
      "outputs": [
        {
          "internalType": "address",
          "name": "",
          "type": "address"
        }
      ],
      "stateMutability": "view",
      "type": "function"
    },
    {
      "inputs": [],
      "name": "rateDenominator",
      "outputs": [
        {
          "internalType": "uint256",
          "name": "",
          "type": "uint256"
        }
      ],
      "stateMutability": "view",
      "type": "function"
    },
    {
      "inputs": [
        {
          "internalType": "string",
          "name": "symbol",
          "type": "string"
        },
        {
          "internalType": "address",
          "name": "to",
          "type": "address"
        },
        {
          "internalType": "uint256",
          "name": "amount",
          "type": "uint256"
        }
      ],
      "name": "redeem",
      "outputs": [
        {
          "internalType": "bool",
          "name": "",
          "type": "bool"
        }
      ],
      "stateMutability": "nonpayable",
      "type": "function"
    },
    {
      "inputs": [],
      "name": "remainingCredit",
      "outputs": [
        {
          "internalType": "uint256",
          "name": "",
          "type": "uint256"
        }
      ],
      "stateMutability": "view",
      "type": "function"
    },
    {
      "inputs": [],
      "name": "renounceOwnership",
      "outputs": [],
      "stateMutability": "nonpayable",
      "type": "function"
    },
    {
      "inputs": [
        {
          "internalType": "address",
          "name": "newOwner",
          "type": "address"
        }
      ],
      "name": "transferOwnership",
      "outputs": [],
      "stateMutability": "nonpayable",
      "type": "function"
    },
    {
      "inputs": [],
      "name": "unpause",
      "outputs": [],
      "stateMutability": "nonpayable",
      "type": "function"
    }
  ],
  "bytecode": "0x60e0346100fb57601f611a9838819003918201601f19168301916001600160401b038311848410176101005780849260409485528339810103126100fb57610052602061004b83610116565b9201610116565b60015460008054336001600160a01b031982168117835560405195939290916001600160a01b0316907f8be0079c531659141344cd1fd0a4f28419497f9722a3daafe3b4186f6b6457e09080a36001600160a81b03191660015560a05260c0526103e860805261196d908161012b823960805181818161094e015261155c015260a0518181816101c401528181610d670152610ee5015260c0518181816102090152610ebf0152f35b600080fd5b634e487b7160e01b600052604160045260246000fd5b51906001600160a01b03821682036100fb5756fe60806040526004361015610013575b600080fd5b60003560e01c806305059b6a1461018f57806312261ee71461018657806335ee5f871461017d5780633f4ba83a146101745780634f4aa7091461016b5780635c975abb146101625780636082cb3114610159578063715018a6146101505780637336c38d1461014757806379ba50971461013e5780638456cb5914610135578063865192f71461012c5780638da5cb5b14610123578063a72d79fc1461011a578063b4dafd2c14610111578063c9eac39114610108578063e30c3978146100ff578063f2fde38b146100f65763fc9f472c146100ee57600080fd5b61000e610d38565b5061000e610ccc565b5061000e610ca4565b5061000e610bbf565b5061000e610a79565b5061000e610999565b5061000e610971565b5061000e610935565b5061000e6108d2565b5061000e610806565b5061000e6106e8565b5061000e610688565b5061000e6105d2565b5061000e6105ab565b5061000e610477565b5061000e61038b565b5061000e61036a565b5061000e6101e8565b5061000e6101a3565b600091031261000e57565b503461000e57600036600319011261000e5760206040516001600160a01b037f0000000000000000000000000000000000000000000000000000000000000000168152f35b503461000e57600036600319011261000e5760206040516001600160a01b037f0000000000000000000000000000000000000000000000000000000000000000168152f35b50634e487b7160e01b600052604160045260246000fd5b67ffffffffffffffff811161025857604052565b61026061022d565b604052565b6040810190811067ffffffffffffffff82111761025857604052565b6060810190811067ffffffffffffffff82111761025857604052565b90601f8019910116810190811067ffffffffffffffff82111761025857604052565b60209067ffffffffffffffff81116102dd575b601f01601f19160190565b6102e561022d565b6102d2565b9291926102f6826102bf565b91610304604051938461029d565b82948184528183011161000e578281602093846000960137010152565b9080601f8301121561000e5781602061033c933591016102ea565b90565b602060031982011261000e576004359067ffffffffffffffff821161000e5761033c91600401610321565b503461000e57602061038361037e3661033f565b611101565b604051908152f35b503461000e57600036600319011261000e576103a5610dd4565b60015460ff8160a01c16156103ec5760ff60a01b19166001556040513381527f5db9ee0a495bf2e6ff9c91a7834c1ba4fdd244a5e8aa4e537bd38aeae4b073aa90602090a1005b60405162461bcd60e51b815260206004820152601460248201527f5061757361626c653a206e6f74207061757365640000000000000000000000006044820152606490fd5b606060031982011261000e576004359067ffffffffffffffff821161000e5761045c91600401610321565b906024356001600160a01b038116810361000e579060443590565b503461000e577fa38498fb6895e659ad5dc7f6eb4ac95cc71f053fa98e63abf91bbc6a4855967a6105786104aa36610431565b6104b5939193610dd4565b8060026104c185610b0f565b610537610532600460006001600160a01b036104ef816104e888546001600160a01b031690565b1615611206565b6104fa88151561123a565b8b1661050781151561126e565b6040516395d89b4160e01b815292839182905afa90811561059e575b60009161057d575b50886115a9565b611301565b6105448660018301611393565b805473ffffffffffffffffffffffffffffffffffffffff19166001600160a01b038816178155015560405193849384611470565b0390a1005b610598913d8091833e610590818361029d565b8101906112a2565b3861052b565b6105a6611044565b610523565b503461000e57600036600319011261000e57602060ff60015460a01c166040519015158152f35b503461000e57604036600319011261000e5760043567ffffffffffffffff811161000e576106786106287f043978879d6062f383d888ad52fce113b0d4b13003b11065fb4e1e92cc44cc1d923690600401610321565b602435610633610dd4565b600261063e83610b0f565b6106536001600160a01b038254161515611176565b61065e83151561123a565b018181549155604051938493606085526060850190610b6f565b91602084015260408301520390a1005b503461000e576000806003193601126106e5576106a3610dd4565b806001600160a01b038019806001541660015582549081168355167f8be0079c531659141344cd1fd0a4f28419497f9722a3daafe3b4186f6b6457e08280a380f35b80fd5b503461000e577f199eb151b1df1f56ae68127dbb4468195f02c11d522e66bd8a9526c0cc1487d661071836610431565b90610724939293610dd4565b61072c6110ad565b6107b861074861073b86610b0f565b546001600160a01b031690565b926107aa81846001600160a01b03966107648882161515611176565b6107a58361078860208d604051809381926335ee5f8760e01b8352600483016111aa565b0381305afa9081156107f9575b6000916107cb575b5010156111bb565b611875565b6040519384931695836111ef565b0390a260405160018152602090f35b0390f35b6107ec915060203d81116107f2575b6107e4818361029d565b810190611035565b3861079d565b503d6107da565b610801611044565b610795565b503461000e576000806003193601126106e5576001546001600160a01b03338183160361087b5773ffffffffffffffffffffffffffffffffffffffff1991821660015582543392811683178455167f8be0079c531659141344cd1fd0a4f28419497f9722a3daafe3b4186f6b6457e08380a380f35b60405162461bcd60e51b815260206004820152602960248201527f4f776e61626c6532537465703a2063616c6c6572206973206e6f7420746865206044820152683732bb9037bbb732b960b91b6064820152608490fd5b503461000e57600036600319011261000e576108ec610dd4565b6108f46110ad565b6001805460ff60a01b1916600160a01b1790556040513381527f62e78cea01bee320cd4e420270b5ea74000d11b0c9f74754ebdbfc544b05a25890602090a1005b503461000e57600036600319011261000e5760206040517f00000000000000000000000000000000000000000000000000000000000000008152f35b503461000e57600036600319011261000e5760206001600160a01b0360005416604051908152f35b503461000e577f7b9303c87aa57c58420ef2f8143dc8823691c406dc81dd580fed922ec070c36d6105786109cc3661033f565b6109d4610dd4565b6109f36001600160a01b036109eb61073b84610b0f565b161515611176565b6040516335ee5f8760e01b8152610a319060208180610a1586600483016111aa565b0381305afa908115610a6c575b600091610a4e575b501561149b565b610a42610a3d82610b0f565b6114e6565b604051918291826111aa565b610a66915060203d81116107f2576107e4818361029d565b38610a2a565b610a74611044565b610a22565b503461000e5760a036600319011261000e5767ffffffffffffffff60043581811161000e57610aac903690600401610321565b60843591821161000e573660238301121561000e57610ad8610aea9236906024816004013591016102ea565b90606435906044359060243590610e2c565b005b60005b838110610aff5750506000910152565b8181015183820152602001610aef565b6020610b28918160405193828580945193849201610aec565b8101600281520301902090565b90600182811c92168015610b65575b6020831014610b4f57565b634e487b7160e01b600052602260045260246000fd5b91607f1691610b44565b90602091610b8881518092818552858086019101610aec565b601f01601f1916010190565b939291610bba906001600160a01b03604093168652606060208701526060860190610b6f565b930152565b503461000e57610bd6610bd13661033f565b610b0f565b6001600160a01b0381541660019182810192604051938491600091805490610bfd82610b35565b80865291838116908115610c785750600114610c37575b50505091610c296002926107c794038661029d565b015460405193849384610b94565b90925060005260209182600020916000925b828410610c6257505050820101610c29826107c7610c14565b8054898501860152889550928401928101610c49565b60ff191660208781019190915292151560051b86019092019350610c2992508491506107c79050610c14565b503461000e57600036600319011261000e5760206001600160a01b0360015416604051908152f35b503461000e57602036600319011261000e576004356001600160a01b0380821680920361000e57610cfb610dd4565b816001600160a01b03196001541617600155600054167f38d16b8cac22d99fc7c124b9cd0de2d3fa1faef420bfe791d8c362d765e22700600080a3005b503461000e57600036600319011261000e57604051631a5d515360e21b815230600482015260209081816024817f00000000000000000000000000000000000000000000000000000000000000006001600160a01b03165afa908115610dc7575b600091610daa575b50604051908152f35b610dc19150823d81116107f2576107e4818361029d565b38610da1565b610dcf611044565b610d99565b6001600160a01b03600054163303610de857565b606460405162461bcd60e51b815260206004820152602060248201527f4f776e61626c653a2063616c6c6572206973206e6f7420746865206f776e65726044820152fd5b91929093610ee390610e3c6110ad565b610e4584610b0f565b92610e5784546001600160a01b031690565b95610e7b60026001600160a01b0396610e73888b161515610fcd565b015489611549565b96610e87881515611001565b604051633f27d1cb60e21b8152610eba90602081600481305afa908115610fc0575b600091610fa2575b50891115611051565b8833917f00000000000000000000000000000000000000000000000000000000000000006115cc565b7f00000000000000000000000000000000000000000000000000000000000000001691823b1561000e576040516340c10f1960e01b8152336004820152602481018290527fe4e7dac1dd38d0bc6af33e31d491adf0f21fa875f3c9cebace347a6560e2d6a6936000908290604490829084905af18015610f95575b610f7c575b50610f776040519283923396429285611085565b0390a2565b80610f89610f8f92610244565b80610198565b38610f63565b610f9d611044565b610f5e565b610fba915060203d81116107f2576107e4818361029d565b38610eb1565b610fc8611044565b610ea9565b15610fd457565b60405162461bcd60e51b8152602060048201526005602482015264048533030360dc1b6044820152606490fd5b1561100857565b60405162461bcd60e51b8152602060048201526005602482015264485330303160d81b6044820152606490fd5b9081602091031261000e575190565b506040513d6000823e3d90fd5b1561105857565b60405162461bcd60e51b81526020600482015260056024820152641051cc0c0d60da1b6044820152606490fd5b909261109e606093969594608084526080840190610b6f565b95602083015260408201520152565b60ff60015460a01c166110bc57565b60405162461bcd60e51b815260206004820152601060248201527f5061757361626c653a20706175736564000000000000000000000000000000006044820152606490fd5b6111126001600160a01b0391610b0f565b54168015611170576020602491604051928380926370a0823160e01b82523060048301525afa908115611163575b60009161114b575090565b61033c915060203d81116107f2576107e4818361029d565b61116b611044565b611140565b50600090565b1561117d57565b60405162461bcd60e51b8152602060048201526005602482015264434530303160d81b6044820152606490fd5b90602061033c928181520190610b6f565b156111c257565b60405162461bcd60e51b815260206004820152600560248201526421a298181960d91b6044820152606490fd5b929190610bba602091604086526040860190610b6f565b1561120d57565b60405162461bcd60e51b8152602060048201526005602482015264242998181960d91b6044820152606490fd5b1561124157565b60405162461bcd60e51b8152602060048201526005602482015264485330303360d81b6044820152606490fd5b1561127557565b60405162461bcd60e51b8152602060048201526005602482015264043453030360dc1b6044820152606490fd5b60208183031261000e5780519067ffffffffffffffff821161000e570181601f8201121561000e5780516112d5816102bf565b926112e3604051948561029d565b8184526020828401011161000e5761033c9160208085019101610aec565b1561130857565b60405162461bcd60e51b81526020600482015260056024820152641214cc0c0d60da1b6044820152606490fd5b818110611340575050565b60008155600101611335565b9190601f811161135b57505050565b611387926000526020600020906020601f840160051c83019310611389575b601f0160051c0190611335565b565b909150819061137a565b919091825167ffffffffffffffff8111611463575b6113bc816113b68454610b35565b8461134c565b602080601f83116001146113f85750819293946000926113ed575b50508160011b916000199060031b1c1916179055565b0151905038806113d7565b90601f1983169561140e85600052602060002090565b926000905b88821061144b57505083600195969710611432575b505050811b019055565b015160001960f88460031b161c19169055388080611428565b80600185968294968601518155019501930190611413565b61146b61022d565b6113a8565b6001600160a01b0361149060409396959496606084526060840190610b6f565b951660208201520152565b156114a257565b60405162461bcd60e51b8152602060048201526005602482015264485330303560d81b6044820152606490fd5b50634e487b7160e01b600052601160045260246000fd5b600260009182815582600182016114fd8154610b35565b8061150a575b5050500155565b601f81116001146115205750555b823880611503565b8183526020832061153c91601f0160051c810190600101611335565b8160208120915555611518565b81810291818304149015171561159c575b7f0000000000000000000000000000000000000000000000000000000000000000908115611586570490565b634e487b7160e01b600052601260045260246000fd5b6115a46114cf565b61155a565b8051825191908281146115bf5750505050600090565b6020809201209201201490565b92949391946040918251956115e087610265565b6001600160a01b038092168752602094888689015284519761160189610281565b88528588015283870152825161161681610265565b30815284810197885261164461163861163889516001600160a01b0390511690565b6001600160a01b031690565b84516370a0823160e01b80825230600483015290979093918790899060249082905afa978815611775575b600098611756575b501698893b1561000e57611638611704986116b96000611638946113879e8b99836116d8998d519687958694859363187945bd60e11b85528b60048601611782565b03925af18015611749575b611736575b5051516001600160a01b031690565b925190815230600482015291829060249082905afa918215611729575b60009261170c575b50506117f7565b90511461180c565b6117229250803d106107f2576107e4818361029d565b38806116fd565b611731611044565b6116f5565b80610f8961174392610244565b386116c9565b611751611044565b6116c4565b61176e919850873d89116107f2576107e4818361029d565b9638611677565b61177d611044565b61166f565b91926117e061033c959460406001600160a01b03946117b5878251602080916001600160a01b0381511684520151910152565b60208181015188840152910151606087015281516001600160a01b03166080870152015160a0850152565b1660c0820152610100908160e08201520190610b6f565b9190820391821161180457565b6113876114cf565b1561181357565b634e487b7160e01b600052600160045260246000fd5b1561183057565b60405162461bcd60e51b815260206004820152601960248201527f544f4b454e5f5452414e534645525f4f55545f4641494c4544000000000000006044820152606490fd5b60405163a9059cbb60e01b81526001600160a01b03928316600482015260248101939093526000939291602091839160449183918891165af1801561192a575b6118eb575b503d80156118dd576020146118cd575080fd5b9080602081611387933e51611829565b509050611387600019611829565b6020813d8211611922575b816119036020938361029d565b8101031261191e57518015150361191a57386118ba565b5080fd5b8280fd5b3d91506118f6565b611932611044565b6118b556fea2646970667358221220e6a5a2218c3bbe0fe3865de0fd18afd74906cd89917b9f502fbe66add6f5b35b64736f6c63430008110033",
  "linkReferences": {},
  "deployedLinkReferences": {}
}