{
  "_format": "hh-sol-artifact-1",
  "contractName": "VotingEscrow",
  "sourceName": "contracts/VotingEscrow.sol",
  "abi": [
    {
      "inputs": [
        {
          "internalType": "address",
          "name": "_tokenAddr",
          "type": "address"
        },
        {
          "internalType": "address",
          "name": "_permit2Address",
          "type": "address"
        }
      ],
      "stateMutability": "nonpayable",
      "type": "constructor"
    },
    {
      "anonymous": false,
      "inputs": [
        {
          "indexed": true,
          "internalType": "address",
          "name": "provider",
          "type": "address"
        },
        {
          "indexed": true,
          "internalType": "address",
          "name": "beneficiary",
          "type": "address"
        },
        {
          "indexed": false,
          "internalType": "uint256",
          "name": "value",
          "type": "uint256"
        },
        {
          "indexed": false,
          "internalType": "uint256",
          "name": "afterAmount",
          "type": "uint256"
        },
        {
          "indexed": true,
          "internalType": "uint256",
          "name": "locktime",
          "type": "uint256"
        },
        {
          "indexed": false,
          "internalType": "uint256",
          "name": "_type",
          "type": "uint256"
        },
        {
          "indexed": false,
          "internalType": "uint256",
          "name": "ts",
          "type": "uint256"
        }
      ],
      "name": "Deposit",
      "type": "event"
    },
    {
      "anonymous": false,
      "inputs": [
        {
          "indexed": true,
          "internalType": "address",
          "name": "previousOwner",
          "type": "address"
        },
        {
          "indexed": true,
          "internalType": "address",
          "name": "newOwner",
          "type": "address"
        }
      ],
      "name": "OwnershipTransferStarted",
      "type": "event"
    },
    {
      "anonymous": false,
      "inputs": [
        {
          "indexed": true,
          "internalType": "address",
          "name": "previousOwner",
          "type": "address"
        },
        {
          "indexed": true,
          "internalType": "address",
          "name": "newOwner",
          "type": "address"
        }
      ],
      "name": "OwnershipTransferred",
      "type": "event"
    },
    {
      "anonymous": false,
      "inputs": [
        {
          "indexed": false,
          "internalType": "uint256",
          "name": "prevSupply",
          "type": "uint256"
        },
        {
          "indexed": false,
          "internalType": "uint256",
          "name": "supply",
          "type": "uint256"
        }
      ],
      "name": "Supply",
      "type": "event"
    },
    {
      "anonymous": false,
      "inputs": [
        {
          "indexed": true,
          "internalType": "address",
          "name": "provider",
          "type": "address"
        },
        {
          "indexed": false,
          "internalType": "uint256",
          "name": "value",
          "type": "uint256"
        },
        {
          "indexed": false,
          "internalType": "uint256",
          "name": "ts",
          "type": "uint256"
        }
      ],
      "name": "Withdraw",
      "type": "event"
    },
    {
      "inputs": [],
      "name": "BASE_RATE",
      "outputs": [
        {
          "internalType": "int256",
          "name": "",
          "type": "int256"
        }
      ],
      "stateMutability": "view",
      "type": "function"
    },
    {
      "inputs": [],
      "name": "MAXTIME",
      "outputs": [
        {
          "internalType": "uint256",
          "name": "",
          "type": "uint256"
        }
      ],
      "stateMutability": "view",
      "type": "function"
    },
    {
      "inputs": [],
      "name": "MULTIPLIER",
      "outputs": [
        {
          "internalType": "uint256",
          "name": "",
          "type": "uint256"
        }
      ],
      "stateMutability": "view",
      "type": "function"
    },
    {
      "inputs": [],
      "name": "WEEK",
      "outputs": [
        {
          "internalType": "uint256",
          "name": "",
          "type": "uint256"
        }
      ],
      "stateMutability": "view",
      "type": "function"
    },
    {
      "inputs": [],
      "name": "_DAY",
      "outputs": [
        {
          "internalType": "uint256",
          "name": "",
          "type": "uint256"
        }
      ],
      "stateMutability": "view",
      "type": "function"
    },
    {
      "inputs": [],
      "name": "acceptOwnership",
      "outputs": [],
      "stateMutability": "nonpayable",
      "type": "function"
    },
    {
      "inputs": [
        {
          "internalType": "address",
          "name": "_addr",
          "type": "address"
        }
      ],
      "name": "balanceOf",
      "outputs": [
        {
          "internalType": "uint256",
          "name": "",
          "type": "uint256"
        }
      ],
      "stateMutability": "view",
      "type": "function"
    },
    {
      "inputs": [
        {
          "internalType": "address",
          "name": "_addr",
          "type": "address"
        },
        {
          "internalType": "uint256",
          "name": "_block",
          "type": "uint256"
        }
      ],
      "name": "balanceOfAt",
      "outputs": [
        {
          "internalType": "uint256",
          "name": "",
          "type": "uint256"
        }
      ],
      "stateMutability": "view",
      "type": "function"
    },
    {
      "inputs": [
        {
          "internalType": "address",
          "name": "_addr",
          "type": "address"
        },
        {
          "internalType": "uint256",
          "name": "_t",
          "type": "uint256"
        }
      ],
      "name": "balanceOfAtTime",
      "outputs": [
        {
          "internalType": "uint256",
          "name": "",
          "type": "uint256"
        }
      ],
      "stateMutability": "view",
      "type": "function"
    },
    {
      "inputs": [],
      "name": "checkpointSupply",
      "outputs": [],
      "stateMutability": "nonpayable",
      "type": "function"
    },
    {
      "inputs": [
        {
          "internalType": "uint256",
          "name": "_value",
          "type": "uint256"
        },
        {
          "internalType": "uint256",
          "name": "_unlockTime",
          "type": "uint256"
        },
        {
          "internalType": "uint256",
          "name": "nonce",
          "type": "uint256"
        },
        {
          "internalType": "uint256",
          "name": "deadline",
          "type": "uint256"
        },
        {
          "internalType": "bytes",
          "name": "signature",
          "type": "bytes"
        }
      ],
      "name": "createLock",
      "outputs": [],
      "stateMutability": "nonpayable",
      "type": "function"
    },
    {
      "inputs": [
        {
          "internalType": "address",
          "name": "_beneficiary",
          "type": "address"
        },
        {
          "internalType": "uint256",
          "name": "_value",
          "type": "uint256"
        },
        {
          "internalType": "uint256",
          "name": "_unlockTime",
          "type": "uint256"
        },
        {
          "internalType": "uint256",
          "name": "nonce",
          "type": "uint256"
        },
        {
          "internalType": "uint256",
          "name": "deadline",
          "type": "uint256"
        },
        {
          "internalType": "bytes",
          "name": "signature",
          "type": "bytes"
        }
      ],
      "name": "createLockFor",
      "outputs": [],
      "stateMutability": "nonpayable",
      "type": "function"
    },
    {
      "inputs": [],
      "name": "decimals",
      "outputs": [
        {
          "internalType": "uint256",
          "name": "",
          "type": "uint256"
        }
      ],
      "stateMutability": "view",
      "type": "function"
    },
    {
      "inputs": [],
      "name": "epoch",
      "outputs": [
        {
          "internalType": "uint256",
          "name": "",
          "type": "uint256"
        }
      ],
      "stateMutability": "view",
      "type": "function"
    },
    {
      "inputs": [
        {
          "internalType": "address",
          "name": "_addr",
          "type": "address"
        }
      ],
      "name": "getLastUserSlope",
      "outputs": [
        {
          "internalType": "int256",
          "name": "",
          "type": "int256"
        }
      ],
      "stateMutability": "view",
      "type": "function"
    },
    {
      "inputs": [
        {
          "internalType": "address",
          "name": "_userAddress",
          "type": "address"
        },
        {
          "internalType": "uint256",
          "name": "_index",
          "type": "uint256"
        }
      ],
      "name": "getUserPointHistory",
      "outputs": [
        {
          "components": [
            {
              "internalType": "int256",
              "name": "bias",
              "type": "int256"
            },
            {
              "internalType": "int256",
              "name": "slope",
              "type": "int256"
            },
            {
              "internalType": "uint256",
              "name": "ts",
              "type": "uint256"
            },
            {
              "internalType": "uint256",
              "name": "blk",
              "type": "uint256"
            }
          ],
          "internalType": "struct IVotingEscrow.Point",
          "name": "",
          "type": "tuple"
        }
      ],
      "stateMutability": "view",
      "type": "function"
    },
    {
      "inputs": [
        {
          "internalType": "uint256",
          "name": "_value",
          "type": "uint256"
        },
        {
          "internalType": "uint256",
          "name": "nonce",
          "type": "uint256"
        },
        {
          "internalType": "uint256",
          "name": "deadline",
          "type": "uint256"
        },
        {
          "internalType": "bytes",
          "name": "signature",
          "type": "bytes"
        }
      ],
      "name": "increaseAmount",
      "outputs": [],
      "stateMutability": "nonpayable",
      "type": "function"
    },
    {
      "inputs": [
        {
          "internalType": "address",
          "name": "_beneficiary",
          "type": "address"
        },
        {
          "internalType": "uint256",
          "name": "_value",
          "type": "uint256"
        },
        {
          "internalType": "uint256",
          "name": "nonce",
          "type": "uint256"
        },
        {
          "internalType": "uint256",
          "name": "deadline",
          "type": "uint256"
        },
        {
          "internalType": "bytes",
          "name": "signature",
          "type": "bytes"
        }
      ],
      "name": "increaseAmountFor",
      "outputs": [],
      "stateMutability": "nonpayable",
      "type": "function"
    },
    {
      "inputs": [
        {
          "internalType": "uint256",
          "name": "_unlockTime",
          "type": "uint256"
        }
      ],
      "name": "increaseUnlockTime",
      "outputs": [],
      "stateMutability": "nonpayable",
      "type": "function"
    },
    {
      "inputs": [
        {
          "internalType": "address",
          "name": "",
          "type": "address"
        }
      ],
      "name": "locked",
      "outputs": [
        {
          "internalType": "int256",
          "name": "amount",
          "type": "int256"
        },
        {
          "internalType": "uint256",
          "name": "end",
          "type": "uint256"
        }
      ],
      "stateMutability": "view",
      "type": "function"
    },
    {
      "inputs": [
        {
          "internalType": "address",
          "name": "_addr",
          "type": "address"
        }
      ],
      "name": "lockedEnd",
      "outputs": [
        {
          "internalType": "uint256",
          "name": "",
          "type": "uint256"
        }
      ],
      "stateMutability": "view",
      "type": "function"
    },
    {
      "inputs": [],
      "name": "name",
      "outputs": [
        {
          "internalType": "string",
          "name": "",
          "type": "string"
        }
      ],
      "stateMutability": "view",
      "type": "function"
    },
    {
      "inputs": [],
      "name": "owner",
      "outputs": [
        {
          "internalType": "address",
          "name": "",
          "type": "address"
        }
      ],
      "stateMutability": "view",
      "type": "function"
    },
    {
      "inputs": [],
      "name": "pendingOwner",
      "outputs": [
        {
          "internalType": "address",
          "name": "",
          "type": "address"
        }
      ],
      "stateMutability": "view",
      "type": "function"
    },
    {
      "inputs": [],
      "name": "permit2Address",
      "outputs": [
        {
          "internalType": "address",
          "name": "",
          "type": "address"
        }
      ],
      "stateMutability": "view",
      "type": "function"
    },
    {
      "inputs": [],
      "name": "renounceOwnership",
      "outputs": [],
      "stateMutability": "nonpayable",
      "type": "function"
    },
    {
      "inputs": [
        {
          "internalType": "uint256",
          "name": "",
          "type": "uint256"
        }
      ],
      "name": "slopeChanges",
      "outputs": [
        {
          "internalType": "int256",
          "name": "",
          "type": "int256"
        }
      ],
      "stateMutability": "view",
      "type": "function"
    },
    {
      "inputs": [],
      "name": "supply",
      "outputs": [
        {
          "internalType": "uint256",
          "name": "",
          "type": "uint256"
        }
      ],
      "stateMutability": "view",
      "type": "function"
    },
    {
      "inputs": [
        {
          "internalType": "uint256",
          "name": "",
          "type": "uint256"
        }
      ],
      "name": "supplyPointHistory",
      "outputs": [
        {
          "internalType": "int256",
          "name": "bias",
          "type": "int256"
        },
        {
          "internalType": "int256",
          "name": "slope",
          "type": "int256"
        },
        {
          "internalType": "uint256",
          "name": "ts",
          "type": "uint256"
        },
        {
          "internalType": "uint256",
          "name": "blk",
          "type": "uint256"
        }
      ],
      "stateMutability": "view",
      "type": "function"
    },
    {
      "inputs": [],
      "name": "symbol",
      "outputs": [
        {
          "internalType": "string",
          "name": "",
          "type": "string"
        }
      ],
      "stateMutability": "view",
      "type": "function"
    },
    {
      "inputs": [],
      "name": "token",
      "outputs": [
        {
          "internalType": "address",
          "name": "",
          "type": "address"
        }
      ],
      "stateMutability": "view",
      "type": "function"
    },
    {
      "inputs": [],
      "name": "totalSupply",
      "outputs": [
        {
          "internalType": "uint256",
          "name": "",
          "type": "uint256"
        }
      ],
      "stateMutability": "view",
      "type": "function"
    },
    {
      "inputs": [
        {
          "internalType": "uint256",
          "name": "_block",
          "type": "uint256"
        }
      ],
      "name": "totalSupplyAt",
      "outputs": [
        {
          "internalType": "uint256",
          "name": "",
          "type": "uint256"
        }
      ],
      "stateMutability": "view",
      "type": "function"
    },
    {
      "inputs": [
        {
          "internalType": "uint256",
          "name": "_t",
          "type": "uint256"
        }
      ],
      "name": "totalSupplyAtTime",
      "outputs": [
        {
          "internalType": "uint256",
          "name": "",
          "type": "uint256"
        }
      ],
      "stateMutability": "view",
      "type": "function"
    },
    {
      "inputs": [
        {
          "internalType": "address",
          "name": "newOwner",
          "type": "address"
        }
      ],
      "name": "transferOwnership",
      "outputs": [],
      "stateMutability": "nonpayable",
      "type": "function"
    },
    {
      "inputs": [
        {
          "internalType": "address",
          "name": "",
          "type": "address"
        }
      ],
      "name": "userPointEpoch",
      "outputs": [
        {
          "internalType": "uint256",
          "name": "",
          "type": "uint256"
        }
      ],
      "stateMutability": "view",
      "type": "function"
    },
    {
      "inputs": [
        {
          "internalType": "address",
          "name": "",
          "type": "address"
        },
        {
          "internalType": "uint256",
          "name": "",
          "type": "uint256"
        }
      ],
      "name": "userPointHistory",
      "outputs": [
        {
          "internalType": "int256",
          "name": "bias",
          "type": "int256"
        },
        {
          "internalType": "int256",
          "name": "slope",
          "type": "int256"
        },
        {
          "internalType": "uint256",
          "name": "ts",
          "type": "uint256"
        },
        {
          "internalType": "uint256",
          "name": "blk",
          "type": "uint256"
        }
      ],
      "stateMutability": "view",
      "type": "function"
    },
    {
      "inputs": [
        {
          "internalType": "address",
          "name": "_addr",
          "type": "address"
        },
        {
          "internalType": "uint256",
          "name": "_idx",
          "type": "uint256"
        }
      ],
      "name": "userPointHistoryTs",
      "outputs": [
        {
          "internalType": "uint256",
          "name": "",
          "type": "uint256"
        }
      ],
      "stateMutability": "view",
      "type": "function"
    },
    {
      "inputs": [],
      "name": "withdraw",
      "outputs": [],
      "stateMutability": "nonpayable",
      "type": "function"
    }
  ],
  "bytecode": "0x60e060409080825234620002bc578181620031588038038091620000248285620002c1565b833981010312620002bc576200003a81620002fb565b906200004a6020809201620002fb565b60016000818155600280546001600160a01b0319908116909155825433918116821784558751939692946001600160a01b03949092909185167f8be0079c531659141344cd1fd0a4f28419497f9722a3daafe3b4186f6b6457e08780a3838216156200029257508160805260a05285516080810181811060018060401b038211176200027e5790859291885284815260038382018681528983014281526060840191438352888052600687528b892094518555518a85015551600284015551910155600487518094819363313ce56760e01b8352165afa80156200027457829062000231575b60ff91501660c05262000145600a5462000310565b601f811162000202575b50816f159bdd194b595cd8dc9bddd95908131560821b01600a5562000176600b5462000310565b91601f8311620001dc575b6008631d99531560e21b01600b558451612e0a90816200034e82396080518181816108a1015281816117ad0152818161227301526123e5015260a051818181611408015281816122940152612406015260c051816106790152f35b601f90600b83528220920160051c8201915b8281101562000181578181558301620001ee565b600a825283601f848420920160051c8201915b828110620002255750506200014f565b83815501849062000215565b508281813d83116200026c575b6200024a8183620002c1565b8101031262000268575160ff81168103620002685760ff9062000130565b5080fd5b503d6200023e565b85513d84823e3d90fd5b634e487b7160e01b85526041600452602485fd5b62461bcd60e51b8152600481018690526005602482015264043453030360dc1b6044820152606490fd5b600080fd5b601f909101601f19168101906001600160401b03821190821017620002e557604052565b634e487b7160e01b600052604160045260246000fd5b51906001600160a01b0382168203620002bc57565b90600182811c9216801562000342575b60208310146200032c57565b634e487b7160e01b600052602260045260246000fd5b91607f16916200032056fe60806040526004361015610013575b600080fd5b60003560e01c80625c9be11461031e578063047fc9aa14610315578063059f8b161461030c57806306fdde031461030357806318160ddd146102fa5780633037408d146102f1578063313ce567146102e857806331a8bbce146102df57806334d901a4146102d65780633ccfd60b146102cd57806341910f90146102c45780634deafcae146102bb5780634ee2cd7e146102b2578063643dafde146102a957806370a08231146102a0578063715018a61461029757806379ba50971461028e5780637b7933b4146102855780637c616fe61461027c57806381fc83bb1461027357806387ac297e1461026a5780638da5cb5b14610261578063900cf0cf14610258578063934911571461024f57806395d89b4114610246578063981b24d01461023d578063ab6fd71c14610234578063c52249831461022b578063cbf9fe5f14610222578063d2dcd93314610219578063db28696814610210578063e30c397814610207578063eac6a667146101fe578063ee00ef3a146101f5578063f2fde38b146101ec578063f3a6d608146101e3578063f4359ce5146101da578063f52a36f7146101d15763fc0c546a146101c957600080fd5b61000e61178c565b5061000e61175f565b5061000e611740565b5061000e6116eb565b5061000e611680565b5061000e611660565b5061000e6115b2565b5061000e61158a565b5061000e6114dd565b5061000e611470565b5061000e61142c565b5061000e6113e7565b5061000e611329565b5061000e6111f5565b5061000e611131565b5061000e61105e565b5061000e61103f565b5061000e611017565b5061000e610f4f565b5061000e610e93565b5061000e610de7565b5061000e610b8b565b5061000e610ac8565b5061000e610a69565b5061000e610a45565b5061000e61099f565b5061000e610977565b5061000e610939565b5061000e61091b565b5061000e610754565b5061000e6106ec565b5061000e61069c565b5061000e610660565b5061000e610638565b5061000e6105bf565b5061000e6104b2565b5061000e610370565b5061000e610351565b5061000e610332565b600091031261000e57565b503461000e57600036600319011261000e576020604051620151808152f35b503461000e57600036600319011261000e576020600354604051908152f35b503461000e57600036600319011261000e576020604051670de0b6b3a76400008152f35b50634e487b7160e01b600052604160045260246000fd5b6080810190811067ffffffffffffffff8211176103c757604052565b6103cf610394565b604052565b6040810190811067ffffffffffffffff8211176103c757604052565b60a0810190811067ffffffffffffffff8211176103c757604052565b6060810190811067ffffffffffffffff8211176103c757604052565b67ffffffffffffffff81116103c757604052565b90601f8019910116810190811067ffffffffffffffff8211176103c757604052565b919082519283825260005b84811061048a575050826000602080949584010152601f8019910116010190565b602081830181015184830182015201610469565b9060206104af92818152019061045e565b90565b503461000e576000806003193601126105bc576040519080600a549060019180831c928082169283156105b2575b602092838610851461059e57858852602088019490811561057d5750600114610524575b610520876105148189038261043c565b6040519182918261049e565b0390f35b600a60005294509192917fc65a7bb8d6351c1cf70c95a316cc6a92839c986682d98bc35f958f4883f9d2a85b83861061056c5750505091019050610514826105203880610504565b805485870152948201948101610550565b60ff191685525050505090151560051b019050610514826105203880610504565b634e487b7160e01b82526022600452602482fd5b93607f16936104e0565b80fd5b503461000e57600036600319011261000e576005546000526006602052602061061a60406000206003604051916105f5836103ab565b8054835260018101548584015260028101546040840152015460608201524290612998565b604051908152f35b600435906001600160a01b038216820361000e57565b503461000e57604036600319011261000e57602061061a610657610622565b60243590612605565b503461000e57600036600319011261000e5760206040517f00000000000000000000000000000000000000000000000000000000000000008152f35b503461000e57602036600319011261000e57600435600090815260066020908152604091829020805460018201546002830154600390930154855192835293820152928301526060820152608090f35b503461000e57604036600319011261000e576001600160a01b0361070e610622565b1660009081526007602090815260408083206024358452825291829020805460018201546002830154600390930154855192835293820152928301526060820152608090f35b503461000e576000806003193601126105bc5761076f611fb7565b7f5e2aa66efd74cce82b21852e317e5490d9ecc9e6bb953ae24d90851258cc2f5c6107ad336001600160a01b03166000526004602052604060002090565b546108fd60016107d0336001600160a01b03166000526004602052604060002090565b0154916107db610ece565b9081526107f16020820193808552421015612570565b61089a81519186610815336001600160a01b03166000526004602052604060002090565b54956001610836336001600160a01b03166000526004602052604060002090565b0154610840610ece565b97885260208801525286815261087e8161086d336001600160a01b03166000526004602052604060002090565b906020600191805184550151910155565b6003549461089461088f85886118e1565b600355565b336119da565b6108c581337f0000000000000000000000000000000000000000000000000000000000000000612d15565b6040805182815242602082015233917ff279e6a1f5e320cca91135676d9cb6e44ca8a08c0b88342bcdb1144f6511b56891a2826118e1565b60408051928352602083019190915290a16109186001600055565b80f35b503461000e57600036600319011261000e5760206040516127108152f35b503461000e57602036600319011261000e576001600160a01b0361095b610622565b1660005260046020526020600160406000200154604051908152f35b503461000e57604036600319011261000e57602061061a610996610622565b602435906126ec565b503461000e5760408060031936011261000e57610520906001600160a01b036109c6610622565b6109ce611829565b5016600052600760205280600020602435600052602052806000209060038151926109f8846103ab565b805484526001810154602085015260028101548385015201546060830152519182918291909160608060808301948051845260208101516020850152604081015160408501520151910152565b503461000e57602036600319011261000e57602061061a610a64610622565b6125a4565b503461000e576000806003193601126105bc57610a846117d1565b806001600160a01b0380198060025416600255600154908116600155167f8be0079c531659141344cd1fd0a4f28419497f9722a3daafe3b4186f6b6457e08280a380f35b503461000e576000806003193601126105bc576002546001600160a01b033381831603610b34576001600160a01b03198092166002556001549133908316176001553391167f8be0079c531659141344cd1fd0a4f28419497f9722a3daafe3b4186f6b6457e08380a380f35b60405162461bcd60e51b815260206004820152602960248201527f4f776e61626c6532537465703a2063616c6c6572206973206e6f7420746865206044820152683732bb9037bbb732b960b91b6064820152608490fd5b503461000e576000806003193601126105bc57610ba6611880565b50610baf611880565b50610bb8611899565b9060806005549201918252610bcb610edd565b91818352602092828482015242604082015243606082015290805180610dc1575b5060408201805194859060608501928351918790894211610d93575b610c1862093a808b969b04611615565b99899a5b60ff8c10610c6d575b8a6109188b610c488c51610c3881600555565b6000526006602052604060002090565b9060606003918051845560208101516001850155604081015160028501550151910155565b610c778b91611969565b968197428111600014610d73575081610cbb42995b8d610cb28c610cac835191610ca68c8601998a51926118e1565b906118ee565b90611997565b905283516119be565b808352818d5112610d6b575b12610d63575b5050859a868552610d01610cfb610ced610ce7858b6118e1565b8761164d565b670de0b6b3a7640000900490565b8761198a565b8852610d0d895161195b565b808a52428803610d3b57505050505050505061091893945090610c4891439052908493388080808080610c25565b90610d578b610c48610d5c946000526006602052604060002090565b61193f565b9a95610c1c565b528938610ccd565b818d52610cc7565b975081610cbb610d8d8a6000526009602052604060002090565b54610c8c565b9050610dbb610daa610da585436118e1565b611635565b610db58451426118e1565b9061191f565b90610c08565b610de0919250610ddb906000526006602052604060002090565b61184e565b9038610bec565b503461000e57602036600319011261000e57610e01611fb7565b336000526004602052610e876040600020600160405191610e21836103d4565b80548352015460208201908152610e63610e4162093a8060043504611615565b91610e4e8151421061246e565b610e5b60008551136124a2565b5182116124d6565b610e77610e6f42611979565b82111561250a565b610e7f61253e565b50333361200d565b610e916001600055565b005b503461000e57602036600319011261000e576001600160a01b03610eb5610622565b1660005260086020526020604060002054604051908152f35b60405190610edb826103d4565b565b60405190610edb826103ab565b81601f8201121561000e5780359067ffffffffffffffff8211610f42575b60405192610f20601f8401601f19166020018561043c565b8284526020838301011161000e57816000926020809301838601378301015290565b610f4a610394565b610f08565b503461000e57608036600319011261000e5760043560643567ffffffffffffffff811161000e57610f84903690600401610eea565b610f8c611fb7565b3360005260046020526040600020600160405191610fa9836103d4565b8054835201549260208201938452610fc2811515611ee7565b600082511315610fea57610fdb610e879451421061243a565b60443591602435913333612130565b60405162461bcd60e51b815260206004820152600560248201526415914c0c0d60da1b6044820152606490fd5b503461000e57600036600319011261000e5760206001600160a01b0360015416604051908152f35b503461000e57600036600319011261000e576020600554604051908152f35b503461000e5760c036600319011261000e57611078610622565b60a4359060243567ffffffffffffffff831161000e5761109f610e87933690600401610eea565b916110a86117d1565b6110b0611fb7565b6110c062093a8060443504611615565b6110e56110e0836001600160a01b03166000526004602052604060002090565b611ec9565b906110f1841515611ee7565b6110fc825115611f1b565b61110f61110842611969565b8211611f4f565b61112361111b42611979565b821115611f83565b6084359360643593336122c0565b503461000e576000806003193601126105bc576040519080600b549060019180831c928082169283156111eb575b602092838610851461059e57858852602088019490811561057d575060011461119257610520876105148189038261043c565b600b60005294509192917f0175b7a638427703f0dbe7bb9bbf987a2551717b34e79f33b5b1008d1fa01db95b8386106111da5750505091019050610514826105203880610504565b8054858701529482019481016111be565b93607f169361115f565b503461000e57602036600319011261000e5761052061128960043561121c4382111561268d565b61128360055461122c81846128f8565b92611244610ddb856000526006602052604060002090565b936000928110156112dd57610ddb610c3861125e9261195b565b60608501908151606082019384518203611299575b50505050505b604083015161198a565b90612998565b6040519081529081906020820190565b6112d39550916112c360406112b56112c994610db597966118e1565b92015160408a0151906118e1565b9061164d565b92519051906118e1565b3880808080611273565b5060608401908151904382036112f6575b505050611279565b611321935061130b610db592611319926118e1565b6112c36040880151426118e1565b9151436118e1565b3880806112ee565b503461000e5760a036600319011261000e5760843560043567ffffffffffffffff821161000e57611361610e87923690600401610eea565b9061136a611fb7565b61137a62093a8060243504611615565b9061139b6110e0336001600160a01b03166000526004602052604060002090565b6113a6821515611ee7565b6113b1815115611f1b565b6113c46113bd42611969565b8411611f4f565b6113d86113d042611979565b841115611f83565b606435926044359233336122c0565b503461000e57600036600319011261000e5760206040516001600160a01b037f0000000000000000000000000000000000000000000000000000000000000000168152f35b503461000e57602036600319011261000e576001600160a01b0361144e610622565b1660005260046020526040806000206001815491015482519182526020820152f35b503461000e57602036600319011261000e5760043580156114d6575b61128961052091600554600052600660205260406000206003604051916114b2836103ab565b80548352600181015460208401526002810154604084015201546060820152612998565b504261148c565b503461000e5760a036600319011261000e576114f7610622565b60243560843567ffffffffffffffff811161000e5761151a903690600401610eea565b90611523611fb7565b6001600160a01b038316600052600460205260406000209260016040519461154a866103d4565b8054865201549360208101948552611563831515611ee7565b600081511315610fea5761157c610e879551421061243a565b606435926044359233612130565b503461000e57600036600319011261000e5760206001600160a01b0360025416604051908152f35b503461000e57604036600319011261000e576001600160a01b036115d4610622565b16600052600760205260406000206024356000526020526020600260406000200154604051908152f35b50634e487b7160e01b600052601160045260246000fd5b9062093a809182810292818404149015171561162d57565b610edb6115fe565b90670de0b6b3a7640000918083029283040361162d57565b8181029291811591840414171561162d57565b503461000e57600036600319011261000e576020604051630784ce008152f35b503461000e57602036600319011261000e5761169a610622565b6116a26117d1565b6001600160a01b0380911690816001600160a01b03196002541617600255600154167f38d16b8cac22d99fc7c124b9cd0de2d3fa1faef420bfe791d8c362d765e22700600080a3005b503461000e57602036600319011261000e576001600160a01b0361170d610622565b16600052600860205260406000205460076020526040600020906000526020526020600160406000200154604051908152f35b503461000e57600036600319011261000e57602060405162093a808152f35b503461000e57602036600319011261000e5760043560005260096020526020604060002054604051908152f35b503461000e57600036600319011261000e5760206040516001600160a01b037f0000000000000000000000000000000000000000000000000000000000000000168152f35b6001600160a01b036001541633036117e557565b606460405162461bcd60e51b815260206004820152602060248201527f4f776e61626c653a2063616c6c6572206973206e6f7420746865206f776e65726044820152fd5b60405190611836826103ab565b60006060838281528260208201528260408201520152565b9060405161185b816103ab565b6060600382948054845260018101546020850152600281015460408501520154910152565b6040519061188d826103d4565b60006020838281520152565b604051906118a6826103f0565b60006080836118b3611829565b81526118bd611829565b60208201528260408201528260608201520152565b60001981019190821161162d57565b9190820391821161162d57565b818102929160008212600160ff1b821416611912575b818405149015171561162d57565b61191a6115fe565b611904565b8115611929570490565b634e487b7160e01b600052601260045260246000fd5b600190600019811461194f570190565b6119576115fe565b0190565b906001820180921161162d57565b9062093a80820180921161162d57565b90630784ce00820180921161162d57565b9190820180921161162d57565b8181039291600013801582851316918412161761162d57565b906000821280151661162d57565b9190916000838201938412911290801582169115161761162d57565b90916119e4611899565b60055493608082019485526001600160a01b038416151580611db7575b611a09610edd565b95600090818852602097828982015242604082015243606082015291815180611d96575b50604083018051908190606086019283518d8690834211611d73575b611a5d62093a80859b9a9998979504611615565b9387945b60ff8610611c5f575b5050505050505050611a9e935090610c489185611a878351600555565b611bf7575b50516000526006602052604060002090565b611aaa575b5050505050565b84610c489381611b5297611b4394019142835111611b9f575b0190815190428211611b5c575b505050611af9611af3866001600160a01b03166000526008602052604060002090565b5461195b565b9283611b18876001600160a01b03166000526008602052604060002090565b5501426040825101524360608251015251936001600160a01b03166000526007602052604060002090565b90600052602052604060002090565b3880808080611aa3565b5110611b6a575b8080611ad0565b611b988280860151015191611b8460608701938451611997565b809352516000526009602052604060002090565b5538611b63565b8186510151611bb3604088019182516119be565b80825283830151855114611bdf575b5051611bd984516000526009602052604060002090565b55611ac3565b87840151840151611bef91611997565b815238611bc2565b808b81611c3a611c338c611c26611c1b868301928780855101519151015190611997565b958b019586516119be565b855251518d515190611997565b88516119be565b9182885281815112611c57575b50501215611a8c57835238611a8c565b528138611c47565b978a9b611c6f829b9c999a611969565b829042811115611d4c5750611c9d9983611ca68193429d8e5b610cac865191610ca68d89019a8b51926118e1565b845285516119be565b9182855281815112611d44575b505012611d3c575b50508694878752611cdb611cd5610ced610ce7858c6118e1565b8661198a565b8952611ce78b5161195b565b808c52428903611d155750505050505050505091610c4891611a9e94934390529091388080808e8180611a6a565b90610d578d610c48611d31946000526006602052604060002090565b949a99989796611a61565b528838611cbb565b52818f611cb3565b9983809250611ca68c611c9d611d6c826000526009602052604060002090565b5491611c88565b9050611d90611d85610da584436118e1565b610db58651426118e1565b90611a49565b611db0919350610ddb906000526006602052604060002090565b9138611a2d565b60208083018051421080611ebe575b611e8e575b818601914283511180611e83575b611e44575b50611df481516000526009602052604060002090565b549160408601928352519081611e0d575b505050611a01565b518103611e2457505160608401525b388080611e05565b611e3991506000526009602052604060002090565b546060840152611e1c565b611e7a611e61611e578951612710900590565b630784ce00900590565b9180880192818451015282510151610ca64286516118e1565b90515238611dde565b506000875113611dd9565b611e9e611e578551612710900590565b8286510152611eb68286510151610ca64284516118e1565b855152611dcb565b506000845113611dc6565b90604051611ed6816103d4565b602060018294805484520154910152565b15611eee57565b60405162461bcd60e51b8152602060048201526005602482015264056453030360dc1b6044820152606490fd5b15611f2257565b60405162461bcd60e51b8152602060048201526005602482015264564530303160d81b6044820152606490fd5b15611f5657565b60405162461bcd60e51b81526020600482015260056024820152642b2298181960d91b6044820152606490fd5b15611f8a57565b60405162461bcd60e51b8152602060048201526005602482015264564530303360d81b6044820152606490fd5b600260005414611fc8576002600055565b60405162461bcd60e51b815260206004820152601f60248201527f5265656e7472616e637947756172643a207265656e7472616e742063616c6c006044820152606490fd5b9061212392917f5e2aa66efd74cce82b21852e317e5490d9ecc9e6bb953ae24d90851258cc2f5c947f193fa1e51a172de243b75f244207219f0fc534504ae9142df54912cc47f5838e6121088251926120d06020820194855195604051938492612076846103d4565b83526020830197885251905161208a610ece565b9182526020820152600354996120a083516119b0565b835280612128575b506120ca8261086d8b6001600160a01b03166000526004602052604060002090565b886119da565b51925160408051600081526020810195909552600390850152426060850152946001600160a01b039081169416929081906080820190565b0390a460408051828152602081019290925290918291820190565b0390a1565b8752386120a8565b9091928051966020820196875192612146610ece565b998a5260208a0193845251975161215b610ece565b988952602089015260035497612171878a61198a565b600355868a5190612181916119be565b8a5289806121a2886001600160a01b03166000526004602052604060002090565b815181556020909101516001909101556121bc91876119da565b7f5e2aa66efd74cce82b21852e317e5490d9ecc9e6bb953ae24d90851258cc2f5c98612253977f193fa1e51a172de243b75f244207219f0fc534504ae9142df54912cc47f5838e9361224a938961226b575b505050519251946040519182916001600160a01b0380911696169442908984606091949392608082019582526020820152600260408201520152565b0390a48261198a565b60408051928352602083019190915281908101612123565b6122b892888b7f00000000000000000000000000000000000000000000000000000000000000007f0000000000000000000000000000000000000000000000000000000000000000612a4f565b38808061220e565b91939496908093865160208801998a51946122d9610ece565b998a93845260208401968752519b516122f0610ece565b9c8d5260208d01526003549a6123068a8d61198a565b60035589845190612316916119be565b845286848615159e7f5e2aa66efd74cce82b21852e317e5490d9ecc9e6bb953ae24d90851258cc2f5c9f6122539e61086d7f193fa1e51a172de243b75f244207219f0fc534504ae9142df54912cc47f5838e9b61224a9b61239b9761239595612432575b50506001600160a01b03166000526004602052604060002090565b8b6119da565b896123dd575b505050519251946040519182916001600160a01b0380911696169442908984606091949392608082019582526020820152600160408201520152565b61242a92888b7f00000000000000000000000000000000000000000000000000000000000000007f0000000000000000000000000000000000000000000000000000000000000000612a4f565b3880806123a1565b52388e61237a565b1561244157565b60405162461bcd60e51b8152602060048201526005602482015264564530303560d81b6044820152606490fd5b1561247557565b60405162461bcd60e51b81526020600482015260056024820152642b2298181b60d91b6044820152606490fd5b156124a957565b60405162461bcd60e51b8152602060048201526005602482015264564530303760d81b6044820152606490fd5b156124dd57565b60405162461bcd60e51b81526020600482015260056024820152640ac8a6060760db1b6044820152606490fd5b1561251157565b60405162461bcd60e51b8152602060048201526005602482015264564530303960d81b6044820152606490fd5b604051906020820182811067ffffffffffffffff821117612563575b60405260008252565b61256b610394565b61255a565b1561257757565b60405162461bcd60e51b8152602060048201526005602482015264056453031360dc1b6044820152606490fd5b6001600160a01b0316600090815260086020526040812054806125c5575090565b6007602052604082209082526020526125e06040822061184e565b908060208301516040840151420302835103808452126125ff57505190565b81525190565b8115612685575b6000906001600160a01b038116825260086020526040822054908115600014612636575050905090565b612653906001600160a01b03166000526007602052604060002090565b908252602052806126666040822061184e565b926020840151906040850151900302835103808452126125ff57505190565b42915061260c565b1561269457565b60405162461bcd60e51b8152602060048201526005602482015264564530313160d81b6044820152606490fd5b604051906126ce826103f0565b60006080838281528260208201528260408201528260608201520152565b6126f84383111561268d565b6127006126c1565b91600091828452612724816001600160a01b03166000526008602052604060002090565b5460208501908152835b608081111561287e575b5050610ddb61275d61276d926001600160a01b03166000526007602052604060002090565b8551600052602052604060002090565b926005549060409261278584830193808552826128f8565b9061279d610ddb836000526006602052604060002090565b9185608060608601958987520195888752518210600014612858576127ca610ddb610c386127eb9461195b565b6127dd60608201516060870151906118e1565b8652015186840151906118e1565b84525b84820151938351612824575b505050506020840151918401519003028251038092528082121560001461281f575090565b905090565b612849926112c361284f96959360606128419451930151906118e1565b90519061191f565b9061198a565b388080806127fa565b50506128686060830151436118e1565b835261287785830151426118e1565b84526127ee565b8551825190818110156128f1576128a461289f6128dc94936128aa9361198a565b61195b565b60011c90565b8560036128ce83611b43896001600160a01b03166000526007602052604060002090565b0154116128e157875261193f565b61272e565b6128ea906118d2565b835261193f565b5050612738565b60009182915b608083111561290e575b50505090565b9091928281101561299257828101808211612985575b6001808201809211612978575b1c9082600361294a846000526006602052604060002090565b015411612963575061295c909361193f565b91906128fe565b93925061297261295c916118d2565b9261193f565b6129806115fe565b612931565b61298d6115fe565b612924565b92612908565b90604082016129b36129ae825162093a80900490565b611615565b906000915b60ff83106129da575b5050505060008151126129d2575190565b600081525190565b6129e390611969565b6000908085811115612a3157505083925b6020860180518451860381028851038852868614612a2957612a2393612a19916119be565b905283835261193f565b916129b8565b5050506129c1565b612a48919492506000526009602052604060002090565b54906129f4565b9294939194604091825195612a63876103d4565b6001600160a01b0380921687526020948886890152845197612a848961040c565b885285880152838701528251612a99816103d4565b308152848101978852612ac7612abb612abb89516001600160a01b0390511690565b6001600160a01b031690565b84516370a0823160e01b80825230600483015290979093918790899060249082905afa978815612c0e575b600098612bef575b501698893b1561000e57612abb612b8798612b3c6000612abb94610edb9e8b9983612b5b998d519687958694859363187945bd60e11b85528b60048601612c37565b03925af18015612be2575b612bc9575b5051516001600160a01b031690565b925190815230600482015291829060249082905afa918215612bbc575b600092612b8f575b50506118e1565b905114612cac565b612bae9250803d10612bb5575b612ba6818361043c565b810190612c1b565b3880612b80565b503d612b9c565b612bc4612c2a565b612b78565b80612bd6612bdc92610428565b80610327565b38612b4c565b612bea612c2a565b612b47565b612c07919850873d8911612bb557612ba6818361043c565b9638612afa565b612c16612c2a565b612af2565b9081602091031261000e575190565b506040513d6000823e3d90fd5b9192612c956104af959460406001600160a01b0394612c6a878251602080916001600160a01b0381511684520151910152565b60208181015188840152910151606087015281516001600160a01b03166080870152015160a0850152565b1660c0820152610100908160e0820152019061045e565b15612cb357565b634e487b7160e01b600052600160045260246000fd5b15612cd057565b60405162461bcd60e51b815260206004820152601960248201527f544f4b454e5f5452414e534645525f4f55545f4641494c4544000000000000006044820152606490fd5b90929160209060446040518094819363a9059cbb60e01b83526001600160a01b03809916600484015260248301526000978891165af18015612dc7575b612d88575b503d8015612d7a57602014612d6a575080fd5b9080602081610edb933e51612cc9565b509050610edb600019612cc9565b6020813d8211612dbf575b81612da06020938361043c565b81010312612dbb575180151503612db75738612d57565b5080fd5b8280fd5b3d9150612d93565b612dcf612c2a565b612d5256fea264697066735822122019fe021d4da9265c1ab981492cded40855e75345c496d726328aa26dcd62def864736f6c63430008110033",
  "linkReferences": {},
  "deployedLinkReferences": {}
}